:400000000080002011000000651900006519000008B5044B1A6803F53F5302331A6001F0C1FC00BFFA46004010B5054C237833B9044B13B10448AFF300800123237010BDBD
:400040005882FF1F00000000786D0000084B10B51BB108490848AFF300800848036803B910BD074B002BFBD0BDE81040184700BF000000005C82FF1F786D0000C880FF1F16
:400080000000000008B501F039FA4FF4165001F0A7F8054B187801F029F9032001F09CF9082001F0D9F908BDCC80FF1F38B50024254606E0002000F087FB03681D4401347B
:4000C000E4B2062CF6D90448A0FB05302D1A00EB5500800838BD00BF254992240A2952D8DFE801F0080606111C28343D4B484E0000207047254BA3FB00235B09642202FBA7
:40010000130398B27047214B83FB0032C317C3EB6213642202FB130398B270471C4B83FB0032C317C3EB223342F2107202FB130398B27047174B83FB0032C317C3EBA203F8
:4001400003EB83035A00831A98B270470F4BA3FB00235B09642202FB130398B270470B4B83FB0032C317C3EB6213642202FB130398B2704700F00F00704700F00F007047F1
:4001800000F00100704743F2390070471F85EB51AD8BDB68676666660A293CD8DFE801F0063B3B0C141C242A353238001B4BA3FB0030C0F34F107047184B83FB0023C01702
:4001C000C0EB631080B27047154B83FB0023C017C0EB233080B27047124B83FB0023C017C0EBA30080B270470C4BA3FB0030C0F34F107047094B83FB0023C017C0EB631055
:4002000080B27047C0F30F107047C0F30F107047C0F34F0070470020704700BF1F85EB51AD8BDB68676666662DE9F04FADF5357D62B601F045FD01F0E5F900F0A1FF01F03C
:40024000C1F9FFF71FFF00F0FFF9FFF72FFF199000F01AFB00F0C2FB01F052FC01F0E8F9002316931C4600E000249F4B1B7853B19BA800F02FFC012805D100229A4B1A7097
:400280009BA800F097FC994B1B781BB30020974B18700134E4B200F097FAD0F80080199BC3EB0803189343681793836803EBC3038F4A82FB0312DB17C3EB620303F54863F6
:4002C0000E9300F033FB00F05BFB00F079FB02F027FC1690072CC8D90921864BB3F90000FFF75AFF0F900921834BB3F90000FFF753FF10900821814B1888FFF74DFF11906D
:4003000009217F4BB3F90000FFF746FF129009217C4BB3F90000FFF73FFF139009217A4BB3F90000FFF738FF14900A21774B1878FFF732FF159006214046FFF72DFF0446FE
:4003400006214046FFF7CAFE05460621189F3846FFF722FF064606213846FFF7BFFE07460621DDF85CA05046FFF716FF814606215046FFF7B3FE824607210E98FFF70CFF08
:40038000834607210E98FFF7A9FE0D90CDF830B0CDF82CA0CDF828900997089607950694159A0592149A0492139A0392129A0292119A0192109A00920F9B169A54491BA805
:4003C00005F06EFF00F032FB00F0F4FB00285CD0504C656800212846FFF7DEFE0F9000212846FFF77BFE1290A56804212846FFF7D3FE109004212846FFF770FE1390E56854
:4004000004212846FFF7C8FE119004212846FFF765FE1490A56905212846FFF7BDFE064605212846FFF75AFE07463B4DD5F814A005215046FFF7B0FE814605215046FFF78C
:400440004DFE8246AD6905212846FFF7A5FE834605212846FFF742FE637C0A930990CDF820B0CDF81CA0CDF818900597049614990391119902911399019110990091129B22
:400480000F9A2649264805F00BFF1BAC204602F073F9244E371D384602F06EF9224D284602F06AF93946204605F01EFF06F18401204605F019FF204605F037FF22182B463B
:4004C00033F8041F9B7821529370184B1C68002C3FF4CAAE1BA805F028FF02461BA9204603F00CFB0024C0E6F295FF1F9695FF1F67666666EE95FF1F9495FF1F1C96FF1F13
:400500001A96FF1FBC95FF1F1896FF1FF195FF1F886D0000C095FF1F9895FF1FC46D0000D080FF1FCC80FF1F7C6D00002096FF1F38B505460C46002002F0C0FA05F07F00CB
:4005400002F0ACFB204602F0A9FB02F06FFC012002F0B4FA002038BD38B504460D46002002F0ACFA02F062FC44F0800002F096FB002404E0002002F091FB0134E4B2AC428B
:40058000F8D3002400E0013402F024FC854202D90B4B9C42F7DD02F0EBFB002405E002F0E7FB084B18550134E4B2AC42F7D3054D00232B55012002F081FA284638BD00BFDE
:4005C0001FA107007482FF1F08B50221FFF7C4FF0378407843EA002008BD00BF10B58820FFF7F2FF174C20808A20FFF7EDFF60808C20FFF7E9FFA0808E20FFF7E5FFE0802E
:400600009020FFF7E1FF20819220FFF7DDFF60819420FFF7D9FFA0819620FFF7D5FFE0819820FFF7D1FF20829A20FFF7CDFF60829C20FFF7C9FFA0829E20FFF7C5FFE082B6
:4006400010BD00BFF495FF1F08B502F07DF902F073FC642001F002FA0121D020FFF77CFF0378582B0FD1FFF7B9FF5321F420FFF75FFF1021F520FFF75BFF4FF4967001F095
:40068000EDF9012008BD002008BD00BF10B40E4C23885900C1EBE001B4F9022002FB01F1C3EB201303FB03F31B13B4F9042002FB03F39B1303EBE120044B186000EB8000C7
:4006C0008030001210BC7047F495FF1F3096FF1FF0B42D4B1A685210A2F57A42941004FB04F4E112294DB5F91060B5F90E3003FB02F35B0006FB0136B5F90C703F0407EBE4
:40070000A606B5F90A30641304FB03F3B5F9081001FB02F2521002EBE3039B1403F50043EA8802FB03F3DB132AD04242A2EB263240F6354101FB02F101F1434202F5A00283
:40074000002A03DB5200B2FBF3F202E0B2FBF3F252000E49B1F91600D30803FB03F35B0B03FB00F09408B1F9143003FB04F35B1303EB2030B1F91230184402EB201000E01D
:400780000020F0BC704700BF3096FF1FF495FF1F08B50621F720FFF7DFFE027843781B0143EA023382781343064AD360C17803791B0143EA013341790B43136102F10C006B
:4007C00008BD00BF7482FF1F70B5044600B90D4CFFF7DEFF06684068FFF758FF05463046FFF776FF231A46F68E5202FB03F3064AA2FB03239B09054A53619061D56102F15E
:40080000140070BDCD8B0100D34D62107482FF1F70B504460D461646002101F039FE284601F092FE01F074FE0121204601F030FE002406E0012001F0B3FE084B1855013456
:40084000E4B22546731E9C42F4DB002001F0A8FE024C605501F05CFE204670BD9482FF1F38B505460C460021282001F011FE284601F06AFE204601F067FE01F049FE32206D
:4008800001F0ECF838BD00BF10B501F019FA01F083FC4FF4967001F0E1F800213D20FFF7DFFF00213E20FFF7DBFF00210720FFF7D7FF10213B20FFF7D3FF21214120FFF7C1
:4008C000CFFF00213F20FFF7CBFF0C213D20FFF7C7FF41F2883001F0B9F900241FE00021282001F0D5FD352001F02EFE01F010FE0121282001F0CCFD002001F051FE044688
:4009000001F006FE01F0EAF940F6C313984203D9012001F0B9FF02E0002001F0B5FF152CDDD9002001F0B0FF10BD00BF10B506221A212820FFF76CFF03780E490B80427890
:4009400003EB02239BB28278C47802EB04220A4C22800279407902EB00220848028003F534639BB20B80B3F5B45F02D3A3F5B4530B8010BD1C96FF1F9495FF1FEE95FF1F1B
:4009800008B5062228210846FFF742FF0378094A1380417803EB012313808378C27803EB0223054A13800379427903EB0223034A138008BD1A96FF1FBC95FF1F1896FF1FA3
:4009C00008B5012234212820FFF722FF03785B00014A137008BD00BFF195FF1F08B501F09BFA012140F2371001F0FCFF02F0EAF8642001F033F80B4801F0D4FA642001F0D2
:400A00002DF80121332001F0EDFF01F00BFA642001F024F8044801F0C5FAFA2001F01EF808BD00BFF46D0000086E000038B501F0C9F931280CD8002038BD244D95F86440AC
:400A4000631C85F8643001F07DF92C4484F8680001F0B8F90028F0D11C4A92F86430B2F86821934207D203F58073184AA2F86A310022114616E0154AA2F86A31F8E7DCB249
:400A80001248204490F86800242803D101341049214403E00A2801D10D4A224401330B48A0F868310948B0F86831B0F86A018342E5D339B142B1054C521A204605F052FCB4
:400AC000204638BD002038BD002038BD9C82FF1F0483FF1F70B506462BE01D4C94F86C5101F030F9254485F8700194F86C311C4494F870210A2A0CD11548002380F8D4313D
:400B000080F86C31314600F5B87005F006FC012070BD0F4991F8D411012904D101330C4A82F86C3105E0242A03D10122084B83F8D42101F047F90028CFD1054B93F8D401CB
:400B4000012802D1002283F86C21013840B270BD9C82FF1F002320E0C25C1ABB242A1AD110B50133DBB2002403E0F2B954400133DBB2C25C2A2A01D0FF2BF6D10133DBB2EA
:400B80000B49184405F002FC05F046FB844214BF0020012010BD0133DBB2FF2BDCD14FF0FF3070474FF0FF3070474FF0FF3010BDF06D000070B50446FFF7CCFF012840F0B2
:400BC0004F82A449204605F0E1FB0446A24905F09AFB002840F05681A04E314605F0D6FB05F01AFB642404FB00F09D4D68609D49002005F0CBFB05F00FFB6B6818446860FD
:400C0000994AA2FB0032C2F387432B70974AA2FB002103EB8302C3EBC202920002EB5132D2B26A709249A1FB001002EB8201C2EBC101C3EB0312120102EB810303EB501306
:400C4000AB703146002005F0A1FB05F0E5FA04FB00F43146002005F099FB05F0DDFA2044844B83FB0032C317C3EB2233824AD268801A824A82FB00120244C017C0EB621089
:400C800042F2107202FB0300A8603146002005F07DFB0378532B02D1AB685B42AB606F4D2946002005F072FB05F0B6FA642404FB00F42946002005F069FB05F0ADFA204436
:400CC0006C4B83FB0032C317C3EB22336A4A1269801A6A4A82FB00120244C017C0EB621042F2107202FB03005D4BD8602946002005F04CFB0378572B03D1594AD3685B42BD
:400D0000D360564D2946002005F040FB05F084FA534C20742946002005F038FB05F07CFA60742946002005F031FB054605F074FA00EB80004000606115F8013C2E2B08D13C
:400D40004649002005F022FB05F066FA6369184460614249002005F019FB044605F05CFA00EB800040003E4B986114F8013C2E2B09D13A49002005F009FB05F04DFA384A28
:400D80009369184490613549002005F0FFFA03784D2B0CD132498A694FF4A97303FB02F3334A82FB0302DB17C3EB62138B612B49002005F0EBFA044605F02EFA00EB80008E
:400DC0004000274BD86114F8013C2E2B09D12349002005F0DBFA05F01FFA214AD3691844D0611E49002005F0D1FA03784D2B0CD11B49CA694FF4A97303FB02F31C4A82FB11
:400E00000302DB17C3EB6213CB611449002005F0BDFA044605F000FA00EB80004000104B188414F8013C2E2B09D10C49002005F0ADFA05F0F1F90A4A138C184410841049C0
:400E4000002005F0A3FA05F0E7F9054B5884012070BD00BFF06D00003C6E0000446E0000C095FF1F486E000083DE1B435917B7D11F85EB51AD8BDB689895FF1F8988888852
:400E80004C6E00007949204605F03DFA002840F0E980774E314605F079FA05F0BDF9642404FB00F0734DA8607349002005F06EFA05F0B2F9AB681844A860704BA3FB002309
:400EC000C3F387432B706E4AA2FB002103EB8302C3EBC202920002EB5132D2B26A706949A1FB001002EB8201C2EBC101C3EB0312120102EB810303EB5013AB703146002095
:400F000005F044FA0378AB713146002005F03EFA05F082F904FB00F43146002005F036FA05F07AF92044584A82FB0032C317C3EB223242F2107303FB02F2801A534B83FBAC
:400F400000130344C017C0EB63101318EB603146002005F01BFA0378532B02D1EB685B42EB60434D2946002005F010FA05F054F9642404FB00F42946002005F007FA05F0AF
:400F80004BF92044404A82FB0032C317C3EB223242F2107303FB02F2801A3C4B83FB00130344C017C0EB63101318324A13612946002005F0EBF90378572B03D12D4A136996
:400FC0005B4213612A4D2946002005F0DFF905F023F900EB80004000264C60612946002005F0D4F905F018F96369184460612946002005F0CBF905F00FF900EB8000A36922
:4010000003EB4003A3612946002005F0BFF905F003F9A0612946002005F0B8F905F0FCF820842946002005F0B1F905F0F5F800EB8000E36903EB4003E3612946002005F0CB
:40104000A5F905F0E9F8E0611149002005F09EF90378572B08D1E3695B42E361012070BD002070BD002070BD012070BD546E0000446E00009895FF1F486E000083DE1B4348
:401080005917B7D11F85EB51AD8BDB68898888884C6E0000F8B50A221749184805F062F900F0C8FD064600271DE000F017FE0546002408E000F012FE281A80B204B2002C42
:4010C00001DC304404B201F0FBFA10B9B4F57A7FF0DDB4F57A7F08DA01F0DCFA18B1074AD0550137BFB2092FDFD94FF6FF7000F0ADFD0248F8BD00BF5C6E00007484FF1FBC
:4011000008B5012001F0C0FBC82000F0A7FC002001F0BAFBC82000F0A1FCF2E710B5044601F03CFB0028FBD1E000044BB3FBF0F0012180B202F018F810BD00BF00366E0127
:4011400008B501F0E9FF01F051FB01F0C5FA002001F0C0FC642000F081FC08BD08B5C82000F07CFC012001F0B5FC642000F076FC01F03CFB01F0B0FA01F0C8FF08BD00BFB4
:4011800008B500F09DFD01F077FA012001F0A2FC4FF4FA7000F062FC01F028FB01F09CFA08BD00BF10B5FFF7CBFF01F01FFB01F093FA094801F0E0FAFFF76CFF0446FFF7F1
:4011C000CDFF02220549204605F0B7F808B9012010BD002010BD00BF286F00002C6F000030B587B00446384A03AB07CA03C31A80FFF7A6FFB4F5165F2BD009D8B4F5166F90
:401200001BD0B4F5965F1ED0B4F5966F42D10EE0B4F5164F29D003D8B4F5964F1FD039E0B4F5614F27D0B4F5E13F2AD032E0274A03AB07CA03C31A702EE0254A03AB07CAAF
:4012400003C31A7028E0234A03AB07CA03C31A7022E0214A03AB07CA03C31A701CE003AB1E4A07CA03C31A8016E003AB1C4A07CA03C31A8010E003AB1A4A07CA03C31A80ED
:401280000AE0194A03AB07CA03C323F8022B120C1A7001E0FFF734FF03A801F06DFAFFF7F9FE0546FFF75AFF002300930193ADF808300A222946684605F054F82046FFF70B
:4012C0002DFF07B030BD00BF5C6E0000686E0000746E0000806E00008C6E0000986E0000A46E0000B06E0000BC6E000010B586B00446344A03AB07CA03C31A80FFF720FFDE
:40130000631EDBB2082B10D82F4B93E803000390ADF8101030348DF8124000238DF813308DF814308DF8153038E0632C1AD8274B93E803000390ADF81010254BA3FB042365
:40134000DB0803F130028DF8112003EB8303A4EB430430348DF8124000238DF813308DF814301BE07E2C19D8643CE4B2194B93E803000390ADF81010154BA3FB0423DB0867
:4013800003F130028DF8112003EB8303A4EB430430348DF8124000238DF8133003A801F0EBF9FFF777FE0446FFF7D8FE002300930193ADF808300A222146684604F0D2FFB3
:4013C00006B010BD5C6E0000306F0000386F0000CDCCCCCC406F000010B584B00446FFF7AFFE601E03281BD8DFE800F002060A12154801F0C1F915E0144801F0BDF911E02C
:40140000134801F0B9F94FF41650FFF7E9FE09E0104801F0B1F94FF49660FFF77FFE01E0FFF76EFEFFF736FE0446FFF797FE002301930293ADF80C300A22214601A804F001
:4014400091FF04B010BD00BFC86E0000D06E0000D86E0000E06E000010B584B00446FFF76FFE601E072825D8DFE800F004080C1014181C20194801F07FF91EE0184801F0E4
:401480007BF91AE0174801F077F916E0164801F073F912E0154801F06FF90EE0144801F06BF90AE0134801F067F906E0124801F063F902E0104801F05FF9FFF7EBFD044638
:4014C000FFF74CFE002301930293ADF80C300A22214601A804F046FF04B010BDE86E0000F06E0000F86E0000006F0000086F0000106F0000186F0000206F000038B54FF4C4
:401500009665002411E02846FFF708FEFFF74AFE68B9C82000F0A2FAB5F5164F01D06D0001E005EB55050134E4B2072CEBD938BD08B501F005FE39E001F0ACF81E4B1B78D4
:4015400043B9FF2806D1012001F09EF901221A4B1A702BE0012B05D1E32803D10222164B1A7023E0022B05D1144B18700322124B1A701BE0032B14D1104B1B78FF2B05D1C6
:40158000E32803D102220C4B1A700FE00B4B587001220B4B1A700020074B187001F074F908BD0020044B187001F06EF901F088F80028C1D108BD00BF7E84FF1FE495FF1F65
:4015C000F095FF1F08B50022024B1A70024801F0A9FD08BDF095FF1F3115000008B501F081FD0122014B1A7008BD00BF9695FF1F08B501F0E3F90122014B1A7008BD00BF0A
:40160000F295FF1F08B50023054A1370054A1370054801F059FD054801F0C2F9012008BD9695FF1FF295FF1FDD150000F115000010B502F003F8FA2000F010FA0D4C0C22DB
:401640002146002002F05CF9204602F02EFA0A490A4802F0F3F80A4C20601A2000F0BCFA084B1870236823B101301A21C0B200F04BFA10BD2496FF1F686F00006C6F000040
:401680002096FF1F3496FF1FFEE700BFF0B40022174611E050F82760F3B226F0FF0608E001EB420511F812406D78A5550132013BDBB2002BF4D10137282FEBD9F0BC704730
:4016C0000D4B1B78DBB203F007010C4A11701B090132137025220A4B1A70022203F6B3031A70122280331A70102258331A704422A3F2E2231A707047CF0100496E5800402B
:40170000CD51004008B50A46002104F0C0FD08BD38B540F23712304B1A8018232F490B70002402310C8058200231087002310A802B4A137001210232118002321370EF2193
:40174000023211800232137040F65F1102321180023213700222234B1A7008224FF040231A70032103F5007319701F4B1B78DBB21E490B701E4B1A8041F25122023B1A8055
:4017800019250CE01B4B1B7803F0010343EA440404F003044FF4F07001F062FD013D0DB1032CEFD115B90320FFF76EFF124B4FF480721A8007221A70002210490A70482031
:4017C000023108701A700222033B1A700C4A137843F03F03137038BD80400040824000408A4000400043004008010049A1460040224200402542004004400040064000409D
:40180000A243004008B504F037FD08BD38B572B63D4A137843F00403137000240CE03B4D630019194A0011462A44084691882858FFF768FF0134E4B2082CF0D900240BE09E
:401840003249A3001819420088188022C16B806BFFF7D8FF0134E4B2002CF1D02C494FF09040FFF713FF2B4A137843F0020313701032137843F002031370274C237843F0E9
:4018800040032370A2F58632513A137843F010031370082221492248FFF7B4FF0A2221492148FFF7AFFF052220492148FFF7AAFF082220492048FFF7A5FF0A221F492048B1
:4018C000FFF7A0FF0A221F491F48FFF79BFF0A221E491F48FFF796FF1E4A137843F0080313701D4D61232B70FFF712FF81232B7001221A4B1A70FFF7E3FE0E2221461848E0
:40190000FFF780FF38BD00BFE84600409C6F0000A400004803500140A04300401C1100480251004024110048C051004030110048CB51004038110048F251004040110048FA
:40194000105100404C110048205100405811004830510040224300400048004004000840B043004008B504F05BFC03680C2B00D1FEE7FEE708B5094B1A681044084BC31AF6
:40198000802B02DC054B186005E004F049FC0C2303604FF0FF32104608BD00BFD081FF1F8899FF1F08B5104E104D16E029686B68AC68002204E051F8040B43F8040B04326A
:4019C000A242F8D1E868002203E0002143F8041B04328242F9D11035013E002EE6D104F025FCFEF721FCFEE7010000006472000008B5104A104B1A60104A136843F40073EF
:401A0000136000230AE0032B03D80D4A52F8231000E00C490C4A42F8231001332F2BF2D90A4B1A780A4B1A70074A0A4B1A60FFF7EDFE08BD0004FA050CED00E014ED00E0AF
:401A400000000000651900000080FF1FBC760040C080FF1F08ED00E001BE704710B5044605E0084B186801F0FBFBA4F50044B4F5004FF6D8034B586800FB04F001F0F0FB05
:401A800010BD00BFD481FF1F08B5034B1B7A00FB03F001F0E5FB08BDD481FF1F70B504460E46074B1D681F2802D90020FFF7D4FF04F01F04103455F8240045F8246070BD31
:401AC00008ED00E038B504460D46072902D90020FFF7C2FF1F2C02D90020FFF7BDFF04F01F0000F1604000F564406D01EDB2057038BD00BF08B501F019FC01F021FC08BDA4
:401B000008B5FFF7F7FF08BD30B583B00C468DF8070001F055FCB4F5006F52D22509A4EB0514A4B201F0F8FC00284CD101230DF107022146402001F06FFC044607282FD1A6
:401B4000234B1B7813F0020FFAD0214B1B7813F0020F06D01E4B1B789B0805D04FF0FF3403E04FF0FF3400E00024E4B9194A537812782946402001F08BFC072816D1144B4D
:401B80001B7813F0020FFAD0114B1B7813F0020F0FD00F4B1B789B0810D04FF0FF340DE0012809D10AE04FF0FF3407E04FF0FF3404E04FF0FF3401E04FF0FF3401F0D2FCE3
:401BC00002E0012400E00424204603B030BD00BF22470040F898FF1F38B5044601F048FB054601F0D7FB04F1804000F500400478E4B201F0DDFB284601F03EFB204638BD89
:401C0000084A137843F0020313701032137843F00203137002F65932137843F001031370704700BFA3430040014B1870704700BF0F4F0040014B188880B27047104F0040C4
:401C4000014B1880704700BF104F0040014B1880704700BF124F004008B5164A137803F0010313700232137803F0FC031370124B1A7802F0CF021A701A7842F030021A705E
:401C80001A7802F0F0021A701A7842F00F021A700A4A137843F0010313704FF6FF70FFF7CFFF4FF6FF70FFF7D1FF0020FFF7BCFF08BD00BF0C4F0040174F00400D4F004008
:401CC00008B5054B1B7823B9FFF7C6FF0122024B1A70FFF795FF08BD7F84FF1F024B1B88024B188880B27047124F0040144F004008B501F0BDFA0E4A137843F02003137018
:401D00000432137843F0100313700A4A042313600021094B197009490B7843F010030B70082307490B60136001F0A6FA08BD00BF9A64004000E100E08084FF1F93640040D1
:401D400080E200E00422194B1A60194A5378DBB29178C9B2D27812F0FF0F01D18B4211D0144AD05CC0B20133DBB2C72B00D900230F4A5370D37813F0FF0F13D000220C4B85
:401D8000DA700FE00C4B1B78DBB213F0200F06D00A4A1078C0B213F01E0F02D102E0002000E000200422064B1A60704780E100E08084FF1F3896FF1F6E6400404964004022
:401DC00000E100E00422144B1A60144B5A78D2B29B78DBB29A4206D1104BDB7813F0FF0F15D0C82014E00D4B5A78D2B29B78DBB29A4205D2094A93785078181AC0B207E0E9
:401E0000064A93785078181A3838C0B200E000200422034B1A60704780E100E08084FF1F00E100E008B501F023FA0B4B1A7842F001021A701A7802F0FE021A7001F01CFA1B
:401E40000421064B1960064B00225A709A70DA701A71044B196008BD9964004080E100E08084FF1F00E100E006490B7803F01F024301DBB213430B70034B18700022034B9B
:401E80001A7070477F640040E481FF1F8084FF1F014B1870704700BF29640040014B1870704700BF3964004008B516490220FFF7F5FD07210220FFF705FE0022124B5A7128
:401EC0000320FFF7D1FF2520FFF7E2FF2520FFF7E5FF72220D4B1A70202204331A700C490320FFF7DBFD07210320FFF7EBFD0622084B1A70472210331A7002224B331A706F
:401F000008BD00BFC91F00008084FF1F8A640040B12000002864004008B5054B9B7923B9FFF7C2FF0122024B9A71FFF7E1FE08BD8084FF1F164B197ADB79DBB2994205D2D6
:401F40005A1E914214BF0022012204E0CA1A312A14BF00220122002AECD1994207D10D4B1B7813F0040F02D10B4B18707047312900D90021094B58540131054B1972054B0F
:401F80001B7813F0020F02D00822054B1A6070478084FF1F63640040476400400097FF1F00E200E038B5074B9B792BB938BDFFF7C1FF0134A4B201E005460024285D002808
:401FC000F5D138BD8084FF1F10B400202E4B1B78DBB213F01E0F05D02C4C03F01E0221780A43227003F0200202F0FF01002A46D0274A1278D4B2274A1278D2B2022A18D123
:4020000013F0010F09D013F0400F03D00122224B1A7002E00022204B1A701F4B1B7813F0FF0F0CD01D4B1B78DBB21D4AD454012005E01A4B1B78DBB2194AD4540120F0B1A3
:40204000184B1B7813F0FF0F02D00122164B1A70124A13780133DBB213701378DBB2C72B02D900220D4B1A700C4B1A78D2B20F4B1B78DBB29A4202D101220A4B1A700029A4
:40208000A4D110BC704700BF6E6400408584FF1F49640040E481FF1F8084FF1F8284FF1F3896FF1F8384FF1F8484FF1F8184FF1F13E0104B1B78DBB2312B02D900220D4B01
:4020C0001A700C4A1378DBB20B49CB5CDBB20B490B7013780133DBB21370064B1B78DBB2074A1278934204D0064B1B7813F0040FDFD070478784FF1F0097FF1F4764004024
:402100008884FF1F6364004010B50223114A137081210E3A11705021023211701132137000240D4B1C704FF400420C4B1A6004210F20FFF7C7FC0A490F20FFF7AFFC10228F
:40214000084B1A70084B1C70084B1C70084B1C7010BD00BFD6490040DC49004080E100E0C12100003297FF1F3A97FF1F4097FF1F3B97FF1F08B501F07BF8064A137843F088
:40218000040313701032137843F00403137001F073F808BDA543004008B5074B1B7823B9FFF7B2FF0122044B1A70FFF7E3FF4FF40042024B1A6008BD8A84FF1F00E100E0CB
:4021C00038B5A54B1C78A54B1B7813F0400F00F03A81E4B214F0010F00F01D819F4B1B78453B052B00F21481DFE813F006008200120112010600DF0004F0DF0504F00A04CB
:40220000082C42D1954B1B78DBB2452B35D1944B1B7813F0FF0F10D0924B1B681B78DBB2914A137004228C4B1A7001228F4B1A7046228A4B1A702C46EDE08D4B1B7813F01E
:40224000020F0DD08B4A137843F00A0313706022824B1A704FF40042874B1A602C46DAE0864A137843F0100313701022844B1A700422023B1A702C46CDE00022764B1A704F
:402280004A22764B1A702C46C5E00A2C2BD1794A137843F0A0031370754B1B7813F0020F14D06E4B1B7813F0080F01D0092300E00A23704A11780B4313706022674B1A70EA
:4022C0004FF400426C4B1A602C46A4E06B4A137843F0100313701022694B1A700422023B1A702C4697E00020FFF7B6FB2C4692E014F0020F36D15D4B1A78D2B2584B1B7828
:40230000DBB29A4210D2594A1378DBB255490968CB5CDBB254490B7004214F4B197013780133DBB2137076E0514B1B7813F0020F0CD0504A137843F00A0313706022474B34
:402340001A704FF400424C4B1A6064E04B4A137843F0100313701022494B1A700422023B1A7058E0424B1B7813F0020F0CD0414A137843F09A0313706022384B1A704FF450
:4023800000423D4B1A6046E03C4A137843F01003137010223A4B1A700422023B1A70354A137843F09003137035E0364A1378DBB2354908682C490978C9B2C1541378013378
:4023C000DBB213701278D2B2304B1B78DBB29A4203D21022204B1A701DE0254B1B7813F0020F0CD0234A137843F00903137060221A4B1A704FF400421F4B1A600BE01F4A74
:40240000137843F0100313700022134B1A7002E00020FFF721FB14F0200F1CD00F4B1B7813F0080F01D0012300E00223114A11780B431370114A137803F0EF0313701022D5
:40244000064B1A7038BD054B1B7813F0100F02D11022024B1A7038BDD74900403297FF1F3997FF1F3C97FF1FD84900403B97FF1F4197FF1F3A97FF1F80E100E0D6490040BA
:40248000D94900404097FF1F3497FF1F3897FF1F1A4B1B78DBB2102B29D1194B1B7813F0080F26D14FF40042164B1A604000C0B229B140F001004922104B1A7002E0452277
:4024C0000E4B1A70104B1870012201331A700F4B1B7813F0010FFAD00C4B1B7803F00A030A2B08D11022054B1A700320704702207047012070470020704700BF3297FF1F5F
:40250000D949004080E100E0D8490040D74900400A4B1B7813F0040F0ED01023074A13700421023A1170064A1370064B1B7813F0210FFAD00020704702207047D9490040AC
:402540003297FF1FD7490040114B1B7813F0040F1BD0104B18700422013B1A7046220E4B1A700E4B1B7813F0010FFAD00B4B1B7813F0020F04D16022074B1A70002070473A
:402580006022054B1A70032070470220704700BFD9490040D84900403297FF1FD7490040114B1B7813F0040F1BD0104B1B78DBB2492B05D100220E4B1A704A220B4B1A703D
:4025C0000B4B1B7813F0010FFAD00A4B1B78DBB218B11021064A117004E06021034A117000E0002318467047D94900403297FF1FD7490040D849004008B572220B4B1A704F
:402600002022013B1A700A490420FFF747FA07210420FFF757FA0622064B1A70472210331A7002224D331A7008BD00BF8A6500402D2800002765004008B500F019FE0C4AFC
:40264000137843F020031370013A137843F010031370053A137843F0100313701023054A1360A2F5C072136000F006FE08BD00BF9A65004080E200E008B5054B1B7823B92E
:40268000FFF7BAFF0122024B1A70FFF7D5FF08BD8C84FF1F084B1B78DBB213F0200F06D0064A1078C0B213F01E0F02D17047002070470020704700BF696500404A650040CB
:4026C000044B1B7813F0200F01D0012070470020704700BF6965004008B500F0C9FD064B1A7842F001021A701A7802F0FE021A7000F0C2FD08BD00BF9A65004010B4194BBC
:4027000099885B889BB2994205D25A1E914214BF0022012206E0CA1A40F28F14A24214BF00220122002AEAD1994207D10E4B1B7813F0040F02D10D4B187010E0B1F5C87F6E
:4027400000D300210A4B58540131064B9980064B1B7813F0020F02D01022064B1A6010BC704700BF8C84FF1F64650040446500404497FF1F00E200E038B5074B1B782BB92E
:4027800038BDFFF7BBFF0134A4B201E005460024285D0028F5D138BD8C84FF1F1022104B1A60104B5A8892B29B889A4212D00D4A528892B2934205D90A4A508880B2181AE2
:4027C00080B208E0074A508880B2181A00F5C87080B200E000201022034B1A60704700BF80E100E08C84FF1F00E100E008B500F03FFD0A4B1A7842F001021A701A7802F020
:40280000FE021A7000F038FD1023054A1360054A002151809180044A136008BD9465004080E100E08C84FF1F00E100E015E0114B1B889BB2B3F5C87F02D300220D4B1A809A
:402840000C4A13889BB20C49CB5CDBB20B490B7013889BB201339BB21380064B1B889BB2074A1288934204D0064B1B7813F0040FDDD070478E84FF1F4497FF1F4465004001
:402880009084FF1F64650040044A137803F0FD03400000F0020018431070704720510040054A137843F0010313701032137843F001031370704700BFA8430040054B1A78FE
:4028C00002F0FD021A701A7800F0020010431870704700BF20580040014B1870704700BF805B0040064B1B78C3F3810303F19243063393F82031DBB2024A1370704700BF9D
:40290000205800400846004008B5064B1A7802F0F3021A701A7800F00C0010431870FFF7E1FF08BD2058004010B50024054B1C7001331C700420FFF7E7FF2046FFF7BEFFE6
:4029400010BD00BF2058004008B5074B1B7823B9FFF7EAFF0122044B1A70FFF7A1FFD420FFF7BAFF08BD00BF9384FF1F014B1B685865704708ED00E04001C0B2014B187029
:40298000704700BF05E400E02022014B1A60704700E100E02022014B1A60704780E100E010B50446FFF7F6FF2046FFF7DFFF0720FFF7E2FFFFF7E8FF10BD00BF2022014B2F
:4029C0001A60704780E200E0014B188880B2704780400040024B187800F00700704700BF8240004070B505460E46FFF7F3FF0446FFF7EAFFA84256D02B4B1B7803F001025F
:402A000094B900B185B938B9284B1D80284A137803F0BF03137070BD254A137843F040031370224B1D8070BD22B3002321490B7001240F310C7004310B700C390B7803F0A4
:402A40007F030B701A4B1B7813F0080F00D08DB9194B18800721013B1970164B1B7813F0010FFAD110490B7803F0FE030B700021104B19700C4B1B7813F0010F0DD00E4BF3
:402A80001D800EB1032200E001220A4B1A70094B1B7813F0010FFAD170BD044B1D8002490B7813430B7070BDA243004080400040824000400140004002400040044A137806
:402AC00003F0EF03000100F01000184310707047C0510040044A137803F0BF03800100F0400018431070704710510040024A137843F080031370704777640040014B1870E5
:402B0000704700BF8D640040014B1878704700BF6D640040014B1880704700BF18680040024B1B78024B188880B270470C64004098680040014B188880B2704798680040B6
:402B4000014B1880704700BF58680040014B1880704700BF7868004008B501E0FFF7EAFFFFF7D2FF10F0400FF8D108BD08B5134A137803F0F80343F001031370137803F095
:402B8000FC031370FFF7E8FF4FF6FE70FFF7D8FF0020FFF7BFFF0020FFF7B0FFFFF7B4FF8020FFF7D3FF00F063FB054A137843F01003137000F060FB08BD00BF77640040B1
:402BC0009D64004008B5054B1B7823B9FFF7CEFF0122024B1A70FFF789FF08BD9484FF1F0222014B1A60704700E100E00122014B1A60704700E100E008B500F039FB0C4AE8
:402C0000137843F0200313700332137843F010031370FD32137843F01003137000F02CFB00F010FBFFF7DCFFFFF7E0FF08BD00BF986400400222014B1A60704780E100E0CA
:402C40000122014B1A60704780E100E010B5FFF7F1FF064B1C78064A137803F009031C4300231370FFF7BCFF204610BD6B640040D498FF1F10B5FFF7E3FF064B1B78064AB6
:402C8000147804F040041C4300231370FFF7AEFF204610BD68650040E998FF1F10B504462B4B1A7802F0FF0312B1013BDBB200E00B23284A1278D2B29342F1D0FFF7BAFF5F
:402CC000254B1978254A137803F009030B4313701F4B1A78D2B21F4B1B78DBB29A4207D11E4B1B7813F0040F02D01D4B1C702CE0184A13780133DBB213701378DBB20B2BE8
:402D000002D90022134B1A70124B1A78D2B2104B1B78DBB29A420ED10D4A13780133DBB213701378DBB20B2B02D90022084B1A7001220C4B1A70074B1B78DBB20A4AD454C5
:402D40000A4A137843F004031370FFF749FF10BDEA98FF1FE898FF1F6B640040D498FF1F4B640040E498FF1FD898FF1F8B64004010B5FFF765FF134B1A78D2B2124B1B780C
:402D8000DBB29A4214D0114B1B7813F0FF0F0CD10C4A13780133DBB213701378DBB20B2B06D90022074B1A7002E00022074B1A70044B1B78DBB2064AD45CE4B2FFF716FF29
:402DC000204610BDE798FF1FE598FF1FE698FF1FEC98FF1F10B5FFF733FF124B1A78D2B2114B1B78DBB29A4216D00E4B1A78D2B20D4B1B78DBB29A4206D20B4B1B78094AB5
:402E000014781C1BE4B208E0074B1B78054A14781C1B0C34E4B200E00024FFF7E7FE204610BD00BFE798FF1FE598FF1F08B501E0094B1B78094B1B7813F0200FF8D1FFF71E
:402E4000FFFE0023064A1370064A1370064A1370FFF7CCFE08BD00BF5B64004068650040E698FF1FE798FF1FE598FF1F08B501E00A4B1B780A4B1B7813F0200FF8D100F03C
:402E8000F7F9084B1A7842F001021A701A7802F0FE021A7000F0F0F908BD00BF5B640040686500409B64004010B50F22174B1A70174C0223236007210120FEF703FE15493E
:402EC0000120FEF7EBFD0123236007210020FEF7F9FD11490020FEF7E1FDFFF7C7FF00240E4B1C700E4B1C700E4B1C700E4B1C700E4B1C700E4B1C70FFF7A8FEFFF7BAFE25
:402F00000C4B1C702022FD331A7010BD8864004080E100E0552F0000F52F0000E698FF1FE798FF1FE598FF1FE498FF1FEA98FF1FE898FF1F8B64004008B5054B1B7823B979
:402F4000FFF7B2FF0122024B1A70FFF755FE08BD9584FF1F28E01F4B19781F4A137803F009030B431370137813F0040F24D01B4B1B7813F0FF0F0CD1194A13780133DBB279
:402F800013701378DBB20B2B06D90022144B1A7002E00022114B1A70114B1B78DBB2114AD35CDBB2104A13700D4B1A78D2B20F4B1B78DBB29A42CED1094B1A78D2B20B4BD9
:402FC0001B78DBB29A4204D1094A137803F0FB03137070476B640040D498FF1FE498FF1FEA98FF1FD898FF1F4B640040E898FF1F8B640040204B1A7820490B7803F04003BB
:4030000013430B7032E01E4B1A78D2B21D490B780133DBB20B700B78DBB20B2B02D90021184B1970174B1978C9B2174B1B78DBB299420ED114490B780133DBB20B700B7892
:40304000DBB20B2B02D900210F4B197001210F4B19700C4B1B78DBB20D49CA54064B1A7806490B7803F0400313430B70034B1B7813F0200FC7D1704768650040E998FF1FF4
:403080005B640040E598FF1FE798FF1FE698FF1FEC98FF1F014B1B68D865704708ED00E04001C0B2014B1870704700BF07E400E08022014B1A60704700E100E08022014B6D
:4030C0001A60704780E100E010B50446FFF7F6FF2046FFF7DFFF0720FFF7E2FFFFF7E8FF10BD00BF8022014B1A60704780E200E0014B1B689865704708ED00E04001C0B257
:40310000014B1870704700BF06E400E04022014B1A60704700E100E04022014B1A60704780E100E010B50446FFF7F6FF2046FFF7DFFF0720FFF7E2FFFFF7E8FF10BD00BF20
:403140004022014B1A60704780E200E0014B188880B2704788400040024B187800F00700704700BF8A40004070B504460D46FFF7F3FF0646FFF7EAFFA04257D02C4B1B7815
:4031800003F00403DAB296B900B184B938B9294B1C80294A137803F0BF03137070BD264A137843F040031370224B1C8070BD22B3002322490B7004260F310E7004310B7048
:4031C0000C390B7803F07F030B701B4B1B7813F0080F00D08CB91A4B18800721013B1970164B1B7813F0010FFAD111490B7803F0FB030B700021114B19700D4B1B7813F0F6
:40320000040F0DD00E4B1C800DB1032200E001220A4B1A70094B1B7813F0010FFAD170BD044B1C8002490B7813430B7070BD00BFA2430040884000408A40004001400040C4
:4032400002400040054A137843F0080313701032137843F008031370704700BFA24300400230800803D000BF01380046FCD17047EFF3108072B6704780F31088704700BFE7
:4032800010B500F09DF800F047F9D0B900F086F90446072812D102E00120FEF7F5FB0A4B1B7813F0020FF7D0074B1B7813F0020F04D0054B1B789B0800D1002400F052F912
:4032C00000E00424204610BD2247004010B500F077F800F021F910BB012000F0FFF8072818D102210F4800F07DF802280AD102E00120FEF7C9FB0C4B1B7813F0020FF7D06C
:40330000002409E0084B1B7813F0020FE9D04FF0FF3401E04FF0FF3400F024F900E00424204610BDF898FF1F2247004008B5FFF7A7FF034610B9FFF7C9FF0346184608BDD4
:4033400008B5FFF795FF0F4A137843F0080313701032137843F008031370C8220A4B1A700A4A137843F0100313701032137843F010031370064B1B7813F0200FFAD0FFF7F6
:403380007BFF08BDA043004001470040AC43004000470040054A137843F001031370034B1B7813F0020FFAD0704700BF02470040024A137803F0FE0313707047024700408D
:4033C00008B5FFF755FF064A137843F0080313701032137843F008031370FFF74DFF08BDA043004070B506460D4600240CE00120FEF74AFB064B1B7813F0010FF7D0054B35
:403400001B7833550134E4B2AC42F3D3204670BD224700402047004030B43E2801D81F2B03D93F2827D90F2B27D8174C247814F0020F24D0154CB6252570D4252570012599
:4034400025700234247814F0020F1AD10F4C2070C1F300202070C9B22170591EC9B22170002104E0545C094804700131C9B29942F8D3072006E0012004E0012002E0042001
:4034800000E0092030BC7047224700402047004030B4104C247814F0020F15D00E4CB6252570D8252570052525700234247814F0020F0BD1084C2070080A2070C9B22170CA
:4034C00022702370072002E0042000E0092030BC704700BF22470040204700400C4B1B7813F0020F0FD00B4BB6221A70E1221A700E221A7002331B7813F0020F05D1054BE1
:40350000187007207047042070470920704700BF224700402047004010B5FFF7A9FE0F4B1B78A3B901220D4B1A700D4B1B6813F0010F0ED00A4A136823F00103136000BFC7
:4035400000BF00BF0122054B5A60002402E0042400E00024FFF790FE204610BD9884FF1F0400084008B5FFF783FE0A4B00221A705B68012B0AD1084A136843F001031360BB
:4035800000BF00BF00BF0022024B5A60FFF774FE08BD00BF9884FF1F04000840074B1B7813F0020F08D0064BB6221A70E0221A700D221A7007207047042070472247004008
:4035C00020470040094B10B5D8689A68002308E0114652F8084B1CB901230B60486810BD01338342F4D3002010BD00BFFC98FF1F084B30B50022DC689B6808E05D6819461E
:403600000833854202D100230B6030BD0132A242F4D330BDFC98FF1F01230373704700230373704710B1002282720260704718B1027B0AB1013A02737047000038B501F0E6
:4036400077FD20B3124C4200E260000101F064FD238AA060E068584301F05EFDA568E168228A002304E005EBC3046060013380188B42F8D3102001F04FFD054C6061282047
:4036800001F04AFDA37CA06143F00203A37438BDFC98FF1F38B510220D460021044601F06DFCFFF78FFF08B9013038BDA0604FF0FF33002065602360A07338BD38B5104BF1
:4036C0009C69217B59B921606160A16004F11000142201F053FC237B013323730DE0656A45B9282001F002FD606218B12946282201F044FC646A002CE3D1204638BD00BFC2
:40370000FC98FF1F38B50E4B5C69A17AE56839B92046102201F032FC0123A372E5600CE045B9102001F0E2FCE06018B12946102201F024FCE468002CE7D1204638BD00BF4F
:40374000FC98FF1F2DE9F74F06460020884691469B469DF830A09DF83470FFF7AFFF054608B9044610E0FFF7CDFF044660B180F80B900560AE604046214652463B46CDF853
:4037800000B001F03BF930B12046FFF74BFF2846FFF74DFF00242046BDE8FE8F2DE9FF410C461F4604A9002341F8043D15469DF8286000F0D5F88046B8B1039B0BB11B7899
:4037C0009BB1404600F055F900280EDD14F0150F01D0032809D1039939B1404622462B4600970196FFF7AEFF00E0002004B0BDE8F08100002DE9F3410646884600240E4D45
:40380000404655F83410E70001F0EEFB10B9002C04DA0DE001340F2CF1D109E07D19A87929790090EA796B793046FFF7B7FF00E00020BDE8FC8100BFE06F0000FFF7DABFC4
:4038400010B5437B04460BB1012010BD40682168A268A37B01F033FD10B10120607310BD207310BD10B5437B044663B9037B53B140682168A268A37B01F021FD08B10123C5
:4038800063730023237310BD036870B5994204460D46164607D0037B0BB1FFF7E3FF00232560A673E37370BDFFF7DCBF10B50446FFF7D8FFA068BDE81040FFF799BE012340
:4038C0000373FFF7CFBF10B50446407B08B1012010BDE37B5BB960682168A268A37B01F088FC10B10120607310BD0122E27310BD08B5436813B94FF0FF3008BD984708BD2B
:40390000F8B50C4617460023144D01E0ED6D01338342FBDB2B6828791B68984706460CB92046F8BD01F06DFB0530B84214DC22460020335C013223540130315C0029F8D1F2
:4039400013464FF03A0C03F801CB2C7903303034547083F801C09970F8BD00BF1899FF1F2DE9F0470F463A21064601F06CFB044610B93446174D27E00378C6EB000A5BB13F
:4039800014F8013F43B162783A2A05D1A3F130085FFA88F8023401E04FF000080D4D2B6828791B689847814601F02BFB504508D148463146524601F02CFB10B92B794345CA
:4039C00002D0ED6D002DEAD107B13C602846BDE8F08700BF1899FF1FF8B5174C064694F85B10E56D69B960220127204601F0C6FA84F85B70E5653046FFF77AFF00280EDA39
:403A000018E045B9602001F071FBE06518B12946602201F0B3FAE46D002CE0D10AE0074B2660DA6F0132DA670323207184F85B7084F85A302046F8BD1899FF1FFC98FF1FC9
:403A4000FFF7CABF38B504460D4601F0A0FB08B9013838BD204601F0ADFB204601F046FD204600F0F5FC08B184F8595094F8590038BD90F8593023B990F85A1009B1FFF79B
:403A8000E1BF1846704710B590F8592004463AB931B1FFF7D7FF002802DC4FF0FF3010BD94F8590010BDFFF7EEBF10B50021FFF757FF08B9013010BD0321BDE81040FFF70A
:403AC000F2BF30B51346BAB1B0B10268857A0AB1946804B900247DB172B16CB1C27A12F0100204D14FF6FA730381104630BD1A46BDE8304001F04EB9002030BDFFF7E1BFEE
:403B00000C2802D0102805D102E001EB510070474800704788007047036840689B685B6AB0FBF3F0704710B5046D836CE4B199421AD3E318994217D2013B99420CBF4FF0DB
:403B4000FF31013172B190F836300C2B02D0102B05D102E00905090D03E089B201E021F070411160012010BD002010BD40F6F473984201D80C2070474FF6F473984294BF99
:403B8000102020207047027F8368023902FB01307047431EDBB21F2B13D92F2811D007D826280ED002D8222809D10AE02A3804E03A2804D33F2804D95B38022801D9012088
:403BC000704700207047034638B30B2A01DD0B2200E0013A00201CE0082809D191F808C0BCF1200F0DD04FF02E0C03F801CB08E038B991F800C0BCF1050F02D1ACF1200CB9
:403C000004E011F800C0BCF1200F01D003F801CB01309042E0DB00221A7070472DE9F04788B005AE04460D463046114600229A469DF84490BDF84C80BDF8507000F01EFD34
:403C400008B1002413E020462946524600F00FFE044660B1129B31460093109A4B46CDF80480029700F0C6FF2846FFF7D5FC204608B0BDE8F08710B59DF80C400394BDE8D5
:403C8000104000F0D9BD00002DE9F04F144E87B0109DDDF848809DF84440376800950194CDF8088005937F68934682468946B84732680C4BDDF814C09A420DD060B95046D7
:403CC00049465A46634610951194CDF8488007B0BDE8F04FFFF7CFBF07B0BDE8F08F00BFE881FF1F8870000070B5C37A04460B7010300D4601F0D6F9064604F10E0001F023
:403D0000D1F940EA0640686004F1120001F0CAF90004A86004F1180001F0C4F9064604F1160001F0BFF940EA0640E86004F11C0001F09FF9286170BD2DE9F845038A0446CD
:403D40000E46924687692BB907F118002146626900F064FC38465146224600F0E7FC0546204600F065FCD5B12B78C3B1E52BF1D095F80B80B8F10F0FECD018F00808E9D184
:403D800070692946B269FFF71EFF28463146FFF7ABFF238A404601332382BDE8F8854FF0FF30BDE8F8850222FFF76EBD2DE9F04790F8366005460C46304611469146FFF763
:403DC0009FFEB5F81E80AB6A20FA08F89845824602D30020BDE8F0876B8E05F118079844204641463A46FFF7DEFF2046FFF76BFD18B14FF0FF30BDE8F087AA8BA168013A3C
:403E00000AEA020A1FFA8AFA92450AEB01031AF8015001D0013309E0204608F101013A46FFF7C1FF2046FFF74EFDA36818780C2E45EA002009D0202E0FD15D7840EA054017
:403E40009D7840EA0560BDE8F08719F0010F02D00009BDE8F0870005000DBDE8F08700002DE9F34190F83630144603FB02F7828B8846D200511E0F40D71B0546B7FBF3F777
:403E8000002618E00E4B93F88030022B05D12846214601AAFFF747FE28B9284641462246FFF784FF0190019B0134A34205D10136B6B2013F1C46002FE4DC3046BDE8FC81F6
:403EC000FC98FF1F2DE9F34105460E46144698461F681CE0114B93F88030022B05D12846214601AAFFF71FFE28B9284631462246FFF75CFF0190737B0BB100240BE0AA6B61
:403F0000019B0132934204D81BB1013F1C46002FE0D1C8F800702046BDE8FC81FC98FF1F73B504680E4623681BB9FFF7F5FD013039E0FFF7F1FD236998423CBF4FF0FF331A
:403F400023612369B3F1FF3F04D12268013323616261E3832169E28B451A954234BF2B4613463BB16069C918C018D21A60612161E283ED1A0DB9284615E002AB43F8045DAA
:403F800031466269A068FFF79DFF6061019B21690246C91A4D19256123B9A0683146FFF75FFFE08301987CBD13B502AC44F8043D2346FFF787FF019B002B18BF00201CBDD4
:403FC0002DE9F0410746884615461E460024384641462A460123FFF7E7FF30B1BA6B0134944201D80546F2E7002406B134602846BDE8F0812DE9F74F04460D461E4617464C
:40400000002A00F0B98090F836001146FFF778FDB4F81EA0A36A20FA0AFA9A45814680F0AB80638E04F118089A44284651464246FFF7B9FE2846FFF746FC6B7B002B40F0D2
:404040009B80A38BAA68013B09EA03091FFA89F303EB020926B9216C8F4203D2276401E0791C216494F8361010290AD0202911D1484600F0FEFF31460746484601F004F8BA
:404080004EE0484601F00EF8B1B20746484601F005F845E0284600920193FFF7BDFA009A019B17F0010F13F802B01BD00BF00F0141EA06119954A28B013A934202D009F183
:4040C000010309E028460AF101014246FFF76BFE2846FFF7F8FBAB681F7832093F0147EA1B171CE09E54A28B013A934202D009F1010309E028460AF101014246FFF753FE84
:404100002846FFF7E0FBAB681A78310A02F00F0701F00F0122F00F024BEA07270A431A702846FFF779FA94F83630202B18D1B4F84620AAB9B4F844102846FFF7A5FB284616
:40414000FFF7C1FBA8684FF0FF3100F5F47000F09BFF2846FFF760FA4FF00103A4F84630E36BB3F1FF3F09D00FB10133E3632EB1E36B013BE36301E0012000E00020BDE87F
:40418000FE8F6FF07043FFF735BF70B5036D04460E4693B1002506E0AA1820463146531CFFF728FF0135236DA26C013B9D42F3D320463146AA18FFF7E4FF0023A3642365EA
:4041C000E364636570BD70B506460D461C460AB1FFF710FF304629462246BDE87040FFF7D0BF00002DE9F84504460E4615461F46002B36D01C4B93F88030022B31D190F83B
:40420000368011464046FFF77BFCB4F81CA00AF1FF3A2AEA000A4FEACA0ABAFBF8FAAA44A8460EE0204631464246FFF7BFFD50B9A36C0BB9C4F84880E36C08F1010801334A
:40424000E364D045EED9E36C5BB167653B685A6922B1204631462B46FFF7CCFE236D01332365BDE8F88500BFFC98FF1F2DE9F8459846274B054693F880300F46022B1646C7
:40428000846B19D1436D984503D0C36C0BB1FFF77CFFB8F1000F0FD06B6D43450CD12B6DEA6C9A4204D9AC6C1C1901332B652CE028463946FFF769FF012E04F1010A01D97D
:4042C000564505D92E6C012E01D9564500D902263446284639462246FFF768FD50B101345445F6D902240DE0284639462246FFF75DFD30B92846394622464346FFF772FF58
:4043000003E00134B442EFD300242046BDE8F885FC98FF1FF8B507460E461546FFF7A6FF044628B1384631462A462346FFF74BFF2046F8BDB2F1FF3F73B504460D4614D035
:40434000561A013611D0FFF7AFFA084B00211A8AA06800F013FE022300936068A3682946324600F087FF0023E3737CBDFC98FF1F2DE9F84F984690F8363004460C2B0D46AC
:4043800016465AD04FF0FF3AD1463CE094F836003146FFF7B5FBB4F81CB0678E0BF1FF3B10EA0B0BE38B1DD1D840013F3F18022228463946FFF768FAA38BAA689B0852F899
:4043C0000B1079B9013B0BF1040BF8D13BE0494628465246FFF7AEFFB946BB462846FFF71EF9DA462946324601232046FFF7DCFD29460746324620460023FFF7FBFD2FB1A7
:4044000008F1FF383E46B8F1000FBFD1284649465246FFF78FFF13E02946324601232046FFF7C2FD29460746324620460023FFF7E1FD2FB108F1FF383E46B8F1000FEBD1B5
:404440004046BDE8F88F0AF1010B5F45BFD1C5E72DE9F8450546FFF7B5F8044608B90546D0E0284600F032FF684E338A834208D338B10021284622460B4600F0BAFE0028B9
:4044800004DA2046FFF7B4F80025BBE004F5FF7000F008FE4AF65523984240F0AD8004F10B0000F0FFFD10F47E4F074600F0A480338A8342C0F0A080237C022B40F09C8081
:4044C00094F80D80B8F1000F00F096800021402205F1180000F052FD04F1130000F0E2FD064620B904F1200000F0C3FD064604F1160000F0D7FD824680B904F1280000F02B
:40450000D1FD10F08F0F77D104F1240000F0B1FD824604F12C0000F0ACFDE862022385F83530C5F828A0AE6185F8348004F10E0000F0B8FD688604F1110000F0B3FD95F8AF
:4045400035206B8E288602FB0A3A7A0992B2B0FBF2F25244AF832A62092301219940B94201D1EB8302E00133102BF6D108FB07F7B61AB6FBF8F6AE636F623046FFF7F6FA2C
:40458000202818BFC5F82CA04FF0FF33202885F83600EB6332D104F1300000F083FD00230146A5F844002246284600F022FE002822DB204600F05DFD804604F5F27000F0EA
:4045C00058FD074604F5FE7000F053FD104B984514D1104B9F4211D10F4B98420ED104F5F67000F046FD286404F5F47000F041FDB04203D8E86301E0002500E001252046F1
:40460000FEF7F6FF2846BDE8F88500BFFC98FF1F5252614172724161000055AA00238B60837F202B01D102B942694A600A60704783680133836070472DE9F0410C462021D3
:4046400005461F469DF818604FF0000800F096FC10E014F8080036B9E52804D1B8F1000F01D1E03802E000F0E7FCC0B205F8080008F10108B845ECDBBDE8F0812DE9F745E3
:4046800006460D4608462849002A14BF92464FF0FF3A00F0A9FC804650B930462946022200F03BFEB01C2021092200F067FC37E04FF0FF34002715F80780B8F1000F01D061
:4046C000574505D1B4F1FF3F08BF3C4664B925E04046FFF75EFA08B3B8F12E0F08BF3C4601370D2FE7D119E0082C17DC3F1B042F14DC30462946082223464FF00008CDF8EF
:404700000080FFF799FF0123611C009306F10800691803227B1EFFF78FFF01E04FF001084046BDE8FE8500BF987000002DE9F74FD2F808B0436A4FEA4B18B8FBF3F8D368D7
:40474000054698450E461446D2F8009001D20023D360B5F81EA0E368AAF1050A0BB9D4F804902BFA0AF7B9F1000F17D095F83420B8EB0303019206D04A4628463146FFF738
:4047800013FC814640B3494605F11800FFF7FBF9019B591E01EA0707C11906E02B8E43FA0AF39F4218D2E96A79183046C4F80090C4F80C800122FFF767F83046FFF783F8D2
:4047C00050B9013000FA0AFAB3680AF1FF3A0AEA0B0B03EB4B1000E00020BDE8FE8F2DE9FF4107460E4601A811461A460A9D9DF82C40FFF743FFC8B9384631462A46FFF79A
:4048000095FF8046A0B1037883B101A90B2200F0A5FB38B998F80B3004EA0302A24201D1082B05D12846FFF703FFE5E74FF00008404604B0BDE8F0812DE9F04587B002AF4D
:4048400004460E46154698469DF83CA039460E9A1830FFF7E3FE204631462A4643460097CDF804A0FFF7BBFF07B0BDE8F0852DE9F04500F1180785B005460C4638466946F9
:404880009246FFF7CBFE284621466A46FFF74EFF06466846E846FFF7CBFE002E37D1BAF1000F02D12B8E002B35D12146009A00232846FFF785FB2146024600232846FFF7C7
:4048C00029FD80462046FEF7FAFFB8F1000F22D0AA8B0021A06800F051FB38464146FFF752F995F8347000257E1E361808E0314620460122FEF7C8FF2046FEF7A1FF013ED0
:4049000001357B1BB3F1FF3FF1D1A66803E033780BB1E52BB7D1304605B0BDE8F08538B504461A3000F0BEFB054604F1140000F0B9FB45EA004038BD2DE9F0451D4685B069
:4049400007460E462A6010465C21904600F07BFB4FF0000A0446A04508D108F10108C5F8008040465C2100F06EFB044694B1C8EB0403002B0EDD10220192103A0292384691
:4049800031464246CDF800A0FFF77EF970B1FFF7C6FF824628685C2100F055FBA04604460028D8D10C9B0130C3F800A005B0BDE8F085F8B505460C461E461746DAB16FF03D
:4049C0001A0313700846FEF727FE16B94FF47A7608E007F11C0000F04CFB6B6A5E1E3618B6FBF3F63846FFF79AFF2146024633462846FFF7BDFC607BF8BD00002DE9F04F0A
:404A0000D1F8008093B0D8F808700BAD044608930E464FF0FF333946284609920F939DF870A0FEF737FE10AB009338462946224611ABFFF781FFD0B1F27A109B07920FAA88
:404A400000930292002338462946119A0193FFF71BF9044680B1C37A13F0100F07D10D9BDDF82CB0C3EB00094FEA691906E02846FEF71CFF0125A3E083468146099B002BCD
:404A80003CD0002C33D0524B5D6912E02B687BB1AA7A6AB19A8B4A450AD19A695A4507D19B68BB4204D14FF6F772328100257EE0ED68002DEAD10DF12C0C614638462246A6
:404AC0000123CDF818C0FFF774FFDDF818C018B14FF0FF3333816AE03E4B1B68DC6824B138466146109A0F9BA0472C4606E0BAF1000F03D1089A002A44D065E0089BEBB1D8
:404B0000CCB1E37A13F0010F0BD0079A12F0150F07D04FF6FA733381BAF1000F01D1012500E000252046FFF7FAFE074604F11C0000F09FFA29E0BAF1000F45D0BAF1010F24
:404B400001D000251BE0ECB900F000FD214B20221B68019282B2000C03920490009402949D6838460BA9119A109BA84750B10D9ADDF82CB0C2EB00094FEA6919254628463C
:404B80002F4602E00125002007464FF0FF33C8F81030C8F818B0A8F81C90079AC8F8040012F0010308BF1846C8F800707060B6F908300BA835EA230528BF0125FEF776FEDF
:404BC000284613B0BDE8F08F01255046DCE700BFFC98FF1FE881FF1F70B505460C461A3089B200F05BFA05F11400210CBDE8704000F054BA2DE9F0470446BDF824700D46A0
:404C00009146002120229A46BDF82860DDF8208000F0B4F90B222046294600F07EFB04F10E00394684F80BA000F038FA04F11000314600F033FA04F11600394600F02EFA9A
:404C400004F11800314600F029FA20464946FFF7C3FF04F11C004146BDE8F04700F014BA07B5426803460AB910460AE081680020009048681968DB6800F0DAFA003818BF2C
:404C800001200EBD2DE9F047046805460F46A668FFF746F981468246002841D0D4F80080B8F1000F1BD14246304639462B46FFF7DDFA0246D8B11C4B6061C4F8108093F829
:404CC00080302060022B07D030463946FFF759FA10B10120BDE8F087B9F1010A20D03046394662692B46FFF7C1FA804628B94FF6FE732B810130BDE8F0870B4B93F88030D6
:404D0000022B05D03046394662694346FFF75BFA2369C4F8148001332361BAF1010ADDE70020BDE8F08700BFFC98FF1F2DE9F041836804460D4608460122A1699E8BFEF7BA
:404D4000A3FD2846B4F81C80AF68FEF7BCFDF8B9013E06EA4816B6B2BE1906F11C00616800F092F921683046FFF736FF00F0EEFB0446A1B206F1160000F090F906F118000F
:404D8000210C00F08BF92846BDE8F041FEF797BDBDE8F08103682DE9F04F9F68038995B001339BB2012B04460E46059201D90025CEE0394610AD0CA8FEF76CFC394628464E
:404DC000FEF768FC039626680023D6F808909A4609F118010791D9F82420059906924FF0FF32099308920A950291049320460CA9FFF748FF38B108A8FFF732FF554600288A
:404E000018BF00258FE03269069901324A43B9F81CB063680BF1FF3BD21A0BEA030B029B0798934228BF134601937169FEF7ABFE99F83430B9F81C206768013BB7FBF2F7BB
:404E400003EA0707C719B9F81C300199CBEB03058D4228BF0D469D4228D0BBF1000F03D1626873689A420FD00DF14008404639460022FEF709FD4046FEF725FD20B14FF618
:404E8000F9725546228154E01298039958442A460DF1400800F041FA404639460022FEF7F3FC4046FEF7CCFC90B141E0099B089A9A1897420AD008A8FFF7D2FE002837D151
:404EC00001230993039B08970B9301E001330993029B03995B1B019A029363684919521BAA44ED186560736803919D42019207D91BB1194B93F880300BB9012104917560B9
:404F0000019A1AB101374FF0000B9CE7029B002B7FF46CAF08A8FFF7A3FE04995546002818BF002529B1304610A9FFF7FFFE00E05546059A954205D0B4F9083013B94FF655
:404F4000F87323810CA8FEF7B1FC10A8FEF7AEFC284615B0BDE8F08FFC98FF1F10B5002308E0C45C11F803C0013A0133644501D0012010BD002AF4D1104610BD70B5034659
:404F800002E003F8011C013A1C4622B103F003050133002DF5D193081ED04FF001354D4308E044F8105C44F80C5C44F8085C44F8045C043B032BA44604F11004F1DC1C46D8
:404FC000002603E04CF80650013B0436002BF9D102F003020CEB8404002302E0E154013A0133002AFAD170BD002310F803C0CA5C624501D0012070470133002AF5D1104684
:405000007047002300E00133C25C002AFBD11846704710B500230BE0C45C11F803C0644501D0012010BDC4186478013314B1013A002AF1DC002010BDA0F16103192B98BFD2
:4050400000F0DF007047C9B203E00BB918467047013003788B42F8D1704742780178431C42EA01205A789B7842EA002043EA002070478378C27803EB0222437803EB022252
:40508000037803EB0220704703460A0A03F8011B42700A0C090E5A70997070470170090A417070474278037843EA022070470000094A0A4BC11C10B5146821F0030118684F
:4050C0000919814201D9002010BD11609A685868013220189A6010BD8099FF1FA084FF1F08B5FFF7E5FF00B9FEE708BDFFF7E0BF30B1044A9368013B93600BB9024A1360BB
:40510000704700BFA084FF1F8099FF1F014B586019607047A084FF1F38B50546FFF7E0FF002104462A46FFF729FF204638BD000010B5084CA37C0BB1002010BD4FF4007312
:40514000238200F0F5F9A37C012043F00103A37410BD00BFFC98FF1F08B583680BB10020984708BD08B583680BB10120984708BD10B504680079A468A04710BD37B59DF8A4
:405180001850046800790095E468A0473EBD08B5036800799B69984708BD036810B55B69044623B10079984708B1002000E00120607110BD10B5437904460BB9FFF7EDFF43
:4051C000607910BDF7B504461F460E461546FFF7F1FF2046FFF7C6FF2A463146012320460097FFF7C5FF05462046FFF7B5FF2846FEBD10B504690919BDE81040FFF7E2BFD2
:40520000F7B5044615461F460E46FFF7D3FF2046FFF7A8FF0023009331462B463A462046FFF7ACFF05462046FFF796FF2846FEBD30B504699DF80C5009190395BDE83040FD
:40524000FFF7DEBFF7B5044615461F460E46FFF7B1FF2046FFF786FF0123009331462B463A462046FFF78AFF05462046FFF774FF2846FEBD30B504699DF80C5009190395C6
:40528000BDE83040FFF7DEBF73B504460E461546FFF790FF2046FFF765FF00232A460093314601332046FFF769FF05462046FFF753FF002D14BF4FF0FF3000207CBD10B5C6
:4052C00004690919BDE81040FFF7DEBF30B5054685B0FFF76FFF2B6828791C694FF47B71002201ABA04708B1002001E0BDF80C0005B030BD70B506460D46FFF75BFF336865
:4053000030791C694FF47B7100222B46A047002814BF4FF0FF30002070BD11F0030F70B584460B4632D110F0030F2FD195100446AC4611E053F8106CACF1040C44F8106C7A
:4053400053F80C6C44F80C6C53F8086C44F8086C53F8046C44F8046C10341033BCF1030FE8D8AB081B0100EB030CCB1815F003050AD0284600215C584CF801400431013811
:40538000F9D1AD00AC445B1902F0030213F0010F19462FD11CF0010F60462BD15410254610E031F8086C043D20F8086C31F8066C20F8066C31F8046C20F8046C31F8026CE5
:4053C00020F8026C08300831032DEAD8A108C9005B1814F003048C440AD0204600215D5A2CF8015002310138F9D16400A4441B1902F00102614610E013F8040C043A01F8E3
:40540000040C13F8030C01F8030C13F8020C01F8020C13F8010C01F8010C18460433032A8C4601F10401E7DC32B10023C15C0CF8031001339342F9D170BD0378E92B01D113
:4054400001207047EB2B01D0002070478078902814BF00200120704708B500F5FF70FFF721FE4AF65523984214BF0020012008BD01EB001000F5E370FFF7FBBDF0B50D4690
:4054800085B01446064658B352B300210B46FFF799FE002824DB2046FFF7DEFF00B32046FFF7CBFF10B10024274616E02146FFF7DFFF074604F5E570FFF7DBFD01A90446E9
:4054C0003046FFF717FF5CB157B1E219FF23120AB2FBF3F2029B9A4202D81DB12C6001E04FF0FF37384605B0F0BD000073B50446FFF7ECFE0646FEF765F80C4B05461B8A30
:40550000B3420DD366B1204601A92A46FFF7B6FFB0F1FF3F04D02061019B6361002400E0FF242846FEF764F860B27CBDFC98FF1F08B54FF480510348FFF7E8FD0248FEF7A7
:405540007FFA08BDAC84FF1FE47000004FF40410704700BF4FF6FF7070470000014B1868704700BFAC94FF1F004870470471000000F018BD37B501220DF10701054600F0EA
:4055800017FD9DF80740FF2C14BF0A240724284601220DF1070100F00BFD9DF80700FF2803D1013CE4B2002CF1D13EBD37B50469857828460DF10701012200F0F9FC9DF85B
:4055C00007300BB1002003E0013CF2D14FF0FF303EBD37B54FF0FF3305460C468DF8073006E028460DF10701012200F0EFFC013C002CF6DC3EBD000038B5094C2368032B0D
:4056000002DD4FF0FF3509E0DDB2013323601420FFF782FD04EB850460608570284638BDAC94FF1F08B5034B4FF400711B68984708BD00BFEC81FF1F4FEAD20CACEBD103A0
:40564000CCF10F0C10B501336044002410F801CB013B4CEA0424F9D101F00703511A02228A40DC40013A04EA020010BD7FB5130E85788DF80530130C01F03F018DF80630DA
:40568000130A41F040018DF8073000238DF808208DF804101A4601A911F802C000215B00DBB283EA0C0E1EF0800F18BF83F009030131082904D04FEA4C0C5FFA8CFCEEE760
:4056C0000132052AE7D15B0043F001038DF809308678C4680122304603A900F069FC9DF80C30FF2B04D00CB9FF2009E0013CF1E7284601A9062200F069FC2846FFF73AFF99
:4057000004B070BDF7B5847806460F4620460121FFF75FFF204600F0E5FB304609210022FFF7A4FF8DF8070028BBF6680546012220460DF1060100F03BFC9DF80630FE2B11
:4057400006D0FC2B04D00135ADB2B542EFD112E00DF1070520463946102200F029FC29462046012200F024FC29462046012200F01FFC002500E0FF25204600F0BDFB20463C
:405780000121FFF726FF2846FEBD00002DE9F04F9B46494B89B003EB800305925C684A02029103924FF00309029AA578E678039B2846022E08BF13461E4600F09DFB012174
:4057C0002846FFF706FFBBF1010F0CBF4FF0110A4FF0120A284600F085FB204651463246FFF744FF002851D1059F5E46A378E268B44604924FF000081E460FE001223046BE
:405800000DF11F01CDF804C000F0D2FB9DF81F20DDF804C0FE2A05D008F10108049B9845ECD333E0284639464FF40072664600F0BFFB0222284607A900F0BAFB9DF81C308A
:40584000384601939DF81D80FFF7ECFE4FF6FF729042019B0CD048EA0328404508D0BAF1120F13D120460C210022FFF7FFFE0DE0013E02D007F50077B8E7BAF1120F07D13E
:4058800020460C213246FFF7F1FE01E04FF0FF36284600F031FB28460121FFF79AFE3EB1B9F1000F02D009F1FF397DE74FF0FF36304609B0BDE8F08FAC94FF1F2DE9F04F71
:4058C00099464C4B87B0029203EB80039DF840205D68009103926B78002B40F085804B0201930327009BAC78EE78019A2046022E08BF1A46164600F0FFFA01212046FFF788
:4059000068FEB9F1010F0CBF4FF0180A4FF0190A204600F0E7FA284651463246FFF7A6FE8DF81700002850D120460121FFF751FE029ECB46B8463046FFF774FE0DF1170710
:40594000BAF1180F0CBFFE23FC2301228DF817308DF81500030A394620468DF8143000F035FB204631464FF4007200F02FFB0222204605A900F02AFB01222046394600F0F5
:4059800017FB9DF8173003F01F03052B1CD12846FFF70CFEC0B9039A0AB906F50076BBF1010BC8D1BAF1190F474611D106A96FF00203204601F8013D012200F007FB284649
:4059C000FFF7F4FD20B100E047464FF0FF3600E00026204600F090FA20460121FFF7F9FD26B10FB1013F7DE74FF0FF36304607B0BDE8F08FAC94FF1F2DE9F04F877887B0CB
:405A0000044638460D4600F06DFA20463A210022FFF72CFE064638B1384600F06DFA38460121FFF7D6FD58E00DF1140804224146384600F0BDFA4046FFF70FFB8046384690
:405A400000F05AFA01213846FFF7C3FDB8F1000F28F07F02B8BF4FEA987BD2B240F272634FEA1828B8BF0BF0010B1FFA88F8002A14BF1A460022012111EA080F05D101369D
:405A8000F6B24900102E89B2F6D140F27260824233460DD06422724302F5FA6208E011EA080F07D049000133013689B2DBB2F6B20F2EF4D964214B434FF6FE7103F5FA63EE
:405AC00002EA01014FF6FC72384603EA020200F04BFA10F0FF0F40F099804FF0FF3092E028467E217F22FFF7A7FD8246EB78DFF82C8103F0030203F0780308EBD30358F8B4
:405B000022101B7C3846594389B200F001FA0646002877D06B7803F00702DB1003F00F0308EB82024344126A93F810800292B8F1000F67D0A978284603911C221A21FFF728
:405B40007BFD0190BAF1000F1FD1502153222846FFF772FD4FF0010909FA00F92F2131222846FFF769FD1FFA89F982463E21284649224FEA5929FFF75FFD0AF1020A09FA55
:405B80000AF9013000FB09F910E0BAF1010F01D0012038E0284630214522FFF74DFD4FEA8029BBF1000F01D00223E37008FB06F2029B0399B2FBF3F2642303FB01225A43A8
:405BC0007343D208DB089A4294BFE260E360FA235E43019BF6089A400C21B24294BF2261266128460D22FFF727FD0546384600F08DF94FF4007128436070A180C4F8089074
:405C0000002000E0FF2007B0BDE8F08FE378A778012B3FF465AF4FF0000A67E79C700000F0B5857887B004464FF4C871284600F06FF9B0F5C87F00F2CC804CF25033E36047
:405C40000026284600F058F90A212846FFF7C1FC624B93E8030001902846ADF8081000F041F9062201A9284600F0B0F92846FFF781FC0746284600F03FF901212846FFF7CF
:405C8000A8FC17F0010F03D10136052ED9D1A0E0284600F027F9082120464FF4D572FFF7E5FC10F0040F52D0284600F025F9A5784FF4FA66284600F015F900223721204696
:405CC000FFF7D4FC28460121FFF783FC292100222046FFF7CBFC0746284600F00DF928460121FFF776FC17B90123E3701EE017F0040F01D1013EDDD14FF4FA66284600F082
:405D0000F1F8012100222046FFF7B0FC0746284600F0F2F828460121FFF75BFC0FB9E77004E0012F55D1013EE8D152E001AD20462946FFF7E7FC00284BD120462946FFF7CE
:405D40005BFEC0B2002844D10123237043E00422A07805A900F02CF9284600F0CDF89DF81730AA2B35D19DF8163003F00F03012B2FD1A5784FF4FA66284600F0B3F800226F
:405D800037212046FFF772FC28460121FFF721FC29214FF080422046FFF768FC0746284600F0AAF828460121FFF713FC0FB1013EE2D101AE20463146FFF7A4FC48B9012536
:405DC000E57020463146FFF717FEC0B208B9257001E04FF0FF3007B0F0BD00BFDC70000010B5084B03EB80035C6823783BB9FFF7BFFB20B12046BDE81040FFF711BF4FF023
:405E0000FF3010BDAC94FF1F38B51D46154BA1F57B7103EB80035C68072918D8DFE801F00A17171704041719204600211422FFF7A5F80CE0237833B92046FFF7F1FE10B173
:405E40004FF0FF3038BDA3882B81A3686B60002038BD2046FFF74CF9024B00201A68013A1A6038BDAC94FF1F10B580B9104B1B78EBB901240E4B1C7000F038F921463B20E8
:405E800000F050F900F024F900F014F910BD084B1B7863B90124064B1C7000F027F921463B2000F03FF900F013F900F003F910BDC094FF1F08B550B9084600F0B7F800F00A
:405EC000A9F810F0010FFAD000F0BCF808BD084600F0ACF800F09EF810F0010FFAD000F0B1F808BD08B510B900F08AF908BD002000F086F908BD00BF08B518B9012000F0AE
:405F00007FF908BD012000F07BF908BD0020704738B5B1F5C87F05D30D4642F21073994203D804E04FF4C87501E042F210756C00A4B245F6C053B3FBF4F448B900F0D6F82E
:405F4000601E012180B200F0EDF800F0C1F808E000F0CCF8601E012180B200F0E3F800F0B7F8284638BD00BF032809D840F6E44399420FD840F6E3439A420DD800207047B8
:405F800040F6E443994209D840F6E3439A4207D8002070470020704701207047002070470120704708B5FFF75FFF022008BD00BFF8B507460D4614466E1CFF213846FFF700
:405FC00079FF28703546013CF6D1F8BD70B5064614464D1C09783046FFF76CFF2946013CF7D170BD08B5FDF743F9094A137843F02003137002F58072137843F0100313704F
:406000000132137843F010031370FDF735F908BD95640040014B1878704700BF65650040014B1878704700BF66650040034B1B7813F0040FFAD0024B1870704765650040A9
:4060400045650040014B1878704700BF5565004008B501E00A4B1B780A4B1B7813F0200FF8D1FDF705F9084B1A7842F001021A701A7802F0FE021A70FDF7FEF808BD00BF6F
:4060800055650040666500409565004008B50F22064B1A70FFF7DCFFFFF7BCFFFFF7C0FF0023034A13700132137008BD856400408565004008B5054B1B7823B9FFF7E6FF89
:4060C0000122024B1A70FFF78DFF08BDC194FF1F054A137843F0020313701032137843F002031370704700BFA2430040054A137803F0FD0313701032137803F0FD031370A1
:40610000704700BFA2430040014B188880B2704784400040024B187800F00700704700BF8640004070B504460D46FFF7F3FF0646FFF7EAFFA04257D02C4B1B7803F00203BB
:40614000DAB296B900B184B938B9294B1C80294A137803F0BF03137070BD264A137843F040031370224B1C8070BD22B3002322490B7002260F310E7004310B700C390B788C
:4061800003F07F030B701B4B1B7813F0080F00D08CB91A4B18800721013B1970164B1B7813F0010FFAD111490B7803F0FD030B700021114B19700D4B1B7813F0020F0DD0DE
:4061C0000E4B1C800DB1032200E001220A4B1A70094B1B7813F0010FFAD170BD044B1C8002490B7813430B7070BD00BFA2430040844000408640004001400040024000404B
:40620000044A137803F0FD03400000F00200184310707047F05100400A22002100F09AB9014B1868704700BF5082FF1F0E4B70B51E460E4C0025E41AA410A54204D056F86F
:40624000253098470135F8E700F0FAFF084B094C1E46E41AA4100025A54204D056F8253098470135F8E770BD4C7200004C7200004C7200005472000010B5431E0A44914243
:4062800004D011F8014B03F8014FF8E710BD03460244934202D003F8011BFAE7704700000EB400B54FF402719CB0ADF814106FF00041049107914FF6FF711DAB0290069025
:4062C000084853F8042BADF81610006802A9019300F056FA029B00221A701CB05DF804EB03B070475082FF1F024610B513461C780132002CFAD1013B11F8012B03F8012FAF
:40630000002AF9D110BD10F8012B11F8013B012A28BF9A42F7D0D01A7047034611F8012B03F8012B002AF9D17047034613F8012B002AFBD1181A0138704730B582B1451E6A
:40634000013915F8013F11F8014FA34206D1EC431444E04201D0002BF3D11C46181B30BD104630BD034610B542B111F8014B013A03F8014B002CF7D11A4400E010BD9342A7
:4063800002D003F8014BFAE710BD0000174B2DE9F0411D680646AC6D0F46FCB9502000F0E3F8A8658460AB6D046044601C61DC60AB6D9C615C61AB6DDC629C62AB6D5C6377
:4063C0001C63AB6DDC639C63AB6D5C641C64AB6DDC649C64AB6D1C77AB6D5C62AA6D39463046BDE8F041012300F002B85082FF1FF0B548B9106838B9F0BD17F8016B5EB1B1
:40640000B542FAD12BB1204604460F4614F8015BF3E714600370F0BD4DB915602846F0BD17F8016BB54207D0002EF9D11C4623460F4613F8015BF3E715B10021217000E053
:406440002B461360F0BD00002DE9F0470F4680463F48D0F800903D4615F8014B09EB0400407800F0080000F0FF0608B12F46F2E72D2C03D1BD1C7C78012603E02B2C04BFA6
:406480007C78BD1C13B1102B0AD15BE0302C57D1287800F0DF0058284DD16C7810230235002E14BF4FF0004C6FF0004CBCFBF3FA0027384603FB1ACC09EB040E9EF801E03A
:4064C0001EF0040F01D0303C0BE01EF0030E1BD0BEF1010F0CBF4FF0370E4FF0570ECEEB0404A34210DDB7F1FF3F0AD0504506D801D1644503DC03FB0040012701E04FF0F1
:40650000FF3715F8014BD7E77B1C0CD1002E4FF0220314BF4FF000406FF00040C8F800302AB9BDE8F08706B1404272B107B1691E1160BDE8F0873024002BB1D10823AFE73E
:406540000A23ADE7302CA3D0AAE7BDE8F08700BF5482FF1F13460A46014602480068FFF773BF00BF5082FF1F024B0146186800F04FB800BF5082FF1F38B50546002944D083
:4065800051F8043C0C1F002BB8BFE41800F0C1FB1E4A1368114613B96360146030E0A3420DD92268A018834201BF18685B681218226063600C6023E0A24203D813465A6803
:4065C000002AF9D118681918A1420BD12168014458188242196013D110685268014419605A600DE002D90C232B6009E021686018824201BF106852680918216062605C60EC
:406600002846BDE8384000F085BB38BDC894FF1F70B5CD1C25F0030508350C2D38BF0C25002D064601DBA94202D90C23336046E000F06FFB234B1C681A462146A1B10B688C
:406640005B1B0ED40B2B03D90B60CC18CD501EE08C420BBF63684B681360636018BF0C4615E00C464968E9E7174C23681BB9304600F016FB20602946304600F011FB431C10
:4066800018D0C41C24F00304A0420DD12560304600F040FB04F10B00231D20F00700C31A0ED05A42E25070BD211A304600F0F8FA0130EBD10C233360304600F02BFB002016
:4066C00070BD00BFC894FF1FC494FF1F2DE9F0478E6882469E420C46914698463ED88A8912F4906F3AD02568096902236F1A656905EB450595FBF3F57B1C43449D4238BF73
:406700001D4653050FD52946FFF782FF064698B13A462169FFF7B0FDA38923F4906343F08003A38113E02A4600F0F5FA064670B921695046FFF720FF0C23CAF80030A38949
:406740004FF0FF3043F04003A381BDE8F08726613E44266046466561ED1BA560464528BF464649463246206800F0B8FAA36800209B1BA36023681E442660BDE8F087000065
:406780002DE9F04F9DB003938B8980461C060D4616460DD50B695BB94021FFF739FF2860286118B90C23C8F80030CDE040236B610023099320238DF82930DFF89CB13023C9
:4067C0008DF82A3037463C4614F8013B1BB9B7EB060910D003E0252BF9D02746F3E74B46324629464046FFF771FF013000F0A780099B4B4409933B78002B00F0A08000233F
:406800004FF0FF3204930793059206938DF853301A930126052221784E4800F051FA671C049B38B14B4A3C46801A06FA00F018430490EFE7D90644BF20228DF853201A076C
:4068400044BF2B228DF8532022782A2A03D0079A00210A200BE0039A111D12680391002A10DA524243F00200079204900BE027463B780134303B092B03D800FB023201214A
:40688000F5E701B107923B782E2B1ED17B782A2B0AD1039B02371A1D1B680392002BB8BF4FF0FF33059310E0002319460593781C0A2407463A780130303A092A03D804FB4F
:4068C00001210123F5E703B1059103223978224800F0F6F940B14023CBEB000003FA00F0049B013718430490397806221B487E1C8DF8281000F0E4F988B1194B33B9039BC9
:40690000073323F007030833039314E003AB00932A46144B04A94046AFF3008007E003AB00932A460F4B04A9404600F093F8B0F1FF3F824603D0099B5344099342E7AB8988
:406940005B0601D4099801E04FF0FF301DB0BDE8F08F00BF0B720000117200001572000000000000CD6600002DE9F04791461F460A698B6806469342B8BF1346C9F80030B6
:4069800091F843200C46DDF8208012B10133C9F800302368990642BFD9F800300233C9F80030256815F0060510D104F1190A07E00123524639463046C04701301AD0013564
:4069C000E368D9F800209B1A9D42F1DB94F843302268003318BF012392060FD5E118302081F843005A1C94F845102244023382F8431003E04FF0FF30BDE8F08704F143025D
:406A000039463046C0470130F4D02268D9F80050E36802F00602042A08BF5D1B2269A3680CBF25EAE57500259342C4BF9B1AED184FF000091A344D4509D0012322463946FB
:406A40003046C0470130D5D009F10109F3E70020BDE8F0872DE9F04317460A7E85B06E2A984606460C460C9B01F1430E00F0AE8011D8632A22D009D8002A00F0BB80582A0A
:406A800040F0CA8081F84520834955E0642A1ED0692A1CD0C0E0732A00F0B08009D86F2A2ED0702A40F0B8800A6842F020020A603EE0752A24D0782A3AD0ADE01A6801F11D
:406AC0004205111D1960136884F84230A8E021681A6811F0800F02D0111D196008E011F0400F02F10401196002D0B2F9003000E01368002B3CDA2D225B4284F8432037E0CF
:406B000021681A6811F0800F02D0111D196007E011F0400F02F10401196001D0138800E01368227E5C496F2A14BF0A2208221BE078225A4984F845202268186812F0800F17
:406B400000F104051D6003D1550601D5038800E00368D00744BF42F0200222601BB9226822F0200222601022002084F8430001E049490A226568002DA56008DB206820F0D5
:406B8000040020602BB9002D7DD175460CE0002B79D07546B3FBF2F002FB1033CB5C05F8013D03460028F5D1082A0BD12368DA0708D5236962689A42DEBF302305F8013C00
:406BC00005F1FF35C5EB0E0323612EE008681A6810F0800F496903D0101D1860136808E010F0400F02F104001860136801D0198000E0196000232361754616E01A68111D06
:406C00001960156800216268284600F059F808B1401B6060636804E004F1420584F8422001232361002384F84330CDF800803B4603AA21463046FFF797FE013002D14FF04F
:406C4000FF3026E023692A4639463046C0470130F5D023689B0710D5002504F1190907E001234A4639463046C0470130E7D00135E368039A9B1A9D42F2DBE068039B9842E5
:406C8000B8BF184605E00B7804F1420584F842308AE705B0BDE8F0831C7200002D72000038B5064C0023054608462360FAF762FE431C02D1236803B12B6038BD8499FF1F07
:406CC00010B5C9B202449042034605D01C7801308C42F8D1184610BD002010BD884210B501EB020301D8421E0BE09842FBD28118D21AD34204D013F8014D01F8014DF8E772
:406D000010BD994204D011F8014B02F8014FF8E710BD70477047F8B5074615460E4621B91146BDE8F840FFF773BC1AB9FFF724FC2846F8BD00F015F885420ED9294638469E
:406D4000FFF766FC044650B131462A46FFF794FA31463846FFF710FC01E03046F8BD2046F8BD51F8040C0028BEBF091851F8043CC018043870470000000000000D0A00005D
:406D80000D0A00000000000025752C256C692C256C692C256C692C256C692C256C692C256C692C256C692C256C752E25752C256C692E25752C256C752E25752C256C692EE2
:406DC00025752C00256C752E25752C256C692E25752C256C692E25752C256C752E25752C256C752E25752C256C752E25752C25752C00000024504D544B3235312C3537367D
:406E000030302A32430D0A0024504D544B3331342C302C312C302C312C302C302C302C302C302C302C302C302C302C302C302C302C302C302C302A32380D0A00475047479E
:406E4000410000002C2E00002E0000002C2E0D0A000000004750524D4300000000000000000000000000000041542B42313230300000000041542B423234303000000000D2
:406E800041542B42343830300000000041542B42393630300000000041542B42313932303000000041542B42333834303000000041542B42353736303000000041542B422E
:406EC000313135323030000041542B465531000041542B465532000041542B465533000041542B465534000041542B503100000041542B503200000041542B50330000006D
:406F000041542B503400000041542B503500000041542B503600000041542B503700000041542B5038000000415400004F4B000041542B433030000041542B43300000002E
:406F400041542B433100000041542B550000000041542B534C4545500000000041542B44454641554C5400006100000054454D50444154412E545854000000005C535341A8
:406F800053504952455C464C4947485400000000257325752E63737600000000C84900401900004F00402400405100403000000001408008000901400007001401400008F3
:406FC00000400140000A004C014000020050014020000000800801409C1000488000000058700000080001005A7000000A0001005D700000140100015F7000001601000119
:407000006270000015000101647000001700010167700000180001006A7000001A0001006E7000001A000100727000001C010001757000001E010001797000001E0100018E
:407040007D7000001D000101807000001F000101847000001F000101720072620077007762006100616200722B00722B620072622B00772B00772B620077622B00612B0053
:40708000612B620061622B00393D0000773C00001D3C0000000000002E2E00000A00000064000000E803000010270000000A0C0D0F14191E23282D32373C415080969800AD
:4070C00040420F00A086010010270000E8030000640000000A00000001000000400000000095000069550000F95500008D570000BD580000095E0000E15D00007155000002
:407100005D5500006D6D6300430000202020202020202020282828282820202020202020202020202020202020202088101010101010101010101010101010040404040469
:4071400004040404041010101010101041414141414101010101010101010101010101010101010101011010101010104242424242420202020202020202020202020202E9
:407180000202020202021010101020000000000000000000000000000000000000000000000000000000000000000000000000000000000000000000000000000000000063
:4071C000000000000000000000000000000000000000000000000000000000000000000000000000000000000000000000000000000000000000000000000000000000008F
:407200000000000000000000000000232D302B2000686C4C00656667454647003031323334353637383941424344454600303132333435363738396162636465660000005B
