:400000000080002011000000710800007108000008B5044B1A6803F53F5302331A6000F047FC00BFFA46004010B5054C237833B9044B13B10448AFF300800123237010BD42
:400040006081FF1F00000000385F0000084B10B51BB108490848AFF300800848036803B910BD074B002BFBD0BDE81040184700BF000000006481FF1F385F0000C880FF1FA4
:400080000000000010B502F03BF9FA2000F0D2FD0B4C0C222146002002F0EAFA204602F084FC0849084802F04DFA084B186030B1074B187801301A21C0B200F011FE10BDB0
:4000C0007894FF1F3C5F0000CC80FF1F7494FF1F4494FF1F30B589B00E4B186802F06CF90D4B1A780D49684605F0EAFA0C4D6946284602F0A0F80B4C2146284602F097FBF0
:400100002146684602F093FB074802F011FC09B030BD00BF7494FF1F4494FF1F405F0000CC80FF1F2004DA5A7894FF1F70B5D2B062B600F0ABFE01F049FE00F0C9F901F09D
:4001400021FB00F07DFC00F0F7FC00F063FD01F0BBFB01F009FD00F0CBF800F0BDFD1A2000F026FE4A4B1870FFF78CFF002500F09BFE40F2DE33984262DC00F00BF900F0F3
:400180004FF900F089F900F0C7F901F0C5FD414BB3F90030404A12780592404AB2F9002004923F4AB2F9002003923E4AB2F9002002923D4A128801923C4AB2F900200092BD
:4001C00002463B4907A805F07BFA3A4B1B78012B07D1394907A805F097FA0222354B1A7008E0032B06D1354907A805F08DFA0022304B1A7007AC204605F095FA2218304B0A
:4002000019889B7821529370204601F0D5FA2D4B1C683CB107A805F086FA024607A9204602F0ECFB642304E0002107AAD15401339BB2B3F5967FF7D34FF47A7000F0ECFDBA
:4002400001F0E6FA88B901F067FD044609E001F063FD001B012804DD012001F0CDFA012503E001F0D5FA0028F1D0002D3FF47FAFFFF730FF642000F0DDFC002001F0BCFA1C
:40028000642000F0D7FC012001F0B6FAF2E700BF4494FF1F4694FF1F2094FF1F6C94FF1F2294FF1F6E94FF1F7094FF1F0094FF1F585F00007C81FF1F9C93FF1F3893FF1FEF
:4002C000745F00007494FF1F38B505460C460021282001F075F9284601F0CEF9204601F0CBF901F0ADF9322000F0A4FC38BD00BF10B500F0CBFD00F0E7FF4FF4967000F0B9
:4003000099FC00213D20FFF7DFFF00213E20FFF7DBFF00210720FFF7D7FF10213B20FFF7D3FF21214120FFF7CFFF00213F20FFF7CBFF0C213D20FFF7C7FF41F2883000F057
:400340006BFD00241FE00021282001F039F9352001F092F901F074F90121282001F030F9002001F0B5F9044601F06AF900F09CFD40F6C313984203D9012001F03DFA02E0E0
:40038000002001F039FA152CDDD9002001F034FA10BD00BF38B50021282001F011F91A2001F06AF901F04CF90121282001F008F9012001F08DF9174C2080012001F088F998
:4003C000238803EB00202080012001F081F9124D2880012001F07CF92B8803EB00202880012001F075F90D4D2880002001F070F92B8803EB0020288001F022F9238803F50D
:4004000034639BB22380B3F5B45F02D3A3F5B453238038BD7094FF1F0094FF1F4694FF1F10B50021282001F0CBF8282001F024F901F006F90121282001F0C2F8012001F053
:4004400047F9124C2080012001F042F9238803EB00202080012001F03BF90D4C2080012001F036F9238803EB00202080012001F02FF9084C2080002001F02AF9238803EBC4
:400480000020208001F0DCF810BD00BF6E94FF1F2294FF1F6C94FF1F10B50021282001F08FF8342001F0E8F801F0CAF80121282001F086F8002001F00BF9044C207001F0DC
:4004C000BFF823785B00237010BD00BF2094FF1F08B500F045FD012140F2371001F014FA01F074FCFA2000F0A5FB094800F018FE642000F09FFB074800F012FE642000F0A2
:4005000099FB0121332001F0FFF900F0AFFD08BD785F0000AC5F000010B500F071FD452810D810BD00F02AFD0A2810D0154B1B780BB9154A1055022B01D1144B185501349D
:40054000E4B200E0002400F05BFD0028EAD10D4B1B782BB10FE000220B4B1A550134E4B2632CF8D90122074B1A7010BD0022074B1A550134E4B2632CF8D90322014B1A7019
:4005800010BD00BF7C81FF1F9C93FF1F3893FF1FFEE700BFF0B40022174611E050F82760F3B226F0FF0608E001EB420511F812406D78A5550132013BDBB2002BF4D101379E
:4005C000262FEBD9F0BC70470D4B1B78DBB203F007010C4A11701B090132137025220A4B1A70022203F6B3031A70122280331A70102258331A704422A3F2E2231A707047DF
:40060000CF0100496E580040CD51004008B50A46002105F04CF808BD38B50024304B1C805823304A1370023214800232137001222D4B1A8018232D4A1370EF2102321180B3
:40064000023213704FF49C71023211800232137045F6BF5102321180023213700222244B1A7008224FF040231A70032103F500731970204B1B78DBB21F490B701F4B1A8033
:4006800041F25122023B1A8019250CE01C4B1B7803F0010343EA440404F003044FF4F07001F0A2FB013D0DB1032CEFD115B90320FFF76EFF134B4FF480721A8007221A70E2
:4006C000002211490A704820023108701A700222033B1A700D4A137843F03F03137038BD8040004082400040884000408A4000400043004008010049A146004022420040F8
:40070000254200400440004006400040A243004008B504F0C1FF08BD38B572B63D4A137843F00403137000240CE03B4D630019194A0011462A44084691882858FFF766FF4B
:400740000134E4B2082CF0D900240BE03249A3001819420088188022C16B806BFFF7D8FF0134E4B2002CF1D02C494FF09040FFF711FF2B4A137843F0020313701032137821
:4007800043F002031370274C237843F040032370A2F58632513A137843F010031370082221492248FFF7B4FF0A2221492148FFF7AFFF052220492148FFF7AAFF08222049C4
:4007C0002048FFF7A5FF0A221F492048FFF7A0FF0A221F491F48FFF79BFF08221E491F48FFF796FF1E4A137843F0080313701D4D61232B70FFF710FF81232B7001221A4B4F
:400800001A70FFF7E1FE0E2221461848FFF780FF38BD00BFE8460040D85F00009C00004803500140A04300400C0F004802510040140F0048C0510040200F0048CB51004074
:40084000280F0048F2510040300F0048105100403C0F004820510040480F004832510040224300400048004004000840B043004008B504F0E5FE03680C2B00D1FEE7FEE72B
:4008800008B5094B1A681044084BC31A802B02DC054B186005E004F0D3FE0C2303604FF0FF32104608BD00BFDC80FF1F4897FF1F08B5104E104D16E029686B68AC680022CB
:4008C00004E051F8040B43F8040B0432A242F8D1E868002203E0002143F8041B04328242F9D11035013E002EE6D104F0AFFEFFF71DFCFEE701000000A061000008B5104AE4
:40090000104B1A60104A136843F40073136000230AE0032B03D80D4A52F8231000E00C490C4A42F8231001332F2BF2D90A4B1A780A4B1A70074A0A4B1A60FFF7EDFE08BD29
:400940000004FA050CED00E014ED00E000000000710800000080FF1FBC760040C080FF1F08ED00E0024A137843F08003137070477C640040014B1880704700BF18680040FD
:40098000014B1880704700BF98680040014B1880704700BF58680040014B1880704700BF78680040014B1870704700BF8C640040014B1878704700BF6C640040014B188801
:4009C00080B27047B868004008B501E0FFF7F6FFFFF7EEFF10F0100FF8D108BD10B5164A137803F0C00343F009031370134C237843F0010323702132137843F00103137011
:400A000040F2CF70FFF7B6FF40F2CF70FFF7B8FF9620FFF7BBFF9620FFF7BEFF0020FFF7C1FF01F0E9F9237843F01003237001F0E7F9FFF7C9FF10BD7C6400409C640040D4
:400A400008B5054B1B7823B9FFF7C8FF0122024B1A70FFF787FF08BDEC82FF1F024A137843F080031370704778650040014B1880704700BF04680040014B1880704700BF32
:400A800084680040014B1880704700BF44680040014B1880704700BF64680040014B1870704700BF83640040014B1878704700BF63640040014B188880B27047A468004073
:400AC00008B501E0FFF7F6FFFFF7EEFF10F0100FF8D108BD10B5164A137803F0C00343F009031370E63A137843F001031370114C237843F00103237040F2CF70FFF7B6FF72
:400B000040F2CF70FFF7B8FF9620FFF7BBFF9620FFF7BEFF0020FFF7C1FF01F06DF9237843F01003237001F06BF9FFF7C9FF10BD786500409364004008B5054B1B7823B977
:400B4000FFF7C8FF0122024B1A70FFF787FF08BDED82FF1F084A137843F0010313701032137843F00103137002F64D32137843F001031370704700BFA3430040014B188096
:400B8000704700BF044F0040014B1880704700BF064F0040014B1870704700BF034F004008B5194A137843F0020313700232137803F08F0343F010031370144B1A7802F00B
:400BC000CF021A701A7842F030021A701A7802F0F0021A701A7842F00F021A7040F2CF70FFF7CCFF6420FFF7CFFF0020FFF7D2FF074A137843F00103137002F65E321378B1
:400C000043F00103137008BD004F00400B4F0040A343004008B5054B1B7823B9FFF7C0FF0122024B1A70FFF795FF08BDEE82FF1F01BE704710B5044605E0084B186801F0B0
:400C4000D3F8A4F50044B4F5004FF6D8034B586800FB04F001F0C8F810BD00BFE080FF1F08B5034B1B7A00FB03F001F0BDF808BDE080FF1F70B504460E46074B1D681F28F6
:400C800002D90020FFF7D4FF04F01F04103455F8240045F8246070BD08ED00E038B504460D46072902D90020FFF7C2FF1F2C02D90020FFF7BDFF04F01F0000F1604000F5E4
:400CC00064406D01EDB2057038BD00BF08B501F0F1F801F0F9F808BD08B5FFF7F7FF08BD30B583B00C468DF8070001F02DF9B4F5006F52D22509A4EB0514A4B201F0D0F93F
:400D000000284CD101230DF107022146402001F047F9044607282FD1234B1B7813F0020FFAD0214B1B7813F0020F06D01E4B1B789B0805D04FF0FF3403E04FF0FF3400E0EF
:400D40000024E4B9194A537812782946402001F063F9072816D1144B1B7813F0020FFAD0114B1B7813F0020F0FD00F4B1B789B0810D04FF0FF340DE0012809D10AE04FF01B
:400D8000FF3407E04FF0FF3404E04FF0FF3401E04FF0FF3401F0AAF902E0012400E00424204603B030BD00BF22470040B496FF1F38B5044601F020F8054601F0AFF804F16D
:400DC000804000F500400478E4B201F0B5F8284601F016F8204638BD084A137843F0020313701032137843F00203137002F65932137843F001031370704700BFA343004002
:400E0000014B1870704700BF0F4F0040014B1880704700BF104F0040014B1880704700BF124F004008B5164A137803F0010313700232137803F0FC031370124B1A7802F09F
:400E4000CF021A701A7842F030021A701A7802F0F0021A701A7842F00F021A700A4A137843F00103137040F2E730FFF7CFFF40F2E730FFF7D1FF0020FFF7C2FF08BD00BF28
:400E80000C4F0040174F00400D4F004008B5054B1B7823B9FFF7C6FF0122024B1A70FFF79BFF08BDEF82FF1F024B1B88024B188880B27047124F0040144F004008B511491F
:400EC0000220FFF7D7FE07210220FFF7E7FE00220D4B1A7072220D4B1A702022013B1A700B490320FFF7C6FE07210320FFF7D6FE0622084B1A70472210331A700222543332
:400F00001A7008BD45110000F082FF1F8A640040E11100002064004008B500F06DFF0C4A137843F020031370013A137843F010031370084A0423136007490B7843F0100331
:400F40000B70082305490B60136000F059FF08BD9A64004000E100E09464004080E200E008B5054B5B7823B9FFF7A8FF0122024B5A70FFF7D1FF08BDF082FF1F04221A4BE0
:400F80001A601A4A53889BB2918889B2927912F0FF0F01D18B4212D0154AD05CC0B201339BB2B3F5E17F00D30023104A5380937913F0FF0F13D000220C4B9A710FE00D4BC7
:400FC0001B78DBB213F0200F06D00B4A1078C0B213F01E0F02D102E0002000E000200422064B1A60704700BF80E100E0F082FF1F8494FF1F696400404965004000E100E04B
:401000000422174B1A60174B5A8892B29B889BB29A4207D1134B9B7913F0FF0F1BD04FF4E17019E00F4B5A8892B29B889BB29A4207D20C4A908883B2508880B2181A80B251
:401040000AE0084A908883B2508880B2181A00F5E17080B200E000200422034B1A60704780E100E0F082FF1F00E100E008B500F0C3FE0B4B1A7842F001021A701A7802F063
:40108000FE021A7000F0BCFE0421064B1960064B00225A809A809A71DA71044B196008BD9965004080E100E0F082FF1F00E100E0164B597A1B7ADBB2994205D25A1E9142A0
:4010C00014BF0022012204E0CA1A312A14BF00220122002AECD1994207D10D4B1B7813F0040F02D10B4B18707047312900D90021094B58540131054B5972054B1B7813F013
:40110000020F02D00822054B1A607047F082FF1F64640040446400404896FF1F00E200E038B5074B5B782BB938BDFFF7C1FF0134A4B201E005460024285D0028F5D138BDFF
:40114000F082FF1F1E4B1B78DBB213F01E0F05D01C4803F01E0201780A43027003F0200303F0FF02002B28D0174B1978C9B2174B1B889BB21648C154164B1B7813F0FF0F3D
:4011800002D00121144B197010490B889BB201339BB20B800B889BB2B3F5E17F02D300210A4B1980094B198889B20C4B1B889BB2994202D10121074B1970002AC2D17047AC
:4011C00069640040F082FF1F49650040F482FF1F8494FF1FF682FF1FF782FF1FF282FF1F13E0104B1B78DBB2312B02D900220D4B1A700C4A1378DBB20B49CB5CDBB20B4968
:401200000B7013780133DBB21370064B1B78DBB2074A1278934204D0064B1B7813F0040FDFD07047F882FF1F4896FF1F44640040F982FF1F6464004010B50223114A13702A
:4012400081210E3A11705021023211701132137000240D4B1C704FF400420C4B1A6004210F20FFF71BFD0A490F20FFF703FD1022084B1A70084B1C70084B1C70084B1C7033
:4012800010BD00BFD6490040DC49004080E100E0F11200007A96FF1F8296FF1F8896FF1F8396FF1F08B500F0A7FD064A137843F0040313701032137843F00403137000F060
:4012C0009FFD08BDA543004008B5074B1B7823B9FFF7B2FF0122044B1A70FFF7E3FF4FF40042024B1A6008BDFB82FF1F00E100E038B5A54B1C78A54B1B7813F0400F00F0C9
:401300003A81E4B214F0010F00F01D819F4B1B78453B052B00F21481DFE813F006008200120112010600DF0004F0DF0504F00A04082C42D1954B1B78DBB2452B35D1944B33
:401340001B7813F0FF0F10D0924B1B681B78DBB2914A137004228C4B1A7001228F4B1A7046228A4B1A702C46EDE08D4B1B7813F0020F0DD08B4A137843F00A0313706022F6
:40138000824B1A704FF40042874B1A602C46DAE0864A137843F0100313701022844B1A700422023B1A702C46CDE00022764B1A704A22764B1A702C46C5E00A2C2BD1794AEE
:4013C000137843F0A0031370754B1B7813F0020F14D06E4B1B7813F0080F01D0092300E00A23704A11780B4313706022674B1A704FF400426C4B1A602C46A4E06B4A137890
:4014000043F0100313701022694B1A700422023B1A702C4697E00020FFF70AFC2C4692E014F0020F36D15D4B1A78D2B2584B1B78DBB29A4210D2594A1378DBB25549096878
:40144000CB5CDBB254490B7004214F4B197013780133DBB2137076E0514B1B7813F0020F0CD0504A137843F00A0313706022474B1A704FF400424C4B1A6064E04B4A137894
:4014800043F0100313701022494B1A700422023B1A7058E0424B1B7813F0020F0CD0414A137843F09A0313706022384B1A704FF400423D4B1A6046E03C4A137843F01003E2
:4014C000137010223A4B1A700422023B1A70354A137843F09003137035E0364A1378DBB2354908682C490978C9B2C15413780133DBB213701278D2B2304B1B78DBB29A4273
:4015000003D21022204B1A701DE0254B1B7813F0020F0CD0234A137843F00903137060221A4B1A704FF400421F4B1A600BE01F4A137843F0100313700022134B1A7002E097
:401540000020FFF775FB14F0200F1CD00F4B1B7813F0080F01D0012300E00223114A11780B431370114A137803F0EF0313701022064B1A7038BD054B1B7813F0100F02D1E8
:401580001022024B1A7038BDD74900407A96FF1F8196FF1F8496FF1FD84900408396FF1F8996FF1F8296FF1F80E100E0D6490040D94900408896FF1F7C96FF1F8096FF1F85
:4015C0001A4B1B78DBB2102B29D1194B1B7813F0080F26D14FF40042164B1A604000C0B229B140F001004922104B1A7002E045220E4B1A70104B1870012201331A700F4B72
:401600001B7813F0010FFAD00C4B1B7803F00A030A2B08D11022054B1A700320704702207047012070470020704700BF7A96FF1FD949004080E100E0D8490040D749004083
:401640000A4B1B7813F0040F0ED01023074A13700421023A1170064A1370064B1B7813F0210FFAD00020704702207047D94900407A96FF1FD7490040114B1B7813F0040F4C
:401680001BD0104B18700422013B1A7046220E4B1A700E4B1B7813F0010FFAD00B4B1B7813F0020F04D16022074B1A70002070476022054B1A70032070470220704700BF87
:4016C000D9490040D84900407A96FF1FD7490040114B1B7813F0040F1BD0104B1B78DBB2492B05D100220E4B1A704A220B4B1A700B4B1B7813F0010FFAD00A4B1B78DBB258
:4017000018B11021064A117004E06021034A117000E0002318467047D94900407A96FF1FD7490040D84900407222074B1A70202201331A700622643B1A70472210331A704B
:401740000022AF3B1A7070478A65004010B500F053FB04460A4A137843F0200313700132137843F010031370A2F20312137843F01003137000F032F8204600F041FB10BDEB
:401780009A65004008B5054B1B7823B9FFF7CCFF0122024B1A70FFF7D9FF08BDFC82FF1F034B1B7813F0040FFAD1024B18707047686400404764004038B5074B1B782BB989
:4017C00038BDFFF7EDFF0134A4B201E005460024285D0028F5D138BDFC82FF1F054A137843F0100313701032137843F010031370704700BFA2430040044A137803F0FD0393
:40180000400000F0020018431070704720510040024B1878C0F38000704700BF21510040054A137843F0010313701032137843F001031370704700BFA8430040054B1A785D
:4018400002F0FD021A701A7800F0020010431870704700BF20580040014B1870704700BF805B0040064B1B78C3F3810303F19243063393F82031DBB2024A1370704700BF2D
:40188000205800400846004008B5064B1A7802F0F3021A701A7800F00C0010431870FFF7E1FF08BD2058004010B50024054B1C7001331C700420FFF7E7FF2046FFF7BEFF77
:4018C00010BD00BF2058004008B5074B1B7823B9FFF7EAFF0122044B1A70FFF7A1FFD320FFF7BAFF08BD00BFFE82FF1F014B188880B2704780400040024B187800F0070048
:40190000704700BF8240004070B505460E46FFF7F3FF0446FFF7EAFFA84256D02B4B1B7803F0010294B900B185B938B9284B1D80284A137803F0BF03137070BD254A1378B2
:4019400043F040031370224B1D8070BD22B3002321490B7001240F310C7004310B700C390B7803F07F030B701A4B1B7813F0080F00D08DB9194B18800721013B1970164B9F
:401980001B7813F0010FFAD110490B7803F0FE030B700021104B19700C4B1B7813F0010F0DD00E4B1D800EB1032200E001220A4B1A70094B1B7813F0010FFAD170BD044B8F
:4019C0001D8002490B7813430B7070BDA2430040804000408240004001400040024000400222014B1A60704700E100E00122014B1A60704700E100E008B500F0FDF90C4A98
:401A0000137843F020031370043A137843F0100313700132137843F01003137000F0F0F900F050F9FFF7DCFFFFF7E0FF08BD00BF956400400222014B1A60704780E100E0D2
:401A40000122014B1A60704780E100E010B5FFF7F1FF064B1C78064A137803F009031C4300231370FFF7BCFF204610BD61640040AF96FF1F10B5FFF7E3FF064B1B78064AF9
:401A8000147804F040041C4300231370FFF7AEFF204610BD626400409C96FF1F08B501E00A4B1B780A4B1B7813F0200FF8D100F0A3F9084B1A7842F001021A701A7802F014
:401AC000FE021A7000F09CF908BD00BF51640040626400409164004010B50F22174B1A70174C0223236007210120FFF7D7F815490120FFF7BFF80123236007210020FFF717
:401B0000CDF811490020FFF7B5F8FFF7C7FF00240E4B1C700E4B1C700E4B1C700E4B1C700E4B1C700E4B1C70FFF790FFFFF7A2FF0C4B1C70202201331A7010BD8564004090
:401B400080E100E0851B0000251C0000AC96FF1FAE96FF1FAD96FF1F8C96FF1FB096FF1F8D96FF1F8164004008B5054B1B7823B9FFF7B2FF0122024B1A70FFF73DFF08BD02
:401B8000FF82FF1F28E01F4B19781F4A137803F009030B431370137813F0040F24D01B4B1B7813F0FF0F0CD1194A13780133DBB213701378DBB20B2B06D90022144B1A70D9
:401BC00002E00022114B1A70114B1B78DBB2114AD35CDBB2104A13700D4B1A78D2B20F4B1B78DBB29A42CED1094B1A78D2B20B4B1B78DBB29A4204D1094A137803F0FB03C8
:401C00001370704761640040AF96FF1F8C96FF1FB096FF1FA096FF1F416400408D96FF1F81640040204B1A7820490B7803F0400313430B7032E01E4B1A78D2B21D490B7855
:401C40000133DBB20B700B78DBB20B2B02D90021184B1970174B1978C9B2174B1B78DBB299420ED114490B780133DBB20B700B78DBB20B2B02D900210F4B197001210F4B93
:401C800019700C4B1B78DBB20D49CA54064B1A7806490B7803F0400313430B70034B1B7813F0200FC7D17047626400409C96FF1F51640040AD96FF1FAE96FF1FAC96FF1F24
:401CC0009096FF1F054A137843F0040313701032137843F004031370704700BFA2430040024A137843F08003137070477D640040014B1870704700BF8D640040014B1878A5
:401D0000704700BF6D64004008B50146014800F01DFA08BD08640040034B1B78034B186820F07F40704700BF0864004048640040024B186820F07F40704700BF48640040CD
:401D400008B50146014800F001FA08BD2864004008B50146014800F0F9F908BD3864004008B501E0FFF7E4FFFFF7C8FF10F0400FF8D108BD08B5124A137803F0F80343F0F4
:401D800001031370137803F0FC031370FFF7E8FF0C48FFF7D5FF0020FFF7B6FF0020FFF7A7FFFFF7ABFF8020FFF7D2FF00F024F8054A137843F01003137000F021F808BD96
:401DC0007D640040805101009D64004008B5054B1B7823B9FFF7CEFF0122024B1A70FFF77FFF08BD0083FF1F0230800803D000BF01380046FCD17047EFF3108072B67047FC
:401E000080F31088704700BF10B500F09DF800F047F9D0B900F086F90446072812D102E00120FEF71DFF0A4B1B7813F0020FF7D0074B1B7813F0020F04D0054B1B789B0829
:401E400000D1002400F052F900E00424204610BD2247004010B500F077F800F021F910BB012000F0FFF8072818D102210F4800F07DF802280AD102E00120FEF7F1FE0C4B13
:401E80001B7813F0020FF7D0002409E0084B1B7813F0020FE9D04FF0FF3401E04FF0FF3400F024F900E00424204610BDB496FF1F2247004008B5FFF7A7FF034610B9FFF775
:401EC000C9FF0346184608BD08B5FFF795FF0F4A137843F0080313701032137843F008031370C8220A4B1A700A4A137843F0100313701032137843F010031370064B1B7849
:401F000013F0200FFAD0FFF77BFF08BDA043004001470040AC43004000470040054A137843F001031370034B1B7813F0020FFAD0704700BF02470040024A137803F0FE03F2
:401F4000137070470247004008B5FFF755FF064A137843F0080313701032137843F008031370FFF74DFF08BDA043004070B506460D4600240CE00120FEF772FE064B1B7805
:401F800013F0010FF7D0054B1B7833550134E4B2AC42F3D3204670BD224700402047004030B43E2801D81F2B03D93F2827D90F2B27D8174C247814F0020F24D0154CB6254D
:401FC0002570D4252570012525700234247814F0020F1AD10F4C2070C1F300202070C9B22170591EC9B22170002104E0545C094804700131C9B29942F8D3072006E0012058
:4020000004E0012002E0042000E0092030BC7047224700402047004030B4104C247814F0020F15D00E4CB6252570D8252570052525700234247814F0020F0BD1084C207001
:40204000080A2070C9B2217022702370072002E0042000E0092030BC704700BF22470040204700400C4B1B7813F0020F0FD00B4BB6221A70E1221A700E221A7002331B7801
:4020800013F0020F05D1054B187007207047042070470920704700BF224700402047004010B5FFF7A9FE0F4B1B78A3B901220D4B1A700D4B1B6813F0010F0ED00A4A13686B
:4020C00023F00103136000BF00BF00BF0122054B5A60002402E0042400E00024FFF790FE204610BD0483FF1F0400084008B5FFF783FE0A4B00221A705B68012B0AD1084AC1
:40210000136843F00103136000BF00BF00BF0022024B5A60FFF774FE08BD00BF0483FF1F04000840074B1B7813F0020F08D0064BB6221A70E0221A700D221A700720704790
:40214000042070472247004020470040CBB20370C1F307234370C1F307418170704700BF2DE9F0470022ADF5047D0C460127082113468146009700F095F90546002853D050
:402180003A463B46002620461421009600F08AF9074620B9284600F002F9013E46E0284600F04BF8804641463246384600F087F8384600F04CFA38463146324600F07FF895
:4021C0000DF10C0A284651464FF4007200F028FA064660B138465146324600F0F2FBB04202D04FF0FF3603E0B8EB0008E8D10026284600F0D4F8384600F0D1F88EB983A9BF
:402200003246484600F016FB83993246204600F0ECFA484602F048F80146204602F060F804E0204600F090F94FF0FF3630460DF5047DBDE8F087FFF793BF08B901387047CB
:402240000368586870470000094B10B5D8689A68002308E0114652F8084B1CB901230B60486810BD01338342F4D3002010BD00BFB896FF1F084B30B50022DC689B6808E0E0
:402280005D6819460833854202D100230B6030BD0132A242F4D330BDB896FF1F01230373704700230373704710B1002282720260704718B1027B0AB1013A02737047034631
:4022C00008B901387047012A03D0022A03D062B105E0426801E002685268891805E04FF6FD7202814FF0FF3070475A688A4201D1002070474FF0000259601A810020704704
:4023000038B502F0EFF820B3124C4200E260000102F0DCF8238AA060E068584302F0D6F8A568E168228A002304E005EBC3046060013380188B42F8D3102002F0C7F8054CF5
:402340006061282002F0C2F8A37CA06143F00203A37438BDB896FF1F38B510220D460021044601F0E5FFFFF76FFF08B9013038BDA0604FF0FF33002065602360A07338BDFA
:4023800038B5837A044643B1056801F087FE2846FFF78FFF2046FFF787FF002038BD08B50368827A03B19B6822B11BB1FFF7E8FF002008BD012008BD08B901307047FFF768
:4023C000EEBF000038B5104B9C69217B59B921606160A16004F11000142201F0A9FF237B013323730DE0656A45B9282002F058F8606218B12946282201F09AFF646A002CAA
:40240000E3D1204638BD00BFB896FF1F38B50E4B5C69A17AE56839B92046102201F088FF0123A372E5600CE045B9102002F038F8E06018B12946102201F07AFFE468002CA7
:40244000E7D1204638BD00BFB896FF1F2DE9F74F06460020884691469B469DF830A09DF83470FFF7AFFF054608B9044610E0FFF7CDFF044660B180F80B900560AE6040461F
:40248000214652463B46CDF800B001F0D7FA30B12046FFF709FF2846FFF70BFF00242046BDE8FE8F2DE9FF410C461F4604A9002341F8043D15469DF8286000F009F980466F
:4024C000B8B1039B0BB11B789BB1404600F051FA00280EDD14F0150F01D0032809D1039939B1404622462B4600970196FFF7AEFF00E0002004B0BDE8F08100002DE9F3419E
:402500000646884600240E4D404655F83410E70001F044FF10B9002C04DA0DE001340F2CF1D109E07D19A87929790090EA796B793046FFF7B7FF00E00020BDE8FC8100BFC2
:402540001C600000FFF7DABF37B500241021224601230094FFF7A6FF054608B9013806E00068FFF7A6FE2846FFF79EFE20463EBD10B5437B04460BB1012010BD406821681E
:40258000A268A37B02F09BF810B10120607310BD207310BD10B5437B044663B9037B53B140682168A268A37B02F089F808B1012363730023237310BD036870B59942044667
:4025C0000D46164607D0037B0BB1FFF7E3FF00232560A673E37370BDFFF7DCBF10B50446FFF7D8FFA068BDE81040FFF743BE01230373FFF7CFBF10B50446407B08B10120DC
:4026000010BDE37B5BB960682168A268A37B01F0CAFF10B10120607310BD0122E27310BD30B592B188B1857A046875B16CB190F80BC01CF0080C04D14FF6FB72028160462F
:4026400030BDBDE8304001F03DBB002030BDC37A13F0150F02D14FF0FF30704701F0FCBB08B5436813B94FF0FF3008BD984708BDF8B50C4617460023144D01E0ED6D013304
:402680008342FBDB2B6828791B68984706460CB92046F8BD01F08FFE0530B84214DC22460020335C013223540130315C0029F8D113464FF03A0C03F801CB2C7903303034CE
:4026C000547083F801C09970F8BD00BFD496FF1F2DE9F0470F463A21064601F08EFE044610B93446174D27E00378C6EB000A5BB114F8013F43B162783A2A05D1A3F13008B5
:402700005FFA88F8023401E04FF000080D4D2B6828791B689847814601F04DFE504508D148463146524601F04EFE10B92B79434502D0ED6D002DEAD107B13C602846BDE8B7
:40274000F08700BFD496FF1FF8B5174C064694F85B10E56D69B960220127204601F0E8FD84F85B70E5653046FFF77AFF00280EDA18E045B9602001F093FEE06518B12946F3
:40278000602201F0D5FDE46D002CE0D10AE0074B2660DA6F0132DA670323207184F85B7084F85A302046F8BDD496FF1FB896FF1FFFF7CABFA1F57C7CBCF1030F2DE9F04101
:4027C00006460C4615461F460BD901F0BAFE002803DA4FF0FF30BDE8F081304621462A463B46BDE8F04101F071BF30B585B0019103A91446FFF76CFF0546A0B100F0B9F850
:40280000032810D1012C03D0022C05D014B10AE0082302E0022300E004232846039901AA00F0EEF801E04FF0FF3005B030BD0022FFF7DBBF73B50C4601A91546FFF748FFB7
:402840000646A8B100F095F810F0010F10D0012D03D0022D05D015B10AE0082302E0022300E0042330460199224600F022F901E04FF0FF307CBD000010B590F8593004462D
:402880009BB1114B5B690EE09A7A5AB11A684AB19168A14206D1002199721960117B09B101391173DB68002BEED100221346204640F2F131FFF77EFF002384F859306371F5
:4028C0002361636110BD00BFB896FF1FFFF7D4BF70B5044601F035FE20B92046BDE87040FFF7F4BF94F8593073B1104B5D6906E0AB7A1BB12B689B68A34213D0ED68002D2E
:40290000F6D1204601F006FB0022134620464FF47C71FFF74FFF002384F8593063712361636170BD2846FFF72BFDE7E7B896FF1F10B50021FFF7CCFE18B1BDE81040FFF792
:40294000C7BF10BD38B504460D4601F0FAFD08B9013838BD204601F007FE204601F0DAFF204600F095FD08B184F8595094F8590038BD90F8593023B990F85A1009B1FFF7E8
:40298000E1BF1846704710B590F8592004463AB931B1FFF7D7FF002802DC4FF0FF3010BD94F8590010BDFFF7EEBF10B50021FFF78FFE08B9013010BD0321BDE81040FFF7E4
:4029C000F2BF30B51346BAB1B0B10268857A0AB1946804B900247DB172B16CB1C27A12F0100204D14FF6FA730381104630BD1A46BDE8304001F074BB002030BDFFF7E1BFD7
:402A00002DE9F0418AB0064604AD88462846314617461C46FFF7A0FC08AB009330462946424609AB00F0A8FF20B92846FFF7D6FD01243AE0089B2946009330460023099AE6
:402A40000193029300F040F9054608B9012429E0012C0AD1C27A3B7812F0100F14BF43F0100303F0EF03C37218E039680E0C042C89B209D0082C0DD0022C0FD10E3001F03A
:402A8000E7FC05F1100006E0163001F0E1FC05F1180000E01230314601F0DAFC04A8FFF7FDFB002404A8FFF799FD20460AB0BDE8F0812DE9F0418AB0064604AD0F46284658
:402AC000314614469846FFF747FC08AB0093304629463A4609AB00F04FFF20B92846FFF77DFD012429E0089B3046009329460023099A0193029300F0E7F808B9012419E0B4
:402B000008F1FF38B8F1070F13D8DFE808F0040712091212120DC37A23700AE00E3000E0163001F080FC03E0123001F095FC00042060002404A8FFF751FD20460AB0BDE804
:402B4000F0810C2802D0102805D102E001EB510070474800704788007047036840689B685B6AB0FBF3F0704710B5046D836CE4B199421AD3E318994217D2013B99420CBF79
:402B80004FF0FF31013172B190F836300C2B02D0102B05D102E00905090D03E089B201E021F070411160012010BD002010BD40F6F473984201D80C2070474FF6F47398427D
:402BC00094BF102020207047027F8368023902FB01307047431EDBB21F2B13D92F2811D007D826280ED002D8222809D10AE02A3804E03A2804D33F2804D95B38022801D926
:402C00000120704700207047034638B30B2A01DD0B2200E0013A00201CE0082809D191F808C0BCF1200F0DD04FF02E0C03F801CB08E038B991F800C0BCF1050F02D1ACF193
:402C4000200C04E011F800C0BCF1200F01D003F801CB01309042E0DB00221A7070472DE9F04788B005AE04460D463046114600229A469DF84490BDF84C80BDF8507000F0F3
:402C80001DFD08B1002413E020462946524600F00EFE044660B1129B31460093109A4B46CDF80480029700F0C5FF2846FFF7F6FA204608B0BDE8F08710B59DF80C40039413
:402CC000BDE8104000F0D8BD2DE9F04F144E87B0109DDDF848809DF84440376800950194CDF8088005937F68934682468946B84732680C4BDDF814C09A420DD060B9504603
:402D000049465A46634610951194CDF8488007B0BDE8F04FFFF7D0BF07B0BDE8F08F00BFF080FF1FC460000070B5C37A04460B7010300D4601F090FB064604F10E0001F002
:402D40008BFB40EA0640686004F1120001F084FB0004A86004F1180001F07EFB064604F1160001F079FB40EA0640E86004F11C0001F059FB286170BD2DE9F845038A0446F1
:402D80000E46924687692BB907F118002146626900F064FC38465146224600F0E7FC0546204600F065FCD5B12B78C3B1E52BF1D095F80B80B8F10F0FECD018F00808E9D154
:402DC00070692946B269FFF71FFF28463146FFF7ABFF238A404601332382BDE8F8854FF0FF30BDE8F8850222FFF7E6BB2DE9F04790F8366005460C46304611469146FFF7BC
:402E0000A0FEB5F81E80AB6A20FA08F89845824602D30020BDE8F0876B8E05F118079844204641463A46FFF7DEFF2046FFF7E3FB18B14FF0FF30BDE8F087AA8BA168013A94
:402E40000AEA020A1FFA8AFA92450AEB01031AF8015001D0013309E0204608F101013A46FFF7C1FF2046FFF7C6FBA36818780C2E45EA002009D0202E0FD15D7840EA054071
:402E80009D7840EA0560BDE8F08719F0010F02D00009BDE8F0870005000DBDE8F08700002DE9F34190F83630144603FB02F7828B8846D200511E0F40D71B0546B7FBF3F747
:402EC000002618E00E4B93F88030022B05D12846214601AAFFF748FE28B9284641462246FFF784FF0190019B0134A34205D10136B6B2013F1C46002FE4DC3046BDE8FC81C5
:402F0000B896FF1F2DE9F34105460E46144698461F681CE0114B93F88030022B05D12846214601AAFFF720FE28B9284631462246FFF75CFF0190737B0BB100240BE0AA6B75
:402F4000019B0132934204D81BB1013F1C46002FE0D1C8F800702046BDE8FC81B896FF1F73B504680E4623681BB9FFF7F6FD013039E0FFF7F2FD236998423CBF4FF0FF332E
:402F800023612369B3F1FF3F04D12268013323616261E3832169E28B451A954234BF2B4613463BB16069C918C018D21A60612161E283ED1A0DB9284615E002AB43F8045D7A
:402FC00031466269A068FFF79DFF6061019B21690246C91A4D19256123B9A0683146FFF75FFFE08301987CBD13B502AC44F8043D2346FFF787FF019B002B18BF00201CBDA4
:403000002DE9F0410746884615461E460024384641462A460123FFF7E7FF30B1BA6B0134944201D80546F2E7002406B134602846BDE8F0812DE9F74F04460D461E4617461B
:40304000002A00F0B98090F836001146FFF779FDB4F81EA0A36A20FA0AFA9A45814680F0AB80638E04F118089A44284651464246FFF7B9FE2846FFF7BEFA6B7B002B40F02B
:403080009B80A38BAA68013B09EA03091FFA89F303EB020926B9216C8F4203D2276401E0791C216494F8361010290AD0202911D1484601F0B8F931460746484601F0BEF91A
:4030C0004EE0484601F0C8F9B1B20746484601F0BFF945E0284600920193FFF7DFF8009A019B17F0010F13F802B01BD00BF00F0141EA06119954A28B013A934202D009F1BD
:40310000010309E028460AF101014246FFF76BFE2846FFF770FAAB681F7832093F0147EA1B171CE09E54A28B013A934202D009F1010309E028460AF101014246FFF753FEDC
:403140002846FFF758FAAB681A78310A02F00F0701F00F0122F00F024BEA07270A431A702846FFF79BF894F83630202B18D1B4F84620AAB9B4F844102846FFF71DFA2846D8
:40318000FFF739FAA8684FF0FF3100F5F47001F055F92846FFF782F84FF00103A4F84630E36BB3F1FF3F09D00FB10133E3632EB1E36B013BE36301E0012000E00020BDE803
:4031C000FE8F6FF07043FFF735BF70B5036D04460E4693B1002506E0AA1820463146531CFFF728FF0135236DA26C013B9D42F3D320463146AA18FFF7E4FF0023A3642365BA
:40320000E364636570BD70B506460D461C460AB1FFF710FF304629462246BDE87040FFF7D0BF00002DE9F84504460E4615461F46002B36D01C4B93F88030022B31D190F80A
:40324000368011464046FFF77CFCB4F81CA00AF1FF3A2AEA000A4FEACA0ABAFBF8FAAA44A8460EE0204631464246FFF7BFFD50B9A36C0BB9C4F84880E36C08F10108013319
:40328000E364D045EED9E36C5BB167653B685A6922B1204631462B46FFF7CCFE236D01332365BDE8F88500BFB896FF1F2DE9F8459846274B054693F880300F46022B1646DD
:4032C000846B19D1436D984503D0C36C0BB1FFF77CFFB8F1000F0FD06B6D43450CD12B6DEA6C9A4204D9AC6C1C1901332B652CE028463946FFF769FF012E04F1010A01D94D
:40330000564505D92E6C012E01D9564500D902263446284639462246FFF768FD50B101345445F6D902240DE0284639462246FFF75DFD30B92846394622464346FFF772FF27
:4033400003E00134B442EFD300242046BDE8F885B896FF1FF8B507460E461546FFF7A6FF044628B1384631462A462346FFF74BFF2046F8BDB2F1FF3F73B504460D4614D04B
:40338000561A013611D0FFF727F9084B00211A8AA06800F0CDFF022300936068A3682946324601F067F90023E3737CBDB896FF1F2DE9F84F984690F8363004460C2B0D46B5
:4033C00016465AD04FF0FF3AD1463CE094F836003146FFF7B6FBB4F81CB0678E0BF1FF3B10EA0B0BE38B1DD1D840013F3F18022228463946FFF7E0F8A38BAA689B0852F8F2
:403400000B1079B9013B0BF1040BF8D13BE0494628465246FFF7AEFFB946BB462846FEF740FFDA462946324601232046FFF7DCFD29460746324620460023FFF7FBFD2FB14F
:4034400008F1FF383E46B8F1000FBFD1284649465246FFF78FFF13E02946324601232046FFF7C2FD29460746324620460023FFF7E1FD2FB108F1FF383E46B8F1000FEBD185
:403480004046BDE8F88F0AF1010B5F45BFD1C5E72DE9F8450546FEF7D7FE044608B90546D0E0284601F027F9684E338A834208D338B10021284622460B4601F074F80028BD
:4034C00004DA2046FEF7D6FE0025BBE004F5FF7000F0C2FF4AF65523984240F0AD8004F10B0000F0B9FF10F47E4F074600F0A480338A8342C0F0A080237C022B40F09C80B3
:4035000094F80D80B8F1000F00F096800021402205F1180000F00CFF04F1130000F09CFF064620B904F1200000F07DFF064604F1160000F091FF824680B904F1280000F00A
:403540008BFF10F08F0F77D104F1240000F06BFF824604F12C0000F066FFE862022385F83530C5F828A0AE6185F8348004F10E0000F072FF688604F1110000F06DFF95F8D3
:4035800035206B8E288602FB0A3A7A0992B2B0FBF2F25244AF832A62092301219940B94201D1EB8302E00133102BF6D108FB07F7B61AB6FBF8F6AE636F623046FFF7F7FAFB
:4035C000202818BFC5F82CA04FF0FF33202885F83600EB6332D104F1300000F03DFF00230146A5F844002246284600F0DCFF002822DB204600F017FF804604F5F27000F087
:4036000012FF074604F5FE7000F00DFF104B984514D1104B9F4211D10F4B98420ED104F5F67000F000FF286404F5F47000F0FBFEB04203D8E86301E0002500E001252046D1
:40364000FEF718FE2846BDE8F88500BFB896FF1F5252614172724161000055AA00238B60837F202B01D102B942694A600A60704783680133836070472DE9F0410C462021C8
:4036800005461F469DF818604FF0000800F050FE10E014F8080036B9E52804D1B8F1000F01D1E03802E000F0A1FEC0B205F8080008F10108B845ECDBBDE8F0812DE9F7453B
:4036C00006460D4608462849002A14BF92464FF0FF3A00F063FE804650B930462946022201F030F8B01C2021092200F021FE37E04FF0FF34002715F80780B8F1000F01D0C9
:40370000574505D1B4F1FF3F08BF3C4664B925E04046FFF75FFA08B3B8F12E0F08BF3C4601370D2FE7D119E0082C17DC3F1B042F14DC30462946082223464FF00008CDF8BD
:403740000080FFF799FF0123611C009306F10800691803227B1EFFF78FFF01E04FF001084046BDE8FE8500BFD46000002DE9F74FD2F808B0436A4FEA4B18B8FBF3F8D3687B
:40378000054698450E461446D2F8009001D20023D360B5F81EA0E368AAF1050A0BB9D4F804902BFA0AF7B9F1000F17D095F83420B8EB0303019206D04A4628463146FFF708
:4037C00013FC814640B3494605F11800FFF7FCF9019B591E01EA0707C11906E02B8E43FA0AF39F4218D2E96A79183046C4F80090C4F80C800122FEF7DFFE3046FEF7FBFEA7
:4038000050B9013000FA0AFAB3680AF1FF3A0AEA0B0B03EB4B1000E00020BDE8FE8F2DE9FF4107460E4601A811461A460A9D9DF82C40FFF743FFC8B9384631462A46FFF769
:4038400095FF8046A0B1037883B101A90B2200F05FFD38B998F80B3004EA0302A24201D1082B05D12846FFF703FFE5E74FF00008404604B0BDE8F0812DE9F04587B002AF61
:4038800004460E46154698469DF83CA039460E9A1830FFF7E3FE204631462A4643460097CDF804A0FFF7BBFF07B0BDE8F0852DE9F04500F1180785B005460C4638466946C9
:4038C0009246FFF7CBFE284621466A46FFF74EFF06466846E846FFF7CBFE002E37D1BAF1000F02D12B8E002B35D12146009A00232846FFF785FB2146024600232846FFF797
:4039000029FD80462046FEF772FEB8F1000F22D0AA8B0021A06800F00BFD38464146FFF753F995F8347000257E1E361808E0314620460122FEF740FE2046FEF719FE013E7D
:4039400001357B1BB3F1FF3FF1D1A66803E033780BB1E52BB7D1304605B0BDE8F08538B504461A3000F078FD054604F1140000F073FD45EA004038BD2DE9F0451D4685B0C1
:4039800007460E462A6010465C21904600F035FD4FF0000A0446A04508D108F10108C5F8008040465C2100F028FD044694B1C8EB0403002B0EDD10220192103A02923846E9
:4039C00031464246CDF800A0FFF77EF970B1FFF7C6FF824628685C2100F00FFDA04604460028D8D10C9B0130C3F800A005B0BDE8F085F8B505460C461E461746DAB16FF051
:403A00001A0313700846FEF749FC16B94FF47A7608E007F11C0000F006FD6B6A5E1E3618B6FBF3F63846FFF79AFF2146024633462846FFF7BDFC607BF8BD00002DE9F04FFD
:403A4000D1F8008093B0D8F808700BAD044608930E464FF0FF333946284609920F939DF870A0FEF779FC10AB009338462946224611ABFFF781FFD0B1F27A109B07920FAA18
:403A800000930292002338462946119A0193FFF71BF9044680B1C37A13F0100F07D10D9BDDF82CB0C3EB00094FEA691906E02846FEF794FD0125A3E083468146099B002B27
:403AC0003CD0002C33D0524B5D6912E02B687BB1AA7A6AB19A8B4A450AD19A695A4507D19B68BB4204D14FF6F772328100257EE0ED68002DEAD10DF12C0C61463846224676
:403B00000123CDF818C0FFF774FFDDF818C018B14FF0FF3333816AE03E4B1B68DC6824B138466146109A0F9BA0472C4606E0BAF1000F03D1089A002A44D065E0089BEBB1A7
:403B4000CCB1E37A13F0010F0BD0079A12F0150F07D04FF6FA733381BAF1000F01D1012500E000252046FFF7FAFE074604F11C0000F059FC29E0BAF1000F45D0BAF1010F38
:403B800001D000251BE0ECB900F0F4FE214B20221B68019282B2000C03920490009402949D6838460BA9119A109BA84750B10D9ADDF82CB0C2EB00094FEA69192546284617
:403BC0002F4602E00125002007464FF0FF33C8F81030C8F818B0A8F81C90079AC8F8040012F0010308BF1846C8F800707060B6F908300BA835EA230528BF0125FEF7EEFC39
:403C0000284613B0BDE8F08F01255046DCE700BFB896FF1FF080FF1F70B505460C461A3089B200F015FC05F11400210CBDE8704000F00EBC2DE9F0470446BDF824700D4636
:403C40009146002120229A46BDF82860DDF8208000F06EFB0B222046294600F073FD04F10E00394684F80BA000F0F2FB04F11000314600F0EDFB04F11600394600F0E8FB86
:403C800004F11800314600F0E3FB20464946FFF7C3FF04F11C004146BDE8F04700F0CEBB07B5426803460AB910460AE081680020009048681968DB6800F098FC003818BFC6
:403CC00001200EBD2DE9F04F0368B0F9085095B0044689469F68002D40F0B78041685868814203D34FF0FF312181AFE0411A8A4228BF0A46029222B94FF0FF322281029DFD
:403D0000A4E01B68002B00F0A080394610AE0CA8FEF722FB39463046FEF71EFBD4F800B0029ADBF80870AA4607F118030693796A4FF0FF330591099508930A96049220467D
:403D40000CA9FFF70DF900286ED1DBF81030059901334B43626804999B1A994228BF19460391BB8BDBF81410013B134006980193FEF72AFFF98B656897F8342035FA01F176
:403D8000013A019B02EA0101CDF81CB000EB01081E46BB46BBF81C30039A9D1B954228BF15469D4211D010AF384641460022FEF703FC3846FEF71FFC002835D11299484658
:403DC00071182A4600F0BEFC12E0099B089A9A1890450BD008A8FFF763FF00283AD10123CDF820800993CDF82C9001E001330993049B03995B1B04936368A9445B19491B1C
:403E0000AA446360039103D008F101080026C1E7049A5F46DDF81CB0002A90D108A85546FFF73EFFB0B900E05546029B9D4205D0B4F9083013B94FF6F97121810CA8FEF7CD
:403E4000CDFB10A8FEF7CAFB00E00025284615B0BDE8F08F0025EBE72DE9F04FD0F8008085B0D8F80860044631466846FEF774FA6268D8F804309A422DD22768736A694615
:403E800003EB02097A68B9FBF3F903EB020BBBFBF3FB3A6809F1FF333046FFF7A5F882466946524601233046FFF79EF8C9EB0B0B02465B4669463046FFF77AFA3046694675
:403EC0005246FFF77EF94FF00003C7F814A0C7F81090FB830EE002D84FF0FF350EE0013A62602046694600F051F8636805460133636018B963680025C8F8043040466946C0
:403F000000F098F86846FEF769FB6C46284605B0BDE8F08F7FB590F836300446202B22D1B0F84630FBB121466846FEF715FA6846B4F844100022FEF73FFB68466D46FEF71F
:403F40005AFB68B9029EE16B06F5F47000F076FA06F5F670216C00F071FA6846FEF79EF96846FEF73BFB7FBD07B5426803460AB910460AE081680020009048681968DB68C9
:403F800000F056FB003818BF01200EBD2DE9F047046805460F46A668FEF7E2FF81468246002841D0D4F80080B8F1000F1BD14246304639462B46FFF779F90246D8B11C4B42
:403FC0006061C4F8108093F880302060022B07D030463946FFF7F5F810B10120BDE8F087B9F1010A20D03046394662692B46FFF75DF9804628B94FF6FE732B810130BDE81E
:40400000F0870B4B93F88030022B05D03046394662694346FFF7F7F82369C4F8148001332361BAF1010ADDE70020BDE8F08700BFB896FF1F2DE9F041836804460D460846B6
:404040000122A1699E8BFEF7B7FA2846B4F81C80AF68FEF7D0FAF8B9013E06EA4816B6B2BE1906F11C00616800F0E8F921683046FFF7D2FD00F07EFC0446A1B206F11600B6
:4040800000F0E6F906F11800210C00F0E1F92846BDE8F041FEF7ABBABDE8F0817FB50668B0F90830B568C3B9C37A13F0110F14D029466846FEF750F930466946FFF7BAFFE8
:4040C000064B6C4693F88030022B03D128466946FFF77BF86846FEF781FA7FBDB896FF1F03682DE9F04F9F68038995B001339BB2012B04460E46059201D90025CEE039468F
:4041000010AD0CA8FEF728F939462846FEF724F9039626680023D6F808909A4609F118010791D9F82420059906924FF0FF32099308920A950291049320460CA9FFF726FFCE
:4041400038B108A8FFF710FF5546002818BF00258FE03269069901324A43B9F81CB063680BF1FF3BD21A0BEA030B029B0798934228BF134601937169FEF726FD99F8343040
:40418000B9F81C206768013BB7FBF2F703EA0707C719B9F81C300199CBEB03058D4228BF0D469D4228D0BBF1000F03D1626873689A420FD00DF14008404639460022FEF70B
:4041C000FBF94046FEF717FA20B14FF6F9725546228154E01298039958442A460DF1400800F0B0FA404639460022FEF7E5F94046FEF7BEF990B141E0099B089A9A189742BB
:404200000AD008A8FFF7B0FE002837D101230993039B08970B9301E001330993029B03995B1B019A029363684919521BAA44ED186560736803919D42019207D91BB1194BB2
:4042400093F880300BB9012104917560019A1AB101374FF0000B9CE7029B002B7FF46CAF08A8FFF781FE04995546002818BF002529B1304610A9FFF7DDFE00E05546059A7D
:40428000954205D0B4F9083013B94FF6F87323810CA8FEF7A3F910A8FEF7A0F9284615B0BDE8F08FB896FF1F37B54FF0FF3469468DF80740FEF70CFA054670B1FEF759FB76
:4042C00010F0010F09D0284600990DF107020123FEF7EFFB08B18DF807409DF807003EBD1FB58DF8071003A9FEF7F2F9044658B1FEF73FFB032807D1204603990DF107021E
:404300000123FEF77DFB01E04FF0FF3004B010BD10B5002308E0C45C11F803C0013A0133644501D0012010BD002AF4D1104610BD70B5034602E003F8011C013A1C4622B19F
:4043400003F003050133002DF5D193081ED04FF001354D4308E044F8105C44F80C5C44F8085C44F8045C043B032BA44604F11004F1DC1C46002603E04CF80650013B043675
:40438000002BF9D102F003020CEB8404002302E0E154013A0133002AFAD170BD002310F803C0CA5C624501D0012070470133002AF5D110467047002300E00133C25C002AB3
:4043C000FBD11846704710B500230BE0C45C11F803C0644501D0012010BDC4186478013314B1013A002AF1DC002010BDA0F16103192B98BF00F0DF007047C9B203E00BB9AD
:4044000018467047013003788B42F8D1704742780178431C42EA01205A789B7842EA002043EA002070478378C27803EB0222437803EB0222037803EB0220704703460A0AA7
:4044400003F8011B42700A0C090E5A70997070470170090A417070474278037843EA022070470000094A0A4BC11C10B5146821F0030118680919814201D9002010BD11601D
:404480009A685868013220189A6010BD3C97FF1F0C83FF1F08B5FFF7E5FF00B9FEE708BDFFF7E0BF30B1044A9368013B93600BB9024A1360704700BF0C83FF1F3C97FF1FEB
:4044C000014B5860196070470C83FF1F38B50546FFF7E0FF002104462A46FFF729FF204638BD000010B5084CA37C0BB1002010BD4FF40073238200F02FFAA37C012043F0B2
:404500000103A37410BD00BFB896FF1F08B583680BB10020984708BD08B583680BB10120984708BD10B504680079A468A04710BD37B59DF81850046800790095E468A04717
:404540003EBD08B5036800799B69984708BD036810B55B69044623B10079984708B1002000E00120607110BD10B5437904460BB9FFF7EDFF607910BDF7B504461F460E464F
:404580001546FFF7F1FF2046FFF7C6FF2A463146012320460097FFF7C5FF05462046FFF7B5FF2846FEBD10B504690919BDE81040FFF7E2BF2DE9F341044615461F460E46CB
:4045C0009DF82080FFF7D0FF2046FFF7A5FF2B4631463A462046CDF80080FFF7A3FF05462046FFF793FF2846BDE8FC8130B504699DF80C5009190395BDE83040FFF7DABFAC
:40460000F7B5044615461F460E46FFF7ADFF2046FFF782FF0023009331462B463A462046FFF786FF05462046FFF770FF2846FEBD30B504699DF80C5009190395BDE83040A1
:40464000FFF7DEBFF7B5044615461F460E46FFF78BFF2046FFF760FF0123009331462B463A462046FFF764FF05462046FFF74EFF2846FEBD30B504699DF80C50091903956A
:40468000BDE83040FFF7DEBF73B504460E461546FFF76AFF2046FFF73FFF00232A460093314601332046FFF743FF05462046FFF72DFF002D14BF4FF0FF3000207CBD10B56A
:4046C00004690919BDE81040FFF7DEBF2DE9F0411F46A1F57C73012B04460E469046056801D9FFF741FF2D692079314642463B46A847BDE8F08130B5054685B0FFF734FF13
:404700002B6828791C694FF47B71002201ABA04708B1002001E0BDF80C0005B030BD70B506460D46FFF720FF336830791C694FF47B7100222B46A047002814BF4FF0FF300B
:40474000002070BD11F0030F70B584460B4632D110F0030F2FD195100446AC4611E053F8106CACF1040C44F8106C53F80C6C44F80C6C53F8086C44F8086C53F8046C44F8A9
:40478000046C10341033BCF1030FE8D8AB081B0100EB030CCB1815F003050AD0284600215C584CF8014004310138F9D1AD00AC445B1902F0030213F0010F19462FD11CF06A
:4047C000010F60462BD15410254610E031F8086C043D20F8086C31F8066C20F8066C31F8046C20F8046C31F8026C20F8026C08300831032DEAD8A108C9005B1814F0030428
:404800008C440AD0204600215D5A2CF8015002310138F9D16400A4441B1902F00102614610E013F8040C043A01F8040C13F8030C01F8030C13F8020C01F8020C13F8010C1D
:4048400001F8010C18460433032A8C4601F10401E7DC32B10023C15C0CF8031001339342F9D170BD0378E92B01D101207047EB2B01D0002070478078902814BF00200120EF
:40488000704708B500F5FF70FFF7E6FD4AF65523984214BF0020012008BD01EB001000F5E370FFF7C0BDF0B50D4685B01446064658B352B300210B46FFF75EFE002824DB57
:4048C0002046FFF7DEFF00B32046FFF7CBFF10B10024274616E02146FFF7DFFF074604F5E570FFF7A0FD01A904463046FFF717FF5CB157B1E219FF23120AB2FBF3F2029B02
:404900009A4202D81DB12C6001E04FF0FF37384605B0F0BD73B50446FFF7EDFE0646FDF793FC0C4B05461B8AB3420DD366B1204601A92A46FFF7B7FFB0F1FF3F04D020617C
:40494000019B6361002400E0FF242846FDF792FC60B27CBDB896FF1F08B54FF480510348FFF7AEFD0248FDF723FF08BD1883FF1F206100004FF40410704700BF4FF6FF706C
:4049800070470000014B1868704700BF1893FF1F004870474061000000F018BD37B501220DF10701054600F017FD9DF80740FF2C14BF0A240724284601220DF1070100F0B2
:4049C0000BFD9DF80700FF2803D1013CE4B2002CF1D13EBD37B50469857828460DF10701012200F0F9FC9DF807300BB1002003E0013CF2D14FF0FF303EBD37B54FF0FF3339
:404A000005460C468DF8073006E028460DF10701012200F0EFFC013C002CF6DC3EBD000038B5094C2368032B02DD4FF0FF3509E0DDB2013323601420FFF748FD04EB85042C
:404A400060608570284638BD1893FF1F08B5034B4FF400711B68984708BD00BFF480FF1F4FEAD20CACEBD103CCF10F0C10B501336044002410F801CB013B4CEA0424F9D1CB
:404A800001F00703511A02228A40DC40013A04EA020010BD7FB5130E85788DF80530130C01F03F018DF80630130A41F040018DF8073000238DF808208DF804101A4601A9B9
:404AC00011F802C000215B00DBB283EA0C0E1EF0800F18BF83F009030131082904D04FEA4C0C5FFA8CFCEEE70132052AE7D15B0043F001038DF809308678C46801223046BD
:404B000003A900F069FC9DF80C30FF2B04D00CB9FF2009E0013CF1E7284601A9062200F069FC2846FFF73AFF04B070BDF7B5847806460F4620460121FFF75FFF204600F035
:404B4000E5FB304609210022FFF7A4FF8DF8070028BBF6680546012220460DF1060100F03BFC9DF80630FE2B06D0FC2B04D00135ADB2B542EFD112E00DF10705204639463B
:404B8000102200F029FC29462046012200F024FC29462046012200F01FFC002500E0FF25204600F0BDFB20460121FFF726FF2846FEBD00002DE9F04F9B46494B89B003EBAF
:404BC000800305925C684A02029103924FF00309029AA578E678039B2846022E08BF13461E4600F09DFB01212846FFF706FFBBF1010F0CBF4FF0110A4FF0120A284600F094
:404C000085FB204651463246FFF744FF002851D1059F5E46A378E268B44604924FF000081E460FE0012230460DF11F01CDF804C000F0D2FB9DF81F20DDF804C0FE2A05D0BE
:404C400008F10108049B9845ECD333E0284639464FF40072664600F0BFFB0222284607A900F0BAFB9DF81C30384601939DF81D80FFF7ECFE4FF6FF729042019B0CD048EACE
:404C80000328404508D0BAF1120F13D120460C210022FFF7FFFE0DE0013E02D007F50077B8E7BAF1120F07D120460C213246FFF7F1FE01E04FF0FF36284600F031FB284623
:404CC0000121FFF79AFE3EB1B9F1000F02D009F1FF397DE74FF0FF36304609B0BDE8F08F1893FF1F2DE9F04F99464C4B87B0029203EB80039DF840205D68009103926B789A
:404D0000002B40F085804B0201930327009BAC78EE78019A2046022E08BF1A46164600F0FFFA01212046FFF768FEB9F1010F0CBF4FF0180A4FF0190A204600F0E7FA284675
:404D400051463246FFF7A6FE8DF81700002850D120460121FFF751FE029ECB46B8463046FFF774FE0DF11707BAF1180F0CBFFE23FC2301228DF817308DF81500030A39463D
:404D800020468DF8143000F035FB204631464FF4007200F02FFB0222204605A900F02AFB01222046394600F017FB9DF8173003F01F03052B1CD12846FFF70CFEC0B9039A0F
:404DC0000AB906F50076BBF1010BC8D1BAF1190F474611D106A96FF00203204601F8013D012200F007FB2846FFF7F4FD20B100E047464FF0FF3600E00026204600F090FA3A
:404E000020460121FFF7F9FD26B10FB1013F7DE74FF0FF36304607B0BDE8F08F1893FF1F2DE9F04F877887B0044638460D4600F06DFA20463A210022FFF72CFE064638B100
:404E4000384600F06DFA38460121FFF7D6FD58E00DF1140804224146384600F0BDFA4046FFF7D5FA8046384600F05AFA01213846FFF7C3FDB8F1000F28F07F02B8BF4FEAA6
:404E8000987BD2B240F272634FEA1828B8BF0BF0010B1FFA88F8002A14BF1A460022012111EA080F05D10136F6B24900102E89B2F6D140F27260824233460DD0642272437A
:404EC00002F5FA6208E011EA080F07D049000133013689B2DBB2F6B20F2EF4D964214B434FF6FE7103F5FA6302EA01014FF6FC72384603EA020200F04BFA10F0FF0F40F0C1
:404F000099804FF0FF3092E028467E217F22FFF7A7FD8246EB78DFF82C8103F0030203F0780308EBD30358F822101B7C3846594389B200F001FA0646002877D06B7803F068
:404F40000702DB1003F00F0308EB82024344126A93F810800292B8F1000F67D0A978284603911C221A21FFF77BFD0190BAF1000F1FD1502153222846FFF772FD4FF00109D9
:404F800009FA00F92F2131222846FFF769FD1FFA89F982463E21284649224FEA5929FFF75FFD0AF1020A09FA0AF9013000FB09F910E0BAF1010F01D0012038E02846302131
:404FC0004522FFF74DFD4FEA8029BBF1000F01D00223E37008FB06F2029B0399B2FBF3F2642303FB01225A437343D208DB089A4294BFE260E360FA235E43019BF6089A40C0
:405000000C21B24294BF2261266128460D22FFF727FD0546384600F08DF94FF4007128436070A180C4F80890002000E0FF2007B0BDE8F08FE378A778012B3FF465AF4FF072
:40504000000A67E7D8600000F0B5857887B004464FF4C871284600F06FF9B0F5C87F00F2CC804CF25033E3600026284600F058F90A212846FFF7C1FC624B93E80300019030
:405080002846ADF8081000F041F9062201A9284600F0B0F92846FFF781FC0746284600F03FF901212846FFF7A8FC17F0010F03D10136052ED9D1A0E0284600F027F90821AE
:4050C00020464FF4D572FFF7E5FC10F0040F52D0284600F025F9A5784FF4FA66284600F015F9002237212046FFF7D4FC28460121FFF783FC292100222046FFF7CBFC074685
:40510000284600F00DF928460121FFF776FC17B90123E3701EE017F0040F01D1013EDDD14FF4FA66284600F0F1F8012100222046FFF7B0FC0746284600F0F2F8284601219A
:40514000FFF75BFC0FB9E77004E0012F55D1013EE8D152E001AD20462946FFF7E7FC00284BD120462946FFF75BFEC0B2002844D10123237043E00422A07805A900F02CF911
:40518000284600F0CDF89DF81730AA2B35D19DF8163003F00F03012B2FD1A5784FF4FA66284600F0B3F8002237212046FFF772FC28460121FFF721FC29214FF080422046A8
:4051C000FFF768FC0746284600F0AAF828460121FFF713FC0FB1013EE2D101AE20463146FFF7A4FC48B90125E57020463146FFF717FEC0B208B9257001E04FF0FF3007B06D
:40520000F0BD00BF1861000010B5084B03EB80035C6823783BB9FFF7BFFB20B12046BDE81040FFF711BF4FF0FF3010BD1893FF1F38B51D46154BA1F57B7103EB80035C68A0
:40524000072918D8DFE801F00A17171704041719204600211422FFF76BF80CE0237833B92046FFF7F1FE10B14FF0FF3038BDA3882B81A3686B60002038BD2046FFF712F9AE
:40528000024B00201A68013A1A6038BD1893FF1F10B580B9104B1B78EBB901240E4B1C7000F038F921463B2000F050F900F024F900F014F910BD084B1B7863B90124064B87
:4052C0001C7000F027F921463B2000F03FF900F013F900F003F910BD2C93FF1F08B550B9084600F0B7F800F0A9F810F0010FFAD000F0BCF808BD084600F0ACF800F09EF8A7
:4053000010F0010FFAD000F0B1F808BD08B510B900F08AF908BD002000F086F908BD00BF08B518B9012000F07FF908BD012000F07BF908BD0020704738B5B1F5C87F05D3B5
:405340000D4642F21073994203D804E04FF4C87501E042F210756C00A4B245F6C053B3FBF4F448B900F0D6F8601E012180B200F0EDF800F0C1F808E000F0CCF8601E01217E
:4053800080B200F0E3F800F0B7F8284638BD00BF032809D840F6E44399420FD840F6E3439A420DD80020704740F6E443994209D840F6E3439A4207D8002070470020704732
:4053C00001207047002070470120704708B5FFF75FFF022008BD00BFF8B507460D4614466E1CFF213846FFF779FF28703546013CF6D1F8BD70B5064614464D1C097830463B
:40540000FFF76CFF2946013CF7D170BD08B5FCF7F3FC094A137843F0200313700132137843F010031370023A137843F010031370FCF7E6FC08BD00BF96650040014B18788D
:40544000704700BF67650040014B1878704700BF65650040034B1B7813F0040FFAD0024B187070476765004046650040014B1878704700BF5665004008B501E00A4B1B7837
:405480000A4B1B7813F0200FF8D1FCF7B5FC084B1A7842F001021A701A7802F0FE021A70FCF7AEFC08BD00BF56650040656500409665004008B50F22064B1A70FFF7DCFFB8
:4054C000FFF7BCFFFFF7C0FF0023034A1370023A137008BD866500408765004008B5054B1B7823B9FFF7E6FF0122024B1A70FFF78DFF08BD2D93FF1F054A137843F00203F0
:4055000013701032137843F002031370704700BFA2430040054A137803F0FD0313701032137803F0FD031370704700BFA2430040014B188880B2704784400040024B1878E1
:4055400000F00700704700BF8640004070B504460D46FFF7F3FF0646FFF7EAFFA04257D02C4B1B7803F00203DAB296B900B184B938B9294B1C80294A137803F0BF031370D8
:4055800070BD264A137843F040031370224B1C8070BD22B3002322490B7002260F310E7004310B700C390B7803F07F030B701B4B1B7813F0080F00D08CB91A4B188007211B
:4055C000013B1970164B1B7813F0010FFAD111490B7803F0FD030B700021114B19700D4B1B7813F0020F0DD00E4B1C800DB1032200E001220A4B1A70094B1B7813F0010F33
:40560000FAD170BD044B1C8002490B7813430B7070BD00BFA243004084400040864000400140004002400040044A137803F0FD03400000F00200184310707047F0510040B9
:40564000014B1868704700BF5881FF1F0E4B70B51E460E4C0025E41AA410A54204D056F8253098470135F8E700F088FD084B094C1E46E41AA4100025A54204D056F82530D6
:4056800098470135F8E770BD8861000088610000886100009061000010B5431E0A44914204D011F8014B03F8014FF8E710BD03460244934202D003F8011BFAE770470000D1
:4056C0000EB400B54FF402719CB0ADF814106FF00041049107914FF6FF711DAB02900690084853F8042BADF81610006802A9019300F026F9029B00221A701CB05DF804EB52
:4057000003B070475881FF1F024610B513461C780132002CFAD1013B11F8012B03F8012F002AF9D110BD034613F8012B002AFBD1181A01387047000038B50546002944D07A
:4057400051F8043C0C1F002BB8BFE41800F0C1FB1E4A1368114613B96360146030E0A3420DD92268A018834201BF18685B681218226063600C6023E0A24203D813465A6851
:40578000002AF9D118681918A1420BD12168014458188242196013D110685268014419605A600DE002D90C232B6009E021686018824201BF106852680918216062605C603A
:4057C0002846BDE8384000F085BB38BD3493FF1F70B5CD1C25F0030508350C2D38BF0C25002D064601DBA94202D90C23336046E000F06FFB234B1C681A462146A1B10B6870
:405800005B1B0ED40B2B03D90B60CC18CD501EE08C420BBF63684B681360636018BF0C4615E00C464968E9E7174C23681BB9304600F016FB20602946304600F011FB431C5E
:4058400018D0C41C24F00304A0420DD12560304600F040FB04F10B00231D20F00700C31A0ED05A42E25070BD211A304600F0F8FA0130EBD10C233360304600F02BFB002064
:4058800070BD00BF3493FF1F3093FF1F2DE9F0478E6882469E420C46914698463ED88A8912F4906F3AD02568096902236F1A656905EB450595FBF3F57B1C43449D4238BFEB
:4058C0001D4653050FD52946FFF782FF064698B13A462169FFF7E0FEA38923F4906343F08003A38113E02A4600F0F5FA064670B921695046FFF720FF0C23CAF80030A38967
:405900004FF0FF3043F04003A381BDE8F08726613E44266046466561ED1BA560464528BF464649463246206800F0B8FAA36800209B1BA36023681E442660BDE8F0870000B3
:405940002DE9F04F9DB003938B8980461C060D4616460DD50B695BB94021FFF739FF2860286118B90C23C8F80030CDE040236B610023099320238DF82930DFF89CB1302317
:405980008DF82A3037463C4614F8013B1BB9B7EB060910D003E0252BF9D02746F3E74B46324629464046FFF771FF013000F0A780099B4B4409933B78002B00F0A08000238D
:4059C0004FF0FF3204930793059206938DF853301A930126052221784E4800F051FA671C049B38B14B4A3C46801A06FA00F018430490EFE7D90644BF20228DF853201A07BB
:405A000044BF2B228DF8532022782A2A03D0079A00210A200BE0039A111D12680391002A10DA524243F00200079204900BE027463B780134303B092B03D800FB0232012198
:405A4000F5E701B107923B782E2B1ED17B782A2B0AD1039B02371A1D1B680392002BB8BF4FF0FF33059310E0002319460593781C0A2407463A780130303A092A03D804FB9D
:405A800001210123F5E703B1059103223978224800F0F6F940B14023CBEB000003FA00F0049B013718430490397806221B487E1C8DF8281000F0E4F988B1194B33B9039B17
:405AC000073323F007030833039314E003AB00932A46144B04A94046AFF3008007E003AB00932A460F4B04A9404600F093F8B0F1FF3F824603D0099B5344099342E7AB89D7
:405B00005B0601D4099801E04FF0FF301DB0BDE8F08F00BF466100004C61000050610000000000008D5800002DE9F04791461F460A698B6806469342B8BF1346C9F80030D4
:405B400091F843200C46DDF8208012B10133C9F800302368990642BFD9F800300233C9F80030256815F0060510D104F1190A07E00123524639463046C04701301AD00135B2
:405B8000E368D9F800209B1A9D42F1DB94F843302268003318BF012392060FD5E118302081F843005A1C94F845102244023382F8431003E04FF0FF30BDE8F08704F14302AB
:405BC00039463046C0470130F4D02268D9F80050E36802F00602042A08BF5D1B2269A3680CBF25EAE57500259342C4BF9B1AED184FF000091A344D4509D00123224639464A
:405C00003046C0470130D5D009F10109F3E70020BDE8F0872DE9F04317460A7E85B06E2A984606460C460C9B01F1430E00F0AE8011D8632A22D009D8002A00F0BB80582A58
:405C400040F0CA8081F84520834955E0642A1ED0692A1CD0C0E0732A00F0B08009D86F2A2ED0702A40F0B8800A6842F020020A603EE0752A24D0782A3AD0ADE01A6801F16B
:405C80004205111D1960136884F84230A8E021681A6811F0800F02D0111D196008E011F0400F02F10401196002D0B2F9003000E01368002B3CDA2D225B4284F8432037E01D
:405CC00021681A6811F0800F02D0111D196007E011F0400F02F10401196001D0138800E01368227E5C496F2A14BF0A2208221BE078225A4984F845202268186812F0800F66
:405D000000F104051D6003D1550601D5038800E00368D00744BF42F0200222601BB9226822F0200222601022002084F8430001E049490A226568002DA56008DB206820F023
:405D4000040020602BB9002D7DD175460CE0002B79D07546B3FBF2F002FB1033CB5C05F8013D03460028F5D1082A0BD12368DA0708D5236962689A42DEBF302305F8013C4E
:405D800005F1FF35C5EB0E0323612EE008681A6810F0800F496903D0101D1860136808E010F0400F02F104001860136801D0198000E0196000232361754616E01A68111D54
:405DC0001960156800216268284600F059F808B1401B6060636804E004F1420584F8422001232361002384F84330CDF800803B4603AA21463046FFF797FE013002D14FF09E
:405E0000FF3026E023692A4639463046C0470130F5D023689B0710D5002504F1190907E001234A4639463046C0470130E7D00135E368039A9B1A9D42F2DBE068039B984233
:405E4000B8BF184605E00B7804F1420584F842308AE705B0BDE8F083576100006861000038B5064C0023054608462360FAF708FD431C02D1236803B12B6038BD4097FF1FA2
:405E800010B5C9B202449042034605D01C7801308C42F8D1184610BD002010BD884210B501EB020301D8421E0BE09842FBD28118D21AD34204D013F8014D01F8014DF8E7C0
:405EC00010BD994204D011F8014B02F8014FF8E710BD70477047F8B5074615460E4621B91146BDE8F840FFF773BC1AB9FFF724FC2846F8BD00F015F885420ED929463846ED
:405F0000FFF766FC044650B131462A46FFF7C4FB31463846FFF710FC01E03046F8BD2046F8BD51F8040C0028BEBF091851F8043CC018043870470000000000006100000030
:405F40005C53534153504952455C464C4947485425752E637376000025752C25692C25692C25692C25692C25692C25692C25692C000000000D0A000024504D544B33313442
:405F80002C302C312C302C312C302C302C302C302C302C302C302C302C302C302C302C302C302C302C302A32380D0A0024504D544B3235312C35373630302A32430D0A0084
:405FC0002C00000047504747410000002C2E00004750524D43000000C84900401900004F0040180040510040300000000140800000010140000F001401400008004001403A
:40600000000A004C014000020050014020000000800001408C0E0048800000009460000008000100966000000A00010099600000140100019B600000160100019E600000D5
:4060400015000101A060000017000101A360000018000100A66000001A000100AA6000001A000100AE6000001C010001B16000001E010001B56000001E010001B9600000E3
:406080001D000101BC6000001F000101C06000001F000101720072620077007762006100616200722B00722B620072622B00772B00772B620077622B00612B00612B6200CA
:4060C00061622B00792D0000B92C00005F2C0000000000002E2E00000A00000064000000E803000010270000000A0C0D0F14191E23282D32373C41508096980040420F0046
:40610000A086010010270000E8030000640000000A00000001000000400000000095000091490000214A0000B54B0000E54C000031520000095200009949000085490000CE
:406140006D6D63004300232D302B2000686C4C006566674546470030313233343536373839414243444546003031323334353637383961626364656600000000F8B500BF40
:40618000F8BC08BC9E4670474D000000FD080000F8B500BFF8BC08BC9E46704729000000B0610000C880FF1F98000000E81500000000000054454D50444154412E54585448
:4061C000000000004897FF1F0000E02EC05D00001800000000366E01C46000007D4900000000000000000000000000000000000000000000000000000000000000000000D0
:4062000044610000000000000000000000000000000000000000000000000000000000000000000000000000000000000000000000000000000000000000000000000000B9
:40624000F880FF1F00000000000000000000000000000000000000000000000000000000000000000000000000000000000000000000000000000000000000000000000088
:4062800000000000000000000000000000000000000000000000000000000000000000000000000000000000000000000000000000000000000000000000000000000000DE
:4062C000000000000000000000000000000000000000000000000000000000000000000000000000000000000000000000000000000000000000000000000000000000009E
:40630000000000000000000000000000000000000000000000000000000000000000000000000000000000000000000000000000000000000000000000000000000000005D
:40634000000000000000000000000000000000000000000000000000000000000000000000000000000000000000000000000000000000000000000000000000000000001D
:020000040003F7
:0200000480007A
:40000000044F00400C52004008640040036500402400014035010140620201404103014056040140440501405D060140420701406208014045090140510A01403B0B014085
:400040005B0C01403A0D01404E1401403E1501406C16014045170140631801403B1901403D1A0140441B0140074001400E4101400F4201400F4301400244014009450140DD
:400080000646014008480140164901400C4C01400B4D0140085001400251014001300A1B0D50161B0060014109200C101080144018821901600A610C78207901830F840FB2
:4000C000850F880F89388A728C0F8D67860F8A728B380530070C0D090F101303151419401C011D10251C2722292C2B11311F3401376039803E104002454049FF4A074BFFEE
:400100004C404D204EF04F055008580459045A045F01604061A862406320040405100A020CA00D020E20159017081B201D141E221F15200221402201272229142F0230A8AC
:40014000320136083722380439803C503D083F204204452E470848B049804A014C024D144E085680571A5C105D85674285218740C060C2F1C4E0CA16CCEFCE5AD0E4D230DC
:40018000D6F0D890000202700470060208721001121414021C7222202403260C28032A182C72301F3220344038023E144060410349FF4AFF4BFF4DA04F0450185440560430
:4001C00058045A045B045C025D235F01604062C06440654066C068C06AC06CC06EC0840C88018B07940C98089F0CA108A202A604A701AA11AB02B002B101B210B302B40C93
:40020000B508B601B704B820BE10BF04C060C103C5D0C625C701C81EC9FFCAFFCBFFCDAFCE0FCF04D018D407D804D904DA04DB04DC33DD33DF01E040E2C0E440E540E6C0A4
:40024000E8C0EAC0ECC0EEC00014042A0B280D020E020F2010A01204151016821708181019421A041C401D262294238029022A14308433083B103C203E204020442046105D
:4002800049214D204F105080521459415A28640465046680678087608A8091109328944496049A809B28A031A338A408A52AA608AC02C076C2B6C4FECA07CC08CE04D04200
:4002C000D224D60FD8F0E280EA0802080403060C09010A0514031604180A1A0420032204300F3301340F3A223F044023410646EC470B481C49FF4AFF4BFF4EF04F44500C22
:4003000054015604580459045A045B045F0166C06A406B0281D9845085D9862088E389088A0C8B048C038EF490209120925093D0942095D197089802992E9A1D9B819C70F8
:400340009DD9A124A349A470A8A1A911AA5AAB22AC70ADD8AF01B260B30FB41FB680B7F0B880BA20BB8CD602D724D804D904DB04DC22DD20DF010026045809020BA80C406E
:400380000D200E420F20108015041602172018041B021C101D781F082204260827222E402F483440372639203E063F20400442204B20508851105A085B51634065106C1538
:4003C0006D046E466F047602874090409328942E9A209D209E02A011A102A310A408A508A609AB20AF80C0EEC2F6C4E8CAB0CCF0CEE4D006D204D60FD821EC04EE08020548
:4004000005010618071408680A860B400D3E0E02133814B0152216461701188019091A601B022340254028222AC42B402D403140321E333834E03601370739803A203F05E8
:40044000580459045C115F0181148540878089108AA38C5C8E838F809061929695AC971199099A1C9B109C609E809F03A1B0A30CA608A861AA8EAD1CAFA2B0F0B380B41A5C
:40048000B560B60FB71FB808B920BAA2BE04BF04C042C106C5BEC60CC807C9FFCAFFCBFFCEF0CF44D00CD804D904DA04DC44DD04DF01E6C0EA40EB020180020405440640D2
:4004C000070809A00A400D040E0810081210172019811A4D1B081D541E0821202240231024202540274029812C802F1630083120324436093720388039203A1C3B023C2889
:400500003D80424848084B0650405180804082408B148F0893289D209F40A090A302AD50AF01B480B710C0F3C26BC446CAF9CCEECE7FD005D204E001E212E40101060502BF
:4005400009040D01111E1518170619061B181D102306250829182D1E331E35013B0A3F104043410249FF4AFF4BFF4DA04F015018540159045A045B045D455F016040628032
:4005800064406540668068406A506BA86C406D206E506FA8820487018A028B0E8D0E90019104990E9D0CA30CA609A701A908AE02AF0EB008B206B302B401B501B70CB9080D
:4005C000BE14BF10C043C102C9FFCAFFCBFFCDAFCE07CF01D018D418D604D804D904DA04DB04DC05DD05DF01E040E280E440E540E680E840EA50EBA8EC40ED20EE50EFA81D
:400600000022012003400A40100112101501170118101A4421242302248025022609271829242B812C282F823001335035403605371038A039083CA23F0442A846B85B0238
:400640005D815E105F0861206282818082108602884089808B018E08902093049604980199509A909E28A039A204A383A502A609A940AA10C00AC208C405CAFFCCFDCEFEA8
:40068000D0E7D6F1D80DE010E4A0000C02120303041C0502060208010904101E1104140C150418041E1220082104240128122A0C2C01300E3304341C3501360137023A027A
:4006C0003F4440434102455C4602470E481F49FF4AFF4BFF4DAF4E074F01501856025712580459045A045B045C505D055F016040628064406540668068406A506BA86C40B1
:400700006D206E506FA881108F06911F9507971899199B049F01A119A302A508A918AD01AF20B31FB720BB08D904DF01010A0304092A0A0210801144120819131A021BC35C
:400740002004224424202684272029012C292D02310232083689372038243B023E023F8042A84A204B02514052145A085D085E0869446B1470A87168720293049694980141
:400780009A809E049F14A011A620AF80B001B304C00EC20FC40FCAF1CCF3CE97D007D602EC04020106041102160E1703190822022608270C30043102320133083402350484
:4007C000360837013E104030410549FF4AFF4BFF4DA04F04501852805407580459045A045B045C335D335F01604062C06440654066C068C06AC06CC06EC08514870A8C0146
:400800009201951F991F9D029F05A603AD09AF12B001B318B602B707BE01C030C105C5D0C650C721C83AC9FFCAFFCBFFCDAFCE0FCF04D018D280D407D804D904DA04DB0448
:40084000DC05DD53DF01E040E2C0E440E540E6C0E8C0EAC0ECC0EEC00180040807400B400D0810201502161019801A401D081E081F822022218424402610272228012EC0C9
:400880002F20318033143618370239084108450849024A024E0250045101521A53205A945C405D025E085F2062247340774080208702C031C228C434CA48CCEECE02D042BF
:4008C000D218D6FED806E008E201EA080001040107FF0804091F0B200C010D801001119013401407157F16181780184019C01B041C401DC01F02201021C0230124082621CF
:400900002760282229C02A082B082C012F9F33FF3440363F38A03E403F04580459045C015F01800D830884018602870588028A048C0D8F019002920D9506980D9B039D08CD
:40094000A00DA108A402A508A608A80DA908AF08B00FB508B707BA02BF10D440D804D904DB04DC11DD10DF01016403400601076809050A090C200E80124913041518170128
:4009800019201A011B101E80220425502A412B182C802D442F083020320833413608376038603B043D803F074510460864046608670189409060915C930498049A419B6937
:4009C000A0A0A105A208A309A920B004B101C0FFC25FC47FCAFFCC7FCEDED870E00CE6A0EA03EE0101480320052207440910111813211560171E19421B3C1D392139252965
:400A0000271029212B183160331E37013B023F40401641034240440545FE46CB47D0482F49FF4AFF4BFF4C224EF04F0850045602572459045A045B045C105D115F0162C05A
:400A4000644065016610671168C069016B116C406D016E406F018501875E89048B208D469003914295779708980399399B069C029D46A146A542A704AA01AB46B108B37031
:400A8000B50FB603B701B880B920BB0CBE40BF41C005C640C9FFCA07CBFFCC40CD20CEF0CF05D008D409D804D904DA04DB04DC10DD14DF01E040E1A8E240E3200A45120457
:400AC0001940200821042238238D2460250D260227222A012B282C802D042F083108321233403628374139483A203D0A3E3044014508470249404D094E09511052045660B9
:400B0000570159085A105B82630165106C206D546F69748076018401860187049245952899109D209E449F28A404A608A904AA01B410C20BC402CAE7CCFFCEEED0D0D2382B
:400B4000D60FD828EE400204030207010F021301150216011A011C021D023204330134023601370239803E503F044036410142024405450C470E481149FF4AFF4BFF4C623D
:400B80004DA04EF04F41500C5280580459045A045B045C435D345F016640670269106A306B106D106E106F12802282D187028D019044923194019501960E98679B029D0181
:400BC000A101A867B060B101B207B480B618B702BE40BF41C021C104C206C403C50EC70CC811C9FFCAFFCBFFCC62CDA0CEF0CF41D00CD804D904DA04DC04DF01E640E70256
:400C0000E910EA30EB10ED10EE10EF120002068008080A940C040D800E200F0810081A901B601F582281272129012A023118320833403608374138483C403D083E02401020
:400C40004102439044044508474049144FA850045504588059205A805B2076807C027F408710901099109B109D04A182A380A680C018C2EEC402CA01CCDECEDAD07FD23410
:400C8000E4020002017F050406060806090C0D4C0E060F231108120614061573170C18011B401C041D022006214F23102733280129032C012D413006317C330F34013B0A9A
:400CC00056025713580459045B045C445D405F01800F8409860688028C078E08900692099609A004A406B00EB207BA02BB02D418D804D904DB04DC44DD40DF010006020863
:400D0000030204420608076008880A040B400E400F201008114216201703180419021B101D011E601F0220402208236025012740280829412B103248332138423A285A023E
:400D40005D0264026520680869406A0472287302928294409604988A99609D019F40A001A320A408A618A710AB08B001B140C0FFC23FC43BCA0FCC0FCE0FD681D830E00C04
:400D8000E680EA0331203202364037028640CCF0E6405940630266806708852086108B049F02A520A602D480D6C0D880E2503E105280561087029A109F02A602A701AD40CE
:400DC000AE80CE20D460E640EA40EE101B016320660886028C048E088F109610A602A701AE80C610D8C0E240EE101508C40406040A045D0282048410AD04C001C202D601C6
:400E00005410A010A902B204D402EE045B108480900896109B10B710D480E44002400710088056205B8066807004831086408AA090089B809C80AA10AF80C030C240D4C091
:400E4000D680DC80E030EAC0080812401320170163407B407F408740C208C40ED802DE03834087408A4097809A40A740AB20AF01B008E601EA01003F080D0A170C310E2904
