:400000000080002011000000A1280000A128000080B500AF024A034B1B68136002F072FCBC760040FA46004010B5054C237833B9044B13B10448AFF300800123237010BD15
:400040005882FF1F00000000C4950000084B10B51BB108490848AFF300800848036803B910BD074B002BFBD0BDE81040184700BF000000005C82FF1FC4950000C880FF1F2E
:400080000000000080B500AF02F0D8F84FF4165001F0E0FE064B1B78184601F077FF032002F014F8082002F061F800BF80BD00BFCC80FF1F80B500AF3221012001F016FD64
:4000C0003221022001F012FD1921042001F00EFD192005F047FA0021012001F007FD0021022001F003FD4FF4FA7005F03BFA6421012001F0FBFC6421022001F0F7FC4FF424
:40010000FA7005F02FFA3221012001F0EFFC3221022001F0EBFC4FF4FA7005F023FA0021042001F0E3FC4FF4FA7005F01BFA3221042001F0DBFC4FF4FA7005F013FA3221CE
:40014000012001F0D3FC3221022001F0CFFC1921042001F0CBFC00BF80BD00BF80B584B000AF0023FB6000237B600023FB720AE0002000F097FD03461B68FA681344FB600A
:40018000FB7A0133FB72FB7A062BF1D9FA68064BA3FB0213D21A520813449B087B607B6818461037BD4680BD254992242DE9F043ADF53B7D0EAF62B603F05AF905F072F82F
:4001C00040F24D1005F090F802F00AF901F00AFE02F098F8FFF756FF01F07CFCFFF76AFF00F03EFCFFF7BAFF0346C7F8943200F001FE00F04DFF03F06BFE02F04DF80023E8
:4002000087F8AF320023C7F8A832C14B1B78002B0AD0BF4B00221A70BE4B1A78BD4B5B781946104601F062FCBB4B1B78002B13D007F12803184600F0CDFF034687F893325D
:4002400097F99332012B07D1B34B00221A7007F12803184601F01AF8B04B1B78002B3DD0AE4B00221A7097F8AF32013387F8AF32002000F017FDC7F88C02D7F88C321B6807
:40028000C7F8A432D7F89432D7F8A422D31AC7F89C32D7F88C325B68C7F8A032D7F88C3208331B68C7F89832D7F898221346DB0013449B4A82FB03125210DB17D31A03F58C
:4002C0004863C7F8983200F015FE00F075FE00F0C5FE02F043FF0346C7F8A83297F8AF32072B92D9002387F8AF328E4BB3F900300A21184600F042FA80468B4BB3F9003029
:400300000A21184600F03AFA7862884B1B880921184600F033FA3862854BB3F900300A21184600F02BFAF861824BB3F900300A21184600F023FAB8617F4BB3F900300A21B5
:40034000184600F01BFA78617C4B1B780B21184600F014FA38610721D7F8A40200F00EFAF8600721D7F8A40200F058F90346BB600721D7F89C0200F001FA78600721D7F848
:400380009C0200F04BF903463B600721D7F8A00200F0F4F906460721D7F8A00200F03EF903461D46D7F898320821184600F0E6F90446D7F898320821184600F02FF903469F
:4003C00007F18C000D930C940B950A963A6809927A680892BB680793FB6806933B6905937B690493BB690393FB6902933B6A01937B6A00934346D7F8A822514908F092FB2B
:4004000000F070FE0346184600F040FF0346002B72D04C4B5B680021184600F0AFF98046484B5B680021184600F0F8F803469946444B9B680421184600F0A0F90546414B49
:400440009B680421184600F0E9F803461E463D4BDB680421184600F091F97862394BDB680421184600F0DAF803463B62354B5B690521184600F082F9F861324B5B690521F1
:40048000184600F0CBF80346BB612F4BDB690521184600F073F978612B4BDB690521184600F0BCF803463B61274B5B690521184600F064F90446244B5B690521184600F090
:4004C000ADF803461A461F4B5B7C0A93099208943A6907927A690692BA690592FA6904923B6A03937B6A0293019600954B4642461649174808F016FB07F18C03184604F095
:4005000033FA134804F030FA124804F02DFA23E0F495FF1FE895FF1FF695FF1F9A95FF1F67666666F295FF1F9895FF1F2C96FF1F2A96FF1FC095FF1F2896FF1FF595FF1F27
:40054000C8950000C495FF1F9C95FF1F04960000D080FF1F349600002A4B1B781E46294B5B789E46274B93F904301A46254B9B781946244BDB781846224B93F909301C46C7
:40058000204B93F90A301D461E4B93F90B30059304950394029001910092734632461A491A4808F0BFFA07F18C031949184608F0DDFA07F18C031549184608F0D7FA07F138
:4005C0008C03184608F0F3FA03461A4607F18C031344104A1188927819809A700E4B1B68002B3FF412AE0C4B1C6807F18C03184608F0DDFA024607F18C031946204605F0F0
:40060000EBFC02E6F895FF1F389600005081FF1FD080FF1F509600003096FF1F80B485B000AF78600B46FB70FB780B2B00F2958001A252F823F000BF690600006F0600004C
:40064000750600007B0600009D060000BF060000E1060000010700001707000043070000370700004F0700000023FB8179E00023FB8176E00023FB8173E07B68BB60BB682B
:400680003B4A82FB03121113DA178A1A42F2107101FB02F29A1A1346FB8162E07B68BB60BB68334A82FB03121113DA178A1A42F2107101FB02F29A1A1346FB8151E07B68CF
:4006C000BB60BA682B4B83FB02139910D317C91A0B469B000B445B00D11A0B46FB8140E07B68BB60BB68244A82FB03125111DA178A1A642101FB02F29A1A1346FB8130E0AA
:400700007A681D4BA3FB02135B09642101FB03F3D31AFB8125E07B68BB60BB68164A82FB03125111DA178A1A642101FB02F29A1A1346FB8115E07B689BB203F00F03FB81C5
:400740000FE07B689BB203F00F03FB8109E07B689BB203F00103FB8103E043F23903FB8100BFFB8918461437BD4680BC704700BFAD8BDB68676666661F85EB5180B485B07F
:4007800000AF78600B46FB70FB780B2B6FD801A252F823F0C5070000CB070000D1070000D7070000ED07000003080000190800002F0800003D0800005F0800005308000054
:4007C000670800007B68FB8154E00023FB8151E00023FB814EE07B68BB60BB68284A82FB03121213DB17D31AFB8143E07B68BB60BB68234A82FB03121213DB17D31AFB81F2
:4008000038E07B68BB60BB681E4A82FB03129210DB17D31AFB812DE07B68BB60BB681A4A82FB03125211DB17D31AFB8122E07B68154AA2FB03235B09FB811BE07B68BB60C6
:40084000BB68114A82FB03125211DB17D31AFB8110E07B68BB60BB681B11FB810AE07B681B09FB8106E07B685B08FB8102E00023FB8100BFFB8918461437BD4680BC704779
:40088000AD8BDB68676666661F85EB5180B582B000AF03460A46FB711346BB71002003F041FAFB7903F07F03DBB2184602F046FFBB79184602F042FF03F03AF8012003F04D
:4008C00031FA002318460837BD4680BD90B587B000AF03460A46FB711346BB71002003F021FA03F025F8FB7963F07F03DBB2184602F024FF0023FB7505E0002002F01EFFEA
:40090000FB7D0133FB75FA7DBB799A42F5D300233B6102E03B6901333B6102F0D3FF03461A46BB79934203D93B69114A9342F1DD02F08CFF0023FB7309E0FC7B02F086FF5E
:4009400003461A460B4B1A55FB7B0133FB73FA7BBB799A42F1D3FB7B064A0021D154012003F0E0F9034B18461C37BD4690BD00BF1FA107007482FF1F80B584B000AF034665
:40098000FB71FB7902211846FFF7A0FFF860FB681B781AB2FB6801331B781B021BB213431BB29BB218461037BD4680BD80B500AF8820FFF7E1FF03461A46284B1A808A20FC
:4009C000FFF7DAFF03461AB2244B5A808C20FFF7D3FF03461AB2214B9A808E20FFF7CCFF03461A461D4BDA809020FFF7C5FF03461AB21A4B1A819220FFF7BEFF03461AB2E8
:400A0000164B5A819420FFF7B7FF03461AB2134B9A819620FFF7B0FF03461AB20F4BDA819820FFF7A9FF03461AB20C4B1A829A20FFF7A2FF03461AB2084B5A829C20FFF7C2
:400A40009BFF03461AB2054B9A829E20FFF794FF03461AB2014BDA8200BF80BD0496FF1F80B582B000AF03F0A9F902F0E9FD642004F078FD0121D020FFF728FF03461B7828
:400A8000582B01D000232EE0FFF790FF0223FB710423BB7103237B7100233B710423FB70FB795B015AB2BB799B005BB213435AB297F9053013435BB2DBB21946F420FFF79D
:400AC000E5FE3B795B015AB2FB789B005BB213435BB2DBB21946F520FFF7D8FE4FF4967004F040FD012318460837BD4680BD00BF80B487B000AF78607B68DA10184B1B88AD
:400B00005B00D31A164AB2F9022002FB03F3DB127B617B681B11124A12889B1A7A6812110F490988521A02FB03F31B130C4AB2F9042002FB03F39B133B617A693B6913440F
:400B4000084A1360074B1A6813469B00134480331B12FB60FB6818461C37BD4680BC70470496FF1F4096FF1F80B487B000AF78604A4B1B685B10A3F57A433B613B699B10EB
:400B80003A69921002FB03F3DB12454AB2F9102002FB03F3FB60424BB3F90E301A463B6903FB02F35B00FA681344FB60FB689A103B4BB3F90C301B041344FB60384BB3F900
:400BC0000A3019463B699B103A69921002FB03F35B1303FB01F3DA10314BB3F9083019463B6903FB01F35B1013449B143B613B6903F500432A4AD28802FB03F3DB133B61FF
:400C00003B69002B01D1002342E07B685B42FA6812139B1A40F6354202FB03F303F1434303F5A0037B617B69002B06DB7B695A003B69B2FBF3F37B6105E03B697A69B2FB27
:400C4000F3F35B007B61164BB3F9163019467B69DB087A69D20802FB03F35B0B03FB01F31B133B617B699B081A460D4BB3F9143003FB02F35B13FB603A69FB681344084A72
:400C8000B2F9122013441A117B6913447B617B6918461C37BD4680BC704700BF4096FF1F0496FF1F80B588B000AF78607B68002B01D1174B7B6000F031F8F861FB691B685E
:400CC000BB61FB6904331B687B617869FFF710FF3861BB691846FFF747FFF8607A68FB68D31A46F68E5202FB03F30A4AA2FB03239B09BB60084ABB681360074AFB685360E3
:400D00003B69054A9360044B18462037BD4680BDCD8B0100D34D62108082FF1F80B582B000AF0621F720FFF7D1FD78607B681B781A037B6801331B781B0113437A680232C9
:400D4000127813431A460B4B1A607B6803331B781A037B6804331B781B0113437A680532127813431A46034B5A60024B18460837BD4680BD8C82FF1F90B585B000AF034652
:400D8000FB710B46BB7113467B71FB790021184603F09EFBBB79184603F022FC03F0F4FBFB790121184603F093FB0023FB730AE0FC7B012003F054FC03461A460C4B1A55C7
:400DC000FB7B0133FB73FA7B7B79013B9A42EFDBFC7B002003F044FC03461A46044B1A5503F0D2FB024B18461437BD4690BD00BF9482FF1F80B582B000AF02F039FB03F037
:400E00007BF94FF4967004F0ADFB00213D2000F053F800213E2000F04FF80021072000F04BF81023BB71BB7919463B2000F044F82121412000F040F800213F2000F03CF887
:400E40000C213D2000F038F80023FB710023BB8041F2883002F04CFB23E00021282003F037FB352003F0BCFB03F08EFB0121282003F02EFB002003F0F3FB0346FB7103F07C
:400E800083FB02F045FB0346BB80BB8840F6C312934203D9012002F0B3F802E0002002F0AFF8FB79152BD8D9002002F0A9F800BF0837BD4680BD00BF80B582B000AF034632
:400EC0000A46FB711346BB710021282003F000FBFB79184603F084FBBB79184603F080FB03F052FB322004F03DFB00BF0837BD4680BD00BF80B582B000AF06221A2128209A
:400F0000FFF73AFF78607B681B789AB2274B1A807B6801331B789BB21B029AB2234B1B8813449AB2214B1A807B6802331B781AB21F4B1A807B6803331B789BB21B029AB2E5
:400F40001B4BB3F900309BB213449BB21AB2184B1A807B6804331B781AB2164B1A807B6805331B789BB21B029AB2124BB3F900309BB213449BB21AB20E4B1A800B4B1B88BB
:400F800003F534639AB2094B1A80084B1B88B3F5B45F07D3054B1B88A3F5B4539AB2034B1A8000BF00BF0837BD4680BD2C96FF1F9895FF1FF295FF1F80B582B000AF06220C
:400FC00028212820FFF7D8FE78607B681B781AB21F4B1A807B6801331B789BB21B029AB21B4BB3F900309BB213449BB21AB2184B1A807B6802331B781AB2164B1A807B68C5
:4010000003331B789BB21B029AB2124BB3F900309BB213449BB21AB20E4B1A807B6804331B781AB20C4B1A807B6805331B789BB21B029AB2084BB3F900309BB213449BB25A
:401040001AB2054B1A8000BF0837BD4680BD00BF2A96FF1FC095FF1F2896FF1F80B582B000AF012234212820FFF786FE78607B681A78064B1A70054B1B785B00DAB2034B00
:401080001A7000BF0837BD4680BD00BFF595FF1F80B500AF03F032FD012140F2371002F075FD02F01DF8642004F05CFA0B4803F03BFF642004F056FA0121332002F066FD15
:4010C00003F050FE642004F04DFA054803F02CFFFA2004F047FA00BF80BD00BF589600006C96000090B585B000AF03F0F3FD0346312B5FD90CE0324B1B785A1CD1B2304A33
:4011000011701C4603F08CFD03461A462D4B1A5503F0E0FD0346002BEDD10023FB600023BB60274B1B789AB2274B1B889A4208D2234B1B789BB203F580739AB2234B1A8059
:4011400022E01F4B1B789AB2204B1A801CE01E4B1B88FB71FB791B4AD35C242B05D1FB790133184A1344FB6008E0FB79154AD35C0A2B03D1FB79134A1344BB60124B1B888C
:4011800001339AB2104B1A800F4B1A880F4B1B889A42DCD3FB68002B0CD0BB68002B09D0BA68FB68D31A1A46F968094807F01CFD074B00E0002318461437BD4690BD00BF04
:4011C0009D82FF1FA082FF1FA083FF1FA283FF1FA483FF1F90B583B000AF786042E0284B1B781C4603F01CFD03461A46254B1A55234B1B781A46234B9B5C0A2B14D1224B3F
:401200001B78012B10D1204B00221A701C4B00221A701C49786807F0C2FC64220021194807F078FC012327E0174B1B78012B06D1134B1B780133DAB2114B1A7002E0104B80
:4012400000221A700E4B1B781A460E4B9B5C242B08D10D4B01221A700A4B24221A70084B01221A7003F036FD0346002BB7D1064B1B78013BDBB25BB218460C37BD4690BD07
:401280000884FF1F0C84FF1F7084FF1F90B59FB000AF7860786800F037FB0346012B40F02C8307F108037968184607F078FC07F10803184600F0AEFB0346012B40F01D8367
:4012C00007F10803B249184607F0A2FC78677B6F01337B67AF49786F07F057FC0346002B40F08A81AA49002007F092FC0346184607F0BAFB03461A46A74B5A60A64B5B6852
:40130000A64AA2FB03235B0BDAB2A34B1A70A24B5B68A34AA2FB03235B09DAB29E4B1B78194689001944C900CB1A9B00DBB21344DAB2994B5A70984B5B68DAB2964B5B7832
:40134000194689001944C900CB1A9B00D9B2924B1B7818460001C31A1B01DBB20B44DBB21344DAB28C4B9A708949002007F050FC7867786F07F078FB024642F2107303FBFD
:4013800002F33B67786F00F01DFB02463B6F13443B67814A3B6F93607F4B9B687E4A93607B49002007F034FC78677B6F1B78532B04D1794B9B685B42774A9360744900201D
:4013C00007F026FC7867786F07F04EFB024642F2107303FB02F33B67786F00F0F3FA02463B6F13443B673B6F6E4A82FB03129214DB17D31A6C4A02FB03F3674AD360664BD4
:40140000DA68654BDB68396FCB1A684981FB030119444911DB17CB1A13445F4AD3605C49002007F0F5FB78677B6F1B78572B04D1594BDB685B42584AD3605549002007F08B
:40144000E7FB0346184607F00FFB0346DAB2524B1A744F49002007F0DBFB0346184607F003FB0346DAB24C4B5A744949002007F0CFFB7867786F07F0F7FA0246642303FB99
:4014800002F3454AD361786F00F09CFA0246424BDB691344404AD3613D49002007F0B8FB7867786F07F0E0FA024613469B0013445B001A46384B5A61786F00F083FA0246CA
:4014C000354B5B691344344A53613949002007F09FFB78677B6F1B784D2B0DD12E4B5B694FF4A47202FB03F32D4A82FB03125211DB17D31A284A53612549002007F088FB38
:401500007867786F07F0B0FA024613469B0013445B001A46204B9A611F4B9B6983EAE372A2EBE3721C4B9B6992FBF3F4786F00F049FA034603FB04F3174A92691344164A34
:4015400093611B49002007F063FB78677B6F1B784D2B0DD0104B9B694FF4A47202FB03F30F4A82FB03125211DB17D31A0A4A93611049002007F04CFB7867786F07F074FAEB
:4015800003469BB21A46920013445B0014E000BFA0960000A4960000C495FF1F5917B7D11F85EB5183DE1B4340420F0089888888AC960000B09600009AB20D4B1A84786F5D
:4015C00000F000FA01460A4B1A8C8BB213449AB2074B1A840749002007F01AFB0346184607F042FA03469AB2014B5A84012385E1C495FF1FB4960000B049786F07F0C5FAF9
:401600000346002B40F07981AD49002007F000FB0346184607F028FA03461A46A94B9A60A84B9B68A84AA2FB03235B0BDAB2A54B1A70A44B9B68A54AA2FB03235B09DAB202
:40164000A04B1B78194689001944C900CB1A9B00DBB21344DAB29B4B5A709A4B9B68DAB2984B5B78194689001944C900CB1A9B00D9B2944B1B7818460001C31A1B01DBB2A4
:401680000B44DBB21344DAB28E4B9A708C49002007F0BEFA03461A788A4B9A718849002007F0B6FA7867786F07F0DEF9024642F2107303FB02F3FB66786F00F083F902460F
:4016C000FB6E1344FB66FB6E814A82FB03121213DB17D31A42F2107202FB03F3794AD360784BDA68774BDB68F96ECB1A794981FB030119444911DB17CB1A1344714AD360F5
:401700006F49002007F084FA78677B6F1B78532B04D16C4BDB685B426A4AD3606849002007F076FA7867786F07F09EF9024642F2107303FB02F3FB66786F00F043F90246F5
:40174000FB6E1344FB66FB6E634A82FB03129214DB17D31A614A02FB03F35A4A1361594B1A69584B1B69F96ECB1A5A4981FB030119444911DB17CB1A1344524A136150491A
:40178000002007F045FA78677B6F1B78572B04D14C4B1B695B424B4A13614949002007F037FA7867786F07F05FF90246642303FB02F3444AD361786F00F004F90246414B44
:4017C000DB6913443F4AD3613D49002007F020FA7867786F07F048F90246642303FB02F3384A5361786F00F0EDF80246354B5B691344344A53613249002007F009FA034635
:40180000184607F031F903469AB22E4B1A842D4B1B8C2D4AA2FB03235B0B9BB2DAB2294BDA70284B1B8C294AA2FB03235B099BB2DAB2244BDB78194689001944C900CB1AE5
:401840009B00DBB21344DAB21E4B1A711D4B1B8CDAB21C4B1B79194689001944C900CB1A9B00D9B2174BDB7818460001C31A1B01DBB20B44DBB21344DAB2124B5A711049E0
:40188000002007F0C5F97867786F07F0EDF8024613469B0013445B001A460A4B9B691344084A9361786F00F08DF80246054B9A610B49002007F0ACF9786713E0BC9600004A
:4018C000A09600009C95FF1F5917B7D11F85EB51AD8BDB688988888883DE1B4340420F00C49600007B6F1B78572B04D1054B9B695B42044A9361012300E0002318467C3706
:40190000BD4690BD9C95FF1F90B585B000AF78600023FB730023BB730023FB7349E0FB7B7A6813441B78002B02D14FF0FF3345E0FB7B7A6813441B78242B37D1FB7B013352
:40194000FB7312E0FB7B7A6813441B78002B02D14FF0FF3332E0FB7B7A6813441A78BB7B5340BB73FB7B0133FB73FB7B7A6813441B782A2B02D0FB7BFF2BE3D1FB7B03338B
:401980007A681344BB60BC7BFB7B01337A68134407F108011022184607F01EFA03469C420CBF01230023DBB25BB207E0FB7B0133FB73FB7BFF2BB2D14FF0FF33184614370A
:4019C000BD4690BD80B584B000AF7860786807F0EEF80346BB730023FB7311E0FB7B7A6813441B782E2B08D1FB7B01337A681344184607F039F8034607E0FB7B0133FB73CC
:401A0000FA7BBB7B9A42E9D3002318461037BD4680BD00BF80B586B000AF78603023FB6000233B74786807F0C2F80346FB7507F10C03184607F0BBF803463B750023BB7585
:401A400001237B7534E07B7D7A6813441B782C2B2BD17B7D013B7A6813441B782C2B24D17A7D3B7D13447A68D0187B7D7A68D118FA7D7B7DD21A3B7D1344013B1A4607F04B
:401A80002EF87B7D7A6813443A7D07F10C01184607F01AF8FA7D3B7D1344FB757A7D3B7D13447B75BB7D0133BB757B7D01337B757A7DFB7D9A42C6D3BB7D032B04D9FB7D69
:401AC0002C2B01D8002300E0012318461837BD4680BD00BF80B500AF01F052F901F06CF800F0A4FF0023184680BD00BF80B584B000AF03460A46FB711346BB71FB79082B15
:401B000028D0082B06DC022B15D0042B1BD0012B0DD04AE0202B2CD0202B02DC102B24D043E0402B33D0802B00F0A8803DE0554ABB79537039E0BB795B08DBB21933DAB27E
:401B4000504B1A7031E0BB79193BDBB25AB24D4B1A712AE04B4ABB79D370BB799BB264339BB2184601F008F889E0464ABB7993701BE0BB791B09DBB25AB2424B5A7197F91D
:401B8000063003F00F035AB23E4B9A710DE0BB791B09DBB25AB23B4BDA7197F9063003F00F035AB2374B1A7200BF364B93F904309AB2344B5B789BB2D31A9BB2C833FB811A
:401BC000304B5B789AB22F4B93F904309BB213449BB26433BB812B4B9B789AB2294B1B789BB2D31A9BB2C8337B81264B1B789BB25B429AB2234B9B789BB2D31A9BB2C833B6
:401C00003B81FB89C82B02D9C823FB8104E0FB89632B01D86423FB81BB89C82B02D9C823BB8104E0BB89632B01D86423BB817B89C82B02D9C8237B8104E07B89632B01D8CA
:401C400064237B813B89C82B02D9C8233B8104E03B89632B01D864233B81FB89184601F02DF9BB89184601F039F97B89184601F03FF83B89184601F04BF800E000BF1037D2
:401C8000BD4680BDF895FF1F80B584B000AF0023FB810A222549264806F0A6FF01F00AFC03467B8134E00023BB8101F031FC03463B8110E001F02CFC03461A463B899B1AE2
:401CC0009BB2BB81B7F90C30002B04DCBA897B8913449BB2BB8102F0B1FD0346002B04D1B7F90C30B3F57A7FE4DDB7F90C30B3F57A7F11DA02F080FD0346FB71FB79002BCB
:401D000006D0FB890A49FA79CA54FB890133FB81FB89092BC7D900E000BF4FF6FF7001F0E7FB034B18461037BD4680BDCC9600007484FF1F80B582B000AF0023FB710BE078
:401D4000012001F05DF9C82003F00CFC002001F057F9C82003F006FCFB790F2BF0D900BF0837BD4680BD00BF80B582B000AF786000BF02F01BFE0346002BFAD17B68DB00B1
:401D8000054AB2FBF3F39BB20121184601F030FA00BF0837BD4680BD00366E0180B500AF01F016F902F03CFE02F05EFD002002F093FC642003F0D6FB00BF80BD80B500AF50
:401DC000C82003F0CFFB012002F086FC642003F0C9FB02F025FE02F047FD01F0EDF800BF80BD00BF80B500AF01F042FB02F092FC012002F071FC4FF4FA7003F0B3FB02F040
:401E00000FFE02F031FD00BF80BD00BF80B582B000AFFFF7C3FF02F003FE02F025FD0B4802F0A2FDFFF730FF7860FFF7C7FF02220749786806F0C3FE0346002B01D10123D3
:401E400000E0002318460837BD4680BDD8960000DC96000080B58AB000AF7860424A07F1180307CA03C31A80FFF798FF7B68B3F5165F32D0B3F5165F09D8B3F5166F1ED034
:401E8000B3F5965F22D0B3F5966F11D04BE0B3F5164F30D0B3F5164F03D8B3F5964F23D041E0B3F5614F2DD0B3F5E13F31D03AE007F118032D4A07CA03C31A7035E007F154
:401EC00018032B4A07CA03C31A702EE007F11803284A07CA03C31A7027E007F11803264A07CA03C31A7020E0244A07F1180307CA03C31A8019E0224A07F1180307CA03C311
:401F00001A8012E01F4A07F1180307CA03C31A800BE007F118031C4A07CA03C31A800233120C1A7001E0FFF705FF07F11803184602F01AFDFFF7A8FE7862FFF73FFF0023D4
:401F4000FB6007F1100300221A609A8007F10C030A22796A184606F047FE7868FFF704FF00BF2837BD4680BDCC960000E0960000EC960000F8960000049700001097000035
:401F80001C970000289700003497000080B58AB000AF0346FB71484A07F1180307CA03C31A80FFF7FBFEFB79092B1AD8FB79002B17D007F11803414A92E803001860043362
:401FC000198002330A0C1A70FB793033DBB2BB770023FB77002387F82030002387F821304EE0FB79632B24D807F11803344A92E80300186004331980FB79324AA2FB03232E
:40200000DB08DBB23033DBB27B77FA792D4BA3FB0213D9080B469B000B445B00D31ADBB23033DBB2BB770023FB77002387F8203026E0FB797E2B23D8FB79643BFB7107F181
:402040001803214A92E80300186004331980FB791C4AA2FB0323DB08DBB23033DBB27B77FA79184BA3FB0213D9080B469B000B445B00D31ADBB23033DBB2BB770023FB77F5
:4020800007F11803184602F06FFCFFF7FDFD7862FFF794FE0023FB6007F1100300221A609A8007F10C030A22796A184606F09CFD00BF2837BD4680BDCC9600004097000027
:4020C00048970000CDCCCCCC5097000080B586B000AF0346FB71FFF761FEFB79013B032B22D801A252F823F0F9200000012100000921000019210000184802F035FC15E0D6
:40210000174802F031FC11E0164802F02DFC4FF41650FFF79FFE09E0134802F025FC4FF49660FFF721FE01E0FFF704FEFFF7ACFD7861FFF743FE0023BB6007F10C030022E7
:402140001A609A8007F108030A227969184606F04BFD00BF1837BD4680BD00BF5897000060970000689700007097000080B586B000AF0346FB71FFF711FEFB79013B072B6F
:4021800032D801A252F823F0A9210000B1210000B9210000C1210000C9210000D1210000D9210000E12100001C4802F0DDFB1EE01B4802F0D9FB1AE01A4802F0D5FB16E07C
:4021C000194802F0D1FB12E0184802F0CDFB0EE0174802F0C9FB0AE0164802F0C5FB06E0154802F0C1FB02E0134802F0BDFBFFF74BFD7861FFF7E2FD0023BB6007F10C03AE
:4022000000221A609A8007F108030A227969184606F0EAFC00BF1837BD4680BD7897000080970000889700009097000098970000A0970000A8970000B097000080B582B090
:4022400000AF4FF496633B600023FB711AE03868FFF78AFDFFF7DAFD0346002B16D1C82003F080F93B68B3F5164F03D03B685B003B6004E03B685B083A6813443B60FB79A8
:402280000133FB71FB79072BE1D900E000BF00BF0837BD4680BD00BF80B500AF03F03CFCFA2003F05FF90C221149002003F096FD0F4803F068FE0F490F4803F02DFD02461C
:4022C0000E4B1A601A2001F093FE03461A460C4B1A700A4B1B68002B08D0094B1B780133DBB21A21184601F0F9FD00BF00BF80BD3496FF1FD8970000DC9700003096FF1F59
:402300004496FF1F80B500AF034B00221A70034800F01CFE00BF80BDF495FF1F2123000080B582B000AF00F05FFE49E002F064FA0346FB71274B1B78002B09D1FB79FF2B52
:4023400006D1012000F05CFE224B01221A7037E0204B1B78012B06D1FB79E32B03D11D4B02221A702CE01B4B1B78022B06D11A4AFB791370174B03221A7021E0154B1B7814
:40238000032B17D1144B1B78FF2B06D1FB79E32B03D1104B02221A7012E00F4AFB7953700E4B01221A700B4B00221A70002000F027FE0AE0074B00221A70002000F020FEE0
:4023C00002F03CFA0346002BB0D100BF0837BD4680BD00BF7E84FF1FE895FF1FF495FF1F80B500AF074B00221A70074B00221A70064802F089FE064803F0E8FA0123184615
:4024000080BD00BF9A95FF1FF695FF1F152400002D24000080B500AF02F0C4FE024B01221A7000BF80BD00BF9A95FF1F80B500AF03F01AFB024B01221A7000BF80BD00BFE5
:40244000F695FF1F80B582B000AF786039603A680021786806F05EFB00BF0837BD4680BD80B584B000AFF860B9607A607A68B968F86806F029FB00BF1037BD4680BD00BF17
:4024800080B483B000AF0346FB71FEE780B487B000AF7860396000233B6100237B6127E07B699B007A6813441B68BB60BB68FB73BB6823F0FF03BB6014E03B695B003A684D
:4024C00013441B781A46BB68134419463B695B003A6813445B780B703B6901333B61FB7B013BFB73FB7B002BE7D17B6901337B617B69292BD4D900BF1C37BD4680BC7047A5
:4025000080B582B000AF414B40F237121A80404B18221A703F4B00221A803F4B58221A703E4B40F237121A803D4B18221A703D4B01221A803C4B18221A703C4BEF221A8015
:402540003B4B18221A703B4B40F65F121A803A4B18221A70394B02221A704FF0402308221A70374B03221A70364B374A1278D2B21A70364B08221A80354B41F251221A80A9
:402580000023FB7019237B6014E0FB785B00DAB2304B1B78DBB203F00103DBB21343DBB203F00303FB704FF4F07003F069FA7B68013B7B607B68002B02D0FB78032BE4D199
:4025C0007B68002B02D10320FFF75AFF224B4FF480721A80204B07221A70204B00221A701F4B48221A701C4B00221A701D4B02221A701D4A1C4B1B78DBB243F03F03DBB2A0
:40260000137000BF0837BD4680BD00BF80400040824000408440004086400040884000408A4000408C4000408E400040904000409240004094400040964000400043004013
:4026400000420040A14600400801004922420040204200402542004004400040064000400840004001400040A243004080B483B000AF114B1B78FB71104AFB7903F00703FE
:40268000DBB213700E4AFB791B09DBB213700D4B25221A700C4B02221A700C4B12221A700B4B10221A700B4B44221A7000BF0C37BD4680BC704700BFCF0100496E58004099
:4026C0006F580040CD510040805A0040005B0040585B00407658004080B586B000AF72B6554A554B1B78DBB243F00403DBB213700023FB7513E0FA7D13465B0013445B0071
:402700004E4A13443B613B691A683B699B889BB219461046FFF796FEFB7D0133FB75FB7D0A2BE8D90023FB751CE0FA7D13469B0013445B00424A1344FB60FB681B68BB6020
:40274000FB685B687B60FB681A7A5B7A1B0213437B807B881A467968B868FFF781FEFB7D0133FB75FB7D022BDFD936494FF09040FFF78CFE344A344B1B78DBB243F0020369
:40278000DBB21370314A314B1B78DBB243F00203DBB213702E4A2E4B1B78DBB243F04003DBB213702B4A2B4B1B78DBB243F01003DBB21370082228492848FFF751FE0A2236
:4027C00027492848FFF74CFE052227492748FFF747FE082226492748FFF742FE0A2226492648FFF73DFE0A2225492648FFF738FE0A2225492548FFF733FE254A244B1B782D
:40280000DBB243F00803DBB21370224B61221A70FFF776FE1F4B81221A701F4B01221A70FFF724FF0E220A491C48FFF719FE00BF1837BD4680BD00BFE84600400C980000FF
:4028400050980000A80000480350014013500140A0430040C2430040581100480251004060110048C05100406C110048CB51004074110048F25100407C11004810510040AB
:4028800088110048205100409411004830510040224300400048004004000840B043004080B500AF06F0E4F803461B680C2B00D1FEE7FEE780B584B000AF78600F4B1A680C
:4028C0007B6813441A460E4BD31A802B09DC0B4B1B68FB60094B1A687B681344074A136007E006F0C5F802460C2313604FF0FF33FB60FB6818461037BD4680BDD081FF1F59
:40290000A099FF1F80B586B000AF224B7B61224B3B61204B7B6135E03B691B68FB603B695B68BB603B699B683B6000237B600CE0FB681A68BB681A60BB680433BB60FB68EE
:402940000433FB607B6804337B607A683B689A42EED13B69DB683B6000237B6008E0BB6800221A60BB680433BB607B6804337B607A683B689A42F2D13B6910333B617B6994
:40298000013B7B617B69002BC6D106F077F8FDF70DFCFEE701000000F49A000080B582B000AF184B184A1A60184A184B1B6843F40073136000237B600FE07B68032B04D8EF
:4029C000134A7B6852F8233000E0124B12497A6841F822307B6801337B607B682F2BECD90E4B1B78DAB20E4B1A700E4B0A4A1A60FFF772FE0C4B00221A6000BF0837BD4625
:402A000080BD00BF0CED00E00004FA0514ED00E000000000A12800000080FF1FBC760040C480FF1F08ED00E0C080FF1F80B500AF064B1B78002B04D100F00AF8034B012244
:402A40001A7000F065F800BF80BD00BF7F84FF1F80B582B000AF294A284B1B78DBB243F00203DBB21370264B1B78DBB223F07003FB71234AFB7943F01003DBB21370214A1A
:402A8000204B1B78DBB223F03003DBB213701D4A1C4B1B78DBB243F03003DBB21370194A184B1B78DBB223F00F03DBB21370154A144B1B78DBB243F00F03DBB2137040F251
:402AC000CF7000F049F8642000F056F8002000F063F80D4A0C4B1B78DBB243F00103DBB213700A4A094B1B78DBB243F00103DBB2137000BF0837BD4680BD00BF004F004089
:402B0000024F00400B4F0040A3430040014F004080B400AF0D4A0D4B1B78DBB243F00103DBB213700A4A0A4B1B78DBB243F00103DBB21370074A074B1B78DBB243F00103B1
:402B4000DBB2137000BFBD4680BC7047A3430040B3430040004F004080B483B000AF0346FB80044AFB88138000BF0C37BD4680BC704700BF044F004080B483B000AF0346BE
:402B8000FB80044AFB88138000BF0C37BD4680BC704700BF064F004080B483B000AF0346FB71044AFB79137000BF0C37BD4680BC704700BF034F004080B500AF064B1B78C9
:402BC000002B04D100F00AF8034B01221A7000F051F800BF80BD00BF8084FF1F80B582B000AF214B1B78DBB223F03F03FB711E4AFB7943F00903DBB213701C4A1B4B1B78E5
:402C0000DBB243F00103DBB21370194A184B1B78DBB243F00103DBB2137040F2CF7000F039F840F2CF7000F053F8962000F060F8962000F06DF8002000F07AF802F028FFB1
:402C40000346BB71094A094B1B78DBB243F01003DBB21370BB79184602F01EFF00F02AF800BF0837BD4680BD76640040926400409364004080B400AF054A054B1B78DBB2A8
:402C800063F07F03DBB2137000BFBD4680BC70477664004080B483B000AF0346FB80044AFB88138000BF0C37BD4680BC704700BF0468004080B500AF01E000F055F800F0CD
:402CC00047F8034603F01003002BF6D100BF80BD80B483B000AF0346FB80044AFB88138000BF0C37BD4680BC704700BF8468004080B483B000AF0346FB80044AFB881380F9
:402D000000BF0C37BD4680BC704700BF4468004080B483B000AF0346FB80044AFB88138000BF0C37BD4680BC704700BF6468004080B483B000AF0346FB71044AFB791370DF
:402D400000BF0C37BD4680BC704700BF8264004080B400AF034B1B78DBB21846BD4680BC704700BF6264004080B400AF034B1B889BB21846BD4680BC704700BFA46800408C
:402D800080B500AF064B1B78002B04D100F00AF8034B01221A7000F053F800BF80BD00BF8184FF1F80B582B000AF214B1B78DBB223F03F03FB711E4AFB7943F00903DBB23A
:402DC00013701C4A1B4B1B78DBB243F00103DBB21370194A184B1B78DBB243F00103DBB2137040F2CF7000F03BF840F2CF7000F055F8962000F062F8962000F06FF8002081
:402E000000F07CF802F044FE0346BB710B4A0B4B1B78DBB243F01003DBB21370BB79184602F03AFE00F02CF800BF0837BD4680BD7764004094640040956400409664004090
:402E400080B400AF054A054B1B78DBB263F07F03DBB2137000BFBD4680BC70477764004080B483B000AF0346FB80044AFB88138000BF0C37BD4680BC704700BF0868004056
:402E800080B500AF01E000F055F800F047F8034603F01003002BF6D100BF80BD80B483B000AF0346FB80044AFB88138000BF0C37BD4680BC704700BF8868004080B483B018
:402EC00000AF0346FB80044AFB88138000BF0C37BD4680BC704700BF4868004080B483B000AF0346FB80044AFB88138000BF0C37BD4680BC704700BF6868004080B483B0E8
:402F000000AF0346FB71044AFB79137000BF0C37BD4680BC704700BF8664004080B400AF034B1B78DBB21846BD4680BC704700BF6664004080B400AF034B1B889BB218461A
:402F4000BD4680BC704700BFA868004080B582B000AF786000F03CF8786800F009F8072000F018F800F028F800BF0837BD4680BD80B485B000AF7860054B1B68FB60FB6873
:402F800058337A681A6000BF1437BD4680BC704708ED00E080B483B000AF0346FB71054AFB795B01DBB2137000BF0C37BD4680BC704700BF06E400E080B400AF034B402247
:402FC0001A6000BFBD4680BC704700BF00E100E080B400AF034B40221A6000BFBD4680BC704700BF80E100E080B400AF034B40221A6000BFBD4680BC704700BF80E200E09D
:4030000080B485B000AF0346FB710B4B1B78DBB223F00203FB730849FB795B00DBB203F00203DAB2FB7B1343DBB20B7000BF1437BD4680BC704700BF2051004080B582B0EB
:4030400000AF1D4B1B78DBB223F00703FB711A4AFB7943F00103DBB21370174B1B78DBB223F00303FB71144AFB79137000F0B2F84FF6FE7000F08EF8002000F05FF80020CB
:4030800000F040F800F04EF8802000F093F802F0FFFC0346BB71094A084B1B78DBB243F01003DBB21370BB79184602F0F5FC00BF0837BD4680BD00BF7E6400409E64004043
:4030C00080B400AF054A054B1B78DBB263F07F03DBB2137000BFBD4680BC70477E64004080B500AF064B1B78002B04D1FFF7A6FF034B01221A70FFF7E3FF00BF80BD00BF81
:403100008284FF1F80B483B000AF0346FB71044AFB79137000BF0C37BD4680BC704700BF8E64004080B400AF034B1B78DBB21846BD4680BC704700BF6E64004080B483B095
:4031400000AF0346FB80044AFB88138000BF0C37BD4680BC704700BF1C68004080B400AF044B1B78044B1B889BB21846BD4680BC704700BF0E6400409C68004080B400AF0D
:40318000034B1B889BB21846BD4680BC704700BF9C68004080B483B000AF0346FB80044AFB88138000BF0C37BD4680BC704700BF5C68004080B483B000AF0346FB80044A59
:4031C000FB88138000BF0C37BD4680BC704700BF7C68004080B500AF01E0FFF7CFFFFFF7A1FF034603F04003002BF6D100BF80BD80B584B000AF03460A46FB8013467B71E1
:4032000000F0B4F80346FB7300F0A4F80346BB81FA88BB899A4200F08880464B1B78DBB203F00403FB72FB7B002B20D1BB89002B02D0FB88002B1AD1BB89002B0BD13E4A39
:40324000FB8813803D4A3D4B1B78DBB223F04003DBB2137069E0394A384B1B78DBB243F04003DBB21370344AFB8813805DE0FB7A002B33D0324B00221A70324B04221A70E4
:40328000314B00221A70314A304B1B78DBB203F07F03DBB21370294B1B78DBB203F00803002B02D0FB88002B18D1294ABB891380234B07221A7000BF214B1B78DBB203F07C
:4032C0000103002BF8D11B4A1A4B1B78DBB223F00403DBB213701A4B00221A70154B1B78DBB203F00403002B13D0194AFB881380134A7B79002B01D0032300E001231370B6
:4033000000BF0F4B1B78DBB203F00103002BF8D10BE0094AFB8813800649064B1B78DAB2FB7A1343DBB20B70FFE700BF1037BD4680BD00BFA2430040884000408A40004061
:40334000014000401040004014400040084000400240004080B400AF034B1B889BB21846BD4680BC704700BF8840004080B400AF044B1B78DBB203F00703DBB21846BD4625
:4033800080BC70478A40004080B500AF224A224B1B78DBB203F00103DBB213701F4A1F4B1B78DBB223F00303DBB213701C4A1C4B1B78DBB223F03003DBB21370184A184B08
:4033C0001B78DBB243F03003DBB21370144A144B1B78DBB223F00F03DBB21370104A104B1B78DBB243F00F03DBB213700D4A0D4B1B78DBB243F00103DBB213704FF6FF7031
:4034000000F064F84FF6FF7000F072F8002000F041F800BF80BD00BF0C4F00400E4F0040174F00400D4F004080B400AF0D4A0D4B1B78DBB243F00203DBB213700A4A0A4B11
:403440001B78DBB243F00203DBB21370074A074B1B78DBB243F00103DBB2137000BFBD4680BC7047A3430040B34300400C4F004080B500AF064B1B78002B04D1FFF784FFED
:40348000034B01221A70FFF7CFFF00BF80BD00BF8384FF1F80B483B000AF0346FB71044AFB79137000BF0C37BD4680BC704700BF0F4F004080B400AF034B1B889BB2184689
:4034C000BD4680BC704700BF104F004080B485B000AF0346FB80FB88FB81044AFB89138000BF1437BD4680BC704700BF104F004080B483B000AF0346FB80044AFB8813809C
:4035000000BF0C37BD4680BC704700BF124F004080B400AF044B1B88044B1B889BB21846BD4680BC704700BF124F0040144F004080B500AF1C4B0F221A701C4B02221A60BD
:403540000721012002F06CF81949012002F040F8164B01221A600721002002F061F81549002002F035F800F009FA134B00221A70124B00221A70124B00221A70114B002244
:403580001A70114B00221A70104B00221A7000F099F800F0B5F80E4B00221A700D4B20221A7000BF80BD00BF8364004080E100E0DD390000B13A00005A96FF1F5B96FF1FEA
:4035C0005996FF1F5896FF1F5E96FF1F5C96FF1F846400408864004080B582B000AF02F057FA0346FB71134A124B1B78DBB243F02003DBB21370104A0F4B1B78DBB243F0E7
:403600001003DBB213700D4A0C4B1B78DBB243F01003DBB21370FB79184602F03DFA01F085FE00F01FF800F029F800BF0837BD4680BD00BF93640040946400409864004014
:4036400080B500AF064B1B78002B04D1FFF770FF034B01221A70FFF7BFFF00BF80BD00BF8484FF1F80B400AF034B02221A6000BFBD4680BC704700BF00E100E080B400AFA6
:40368000034B01221A6000BFBD4680BC704700BF00E100E080B400AF034B02221A6000BFBD4680BC704700BF80E100E080B400AF034B01221A6000BFBD4680BC704700BF24
:4036C00080E100E080B582B000AFFFF7E3FF0A4B1B78DAB2094B1B78DBB203F00903DBB21343FB71054B00221A70FFF7BBFFFB7918460837BD4680BD646400404896FF1F64
:4037000080B582B000AFFFF7D1FF0A4B1B78DAB2094B1B78DBB203F04003DBB21343FB71054B00221A70FFF7A9FFFB7918460837BD4680BD686400405D96FF1F80B584B0CF
:4037400000AF0346FB71394B1B78FB73FB7B002B02D10B23FB7302E0FB7B013BFB73344B1B78DBB2FA7B9A42EDD0FFF793FF314B1B78DAB2304B1B78DBB203F00903DBB257
:403780001343BB732C4ABB7B1370284B1B78DAB2274B1B78DBB29A420AD1274B1B78DBB203F00403002B03D0244AFB79137037E01F4B1B78DBB20133DAB21D4B1A701C4BD2
:4037C0001B78DBB20B2B02D9194B00221A70184B1B78DAB2154B1B78DBB29A4211D1134B1B78DBB20133DAB2104B1A700F4B1B78DBB20B2B02D90D4B00221A70104B012298
:403800001A700B4B1B78DBB219460E4AFB7953540D4A0D4B1B78DBB243F00403DBB21370FFF720FF00BF1037BD4680BD5E96FF1F5C96FF1F646400404896FF1F4B6400402D
:403840005896FF1F4C96FF1F8464004080B582B000AFFFF72BFF174B1B78DAB2164B1B78DBB29A4217D0154B1B78DBB2002B0FD1104B1B78DBB20133DAB20E4B1A700D4B18
:403880001B78DBB20B2B06D90A4B00221A7002E00A4B00221A70074B1B78DBB21A46084B9B5CFB71FFF7EAFEFB7918460837BD4680BD00BF5B96FF1F5996FF1F5A96FF1F4F
:4038C0006096FF1F80B582B000AFFFF7EFFE164B1B78DAB2154B1B78DBB29A4202D10023FB711AE0104B1B78DAB2104B1B78DBB29A4208D20D4B1B78DAB20B4B1B78DBB2EB
:40390000D31AFB7109E0094B1B78DAB2064B1B78DBB2D31ADBB20C33FB71FFF7AFFEFB7918460837BD4680BD5B96FF1F5996FF1F80B500AF01E00C4B1B780C4B1B78DBB206
:4039400003F02003002BF6D1FFF7B0FE084B00221A70084B00221A70074B00221A70FFF78DFE00BF80BD00BF5B640040686400405A96FF1F5B96FF1F5996FF1F80B582B0C7
:4039800000AF01E0124B1B78124B1B78DBB203F02003002BF6D102F07BF80346FB710E4A0D4B1B78DBB243F00103DBB213700A4A094B1B78DBB223F00103DBB21370FB796E
:4039C000184602F069F800BF0837BD4680BD00BF5B640040686400409B64004080B483B000AF35E02A4B1B78DAB22A4B1B78DBB203F00903DBB21343FB71264AFB791370C6
:403A0000244B1B78DBB203F00403002B29D0224B1B78DBB2002B0FD1204B1B78DBB20133DAB21E4B1A701D4B1B78DBB20B2B06D91A4B00221A7002E0174B00221A70184B02
:403A4000164A1278D2B21146164A525CD2B21A70124B1B78DAB2144B1B78DBB29A42C1D100E000BF0D4B1B78DAB20F4B1B78DBB29A4207D10D4A0D4B1B78DBB223F00403CF
:403A8000DBB2137000BF0C37BD4680BC704700BF646400404896FF1F5896FF1F5E96FF1F4B6400404C96FF1F5C96FF1F8464004080B483B000AF2E4B1B78DAB22D4B1B783D
:403AC000DBB203F04003DBB21343FB71294AFB79137040E0284B1B78BB71284B1B78DBB20133DAB2254B1A70244B1B78DBB20B2B02D9224B00221A70204B1B78DAB2204BFD
:403B00001B78DBB29A4211D11D4B1B78DBB20133DAB21B4B1A701A4B1B78DBB20B2B02D9174B00221A70174B01221A70134B1B78DBB21946144ABB7953540D4B1B78DAB22F
:403B40000C4B1B78DBB203F04003DBB21343FB71084AFB791370074B1B78DBB203F02003002BB7D100BF0C37BD4680BC704700BF686400405D96FF1F5B6400405996FF1FE5
:403B80005B96FF1F5A96FF1F6096FF1F80B584B000AF03460A46FB8013467B7100F0B4F80346FB7300F0A4F80346BB81FA88BB899A4200F08880464B1B78DBB203F00103BD
:403BC000FB72FB7B002B20D1BB89002B02D0FB88002B1AD1BB89002B0BD13E4AFB8813803D4A3D4B1B78DBB223F04003DBB2137069E0394A384B1B78DBB243F04003DBB2FC
:403C00001370344AFB8813805DE0FB7A002B33D0324B00221A70324B01221A70314B00221A70314A304B1B78DBB203F07F03DBB21370294B1B78DBB203F00803002B02D0E8
:403C4000FB88002B18D1294ABB891380234B07221A7000BF214B1B78DBB203F00103002BF8D11B4A1A4B1B78DBB223F00103DBB213701A4B00221A70154B1B78DBB203F077
:403C80000103002B13D0194AFB881380134A7B79002B01D0032300E00123137000BF0F4B1B78DBB203F00103002BF8D10BE0094AFB8813800649064B1B78DAB2FB7A13437D
:403CC000DBB20B70FFE700BF1037BD4680BD00BFA24300408040004082400040014000401040004014400040084000400240004080B400AF034B1B889BB21846BD4680BC3D
:403D0000704700BF8040004080B400AF044B1B78DBB203F00703DBB21846BD4680BC70478240004080B485B000AF0346FB710B4B1B78DBB223F01003FB730849FB791B0123
:403D4000DBB203F01003DAB2FB7B1343DBB20B7000BF1437BD4680BC704700BFC051004080B500AF064B00221A70064B00221A70042000F057F8002000F034F800BF80BDC7
:403D8000205800402158004080B400AF094A094B1B78DBB243F00103DBB21370064A064B1B78DBB243F00103DBB2137000BFBD4680BC7047A8430040B843004080B500AF9A
:403DC000074B1B78002B04D1FFF7CAFF044B01221A70FFF7D9FFD42000F044F800BF80BD8584FF1F80B483B000AF0346FB710C4A0B4B1B78DBB223F00203DBB21370084902
:403E0000074B1B78DAB2FB7903F00203DBB21343DBB20B7000BF0C37BD4680BC704700BF2058004080B582B000AF0346FB710C4A0B4B1B78DBB223F00C03DBB21370084931
:403E4000074B1B78DAB2FB7903F00C03DBB21343DBB20B7000F016F800BF0837BD4680BD2058004080B483B000AF0346FB71044AFB79137000BF0C37BD4680BC704700BFB5
:403E8000805B004080B483B000AF0B4B1B78DBB203F00C039B08DBB20633FB71074AFB7903F1924303F590731B78DBB2137000BF0C37BD4680BC704720580040084600401A
:403EC00080B500AF01F0C2FA01F0D2FA00BF80BD80B500AFFFF7F4FF00BF80BD80B584B000AF03460A46FB711346BB8001F0BCFBBB88B3F5006F70D2BB881B097B817B8953
:403F00001B019BB2BA88D31A3B8101F0E1FC0346002B5FD1FA1D39890123402001F0F2FBF860FB68072B4CD14FF0FF33FB6000BF2D4B1B78DBB203F00203002BF8D02A4BF3
:403F40001B78DBB203F00203002B08D0264B1B78DBB29B08DBB2002B01D10023FB60FB68002B2AD1214B1A78204B5B787989402001F030FC0346072B1BD14FF0FF33FB6073
:403F800000BF194B1B78DBB203F00203002BF8D0154B1B78DBB203F00203002B17D0124B1B78DBB29B08DBB2002B10D10023FB600DE04FF0FF33FB6009E04FF0FF33FB60A4
:403FC00005E0FB68012B02D04FF0FF33FB6001F0B3FC04E00423FB6001E00123FB60FB6818461037BD4680BD224700400C99FF1F80B584B000AF0346FB8001F049FD034639
:40400000FB7301F07BFAFB8803F1804303F500431B78BB7301F08AFAFB7B184601F03CFDBB7B18461037BD4680BD00BF80B500AF144B02221A70144B81221A70134B5022DC
:404040001A70134B02221A70124B00221A70124B4FF400421A6004210F2001F0E1FA0F490F2001F0B5FA0E4B10221A700D4B00221A700D4B00221A700C4B00221A7000BF1F
:4040800080BD00BFD6490040C8490040CA490040DB490040DC49004080E100E0294100006C96FF1F7696FF1F7C96FF1F7796FF1F80B582B000AF01F0EBFC0346FB710C4AEF
:4040C0000B4B1B78DBB243F00403DBB21370094A084B1B78DBB243F00403DBB21370FB79184601F0D9FC00BF0837BD4680BD00BFA5430040B543004080B500AF084B1B7831
:40410000002B04D1FFF792FF054B01221A70FFF7CFFF044B4FF400421A6000BF80BD00BF8684FF1F00E100E080B582B000AFA74B1B78FB71A64B1B78DBB203F04003DBB26A
:40414000002B00F0A981FB7903F00103002B00F080819F4B1B78DBB2453B052B00F2758101A252F823F000BF81410000A74200004B4400004B4400008141000093430000B1
:40418000FB7923F02003FB71FB7903F00A03DBB2082B46D18E4B1B78DBB2452B3AD18D4B1B78DBB2002B0FD08B4A8C4B1B681B78DBB21370854B04221A70894B01221A7055
:4041C000834B46221A7044E1864B1B78DBB203F00203002B0FD0844B1B78DBB243F00A03DAB2814B1A707A4B60221A707F4B4FF400421A602DE17E4A7D4B1B78DBB243F04B
:404200001003DBB213707B4B10221A706F4B04221A701EE16D4B00221A706D4B4A221A7017E1FB7903F00A03DBB20A2B37D16E4B1B78DBB263F05F03DAB26B4B1A70694B1A
:404240001B78DBB203F00203002B19D0604B1B78DBB203F00803002B01D0092300E00A23DAB2614B1B78DBB21343DAB25E4B1A70574B60221A705D4B4FF400421A60E8E08A
:404280005B4A5B4B1B78DBB243F01003DBB21370584B10221A704D4B04221A70D9E0002001F054F9D5E0FB7903F00203002B42D14B4B1B78DAB2474B1B78DBB29A4214D2F7
:4042C000454A464B1B6846490978C9B20B441B78DBB213703D4B04221A70414B1B78DBB20133DAB23E4B1A70B3E03E4B1B78DBB203F00203002B0FD03B4B1B78DBB243F0D0
:404300000A03DAB2384B1A70314B60221A70374B4FF400421A609CE0354A354B1B78DBB243F01003DBB21370324B10221A70274B04221A708DE02B4B1B78DBB203F0020387
:40434000002B0FD0284B1B78DBB263F06503DAB2254B1A701E4B60221A70244B4FF400421A6076E0224A224B1B78DBB243F01003DBB213701F4B10221A70144B04221A70A2
:40438000194B1B78DBB263F06F03DAB2164B1A705FE0194B1B68194A1278D2B213440E4A1278D2B21A70154B1B78DBB20133DAB2124B1A70114B1B78DAB2114B1B78DBB241
:4043C0009A421FD2014B10221A7042E0D74900406C96FF1F7596FF1FD84900407896FF1F7796FF1F7D96FF1F7696FF1F80E100E0D6490040D94900407096FF1F7C96FF1FB4
:404400007496FF1F2C4B1B78DBB203F00203002B0FD02A4B1B78DBB243F00903DAB2274B1A70274B60221A70264B4FF400421A600FE0254A244B1B78DBB243F01003DBB2B1
:404440001370224B00221A7003E0002001F07EF800BFFB7903F02003002B28D0184B1B78DBB203F00803002B01D0012300E00223DAB2124B1B78DBB21343DAB20F4B1A7055
:40448000114A114B1B78DBB223F01003DBB213700B4B10221A700AE0094B1B78DBB203F01003DBB2002B02D1054B10221A7000BF0837BD4680BD00BF7D96FF1F7696FF1F8A
:4044C0006C96FF1F80E100E0D6490040D749004080B485B000AF03460A46FB711346BB710223FB73234B1B78DBB2102B3CD1224B1B78DBB203F00803002B33D11F4B4FF42A
:4045000000421A60FB795B00FB71BB79002B07D0FB7943F00103FB71164B49221A7002E0144B45221A70164AFB791370124B01221A7000BF134B1B78DBB203F00103002BEF
:40454000F8D0104B1B78DBB203F00A03DBB20A2B05D1084B10221A700323FB7304E00023FB7301E00123FB73FB7B18461437BD4680BC70476C96FF1FD949004080E100E0FD
:40458000D8490040D749004080B483B000AF0223FB71104B1B78DBB203F00403002B12D00C4B10221A700C4B04221A700B4B10221A7000BF084B1B78DBB203F02103002B71
:4045C000F8D00023FB71FB7918460C37BD4680BC704700BFD9490040D74900406C96FF1F80B485B000AF0346FB710223FB73184B1B78DBB203F00403002B22D0154AFB79EB
:404600001370154B04221A70144B46221A7000BF114B1B78DBB203F00103002BF8D00E4B1B78DBB203F00203002B05D10B4B60221A700023FB7304E0084B60221A700323A3
:40464000FB73FB7B18461437BD4680BC704700BFD9490040D8490040D74900406C96FF1F80B485B000AF0346FB710023FB73164B1B78DBB203F00403002B1FD0134B1B78D1
:40468000DBB2492B05D1124B00221A700F4B4A221A7000BF0E4B1B78DBB203F00103002BF8D00C4B1B78FB73FB79002B03D0084B10221A7002E0054B60221A70FB7B1846BD
:4046C0001437BD4680BC7047D94900406C96FF1FD7490040D849004080B485B000AF0346FB710B4B1B78DBB223F04003FB730849FB799B01DBB203F04003DAB2FB7B1343B3
:40470000DBB20B7000BF1437BD4680BC704700BF1051004080B500AF064B1B78002B04D100F00AF8034B01221A7000F02DF800BF80BD00BF8884FF1F80B500AF0C4B722293
:404740001A700C4B20221A700B49042000F040FF0721042000F064FF084B06221A70084B47221A70074B02221A7000BF80BD00BF8A6500408D6400408D4A00002465004040
:40478000346500408765004080B582B000AF01F07FF90346FB71134A124B1B78DBB243F02003DBB21370104A0F4B1B78DBB243F01003DBB213700D4A0C4B1B78DBB243F055
:4047C0001003DBB213700A4B10221A60094B10221A60FB79184601F05FF900BF0837BD4680BD00BF9A6500409D6400409765004080E200E000E100E080B483B000AF002385
:40480000FB710C4B1B78BB71BB7903F02003002B09D0094B1B78FB71BB7903F01E03002B01D00023FB71FB7918460C37BD4680BC704700BF6D6400404965004080B483B052
:4048400000AF084B1B78DBB203F02003002B01D0012300E00023FB71FB7918460C37BD4680BC70476D64004080B582B000AF01F00FF90346FB710C4A0B4B1B78DBB243F092
:404880000103DBB21370084A074B1B78DBB223F00103DBB21370FB79184601F0FDF800BF0837BD4680BD00BF9965004080B485B000AF0346FB71264B1B88FB81254B1B8896
:4048C000BB81FA89BB899A4208D2FA89BB89013B9A420CBF01230023DBB209E0FA89BB89D31A40F28F1293420CBF01230023DBB2002BE0D1BA89FB899A420AD1164B1B784F
:40490000DBB203F00403002B03D1144AFB79137019E0FB89B3F5C87F01D30023FB81FB890F49FA79CA54FB890133FB81084AFB891380094B1B78DBB203F00203002B02D04A
:40494000084B10221A6000BF1437BD4680BC70478C84FF1F8A84FF1F67650040476500408096FF1F00E200E080B584B000AF78600023FB810C4B1B78002B10D009E0FB89FF
:404980007A6813441B781846FFF790FFFB890133FB81FB897A6813441B78002BEFD100BF1037BD4680BD00BF8884FF1F80B483B000AF174B10221A60164B1B889AB2164BD5
:4049C0001B889A4202D10023FB8018E0114B1B889AB2114B1B889A4207D20F4B1A880D4B1B889BB2D31AFB8009E00B4B1A88094B1B889BB2D31A9BB203F5C873FB80074BC5
:404A000010221A60FB8818460C37BD4680BC704780E100E08A84FF1F8C84FF1F00E100E080B582B000AF01F033F80346FB71124A114B1B78DBB243F00103DBB213700E4AF6
:404A40000D4B1B78DBB223F00103DBB21370FB79184601F021F8094B10221A60084B00221A80084B00221A80074B10221A6000BF0837BD4680BD00BF9765004080E100E025
:404A80008A84FF1F8C84FF1F00E100E080B400AF18E0154B1B889BB2B3F5C87F02D3124B00221A80114B104A128892B21146104A525CD2B21A700C4B1B889BB201339AB20B
:404AC000094B1A80084B1B889AB20A4B1B889A4206D0094B1B78DBB203F00403002BD8D000BFBD4680BC70478A84FF1F476500408096FF1F8C84FF1F6765004080B500AF7C
:404B0000064B1B78002B04D100F00AF8034B01221A7000F045F800BF80BD00BF8F84FF1F80B500AF1649022000F052FD0721022000F076FD134B00221A70032000F052F9D2
:404B4000252000F075F9252000F082F90E4B72221A700E4B20221A700D49032000F038FD0721032000F05CFD0A4B06221A700A4B47221A70094B02221A7000BF80BD00BF08
:404B80006D4F00009284FF1F8B640040886500409950000029640040396400408465004080B582B000AF00F073FF0346FB71164A154B1B78DBB243F02003DBB21370134A1D
:404BC000124B1B78DBB243F01003DBB21370104B04221A600F4B00221A700F4A0E4B1B78DBB243F01003DBB213700C4B08221A60074B08221A60FB79184600F04DFF00BFFB
:404C00000837BD4680BD00BF9B6400409865004000E100E09784FF1F9465004080E200E080B483B000AF0023FB71224B04221A60214B1B78BB71214B1B787B71204B1B787F
:404C4000DBB2002B03D1BA797B799A4217D0BB791C4AD35CFB71BB790133BB71BB79C72B01D90023BB71144ABB791370144B1B78DBB2002B15D0124B00221A7011E0124BAB
:404C80001B783B713B7903F02003002B09D00F4B1B78FB713B7903F01E03002B01D00023FB710B4B04221A60FB7918460C37BD4680BC704780E100E09384FF1F9484FF1F8E
:404CC0009584FF1F1098FF1F686500404865004000E100E080B483B000AF1D4B04221A601C4B1B78DAB21C4B1B78DBB29A420AD11A4B1B78DBB2002B02D0C823FB711DE044
:404D00000023FB711AE0134B1B78DAB2124B1B78DBB29A4208D2104B1B78DAB20D4B1B78DBB2D31AFB7109E00B4B1B78DAB2094B1B78DBB2D31ADBB2383BFB71084B04224B
:404D40001A60FB7918460C37BD4680BC704700BF80E100E09384FF1F9484FF1F9584FF1F00E100E080B582B000AF00F091FE0346FB71154A144B1B78DBB243F00103DBB25F
:404D80001370114A104B1B78DBB223F00103DBB21370FB79184600F07FFE0C4B04221A600B4B00221A700B4B00221A700A4B00221A700A4B00221A70094B04221A6000BF84
:404DC0000837BD4680BD00BF9865004080E100E09384FF1F9484FF1F9584FF1F9684FF1F00E100E080B485B000AF0346FB710D4B1B78DBB203F01F03FB73FB795B01DAB238
:404E0000FB7B1343FB73074AFB7B1370064AFB791370064B00221A7000BF1437BD4680BC704700BF7F640040D481FF1F9784FF1F80B483B000AF0346FB71044AFB7913700C
:404E400000BF0C37BD4680BC704700BF2865004080B483B000AF0346FB71044AFB79137000BF0C37BD4680BC704700BF3865004080B485B000AF0346FB71254B1B78FB73CC
:404E8000244B1B78BB73FA7BBB7B9A4208D2FA7BBB7B013B9A420CBF01230023DBB207E0FA7BBB7BD31A312B0CBF01230023DBB2002BE2D1BA7BFB7B9A420AD1164B1B7851
:404EC000DBB203F00403002B03D1144AFB79137018E0FB7B312B01D90023FB73FB7B1049FA79CA54FB7B0133FB73094AFB7B1370094B1B78DBB203F00203002B02D0094B21
:404F000008221A6000BF1437BD4680BC704700BF9184FF1F9084FF1F6465004048640040D898FF1F00E200E080B584B000AF78600023FB810C4B1B78002B10D009E0FB8973
:404F40007A6813441B781846FFF792FFFB890133FB81FB897A6813441B78002BEFD100BF1037BD4680BD00BF8F84FF1F80B483B000AF0023FB713E4B1B78BB71BB797B71CE
:404F8000BB7903F01E03002B0CD097F9063003F01E035AB2374B1B785BB213435BB2DAB2344B1A70BB7903F02003002B55D0324B1B787B71314B1B78DBB2022B1FD1BB791F
:404FC00003F00103002B0BD0BB7903F04003002B03D02B4B01221A7002E0294B00221A70274B1B78DBB2002B12D0264B1B78DBB21946254A7B7953540123FB7108E0214BAA
:405000001B78DBB21946204A7B7953540123FB71FB79002B21D01D4B1B78DBB2002B02D01B4B01221A70174B1B78DBB20133DAB2144B1A70134B1B78DBB2C72B02D9114B62
:4050400000221A700F4B1B78DAB2124B1B78DBB29A4202D10D4B01221A70BB7903F02003002B88D100BF0C37BD4680BC704700BF686500409284FF1F48650040D481FF1FB4
:405080009784FF1F9484FF1F1098FF1F9584FF1F9684FF1F9384FF1F80B400AF17E0154B1B78DBB2312B02D9124B00221A70124B104A1278D2B21146104A525CD2B21A704B
:4050C0000C4B1B78DBB20133DAB20A4B1A70094B1B78DAB20A4B1B789A4206D0094B1B78DBB203F00403002BD9D000BFBD4680BC704700BF9084FF1F48640040D898FF1F2B
:405100009184FF1F6465004080B582B000AF786000F03CF8786800F009F8072000F018F800F028F800BF0837BD4680BD80B485B000AF7860054B1B68FB60FB685C337A68E9
:405140001A6000BF1437BD4680BC704708ED00E080B483B000AF0346FB71054AFB795B01DBB2137000BF0C37BD4680BC704700BF07E400E080B400AF034B80221A6000BF58
:40518000BD4680BC704700BF00E100E080B400AF034B80221A6000BFBD4680BC704700BF80E100E080B400AF034B80221A6000BFBD4680BC704700BF80E200E080B500AF90
:4051C000224A224B1B78DBB203F00103DBB213701F4A1F4B1B78DBB223F00303DBB213701C4A1C4B1B78DBB223F03003DBB21370184A184B1B78DBB243F03003DBB21370F5
:40520000144A144B1B78DBB223F00F03DBB21370104A104B1B78DBB243F00F03DBB213700D4A0D4B1B78DBB243F00103DBB213704FF4A67000F058F84FF4A67000F066F8DC
:40524000002000F041F800BF80BD00BF184F00401A4F0040234F0040194F004080B400AF0D4A0D4B1B78DBB243F00403DBB213700A4A0A4B1B78DBB243F00403DBB2137071
:40528000074A074B1B78DBB243F00103DBB2137000BFBD4680BC7047A3430040B3430040184F004080B500AF064B1B78002B04D1FFF784FF034B01221A70FFF7CFFF00BF6D
:4052C00080BD00BF9984FF1F80B483B000AF0346FB71044AFB79137000BF0C37BD4680BC704700BF1B4F004080B485B000AF0346FB80FB88FB81044AFB89138000BF1437BC
:40530000BD4680BC704700BF1C4F004080B483B000AF0346FB80044AFB88138000BF0C37BD4680BC704700BF1E4F004080B400AF094A094B1B78DBB243F00803DBB2137073
:40534000064A064B1B78DBB243F00803DBB2137000BFBD4680BC7047A2430040B243004080B582B000AF00F07FF94FF0FF337B6000F0AEFA0346002B24D1012000F076FAC3
:405380000346072B1BD10221124800F091F90346022B0DD100237B6002E0012000F004F90D4B1B78DBB203F00203002BF5D006E0094B1B78DBB203F00203002BE3D000F0CD
:4053C000BBFA01E004237B607B6818460837BD4680BD00BF0C99FF1F2247004080B582B000AF00F041F900F073FA0346002B23D100F0CAFA78607B68072B1AD102E0012096
:4054000000F0D2F8104B1B78DBB203F00203002BF5D00D4B1B78DBB203F00203002B08D0094B1B78DBB29B08DBB2002B01D100237B6000F081FA01E004237B607B681846AE
:405440000837BD4680BD00BF2247004080B582B000AFFFF7C3FF78607B68002B02D1FFF77FFF78607B6818460837BD4680BD00BF80B582B000AF00F00BFB0346FB71194ACF
:40548000184B1B78DBB243F00803DBB21370164A154B1B78DBB243F00803DBB21370134BC8221A70124A124B1B78DBB243F01003DBB213700F4A0F4B1B78DBB243F01003D3
:4054C000DBB2137000BF0C4B1B78DBB203F02003002BF8D0FB79184600F0DEFA00BF0837BD4680BDA0430040B043004001470040AC430040BC4300400047004080B400AFCF
:40550000094A094B1B78DBB243F00103DBB2137000BF054B1B78DBB203F00203002BF8D000BFBD4680BC70470247004080B400AF054A054B1B78DBB223F00103DBB213703C
:4055400000BFBD4680BC70470247004080B483B000AF0346FB7101BE00BF0C37BD4680BC704700BF80B582B000AF786008E00C4B1B68184600F084FA7B68A3F500437B6097
:405580007B68B3F5004FF2D8064B1B687A6802FB03F3184600F074FA00BF0837BD4680BDE481FF1FDC81FF1F80B582B000AF0346FB80FB88054A127802FB03F3184600F02F
:4055C0005FFA00BF0837BD4680BD00BFE081FF1F80B584B000AF03463960FB710F4B1B68FB60FB791F2B02D90020FFF7AFFFFB7903F01F0310339B00FA6813441B68BB601D
:40560000FB7903F01F0310339B00FA6813443A681A60BB6818461037BD4680BD08ED00E080B582B000AF03460A46FB711346BB71BB79072B02D90020FFF788FFFB791F2B15
:4056400002D90020FFF782FFFB7903F01F0303F1604303F56443BA795201D2B21A7000BF0837BD4680BD00BF80B582B000AF00F00FFA0346FB710C4A0B4B1B78DBB243F0A5
:405680000803DBB21370094A084B1B78DBB243F00803DBB21370FB79184600F0FDF900BF0837BD4680BD00BFA0430040B043004080B584B000AF78600B46FB700023FB7373
:4056C00013E00120FFF770FF0C4B1B78DBB203F00103002BF5D0FB7B7A681344084A1278D2B21A70FB7B0133FB73FA7BFB789A42EAD3FB7B18461037BD4680BD224700409D
:405700002047004080B485B000AF3A601A460346FB710B46BB801346BB710723FB60FB793E2B02D8BB791F2B05D9FB793F2B45D9BB790F2B42D8254B1B78DBB203F0020346
:40574000002B38D0224BB6221A70214BD4221A701F4B01221A701D4B1B78DBB203F00203002B25D11A4AFB791370194ABB881B0A9BB2DBB203F00103DBB21370144BBA88DB
:40578000D2B21A70124ABB79013BDBB213700023FB7208E00E49FB7A3A6813441B780B70FB7A0133FB72FA7ABB799A42F2D307E00923FB6004E00423FB6001E00123FB6021
:4057C000FB6818461437BD4680BC7047224700402047004090B484B000AF0446084611461A462346FB710346BB800B46BB711346FB700723FB601B4B1B78DBB203F0020344
:40580000002B26D0184BB6221A70174BD8221A70154B05221A70134B1B78DBB203F00203002B13D1104AFB7913700F4ABB881B0A9BB2DBB213700C4BBA88D2B21A700A4A9C
:40584000BB791370084AFB78137004E00923FB6001E00423FB60FB6818461037BD4690BC704700BF224700402047004080B485B000AF0346FB710723FB60134B1B78DBB26E
:4058800003F00203002B16D0104BB6221A700F4BE1221A700D4B0E221A700B4B1B78DBB203F00203002B03D1084AFB79137004E00923FB6001E00423FB60FB681846143799
:4058C000BD4680BC704700BF224700402047004080B582B000AF04237B6000F0D9F80346FB70124B1B78002B16D1104B01221A7000237B600E4B1B6803F00103002B0BD035
:405900000B4A0B4B1B6823F00103136000BF00BF00BF084B01221A60FB78184600F0BCF87B6818460837BD4680BD00BF9C84FF1F04000840A084FF1F80B582B000AF00F0BC
:40594000A7F80346FB710D4B00221A700C4B1B68012B0BD10B4A0B4B1B6843F00103136000BF00BF00BF064B00221A60FB79184600F092F800BF0837BD4680BD9C84FF1F23
:40598000A084FF1F0400084080B483B000AF07237B600C4B1B78DBB203F00203002B09D0094BB6221A70084BE0221A70064B0D221A7001E004237B607B6818460C37BD46C2
:4059C00080BC7047224700402047004080B582B000AF786000F03CF8786800F009F8072000F018F800F028F800BF0837BD4680BD80B485B000AF7860054B1B68FB60FB688B
:405A000054337A681A6000BF1437BD4680BC704708ED00E080B483B000AF0346FB71054AFB795B01DBB2137000BF0C37BD4680BC704700BF05E400E080B400AF034B2022C1
:405A40001A6000BFBD4680BC704700BF00E100E080B400AF034B20221A6000BFBD4680BC704700BF80E100E080B400AF034B20221A6000BFBD4680BC704700BF80E200E032
:405A80000230800803D000BF01380046FCD17047EFF3108072B6704780F31088704700BF094B10B5D8689A68002308E0114652F8084B1CB901230B60486810BD0133834291
:405AC000F4D3002010BD00BF1099FF1F084B30B50022DC689B6808E05D6819460833854202D100230B6030BD0132A242F4D330BD1099FF1F0123037370470023037370473C
:405B000010B1002282720260704718B1027B0AB1013A02737047000038B501F077FD20B3124C4200E260000101F064FD238AA060E068584301F05EFDA568E168228A0023B2
:405B400004E005EBC3046060013380188B42F8D3102001F04FFD054C6061282001F04AFDA37CA06143F00203A37438BD1099FF1F38B510220D460021044601F06DFCFFF70F
:405B80008FFF08B9013038BDA0604FF0FF33002065602360A07338BD38B5104B9C69217B59B921606160A16004F11000142201F053FC237B013323730DE0656A45B928206C
:405BC00001F002FD606218B12946282201F044FC646A002CE3D1204638BD00BF1099FF1F38B50E4B5C69A17AE56839B92046102201F032FC0123A372E5600CE045B91020FD
:405C000001F0E2FCE06018B12946102201F024FCE468002CE7D1204638BD00BF1099FF1F2DE9F74F06460020884691469B469DF830A09DF83470FFF7AFFF054608B90446E3
:405C400010E0FFF7CDFF044660B180F80B900560AE604046214652463B46CDF800B001F03BF930B12046FFF74BFF2846FFF74DFF00242046BDE8FE8F2DE9FF410C461F46F1
:405C800004A9002341F8043D15469DF8286000F0D5F88046B8B1039B0BB11B789BB1404600F055F900280EDD14F0150F01D0032809D1039939B1404622462B460097019615
:405CC000FFF7AEFF00E0002004B0BDE8F08100002DE9F3410646884600240E4D404655F83410E70001F0EEFB10B9002C04DA0DE001340F2CF1D109E07D19A87929790090B8
:405D0000EA796B793046FFF7B7FF00E00020BDE8FC8100BF70980000FFF7DABF10B5437B04460BB1012010BD40682168A268A37B01F033FD10B10120607310BD207310BDAF
:405D400010B5437B044663B9037B53B140682168A268A37B01F021FD08B1012363730023237310BD036870B5994204460D46164607D0037B0BB1FFF7E3FF00232560A67309
:405D8000E37370BDFFF7DCBF10B50446FFF7D8FFA068BDE81040FFF799BE01230373FFF7CFBF10B50446407B08B1012010BDE37B5BB960682168A268A37B01F088FC10B1F9
:405DC0000120607310BD0122E27310BD08B5436813B94FF0FF3008BD984708BDF8B50C4617460023144D01E0ED6D01338342FBDB2B6828791B68984706460CB92046F8BDE6
:405E000001F06DFB0530B84214DC22460020335C013223540130315C0029F8D113464FF03A0C03F801CB2C7903303034547083F801C09970F8BD00BF2C99FF1F2DE9F047EB
:405E40000F463A21064601F06CFB044610B93446174D27E00378C6EB000A5BB114F8013F43B162783A2A05D1A3F130085FFA88F8023401E04FF000080D4D2B6828791B682C
:405E80009847814601F02BFB504508D148463146524601F02CFB10B92B79434502D0ED6D002DEAD107B13C602846BDE8F08700BF2C99FF1FF8B5174C064694F85B10E56DD4
:405EC00069B960220127204601F0C6FA84F85B70E5653046FFF77AFF00280EDA18E045B9602001F071FBE06518B12946602201F0B3FAE46D002CE0D10AE0074B2660DA6F90
:405F00000132DA670323207184F85B7084F85A302046F8BD2C99FF1F1099FF1FFFF7CABF38B504460D4601F0A0FB08B9013838BD204601F0ADFB204601F046FD204600F0B1
:405F4000F5FC08B184F8595094F8590038BD90F8593023B990F85A1009B1FFF7E1BF1846704710B590F8592004463AB931B1FFF7D7FF002802DC4FF0FF3010BD94F859005D
:405F800010BDFFF7EEBF10B50021FFF757FF08B9013010BD0321BDE81040FFF7F2BF30B51346BAB1B0B10268857A0AB1946804B900247DB172B16CB1C27A12F0100204D122
:405FC0004FF6FA730381104630BD1A46BDE8304001F04EB9002030BDFFF7E1BF0C2802D0102805D102E001EB510070474800704788007047036840689B685B6AB0FBF3F087
:40600000704710B5046D836CE4B199421AD3E318994217D2013B99420CBF4FF0FF31013172B190F836300C2B02D0102B05D102E00905090D03E089B201E021F07041116082
:40604000012010BD002010BD40F6F473984201D80C2070474FF6F473984294BF102020207047027F8368023902FB01307047431EDBB21F2B13D92F2811D007D826280ED01F
:4060800002D8222809D10AE02A3804E03A2804D33F2804D95B38022801D90120704700207047034638B30B2A01DD0B2200E0013A00201CE0082809D191F808C0BCF1200F0D
:4060C0000DD04FF02E0C03F801CB08E038B991F800C0BCF1050F02D1ACF1200C04E011F800C0BCF1200F01D003F801CB01309042E0DB00221A7070472DE9F04788B005AE8A
:4061000004460D463046114600229A469DF84490BDF84C80BDF8507000F01EFD08B1002413E020462946524600F00FFE044660B1129B31460093109A4B46CDF80480029720
:4061400000F0C6FF2846FFF7D5FC204608B0BDE8F08710B59DF80C400394BDE8104000F0D9BD00002DE9F04F144E87B0109DDDF848809DF84440376800950194CDF80880DC
:4061800005937F68934682468946B84732680C4BDDF814C09A420DD060B9504649465A46634610951194CDF8488007B0BDE8F04FFFF7CFBF07B0BDE8F08F00BFE881FF1F00
:4061C0001899000070B5C37A04460B7010300D4601F0D6F9064604F10E0001F0D1F940EA0640686004F1120001F0CAF90004A86004F1180001F0C4F9064604F1160001F068
:40620000BFF940EA0640E86004F11C0001F09FF9286170BD2DE9F845038A04460E46924687692BB907F118002146626900F064FC38465146224600F0E7FC0546204600F0F1
:4062400065FCD5B12B78C3B1E52BF1D095F80B80B8F10F0FECD018F00808E9D170692946B269FFF71EFF28463146FFF7ABFF238A404601332382BDE8F8854FF0FF30BDE8A6
:40628000F8850222FFF76EBD2DE9F04790F8366005460C46304611469146FFF79FFEB5F81E80AB6A20FA08F89845824602D30020BDE8F0876B8E05F11807984420464146D6
:4062C0003A46FFF7DEFF2046FFF76BFD18B14FF0FF30BDE8F087AA8BA168013A0AEA020A1FFA8AFA92450AEB01031AF8015001D0013309E0204608F101013A46FFF7C1FF66
:406300002046FFF74EFDA36818780C2E45EA002009D0202E0FD15D7840EA05409D7840EA0560BDE8F08719F0010F02D00009BDE8F0870005000DBDE8F08700002DE9F341FF
:4063400090F83630144603FB02F7828B8846D200511E0F40D71B0546B7FBF3F7002618E00E4B93F88030022B05D12846214601AAFFF747FE28B9284641462246FFF784FF73
:406380000190019B0134A34205D10136B6B2013F1C46002FE4DC3046BDE8FC811099FF1F2DE9F34105460E46144698461F681CE0114B93F88030022B05D12846214601AA73
:4063C000FFF71FFE28B9284631462246FFF75CFF0190737B0BB100240BE0AA6B019B0132934204D81BB1013F1C46002FE0D1C8F800702046BDE8FC811099FF1F73B50468CB
:406400000E4623681BB9FFF7F5FD013039E0FFF7F1FD236998423CBF4FF0FF3323612369B3F1FF3F04D12268013323616261E3832169E28B451A954234BF2B4613463BB1B9
:406440006069C918C018D21A60612161E283ED1A0DB9284615E002AB43F8045D31466269A068FFF79DFF6061019B21690246C91A4D19256123B9A0683146FFF75FFFE083A1
:4064800001987CBD13B502AC44F8043D2346FFF787FF019B002B18BF00201CBD2DE9F0410746884615461E460024384641462A460123FFF7E7FF30B1BA6B0134944201D8F7
:4064C0000546F2E7002406B134602846BDE8F0812DE9F74F04460D461E461746002A00F0B98090F836001146FFF778FDB4F81EA0A36A20FA0AFA9A45814680F0AB80638E31
:4065000004F118089A44284651464246FFF7B9FE2846FFF746FC6B7B002B40F09B80A38BAA68013B09EA03091FFA89F303EB020926B9216C8F4203D2276401E0791C21648B
:4065400094F8361010290AD0202911D1484600F0FEFF31460746484601F004F84EE0484601F00EF8B1B20746484601F005F845E0284600920193FFF7BDFA009A019B17F0CF
:40658000010F13F802B01BD00BF00F0141EA06119954A28B013A934202D009F1010309E028460AF101014246FFF76BFE2846FFF7F8FBAB681F7832093F0147EA1B171CE0C6
:4065C0009E54A28B013A934202D009F1010309E028460AF101014246FFF753FE2846FFF7E0FBAB681A78310A02F00F0701F00F0122F00F024BEA07270A431A702846FFF790
:4066000079FA94F83630202B18D1B4F84620AAB9B4F844102846FFF7A5FB2846FFF7C1FBA8684FF0FF3100F5F47000F09BFF2846FFF760FA4FF00103A4F84630E36BB3F1C1
:40664000FF3F09D00FB10133E3632EB1E36B013BE36301E0012000E00020BDE8FE8F6FF07043FFF735BF70B5036D04460E4693B1002506E0AA1820463146531CFFF728FF3D
:406680000135236DA26C013B9D42F3D320463146AA18FFF7E4FF0023A3642365E364636570BD70B506460D461C460AB1FFF710FF304629462246BDE87040FFF7D0BF0000B2
:4066C0002DE9F84504460E4615461F46002B36D01C4B93F88030022B31D190F8368011464046FFF77BFCB4F81CA00AF1FF3A2AEA000A4FEACA0ABAFBF8FAAA44A8460EE027
:40670000204631464246FFF7BFFD50B9A36C0BB9C4F84880E36C08F101080133E364D045EED9E36C5BB167653B685A6922B1204631462B46FFF7CCFE236D01332365BDE8DB
:40674000F88500BF1099FF1F2DE9F8459846274B054693F880300F46022B1646846B19D1436D984503D0C36C0BB1FFF77CFFB8F1000F0FD06B6D43450CD12B6DEA6C9A42DC
:4067800004D9AC6C1C1901332B652CE028463946FFF769FF012E04F1010A01D9564505D92E6C012E01D9564500D902263446284639462246FFF768FD50B101345445F6D90B
:4067C00002240DE0284639462246FFF75DFD30B92846394622464346FFF772FF03E00134B442EFD300242046BDE8F8851099FF1FF8B507460E461546FFF7A6FF044628B109
:40680000384631462A462346FFF74BFF2046F8BDB2F1FF3F73B504460D4614D0561A013611D0FFF7AFFA084B00211A8AA06800F013FE022300936068A3682946324600F0FB
:4068400087FF0023E3737CBD1099FF1F2DE9F84F984690F8363004460C2B0D4616465AD04FF0FF3AD1463CE094F836003146FFF7B5FBB4F81CB0678E0BF1FF3B10EA0B0B59
:40688000E38B1DD1D840013F3F18022228463946FFF768FAA38BAA689B0852F80B1079B9013B0BF1040BF8D13BE0494628465246FFF7AEFFB946BB462846FFF71EF9DA46EC
:4068C0002946324601232046FFF7DCFD29460746324620460023FFF7FBFD2FB108F1FF383E46B8F1000FBFD1284649465246FFF78FFF13E02946324601232046FFF7C2FD9F
:4069000029460746324620460023FFF7E1FD2FB108F1FF383E46B8F1000FEBD14046BDE8F88F0AF1010B5F45BFD1C5E72DE9F8450546FFF7B5F8044608B90546D0E0284670
:4069400000F032FF684E338A834208D338B10021284622460B4600F0BAFE002804DA2046FFF7B4F80025BBE004F5FF7000F008FE4AF65523984240F0AD8004F10B0000F0FF
:40698000FFFD10F47E4F074600F0A480338A8342C0F0A080237C022B40F09C8094F80D80B8F1000F00F096800021402205F1180000F052FD04F1130000F0E2FD064620B99C
:4069C00004F1200000F0C3FD064604F1160000F0D7FD824680B904F1280000F0D1FD10F08F0F77D104F1240000F0B1FD824604F12C0000F0ACFDE862022385F83530C5F8AE
:406A000028A0AE6185F8348004F10E0000F0B8FD688604F1110000F0B3FD95F835206B8E288602FB0A3A7A0992B2B0FBF2F25244AF832A62092301219940B94201D1EB833C
:406A400002E00133102BF6D108FB07F7B61AB6FBF8F6AE636F623046FFF7F6FA202818BFC5F82CA04FF0FF33202885F83600EB6332D104F1300000F083FD00230146A5F84F
:406A800044002246284600F022FE002822DB204600F05DFD804604F5F27000F058FD074604F5FE7000F053FD104B984514D1104B9F4211D10F4B98420ED104F5F67000F0E0
:406AC00046FD286404F5F47000F041FDB04203D8E86301E0002500E001252046FEF7F6FF2846BDE8F88500BF1099FF1F5252614172724161000055AA00238B60837F202B8C
:406B000001D102B942694A600A60704783680133836070472DE9F0410C46202105461F469DF818604FF0000800F096FC10E014F8080036B9E52804D1B8F1000F01D1E038C2
:406B400002E000F0E7FCC0B205F8080008F10108B845ECDBBDE8F0812DE9F74506460D4608462849002A14BF92464FF0FF3A00F0A9FC804650B930462946022200F03BFE7A
:406B8000B01C2021092200F067FC37E04FF0FF34002715F80780B8F1000F01D0574505D1B4F1FF3F08BF3C4664B925E04046FFF75EFA08B3B8F12E0F08BF3C4601370D2F8B
:406BC000E7D119E0082C17DC3F1B042F14DC30462946082223464FF00008CDF80080FFF799FF0123611C009306F10800691803227B1EFFF78FFF01E04FF001084046BDE864
:406C0000FE8500BF289900002DE9F74FD2F808B0436A4FEA4B18B8FBF3F8D368054698450E461446D2F8009001D20023D360B5F81EA0E368AAF1050A0BB9D4F804902BFA4F
:406C40000AF7B9F1000F17D095F83420B8EB0303019206D04A4628463146FFF713FC814640B3494605F11800FFF7FBF9019B591E01EA0707C11906E02B8E43FA0AF39F4225
:406C800018D2E96A79183046C4F80090C4F80C800122FFF767F83046FFF783F850B9013000FA0AFAB3680AF1FF3A0AEA0B0B03EB4B1000E00020BDE8FE8F2DE9FF410746EE
:406CC0000E4601A811461A460A9D9DF82C40FFF743FFC8B9384631462A46FFF795FF8046A0B1037883B101A90B2200F0A5FB38B998F80B3004EA0302A24201D1082B05D1F5
:406D00002846FFF703FFE5E74FF00008404604B0BDE8F0812DE9F04587B002AF04460E46154698469DF83CA039460E9A1830FFF7E3FE204631462A4643460097CDF804A0F3
:406D4000FFF7BBFF07B0BDE8F0852DE9F04500F1180785B005460C46384669469246FFF7CBFE284621466A46FFF74EFF06466846E846FFF7CBFE002E37D1BAF1000F02D12F
:406D80002B8E002B35D12146009A00232846FFF785FB2146024600232846FFF729FD80462046FEF7FAFFB8F1000F22D0AA8B0021A06800F051FB38464146FFF752F995F854
:406DC000347000257E1E361808E0314620460122FEF7C8FF2046FEF7A1FF013E01357B1BB3F1FF3FF1D1A66803E033780BB1E52BB7D1304605B0BDE8F08538B504461A30DC
:406E000000F0BEFB054604F1140000F0B9FB45EA004038BD2DE9F0451D4685B007460E462A6010465C21904600F07BFB4FF0000A0446A04508D108F10108C5F8008040461A
:406E40005C2100F06EFB044694B1C8EB0403002B0EDD10220192103A0292384631464246CDF800A0FFF77EF970B1FFF7C6FF824628685C2100F055FBA04604460028D8D1F9
:406E80000C9B0130C3F800A005B0BDE8F085F8B505460C461E461746DAB16FF01A0313700846FEF727FE16B94FF47A7608E007F11C0000F04CFB6B6A5E1E3618B6FBF3F665
:406EC0003846FFF79AFF2146024633462846FFF7BDFC607BF8BD00002DE9F04FD1F8008093B0D8F808700BAD044608930E464FF0FF333946284609920F939DF870A0FEF761
:406F000037FE10AB009338462946224611ABFFF781FFD0B1F27A109B07920FAA00930292002338462946119A0193FFF71BF9044680B1C37A13F0100F07D10D9BDDF82CB0D2
:406F4000C3EB00094FEA691906E02846FEF71CFF0125A3E083468146099B002B3CD0002C33D0524B5D6912E02B687BB1AA7A6AB19A8B4A450AD19A695A4507D19B68BB429C
:406F800004D14FF6F772328100257EE0ED68002DEAD10DF12C0C6146384622460123CDF818C0FFF774FFDDF818C018B14FF0FF3333816AE03E4B1B68DC6824B138466146BF
:406FC000109A0F9BA0472C4606E0BAF1000F03D1089A002A44D065E0089BEBB1CCB1E37A13F0010F0BD0079A12F0150F07D04FF6FA733381BAF1000F01D1012500E0002589
:407000002046FFF7FAFE074604F11C0000F09FFA29E0BAF1000F45D0BAF1010F01D000251BE0ECB900F002FD214B20221B68019282B2000C03920490009402949D68384623
:407040000BA9119A109BA84750B10D9ADDF82CB0C2EB00094FEA6919254628462F4602E00125002007464FF0FF33C8F81030C8F818B0A8F81C90079AC8F8040012F00103DA
:4070800008BF1846C8F800707060B6F908300BA835EA230528BF0125FEF776FE284613B0BDE8F08F01255046DCE700BF1099FF1FE881FF1F70B505460C461A3089B200F03C
:4070C0005BFA05F11400210CBDE8704000F054BA2DE9F0470446BDF824700D469146002120229A46BDF82860DDF8208000F0B4F90B222046294600F07EFB04F10E00394628
:4071000084F80BA000F038FA04F11000314600F033FA04F11600394600F02EFA04F11800314600F029FA20464946FFF7C3FF04F11C004146BDE8F04700F014BA07B54268EF
:4071400003460AB910460AE081680020009048681968DB6800F0DAFA003818BF01200EBD2DE9F047046805460F46A668FFF746F981468246002841D0D4F80080B8F1000F8F
:407180001BD14246304639462B46FFF7DDFA0246D8B11C4B6061C4F8108093F880302060022B07D030463946FFF759FA10B10120BDE8F087B9F1010A20D030463946626983
:4071C0002B46FFF7C1FA804628B94FF6FE732B810130BDE8F0870B4B93F88030022B05D03046394662694346FFF75BFA2369C4F8148001332361BAF1010ADDE70020BDE81D
:40720000F08700BF1099FF1F2DE9F041836804460D4608460122A1699E8BFEF7A3FD2846B4F81C80AF68FEF7BCFDF8B9013E06EA4816B6B2BE1906F11C00616800F092F9FA
