:400000000080002011000000492900004929000080B500AF024A034B1B68136002F0C6FCBC760040FA46004010B5054C237833B9044B13B10448AFF300800123237010BD6F
:400040006082FF1F00000000AC930000084B10B51BB108490848AFF300800848036803B910BD074B002BFBD0BDE81040184700BF000000006482FF1FAC930000C880FF1F52
:400080000000000080B582B000AF0346FB7102F013F94FF4165001F01BFFFB79184601F0B3FF032002F050F8082002F09DF800BF0837BD4680BD00BF80B584B000AF00230A
:4000C000FB6000237B600023FB720AE0002000F0D9FE03461B68FA681344FB60FB7A0133FB72FB7A632BF1D9FB68054AA2FB03235B097B607B6818461037BD4680BD00BF48
:400100001F85EB512DE9F043ADF6B41D0EAF474B01221A701E2387F84F3962B603F0FEF904F0C0FD40F24D1004F0DEFD05F04AFA02F094F901F094FE02F022F997F84F396E
:400140001846FFF79FFF01F003FD00F079FD00F073FF00F0DBFF03F011FF02F0DBF8FFF7ABFF0346C7F8483907F63C04304B20461946EA231A4608F09BFB04F1EA0300229D
:400180001A605A609A60DA601A619A8207F2F464284B204619464FF4A1731A4608F088FB04F5A17300210A461A800A469A7007F63C03184604F0D8F81F4B1B68002B0DD0C0
:4001C0001D4B1C6807F2F463184608F0E4FB024607F2F4631946204605F0F2FD002387F877390023C7F870390023A7F86E39FF2387F86339114B1B78002B23D0012002F0AA
:4002000055FF03F0DBF90346A7F86E390B4B00221A700B4B1A780A4B5B781946104601F0A3FC002002F042FF2DE000BFF995FF1FBC940000BC9500003C96FF1FFC95FF1FB2
:40024000F095FF1F03F0BAF903461A46B7F86E399B1A9BB241F28732934214D9D34B1B78002B10D003F0AAF90346A7F86E393221012001F079FC3221022001F075FC1921BA
:40028000042001F071FCCA4B1B78002B0FD007F59263184600F0DCFF0346012B07D1C44B00221A7007F59263184601F02DF8C14B1B78002B00F08880BE4B00221A7097F87D
:4002C0007739013387F87739002000F0DBFDC7F84409D7F844391B68C7F85C39D7F84839D7F85C29D31AC7F85039D7F844395B68C7F85839D7F8443908331B68C7F8543946
:40030000D7F854291346DB001344AB4A82FB03125210DB17D31A03F54863C7F8543905F095F90346A7F84239B7F86C29B7F84239D31A9BB2013BA7F84039B7F8403940F6EF
:40034000B83202FB03F39D4A82FB03129211DB17D31AC7F8683905F079F90346A7F8423905F074F90346A7F86C39B7F84229B7F86C39D31A9BB2013BA7F83E3997F8633967
:40038000013387F8633997F86329B7F83E3940F6B83101FB03F3894981FB03018911DB17CB1A194607F12C0343F8221007F12C034FF48071184600F037FBC7F8640902F0ED
:4003C00023FF0346C7F8703997F87739072B7FF611AF002387F87739794BB3F900300A21184600F099FA0446764BB3F900300A21184600F091FA0546734B1B880921184667
:4004000000F08AFA014697F8632907F12C0353F8223007F22C40D7F864290392D7F868290292019300912B462246684908F06EFA634BB3F900300A21184600F06DFA804699
:40044000604BB3F900300A21184600F065FA78625D4B1B880921184600F05EFA38625C4BB3F900300A21184600F056FAF861594BB3F900300A21184600F04EFAB861564BEE
:40048000B3F900300A21184600F046FA7861534BB3F900300B21184600F03EFA38610721D7F85C0900F038FAF8600721D7F85C0900F074F90346BB60D7F850390821184637
:4004C00000F02AFA7860D7F850390821184600F065F903463B600721D7F8580900F01CFA06460721D7F8580900F058F903461D46D7F854390821184600F00EFA0446D7F81C
:4005000054390821184600F049F9034607F2F4400D930C940B950A963A6809927A680892BB680793FB6806933B6905937B690493BB690393FB6902933B6A01937B6A0093F2
:400540004346D7F87029264908F0E0F900F008FE0346184600F0D8FE0346002B00F09B80204B5B680021184600F0D6F980461D4B5B680021184600F011F903469946194B06
:400580009B680421184600F0C7F90546154B9B680421184600F002F903461E46114BDB680421184600F0B8F978621DE0F995FF1F0096FF1FA295FF1F67666666F1197605CF
:4005C000FA95FF1FA095FF1F3896FF1FB09300003696FF1FC895FF1F3496FF1FFE95FF1F04940000CC95FF1F614BDB680421184600F0D4F803463B625D4B5B6905211846B3
:4006000000F08AF9F8615A4B5B690521184600F0C5F80346BB61574BDB690521184600F07BF97861534BDB690521184600F0B6F803463B614F4B5B690521184600F06CF928
:4006400004464C4B5B690521184600F0A7F803461946474B5B7C1846454B1B7C1A46454B9B790C930B920A90099108943A6907927A690692BA690592FA6904923B6A039377
:400680007B6A0293019600954B4642463A493B4808F03CF907E0394A394B14461D460FCD0FC42B68238007F22C43184603F05CFE344803F059FE344B1B781E46324B5B7819
:4006C0009E46314B93F904301A462F4B9B7819462D4BDB7818462C4B93F909301C462A4B93F90A301D46284B93F90B30059304950394029001910092734632462349244868
:4007000008F004F907F2F4431C49184608F022F907F2F4431E49184608F01CF907F2F443184608F038F903461A4607F2F4431344184A1188927819809A70174B1B68002B1D
:400740003FF458AD144B1C6807F2F443184608F022F9024607F2F4431946204605F030FB0346002B7FF446AD0B4B00221A6041E5CC95FF1FA495FF1F48940000CC80FF1F52
:4007800084940000989400000496FF1F9C9400004C81FF1FB49400003C96FF1F80B485B000AF78600B46FB70FB780B2B00F2A48001A252F823F000BFE9070000EF070000DA
:4007C000F5070000FB070000230800004B0800007308000099080000AF080000E1080000D5080000ED0800000023FB8188E00023FB8185E00023FB8182E07B68002BB8BF5E
:400800005B42BB60BB68414A82FB03121113DA178A1A42F2107101FB02F29A1A1346FB816EE07B68002BB8BF5B42BB60BB68374A82FB03121113DA178A1A42F2107101FBAE
:4008400002F29A1A1346FB815AE07B68002BB8BF5B42BB60BA682E4B83FB02139910D317C91A0B469B000B445B00D11A0B46FB8146E07B68002BB8BF5B42BB60BB68254A9D
:4008800082FB03125111DA178A1A642101FB02F29A1A1346FB8133E07A681E4BA3FB02135B09642101FB03F3D31AFB8128E07B68002BB8BF5B42BB60BB68164A82FB031202
:4008C0005111DA178A1A642101FB02F29A1A1346FB8115E07B689BB203F00F03FB810FE07B689BB203F00F03FB8109E07B689BB203F00103FB8103E043F23903FB8100BFA2
:40090000FB8918461437BD4680BC7047AD8BDB68676666661F85EB5180B485B000AF78600B46FB70FB780B2B6FD801A252F823F061090000670900006D0900007309000038
:40094000890900009F090000B5090000CB090000D9090000FB090000EF090000030A00007B68FB6054E00023FB6051E00023FB604EE07B68BB60BB68284A82FB03121213A9
:40098000DB17D31AFB6043E07B68BB60BB68234A82FB03121213DB17D31AFB6038E07B68BB60BB681E4A82FB03129210DB17D31AFB602DE07B68BB60BB681A4A82FB031228
:4009C0005211DB17D31AFB6022E07B68154AA2FB03235B09FB601BE07B68BB60BB68114A82FB03125211DB17D31AFB6010E07B68BB60BB681B11FB600AE07B681B09FB600A
:400A000006E07B685B08FB6002E00023FB6000BFFB6818461437BD4680BC7047AD8BDB68676666661F85EB5180B485B000AF786039600023FB600023BB600AE0BB689B002D
:400A40007A6813441B68FA681344FB60BB680133BB60BA683B689A42F0D3FA683B68B2FBF3F318461437BD4680BC704780B582B000AF03460A46FB711346BB71002003F0E6
:400A8000A7F9FB7903F07F03DBB2184602F0ACFEBB79184602F0A8FE02F0A0FF012003F097F9002318460837BD4680BD90B587B000AF03460A46FB711346BB71002003F0FF
:400AC00087F902F08BFFFB7963F07F03DBB2184602F08AFE0023FB7505E0002002F084FEFB7D0133FB75FA7DBB799A42F5D300233B6102E03B6901333B6102F039FF03464D
:400B00001A46BB79934203D93B69114A9342F1DD02F0F2FE0023FB7309E0FC7B02F0ECFE03461A460B4B1A55FB7B0133FB73FA7BBB799A42F1D3FB7B064A0021D154012023
:400B400003F046F9034B18461C37BD4690BD00BF1FA107007C82FF1F80B584B000AF0346FB71FB7902211846FFF7A0FFF860FB681B781AB2FB6801331B781B021BB2134377
:400B80001BB29BB218461037BD4680BD80B500AF8820FFF7E1FF03461A46284B1A808A20FFF7DAFF03461AB2244B5A808C20FFF7D3FF03461AB2214B9A808E20FFF7CCFFC9
:400BC00003461A461D4BDA809020FFF7C5FF03461AB21A4B1A819220FFF7BEFF03461AB2164B5A819420FFF7B7FF03461AB2134B9A819620FFF7B0FF03461AB20F4BDA8142
:400C00009820FFF7A9FF03461AB20C4B1A829A20FFF7A2FF03461AB2084B5A829C20FFF79BFF03461AB2054B9A829E20FFF794FF03461AB2014BDA8200BF80BD1096FF1F30
:400C400080B582B000AF03F00FF902F04FFD642004F0B6F90121D020FFF728FF03461B78582B01D000232EE0FFF790FF0223FB710423BB7103237B7100233B710423FB7092
:400C8000FB795B015AB2BB799B005BB213435AB297F9053013435BB2DBB21946F420FFF7E5FE3B795B015AB2FB789B005BB213435BB2DBB21946F520FFF7D8FE4FF4967069
:400CC00004F07EF9012318460837BD4680BD00BF80B487B000AF78607B68DA10184B1B885B00D31A164AB2F9022002FB03F3DB127B617B681B11124A12889B1A7A68121114
:400D00000F490988521A02FB03F31B130C4AB2F9042002FB03F39B133B617A693B691344084A1360074B1A6813469B00134480331B12FB60FB6818461C37BD4680BC7047D4
:400D40001096FF1F4C96FF1F80B487B000AF78604A4B1B685B10A3F57A433B613B699B103A69921002FB03F3DB12454AB2F9102002FB03F3FB60424BB3F90E301A463B69A2
:400D800003FB02F35B00FA681344FB60FB689A103B4BB3F90C301B041344FB60384BB3F90A3019463B699B103A69921002FB03F35B1303FB01F3DA10314BB3F9083019462D
:400DC0003B6903FB01F35B1013449B143B613B6903F500432A4AD28802FB03F3DB133B613B69002B01D1002342E07B685B42FA6812139B1A40F6354202FB03F303F143436A
:400E000003F5A0037B617B69002B06DB7B695A003B69B2FBF3F37B6105E03B697A69B2FBF3F35B007B61164BB3F9163019467B69DB087A69D20802FB03F35B0B03FB01F343
:400E40001B133B617B699B081A460D4BB3F9143003FB02F35B13FB603A69FB681344084AB2F9122013441A117B6913447B617B6918461C37BD4680BC704700BF4C96FF1F4E
:400E80001096FF1F80B588B000AF78607B68002B01D1174B7B6000F031F8F861FB691B68BB61FB6904331B687B617869FFF710FF3861BB691846FFF747FFF8607A68FB6814
:400EC000D31A46F68E5202FB03F30A4AA2FB03239B09BB60084ABB681360074AFB6853603B69054A9360044B18462037BD4680BDCD8B0100D34D62108882FF1F80B582B02D
:400F000000AF0621F720FFF7D1FD78607B681B781A037B6801331B781B0113437A680232127813431A460B4B1A607B6803331B781A037B6804331B781B0113437A68053252
:400F4000127813431A46034B5A60024B18460837BD4680BD9482FF1F80B500AF04F086FB00BF80BD80B582B000AF03463A60FB710B46BB71AA2004F021FC002004F01EFC8B
:400F8000FB79184604F01AFCBB79184604F016FCBB791946386804F02BFC012318460837BD4680BD80B584B000AF03460A46FB711346BB71AA2004F001FC012004F0FEFB03
:400FC000FB79184604F0FAFBBB79184604F0F6FB00237B810023FB8100237B7320E0FB895A1CFA81B3F5FA5F01D300231EE004F0CFFB0346002BF2D004F0BAFB03467B81A3
:401000007B891B0A9BB2002B07D07B7B7A89D2B202F00F02D1B2074AD1547B7B01337B737A7BBB79013B9A42E1DB024B18461037BD4680BD9C82FF1F80B582B000AF02F034
:401040006DFAFFF789FF4FF4967003F0B9FF00213D2000F045F800213E2000F041F80021072000F03DF81023BB71BB7919463B2000F036F82121412000F032F800213F202F
:4010800000F02EF80C213D2000F02AF80023FB710023BB8041F2883002F080FA16E001213520FFF77FFF03461B78FB7102F086FA0346BB80BB8840F6C312934203D90120FB
:4010C00001F0F4FF02E0002001F0F0FFFB79152BE5D9002001F0EAFF00BF0837BD4680BD80B582B000AF03460A46FB711346BB71BA1DFB7901211846FFF734FF322003F0A7
:401100005FFF00BF0837BD4680BD00BF80B500AF03F0F4F9012140F2371002F08DFD02F035F8642003F04CFF0B4803F0FDFB642003F046FF0121332002F07EFD03F012FBBC
:40114000642003F03DFF054803F0EEFBFA2003F037FF00BF80BD00BF049700001897000090B585B000AF03F0B5FA0346312B5FD90CE0324B1B785A1CD1B2304A11701C4651
:4011800003F04EFA03461A462D4B1A5503F0A2FA0346002BEDD10023FB600023BB60274B1B789AB2274B1B889A4208D2234B1B789BB203F580739AB2234B1A8022E01F4BD2
:4011C0001B789AB2204B1A801CE01E4B1B88FB71FB791B4AD35C242B05D1FB790133184A1344FB6008E0FB79154AD35C0A2B03D1FB79134A1344BB60124B1B8801339AB2F8
:40120000104B1A800F4B1A880F4B1B889A42DCD3FB68002B0CD0BB68002B09D0BA68FB68D31A1A46F968094807F0D2FB074B00E0002318461437BD4690BD00BFA582FF1F0A
:40124000A882FF1FA883FF1FAA83FF1FAC83FF1F90B583B000AF786042E0284B1B781C4603F0DEF903461A46254B1A55234B1B781A46234B9B5C0A2B14D1224B1B78012B5E
:4012800010D1204B00221A701C4B00221A701C49786807F078FB64220021194807F02EFB012327E0174B1B78012B06D1134B1B780133DAB2114B1A7002E0104B00221A70A9
:4012C0000E4B1B781A460E4B9B5C242B08D10D4B01221A700A4B24221A70084B01221A7003F0F8F90346002BB7D1064B1B78013BDBB25BB218460C37BD4690BD1084FF1FC3
:401300001484FF1F7884FF1F90B59FB000AF7860786800F037FB0346012B40F02C8307F108037968184607F02EFB07F10803184600F0AEFB0346012B40F01D8307F10803C8
:40134000B249184607F058FB78677B6F01337B67AF49786F07F00DFB0346002B40F08A81AA49002007F048FB0346184607F070FA03461A46A74B5A60A64B5B68A64AA2FB73
:4013800003235B0BDAB2A34B1A70A24B5B68A34AA2FB03235B09DAB29E4B1B78194689001944C900CB1A9B00DBB21344DAB2994B5A70984B5B68DAB2964B5B781946890057
:4013C0001944C900CB1A9B00D9B2924B1B7818460001C31A1B01DBB20B44DBB21344DAB28C4B9A708949002007F006FB7867786F07F02EFA024642F2107303FB02F33B6764
:40140000786F00F01DFB02463B6F13443B67814A3B6F93607F4B9B687E4A93607B49002007F0EAFA78677B6F1B78532B04D1794B9B685B42774A93607449002007F0DCFAB2
:401440007867786F07F004FA024642F2107303FB02F33B67786F00F0F3FA02463B6F13443B673B6F6E4A82FB03129214DB17D31A6C4A02FB03F3674AD360664BDA68654BC5
:40148000DB68396FCB1A684981FB030119444911DB17CB1A13445F4AD3605C49002007F0ABFA78677B6F1B78572B04D1594BDB685B42584AD3605549002007F09DFA034668
:4014C000184607F0C5F90346DAB2524B1A744F49002007F091FA0346184607F0B9F90346DAB24C4B5A744949002007F085FA7867786F07F0ADF90246642303FB02F3454A39
:40150000D361786F00F09CFA0246424BDB691344404AD3613D49002007F06EFA7867786F07F096F9024613469B0013445B001A46384B5A61786F00F083FA0246354B5B691F
:401540001344344A53613949002007F055FA78677B6F1B784D2B0DD12E4B5B694FF4A47202FB03F32D4A82FB03125211DB17D31A284A53612549002007F03EFA7867786FCB
:4015800007F066F9024613469B0013445B001A46204B9A611F4B9B6983EAE372A2EBE3721C4B9B6992FBF3F4786F00F049FA034603FB04F3174A92691344164A93611B496D
:4015C000002007F019FA78677B6F1B784D2B0DD0104B9B694FF4A47202FB03F30F4A82FB03125211DB17D31A0A4A93611049002007F002FA7867786F07F02AF903469BB20E
:401600001A46920013445B0014E000BF4C97000050970000CC95FF1F5917B7D11F85EB5183DE1B4340420F0089888888589700005C9700009AB20D4B1A84786F00F000FACC
:4016400001460A4B1A8C8BB213449AB2074B1A840749002007F0D0F90346184607F0F8F803469AB2014B5A84012385E1CC95FF1F60970000B049786F07F07BF90346002B1C
:4016800040F07981AD49002007F0B6F90346184607F0DEF803461A46A94B9A60A84B9B68A84AA2FB03235B0BDAB2A54B1A70A44B9B68A54AA2FB03235B09DAB2A04B1B7810
:4016C000194689001944C900CB1A9B00DBB21344DAB29B4B5A709A4B9B68DAB2984B5B78194689001944C900CB1A9B00D9B2944B1B7818460001C31A1B01DBB20B44DBB2C6
:401700001344DAB28E4B9A708C49002007F074F903461A788A4B9A718849002007F06CF97867786F07F094F8024642F2107303FB02F3FB66786F00F083F90246FB6E13448B
:40174000FB66FB6E814A82FB03121213DB17D31A42F2107202FB03F3794AD360784BDA68774BDB68F96ECB1A794981FB030119444911DB17CB1A1344714AD3606F4900205C
:4017800007F03AF978677B6F1B78532B04D16C4BDB685B426A4AD3606849002007F02CF97867786F07F054F8024642F2107303FB02F3FB66786F00F043F90246FB6E13446E
:4017C000FB66FB6E634A82FB03129214DB17D31A614A02FB03F35A4A1361594B1A69584B1B69F96ECB1A5A4981FB030119444911DB17CB1A1344524A13615049002007F043
:40180000FBF878677B6F1B78572B04D14C4B1B695B424B4A13614949002007F0EDF87867786F07F015F80246642303FB02F3444AD361786F00F004F90246414BDB69134422
:401840003F4AD3613D49002007F0D6F87867786F06F0FEFF0246642303FB02F3384A5361786F00F0EDF80246354B5B691344344A53613249002007F0BFF80346184606F0D8
:40188000E7FF03469AB22E4B1A842D4B1B8C2D4AA2FB03235B0B9BB2DAB2294BDA70284B1B8C294AA2FB03235B099BB2DAB2244BDB78194689001944C900CB1A9B00DBB2D6
:4018C0001344DAB21E4B1A711D4B1B8CDAB21C4B1B79194689001944C900CB1A9B00D9B2174BDB7818460001C31A1B01DBB20B44DBB21344DAB2124B5A711049002007F071
:401900007BF87867786F06F0A3FF024613469B0013445B001A460A4B9B691344084A9361786F00F08DF80246054B9A610B49002007F062F8786713E0689700004C9700002A
:40194000A495FF1F5917B7D11F85EB51AD8BDB688988888883DE1B4340420F00709700007B6F1B78572B04D1054B9B695B42044A9361012300E0002318467C37BD4690BDB6
:40198000A495FF1F90B585B000AF78600023FB730023BB730023FB7349E0FB7B7A6813441B78002B02D14FF0FF3345E0FB7B7A6813441B78242B37D1FB7B0133FB7312E0BA
:4019C000FB7B7A6813441B78002B02D14FF0FF3332E0FB7B7A6813441A78BB7B5340BB73FB7B0133FB73FB7B7A6813441B782A2B02D0FB7BFF2BE3D1FB7B03337A68134432
:401A0000BB60BC7BFB7B01337A68134407F108011022184607F0D4F803469C420CBF01230023DBB25BB207E0FB7B0133FB73FB7BFF2BB2D14FF0FF3318461437BD4690BDBE
:401A400080B584B000AF7860786806F0A4FF0346BB730023FB7311E0FB7B7A6813441B782E2B08D1FB7B01337A681344184606F0EFFE034607E0FB7B0133FB73FA7BBB7B79
:401A80009A42E9D3002318461037BD4680BD00BF80B586B000AF78603023FB6000233B74786806F078FF0346FB7507F10C03184606F071FF03463B750023BB7501237B7524
:401AC00034E07B7D7A6813441B782C2B2BD17B7D013B7A6813441B782C2B24D17A7D3B7D13447A68D0187B7D7A68D118FA7D7B7DD21A3B7D1344013B1A4606F0E4FE7B7D06
:401B00007A6813443A7D07F10C01184606F0D0FEFA7D3B7D1344FB757A7D3B7D13447B75BB7D0133BB757B7D01337B757A7DFB7D9A42C6D3BB7D032B04D9FB7D2C2B01D81B
:401B4000002300E0012318461837BD4680BD00BF80B500AF01F06AF901F084F800F0BCFF0023184680BD00BF80B584B000AF03460A46FB711346BB71FB79082B28D0082B51
:401B800006DC022B15D0042B1BD0012B0DD04AE0202B2CD0202B02DC102B24D043E0402B33D0802B00F0A8803DE0554ABB79537039E0BB795B08DBB21933DAB2504B1A7004
:401BC00031E0BB79193BDBB25AB24D4B1A712AE04B4ABB79D370BB799BB264339BB2184601F020F889E0464ABB7993701BE0BB791B09DBB25AB2424B5A7197F9063003F081
:401C00000F035AB23E4B9A710DE0BB791B09DBB25AB23B4BDA7197F9063003F00F035AB2374B1A7200BF364B93F904309AB2344B5B789BB2D31A9BB2C833FB81304B5B7874
:401C40009AB22F4B93F904309BB213449BB26433BB812B4B9B789AB2294B1B789BB2D31A9BB2C8337B81264B1B789BB25B429AB2234B9B789BB2D31A9BB2C8333B81FB8943
:401C8000C82B02D9C823FB8104E0FB89632B01D86423FB81BB89C82B02D9C823BB8104E0BB89632B01D86423BB817B89C82B02D9C8237B8104E07B89632B01D864237B8107
:401CC0003B89C82B02D9C8233B8104E03B89632B01D864233B81FB89184601F045F9BB89184601F051F97B89184601F057F83B89184601F063F800E000BF1037BD4680BD35
:401D00000496FF1F80B584B000AF0023FB810A222549264806F05CFE01F022FC03467B8134E00023BB8101F049FC03463B8110E001F044FC03461A463B899B1A9BB2BB810E
:401D4000B7F90C30002B04DCBA897B8913449BB2BB8102F073FA0346002B04D1B7F90C30B3F57A7FE4DDB7F90C30B3F57A7F11DA02F042FA0346FB71FB79002B06D0FB89FB
:401D80000A49FA79CA54FB890133FB81FB89092BC7D900E000BF4FF6FF7001F0FFFB034B18461037BD4680BD789700007C84FF1F80B582B000AF0023FB710BE0012001F073
:401DC00075F9C82003F0FCF8002001F06FF9C82003F0F6F8FB790F2BF0D900BF0837BD4680BD00BF80B582B000AF786000BF02F0DDFA0346002BFAD17B68DB00054AB2FB81
:401E0000F3F39BB20121184601F048FA00BF0837BD4680BD00366E0180B500AF01F02EF902F0FEFA02F020FA002002F055F9642003F0C6F800BF80BD80B500AFC82003F097
:401E4000BFF8012002F048F9642003F0B9F802F0E7FA02F009FA01F005F900BF80BD00BF80B500AF01F05AFB02F054F9012002F033F94FF4FA7003F0A3F802F0D1FA02F02B
:401E8000F3F900BF80BD00BF80B582B000AFFFF7C3FF02F0C5FA02F0E7F90B4802F064FAFFF730FF7860FFF7C7FF02220749786806F079FD0346002B01D1012300E00023A1
:401EC00018460837BD4680BD849700008897000080B58AB000AF7860424A07F1180307CA03C31A80FFF798FF7B68B3F5165F32D0B3F5165F09D8B3F5166F1ED0B3F5965FC0
:401F000022D0B3F5966F11D04BE0B3F5164F30D0B3F5164F03D8B3F5964F23D041E0B3F5614F2DD0B3F5E13F31D03AE007F118032D4A07CA03C31A7035E007F118032B4AE0
:401F400007CA03C31A702EE007F11803284A07CA03C31A7027E007F11803264A07CA03C31A7020E0244A07F1180307CA03C31A8019E0224A07F1180307CA03C31A8012E094
:401F80001F4A07F1180307CA03C31A800BE007F118031C4A07CA03C31A800233120C1A7001E0FFF705FF07F11803184602F0DCF9FFF7A8FE7862FFF73FFF0023FB6007F1CF
:401FC000100300221A609A8007F10C030A22796A184606F0FDFC7868FFF704FF00BF2837BD4680BD789700008C97000098970000A4970000B0970000BC970000C8970000E9
:40200000D4970000E097000080B58AB000AF0346FB71484A07F1180307CA03C31A80FFF7FBFEFB79092B1AD8FB79002B17D007F11803414A92E8030018600433198002336E
:402040000A0C1A70FB793033DBB2BB770023FB77002387F82030002387F821304EE0FB79632B24D807F11803344A92E80300186004331980FB79324AA2FB0323DB08DBB20B
:402080003033DBB27B77FA792D4BA3FB0213D9080B469B000B445B00D31ADBB23033DBB2BB770023FB77002387F8203026E0FB797E2B23D8FB79643BFB7107F11803214AEB
:4020C00092E80300186004331980FB791C4AA2FB0323DB08DBB23033DBB27B77FA79184BA3FB0213D9080B469B000B445B00D31ADBB23033DBB2BB770023FB7707F11803E8
:40210000184602F031F9FFF7FDFD7862FFF794FE0023FB6007F1100300221A609A8007F10C030A22796A184606F052FC00BF2837BD4680BD78970000EC970000F497000061
:40214000CDCCCCCCFC97000080B586B000AF0346FB71FFF761FEFB79013B032B22D801A252F823F0752100007D2100008521000095210000184802F0F7F815E0174802F088
:40218000F3F811E0164802F0EFF84FF41650FFF79FFE09E0134802F0E7F84FF49660FFF721FE01E0FFF704FEFFF7ACFD7861FFF743FE0023BB6007F10C0300221A609A80EA
:4021C00007F108030A227969184606F001FC00BF1837BD4680BD00BF049800000C980000149800001C98000080B586B000AF0346FB71FFF711FEFB79013B072B32D801A26D
:4022000052F823F0252200002D220000352200003D220000452200004D220000552200005D2200001C4802F09FF81EE01B4802F09BF81AE01A4802F097F816E0194802F030
:4022400093F812E0184802F08FF80EE0174802F08BF80AE0164802F087F806E0154802F083F802E0134802F07FF8FFF74BFD7861FFF7E2FD0023BB6007F10C0300221A606A
:402280009A8007F108030A227969184606F0A0FB00BF1837BD4680BD249800002C980000349800003C980000449800004C980000549800005C98000080B582B000AF4FF49D
:4022C00096633B600023FB711AE03868FFF78AFDFFF7DAFD0346002B16D1C82002F070FE3B68B3F5164F03D03B685B003B6004E03B685B083A6813443B60FB790133FB7186
:40230000FB79072BE1D900E000BF00BF0837BD4680BD00BF80B500AF03F0F2FAFA2002F04FFE0C221149002003F04CFC0F4803F01EFD0F490F4803F0E3FB02460E4B1A60A2
:402340001A2001F0ABFE03461A460C4B1A700A4B1B68002B08D0094B1B780133DBB21A21184601F011FE00BF00BF80BD4096FF1F84980000889800003C96FF1F5096FF1F04
:4023800080B500AF034B00221A70034800F034FE00BF80BDFC95FF1F9D23000080B582B000AF00F077FE49E001F026FF0346FB71274B1B78002B09D1FB79FF2B06D1012058
:4023C00000F074FE224B01221A7037E0204B1B78012B06D1FB79E32B03D11D4B02221A702CE01B4B1B78022B06D11A4AFB791370174B03221A7021E0154B1B78032B17D15E
:40240000144B1B78FF2B06D1FB79E32B03D1104B02221A7012E00F4AFB7953700E4B01221A700B4B00221A70002000F03FFE0AE0074B00221A70002000F038FE01F0FEFE58
:402440000346002BB0D100BF0837BD4680BD00BF8684FF1FF095FF1FFC95FF1F80B500AF074B00221A70074B00221A70064802F04BFB064802F0D8FF0123184680BD00BFF5
:40248000A295FF1F0096FF1F91240000A924000080B500AF02F086FB024B01221A7000BF80BD00BFA295FF1F80B500AF03F00AF8024B01221A7000BF80BD00BF0096FF1FEE
:4024C00080B582B000AF786039603A680021786806F014FA00BF0837BD4680BD80B584B000AFF860B9607A607A68B968F86806F0DFF900BF1037BD4680BD00BF80B483B070
:4025000000AF0346FB71FEE780B487B000AF7860396000233B6100237B6127E07B699B007A6813441B68BB60BB68FB73BB6823F0FF03BB6014E03B695B003A6813441B7849
:402540001A46BB68134419463B695B003A6813445B780B703B6901333B61FB7B013BFB73FB7B002BE7D17B6901337B617B69292BD4D900BF1C37BD4680BC704780B582B0A7
:4025800000AF454B40F237121A80444B18221A70434B00221A80434B58221A70424B40F237121A80414B18221A70414B01221A80404B18221A70404B17221A803F4B1822EC
:4025C0001A703F4B33221A803E4B18221A703E4BEF221A803D4B18221A703D4B40F65F121A803C4B18221A703B4B02221A704FF0402308221A70394B03221A70384B394A34
:402600001278D2B21A70384B08221A80374B41F251221A800023FB7019237B6014E0FB785B00DAB2324B1B78DBB203F00103DBB21343DBB203F00303FB704FF4F07003F008
:4026400013F97B68013B7B607B68002B02D0FB78032BE4D17B68002B02D10320FFF74EFF244B4FF480721A80224B07221A70224B00221A70214B48221A701E4B00221A70EB
:402680001F4B02221A701F4B1B781E4BFF221A7000BF0837BD4680BD80400040824000408440004086400040884000408A4000408C4000408E400040904000409240004059
:4026C0009440004096400040984000409A4000409C4000409E4000400043004000420040A14600400801004922420040204200402542004004400040064000400840004047
:4027000001400040A243004080B483B000AF114B1B78FB71104AFB7903F00703DBB213700E4AFB791B09DBB213700D4B25221A700C4B02221A700C4B12221A700B4B1022DC
:402740001A700B4B44221A7000BF0C37BD4680BC704700BFCF0100496E5800406F580040CD510040805A0040005B0040585B00407658004080B586B000AF72B6574A574B13
:402780001B78DBB243F00403DBB213700023FB7513E0FA7D13465B0013445B00504A13443B613B691A683B699B889BB219461046FFF786FEFB7D0133FB75FB7D092BE8D9CD
:4027C0000023FB751CE0FA7D13469B0013445B00444A1344FB60FB681B68BB60FB685B687B60FB681A7A5B7A1B0213437B807B881A467968B868FFF771FEFB7D0133FB75CC
:40280000FB7D032BDFD938494FF09040FFF77CFE04213648FFF754FE354A354B1B78DBB243F00203DBB21370324A324B1B78DBB243F00203DBB213702F4A2F4B1B78DBB274
:4028400043F04003DBB213702C4A2C4B1B78DBB243F01003DBB21370082229492948FFF73DFE0A2228492948FFF738FE052228492848FFF733FE0A2227492848FFF72EFE9A
:402880000A2227492748FFF729FE0A2226492748FFF724FE082226492648FFF71FFE264A254B1B78DBB243F00803DBB21370234B61221A70FFF762FE204B81221A70204B92
:4028C00001221A70FFF720FF0E220B491D48FFF705FE00BF1837BD4680BD00BFE8460040B8980000F4980000A8000048007600400350014013500140A0430040C243004097
:40290000481300480251004050130048C05100405C130048CB51004064130048F051004070130048105100407C13004820510040881300483251004022430040004800404B
:4029400004000840B043004080B500AF05F084FF03461B680C2B00D1FEE7FEE780B584B000AF78600F4B1A687B6813441A460E4BD31A802B09DC0B4B1B68FB60094B1A6898
:402980007B681344074A136007E005F065FF02460C2313604FF0FF33FB60FB6818461037BD4680BDCC81FF1F9899FF1F80B586B000AF224B7B61224B3B61204B7B6135E059
:4029C0003B691B68FB603B695B68BB603B699B683B6000237B600CE0FB681A68BB681A60BB680433BB60FB680433FB607B6804337B607A683B689A42EED13B69DB683B6024
:402A000000237B6008E0BB6800221A60BB680433BB607B6804337B607A683B689A42F2D13B6910333B617B69013B7B617B69002BC6D105F017FFFDF765FBFEE701000000F9
:402A4000A09B000080B582B000AF194B194A1A60194A194B1B6843F40073136000237B600FE07B68032B04D8144A7B6852F8233000E0134B13497A6841F822307B68013387
:402A80007B607B682F2BECD90F4B1B78DAB20F4B1A700F4B0B4A1A60FFF76CFE02F060F90C4B00221A6000BF0837BD4680BD00BF0CED00E00004FA0514ED00E0000000005B
:402AC000492900000080FF1FBC760040C480FF1F08ED00E0C080FF1F80B500AF064B1B78002B04D100F00AF8034B01221A7000F065F800BF80BD00BF8784FF1F80B582B072
:402B000000AF294A284B1B78DBB243F00203DBB21370264B1B78DBB223F07003FB71234AFB7943F01003DBB21370214A204B1B78DBB223F03003DBB213701D4A1C4B1B7831
:402B4000DBB243F03003DBB21370194A184B1B78DBB223F00F03DBB21370154A144B1B78DBB243F00F03DBB2137040F2CF7000F049F8642000F056F8002000F063F80D4ADE
:402B80000C4B1B78DBB243F00103DBB213700A4A094B1B78DBB243F00103DBB2137000BF0837BD4680BD00BF004F0040024F00400B4F0040A3430040014F004080B400AFF8
:402BC0000D4A0D4B1B78DBB243F00103DBB213700A4A0A4B1B78DBB243F00103DBB21370074A074B1B78DBB243F00103DBB2137000BFBD4680BC7047A3430040B343004094
:402C0000004F004080B483B000AF0346FB80044AFB88138000BF0C37BD4680BC704700BF044F004080B483B000AF0346FB80044AFB88138000BF0C37BD4680BC704700BF88
:402C4000064F004080B483B000AF0346FB71044AFB79137000BF0C37BD4680BC704700BF034F004080B500AF064B1B78002B04D100F00AF8034B01221A7000F051F800BFB9
:402C800080BD00BF8884FF1F80B582B000AF214B1B78DBB223F03F03FB711E4AFB7943F00903DBB213701C4A1B4B1B78DBB243F00103DBB21370194A184B1B78DBB243F014
:402CC0000103DBB2137040F2CF7000F039F840F2CF7000F053F8962000F060F8962000F06DF8002000F07AF802F0C6FD0346BB710A4A0A4B1B78DBB243F01003DBB21370AE
:402D0000BB79184602F0BCFD00F02AF800BF0837BD4680BD73640040906400409164004080B400AF054A054B1B78DBB263F07F03DBB2137000BFBD4680BC70477364004033
:402D400080B483B000AF0346FB80044AFB88138000BF0C37BD4680BC704700BF0068004080B500AF01E000F055F800F047F8034603F01003002BF6D100BF80BD80B483B0E1
:402D800000AF0346FB80044AFB88138000BF0C37BD4680BC704700BF8068004080B483B000AF0346FB80044AFB88138000BF0C37BD4680BC704700BF4068004080B483B019
:402DC00000AF0346FB80044AFB88138000BF0C37BD4680BC704700BF6068004080B483B000AF0346FB71044AFB79137000BF0C37BD4680BC704700BF8164004080B400AF6E
:402E0000034B1B78DBB21846BD4680BC704700BF6164004080B400AF034B1B889BB21846BD4680BC704700BFA068004080B500AF064B1B78002B04D100F00AF8034B012265
:402E40001A7000F053F800BF80BD00BF8984FF1F80B582B000AF214B1B78DBB223F03F03FB711E4AFB7943F00903DBB213701C4A1B4B1B78DBB243F00103DBB21370194A83
:402E8000184B1B78DBB243F00103DBB2137040F2CF7000F03BF840F2CF7000F055F8962000F062F8962000F06FF8002000F07CF802F0E2FC0346BB710B4A0B4B1B78DBB265
:402EC00043F01003DBB21370BB79184602F0D8FC00F02CF800BF0837BD4680BD7164004092640040936400409464004080B400AF054A054B1B78DBB263F07F03DBB2137091
:402F000000BFBD4680BC70477164004080B483B000AF0346FB80044AFB88138000BF0C37BD4680BC704700BF0468004080B500AF01E000F055F800F047F8034603F01003A6
:402F4000002BF6D100BF80BD80B483B000AF0346FB80044AFB88138000BF0C37BD4680BC704700BF8468004080B483B000AF0346FB80044AFB88138000BF0C37BD4680BCC3
:402F8000704700BF4468004080B483B000AF0346FB80044AFB88138000BF0C37BD4680BC704700BF6468004080B483B000AF0346FB71044AFB79137000BF0C37BD4680BC5D
:402FC000704700BF8464004080B400AF034B1B78DBB21846BD4680BC704700BF6464004080B400AF034B1B889BB21846BD4680BC704700BFA468004080B582B000AF786059
:4030000000F03CF8786800F009F8072000F018F800F028F800BF0837BD4680BD80B485B000AF7860054B1B68FB60FB6858337A681A6000BF1437BD4680BC704708ED00E0E9
:4030400080B483B000AF0346FB71054AFB795B01DBB2137000BF0C37BD4680BC704700BF06E400E080B400AF034B40221A6000BFBD4680BC704700BF00E100E080B400AFB0
:40308000034B40221A6000BFBD4680BC704700BF80E100E080B400AF034B40221A6000BFBD4680BC704700BF80E200E080B485B000AF0346FB710B4B1B78DBB223F0020313
:4030C000FB730849FB795B00DBB203F00203DAB2FB7B1343DBB20B7000BF1437BD4680BC704700BF2051004080B582B000AF1D4B1B78DBB223F00703FB711A4AFB7943F0BB
:403100000103DBB21370174B1B78DBB223F00303FB71144AFB79137000F0B2F84FF6FE7000F08EF8002000F05FF8002000F040F800F04EF8802000F093F802F09DFB034689
:40314000BB71094A084B1B78DBB243F01003DBB21370BB79184602F093FB00BF0837BD4680BD00BF7A6500409A65004080B400AF054A054B1B78DBB263F07F03DBB2137013
:4031800000BFBD4680BC70477A65004080B500AF064B1B78002B04D1FFF7A6FF034B01221A70FFF7E3FF00BF80BD00BF8A84FF1F80B483B000AF0346FB71044AFB7913700E
:4031C00000BF0C37BD4680BC704700BF8A65004080B400AF034B1B78DBB21846BD4680BC704700BF6A65004080B483B000AF0346FB80044AFB88138000BF0C37BD4680BCF7
:40320000704700BF126A004080B400AF044B1B78044B1B889BB21846BD4680BC704700BF09650040926A004080B400AF034B1B889BB21846BD4680BC704700BF926A0040EB
:4032400080B483B000AF0346FB80044AFB88138000BF0C37BD4680BC704700BF526A004080B483B000AF0346FB80044AFB88138000BF0C37BD4680BC704700BF726A00404C
:4032800080B500AF01E0FFF7CFFFFFF7A1FF034603F04003002BF6D100BF80BD80B584B000AF03460A46FB8013467B7100F0B4F80346FB7300F0A4F80346BB81FA88BB89E7
:4032C0009A4200F08880464B1B78DBB203F00403FB72FB7B002B20D1BB89002B02D0FB88002B1AD1BB89002B0BD13E4AFB8813803D4A3D4B1B78DBB223F04003DBB21370F8
:4033000069E0394A384B1B78DBB243F04003DBB21370344AFB8813805DE0FB7A002B33D0324B00221A70324B04221A70314B00221A70314A304B1B78DBB203F07F03DBB28E
:403340001370294B1B78DBB203F00803002B02D0FB88002B18D1294ABB891380234B07221A7000BF214B1B78DBB203F00103002BF8D11B4A1A4B1B78DBB223F00403DBB272
:4033800013701A4B00221A70154B1B78DBB203F00403002B13D0194AFB881380134A7B79002B01D0032300E00123137000BF0F4B1B78DBB203F00103002BF8D10BE0094A1C
:4033C000FB8813800649064B1B78DAB2FB7A1343DBB20B70FFE700BF1037BD4680BD00BFA2430040884000408A400040014000401040004014400040084000400240004054
:4034000080B400AF034B1B889BB21846BD4680BC704700BF8840004080B400AF044B1B78DBB203F00703DBB21846BD4680BC70478A40004080B500AF224A224B1B78DBB239
:4034400003F00103DBB213701F4A1F4B1B78DBB223F00303DBB213701C4A1C4B1B78DBB223F03003DBB21370184A184B1B78DBB243F03003DBB21370144A144B1B78DBB2AE
:4034800023F00F03DBB21370104A104B1B78DBB243F00F03DBB213700D4A0D4B1B78DBB243F00103DBB213704FF6FF7000F064F84FF6FF7000F072F8002000F041F800BF81
:4034C00080BD00BF0C4F00400E4F0040174F00400D4F004080B400AF0D4A0D4B1B78DBB243F00203DBB213700A4A0A4B1B78DBB243F00203DBB21370074A074B1B78DBB288
:4035000043F00103DBB2137000BFBD4680BC7047A3430040B34300400C4F004080B500AF064B1B78002B04D1FFF784FF034B01221A70FFF7CFFF00BF80BD00BF8B84FF1FB0
:4035400080B483B000AF0346FB71044AFB79137000BF0C37BD4680BC704700BF0F4F004080B400AF034B1B889BB21846BD4680BC704700BF104F004080B485B000AF0346B2
:40358000FB80FB88FB81044AFB89138000BF1437BD4680BC704700BF104F004080B483B000AF0346FB80044AFB88138000BF0C37BD4680BC704700BF124F004080B400AF55
:4035C000044B1B88044B1B889BB21846BD4680BC704700BF124F0040144F004080B500AF1C4B0F221A701C4B02221A600721012001F044FD1949012001F018FD164B0122B0
:403600001A600721002001F039FD1549002001F00DFD00F009FA134B00221A70124B00221A70124B00221A70114B00221A70114B00221A70104B00221A7000F099F800F091
:40364000B5F80E4B00221A700D4B20221A7000BF80BD00BF8F64004080E100E0893A00005D3B00006696FF1F6796FF1F6596FF1F6496FF1F6A96FF1F6896FF1F876400401F
:403680008064004080B582B000AF02F0F5F80346FB71134A124B1B78DBB243F02003DBB21370104A0F4B1B78DBB243F01003DBB213700D4A0C4B1B78DBB243F01003DBB231
:4036C0001370FB79184602F0DBF801F02FFB00F01FF800F029F800BF0837BD4680BD00BF9F640040976400409064004080B500AF064B1B78002B04D1FFF770FF034B012230
:403700001A70FFF7BFFF00BF80BD00BF8C84FF1F80B400AF034B02221A6000BFBD4680BC704700BF00E100E080B400AF034B01221A6000BFBD4680BC704700BF00E100E05B
:4037400080B400AF034B02221A6000BFBD4680BC704700BF80E100E080B400AF034B01221A6000BFBD4680BC704700BF80E100E080B582B000AFFFF7E3FF0A4B1B78DAB2E0
:40378000094B1B78DBB203F00903DBB21343FB71054B00221A70FFF7BBFFFB7918460837BD4680BD676400405496FF1F80B582B000AFFFF7D1FF0A4B1B78DAB2094B1B7800
:4037C000DBB203F04003DBB21343FB71054B00221A70FFF7A9FFFB7918460837BD4680BD606400406996FF1F80B584B000AF0346FB71394B1B78FB73FB7B002B02D10B23B7
:40380000FB7302E0FB7B013BFB73344B1B78DBB2FA7B9A42EDD0FFF793FF314B1B78DAB2304B1B78DBB203F00903DBB21343BB732C4ABB7B1370284B1B78DAB2274B1B78D7
:40384000DBB29A420AD1274B1B78DBB203F00403002B03D0244AFB79137037E01F4B1B78DBB20133DAB21D4B1A701C4B1B78DBB20B2B02D9194B00221A70184B1B78DAB298
:40388000154B1B78DBB29A4211D1134B1B78DBB20133DAB2104B1A700F4B1B78DBB20B2B02D90D4B00221A70104B01221A700B4B1B78DBB219460E4AFB7953540D4A0D4B19
:4038C0001B78DBB243F00403DBB21370FFF720FF00BF1037BD4680BD6A96FF1F6896FF1F676400405496FF1F446400406496FF1F5896FF1F8764004080B582B000AFFFF773
:403900002BFF174B1B78DAB2164B1B78DBB29A4217D0154B1B78DBB2002B0FD1104B1B78DBB20133DAB20E4B1A700D4B1B78DBB20B2B06D90A4B00221A7002E00A4B002208
:403940001A70074B1B78DBB21A46084B9B5CFB71FFF7EAFEFB7918460837BD4680BD00BF6796FF1F6596FF1F6696FF1F6C96FF1F80B582B000AFFFF7EFFE164B1B78DAB260
:40398000154B1B78DBB29A4202D10023FB711AE0104B1B78DAB2104B1B78DBB29A4208D20D4B1B78DAB20B4B1B78DBB2D31AFB7109E0094B1B78DAB2064B1B78DBB2D31AA4
:4039C000DBB20C33FB71FFF7AFFEFB7918460837BD4680BD6796FF1F6596FF1F80B500AF01E00C4B1B780C4B1B78DBB203F02003002BF6D1FFF7B0FE084B00221A70084B43
:403A000000221A70074B00221A70FFF78DFE00BF80BD00BF54640040606400406696FF1F6796FF1F6596FF1F80B582B000AF01E0124B1B78124B1B78DBB203F02003002BB1
:403A4000F6D101F019FF0346FB710E4A0D4B1B78DBB243F00103DBB213700A4A094B1B78DBB223F00103DBB21370FB79184601F007FF00BF0837BD4680BD00BF54640040FD
:403A8000606400409464004080B483B000AF35E02A4B1B78DAB22A4B1B78DBB203F00903DBB21343FB71264AFB791370244B1B78DBB203F00403002B29D0224B1B78DBB287
:403AC000002B0FD1204B1B78DBB20133DAB21E4B1A701D4B1B78DBB20B2B06D91A4B00221A7002E0174B00221A70184B164A1278D2B21146164A525CD2B21A70124B1B78AB
:403B0000DAB2144B1B78DBB29A42C1D100E000BF0D4B1B78DAB20F4B1B78DBB29A4207D10D4A0D4B1B78DBB223F00403DBB2137000BF0C37BD4680BC704700BF676400400D
:403B40005496FF1F6496FF1F6A96FF1F446400405896FF1F6896FF1F8764004080B483B000AF2E4B1B78DAB22D4B1B78DBB203F04003DBB21343FB71294AFB79137040E077
:403B8000284B1B78BB71284B1B78DBB20133DAB2254B1A70244B1B78DBB20B2B02D9224B00221A70204B1B78DAB2204B1B78DBB29A4211D11D4B1B78DBB20133DAB21B4B4C
:403BC0001A701A4B1B78DBB20B2B02D9174B00221A70174B01221A70134B1B78DBB21946144ABB7953540D4B1B78DAB20C4B1B78DBB203F04003DBB21343FB71084AFB7939
:403C00001370074B1B78DBB203F02003002BB7D100BF0C37BD4680BC704700BF606400406996FF1F546400406596FF1F6796FF1F6696FF1F6C96FF1F80B584B000AF034627
:403C40000A46FB8013467B7100F0B4F80346FB7300F0A4F80346BB81FA88BB899A4200F08880464B1B78DBB203F00103FB72FB7B002B20D1BB89002B02D0FB88002B1AD1B5
:403C8000BB89002B0BD13E4AFB8813803D4A3D4B1B78DBB223F04003DBB2137069E0394A384B1B78DBB243F04003DBB21370344AFB8813805DE0FB7A002B33D0324B00227E
:403CC0001A70324B01221A70314B00221A70314A304B1B78DBB203F07F03DBB21370294B1B78DBB203F00803002B02D0FB88002B18D1294ABB891380234B07221A7000BFFD
:403D0000214B1B78DBB203F00103002BF8D11B4A1A4B1B78DBB223F00103DBB213701A4B00221A70154B1B78DBB203F00103002B13D0194AFB881380134A7B79002B01D09F
:403D4000032300E00123137000BF0F4B1B78DBB203F00103002BF8D10BE0094AFB8813800649064B1B78DAB2FB7A1343DBB20B70FFE700BF1037BD4680BD00BFA24300407C
:403D80008040004082400040014000401040004014400040084000400240004080B400AF034B1B889BB21846BD4680BC704700BF8040004080B400AF044B1B78DBB203F0D9
:403DC0000703DBB21846BD4680BC70478240004080B485B000AF0346FB710B4B1B78DBB223F01003FB730849FB791B01DBB203F01003DAB2FB7B1343DBB20B7000BF143721
:403E0000BD4680BC704700BFC051004080B500AF064B00221A70064B00221A70042000F057F8002000F034F800BF80BD205800402158004080B400AF094A094B1B78DBB2E8
:403E400043F00103DBB21370064A064B1B78DBB243F00103DBB2137000BFBD4680BC7047A8430040B843004080B500AF074B1B78002B04D1FFF7CAFF044B01221A70FFF75E
:403E8000D9FFD42000F044F800BF80BD8D84FF1F80B483B000AF0346FB710C4A0B4B1B78DBB223F00203DBB213700849074B1B78DAB2FB7903F00203DBB21343DBB20B7007
:403EC00000BF0C37BD4680BC704700BF2058004080B582B000AF0346FB710C4A0B4B1B78DBB223F00C03DBB213700849074B1B78DAB2FB7903F00C03DBB21343DBB20B7067
:403F000000F016F800BF0837BD4680BD2058004080B483B000AF0346FB71044AFB79137000BF0C37BD4680BC704700BF805B004080B483B000AF0B4B1B78DBB203F00C031D
:403F40009B08DBB20633FB71074AFB7903F1924303F590731B78DBB2137000BF0C37BD4680BC7047205800400846004080B500AF00F09AFF00F0AAFF00BF80BD80B500AF1C
:403F8000FFF7F4FF00BF80BD80B584B000AF03460A46FB711346BB8001F094F8BB88B3F5006F70D2BB881B097B817B891B019BB2BA88D31A3B8101F0B9F90346002B5FD150
:403FC000FA1D39890123402001F0CAF8F860FB68072B4CD14FF0FF33FB6000BF2D4B1B78DBB203F00203002BF8D02A4B1B78DBB203F00203002B08D0264B1B78DBB29B08D5
:40400000DBB2002B01D10023FB60FB68002B2AD1214B1A78204B5B787989402001F008F90346072B1BD14FF0FF33FB6000BF194B1B78DBB203F00203002BF8D0154B1B780B
:40404000DBB203F00203002B17D0124B1B78DBB29B08DBB2002B10D10023FB600DE04FF0FF33FB6009E04FF0FF33FB6005E0FB68012B02D04FF0FF33FB6001F08BF904E099
:404080000423FB6001E00123FB60FB6818461037BD4680BD224700400499FF1F80B584B000AF0346FB8001F0E7FB0346FB7300F053FFFB8803F1804303F500431B78BB7394
:4040C00000F062FFFB7B184601F0DAFBBB7B18461037BD4680BD00BF80B485B000AF0346FB710B4B1B78DBB223F04003FB730849FB799B01DBB203F04003DAB2FB7B134378
:40410000DBB20B7000BF1437BD4680BC704700BF1051004080B500AF064B1B78002B04D100F00AF8034B01221A7000F02DF800BF80BD00BF8E84FF1F80B500AF0C4B722293
:404140001A700C4B20221A700B49042000F06EFF0721042000F092FF084B06221A70084B47221A70074B02221A7000BF80BD00BF846500408B6500408D44000028640040F4
:40418000386400408865004080B582B000AF01F073FB0346FB71134A124B1B78DBB243F02003DBB21370104A0F4B1B78DBB243F01003DBB213700D4A0C4B1B78DBB243F061
:4041C0001003DBB213700A4B10221A60094B10221A60FB79184601F053FB00BF0837BD4680BD00BF946500409B6500409865004080E200E000E100E080B483B000AF00239B
:40420000FB710C4B1B78BB71BB7903F02003002B09D0094B1B78FB71BB7903F01E03002B01D00023FB71FB7918460C37BD4680BC704700BF6B6500404765004080B483B05B
:4042400000AF084B1B78DBB203F02003002B01D0012300E00023FB71FB7918460C37BD4680BC70476B65004080B582B000AF01F003FB0346FB710C4A0B4B1B78DBB243F0A3
:404280000103DBB21370084A074B1B78DBB223F00103DBB21370FB79184601F0F1FA00BF0837BD4680BD00BF9765004080B485B000AF0346FB71264B1B88FB81254B1B88A8
:4042C000BB81FA89BB899A4208D2FA89BB89013B9A420CBF01230023DBB209E0FA89BB89D31A40F28F1293420CBF01230023DBB2002BE0D1BA89FB899A420AD1164B1B7855
:40430000DBB203F00403002B03D1144AFB79137019E0FB89B3F5C87F01D30023FB81FB890F49FA79CA54FB890133FB81084AFB891380094B1B78DBB203F00203002B02D050
:40434000084B10221A6000BF1437BD4680BC70479284FF1F9084FF1F686500404B6500407896FF1F00E200E080B584B000AF78600023FB810C4B1B78002B10D009E0FB89FC
:404380007A6813441B781846FFF790FFFB890133FB81FB897A6813441B78002BEFD100BF1037BD4680BD00BF8E84FF1F80B483B000AF174B10221A60164B1B889AB2164BD5
:4043C0001B889A4202D10023FB8018E0114B1B889AB2114B1B889A4207D20F4B1A880D4B1B889BB2D31AFB8009E00B4B1A88094B1B889BB2D31A9BB203F5C873FB80074BCB
:4044000010221A60FB8818460C37BD4680BC704780E100E09084FF1F9284FF1F00E100E080B582B000AF01F027FA0346FB71124A114B1B78DBB243F00103DBB213700E4AFA
:404440000D4B1B78DBB223F00103DBB21370FB79184601F015FA094B10221A60084B00221A80084B00221A80074B10221A6000BF0837BD4680BD00BF9B65004080E100E031
:404480009084FF1F9284FF1F00E100E080B400AF18E0154B1B889BB2B3F5C87F02D3124B00221A80114B104A128892B21146104A525CD2B21A700C4B1B889BB201339AB205
:4044C000094B1A80084B1B889AB20A4B1B889A4206D0094B1B78DBB203F00403002BD8D000BFBD4680BC70479084FF1F4B6500407896FF1F9284FF1F6865004080B500AF79
:40450000064B1B78002B04D100F00AF8034B01221A7000F045F800BF80BD00BF9584FF1F80B500AF1649022000F080FD0721022000F0A4FD134B00221A70032000F052F976
:40454000252000F075F9252000F082F90E4B72221A700E4B20221A700D49032000F066FD0721032000F08AFD0A4B06221A700A4B47221A70094B02221A7000BF80BD00BFB2
:404580006D4900009884FF1F886400408B640040994A00002A6400403A6400408D64004080B582B000AF01F067F90346FB71164A154B1B78DBB243F02003DBB21370134A31
:4045C000124B1B78DBB243F01003DBB21370104B04221A600F4B00221A700F4A0E4B1B78DBB243F01003DBB213700C4B08221A60074B08221A60FB79184601F041F900BF12
:404600000837BD4680BD00BF986400409B64004000E100E09D84FF1F9D64004080E200E080B483B000AF0023FB71224B04221A60214B1B78BB71214B1B787B71204B1B7878
:40464000DBB2002B03D1BA797B799A4217D0BB791C4AD35CFB71BB790133BB71BB79C72B01D90023BB71144ABB791370144B1B78DBB2002B15D0124B00221A7011E0124BB1
:404680001B783B713B7903F02003002B09D00F4B1B78FB713B7903F01E03002B01D00023FB710B4B04221A60FB7918460C37BD4680BC704780E100E09984FF1F9A84FF1F88
:4046C0009B84FF1F0898FF1F6B6400404865004000E100E080B483B000AF1D4B04221A601C4B1B78DAB21C4B1B78DBB29A420AD11A4B1B78DBB2002B02D0C823FB711DE04A
:404700000023FB711AE0134B1B78DAB2124B1B78DBB29A4208D2104B1B78DAB20D4B1B78DBB2D31AFB7109E00B4B1B78DAB2094B1B78DBB2D31ADBB2383BFB71084B042251
:404740001A60FB7918460C37BD4680BC704700BF80E100E09984FF1F9A84FF1F9B84FF1F00E100E080B582B000AF01F085F80346FB71154A144B1B78DBB243F00103DBB264
:404780001370114A104B1B78DBB223F00103DBB21370FB79184601F073F80C4B04221A600B4B00221A700B4B00221A700A4B00221A700A4B00221A70094B04221A6000BF9B
:4047C0000837BD4680BD00BF9865004080E100E09984FF1F9A84FF1F9B84FF1F9C84FF1F00E100E080B485B000AF0346FB710D4B1B78DBB203F01F03FB73FB795B01DAB226
:40480000FB7B1343FB73074AFB7B1370064AFB791370064B00221A7000BF1437BD4680BC704700BF7E640040D081FF1F9D84FF1F80B483B000AF0346FB71044AFB79137011
:4048400000BF0C37BD4680BC704700BF2865004080B483B000AF0346FB71044AFB79137000BF0C37BD4680BC704700BF3865004080B485B000AF0346FB71254B1B78FB73D2
:40488000244B1B78BB73FA7BBB7B9A4208D2FA7BBB7B013B9A420CBF01230023DBB207E0FA7BBB7BD31A312B0CBF01230023DBB2002BE2D1BA7BFB7B9A420AD1164B1B7857
:4048C000DBB203F00403002B03D1144AFB79137018E0FB7B312B01D90023FB73FB7B1049FA79CA54FB7B0133FB73094AFB7B1370094B1B78DBB203F00203002B02D0094B27
:4049000008221A6000BF1437BD4680BC704700BF9784FF1F9684FF1F6D6400404D640040D098FF1F00E200E080B584B000AF78600023FB810C4B1B78002B10D009E0FB8968
:404940007A6813441B781846FFF792FFFB890133FB81FB897A6813441B78002BEFD100BF1037BD4680BD00BF9584FF1F80B483B000AF0023FB713E4B1B78BB71BB797B71CE
:40498000BB7903F01E03002B0CD097F9063003F01E035AB2374B1B785BB213435BB2DAB2344B1A70BB7903F02003002B55D0324B1B787B71314B1B78DBB2022B1FD1BB7925
:4049C00003F00103002B0BD0BB7903F04003002B03D02B4B01221A7002E0294B00221A70274B1B78DBB2002B12D0264B1B78DBB21946254A7B7953540123FB7108E0214BB0
:404A00001B78DBB21946204A7B7953540123FB71FB79002B21D01D4B1B78DBB2002B02D01B4B01221A70174B1B78DBB20133DAB2144B1A70134B1B78DBB2C72B02D9114B68
:404A400000221A700F4B1B78DAB2124B1B78DBB29A4202D10D4B01221A70BB7903F02003002B88D100BF0C37BD4680BC704700BF6B6400409884FF1F48650040D081FF1FB6
:404A80009D84FF1F9A84FF1F0898FF1F9B84FF1F9C84FF1F9984FF1F80B400AF17E0154B1B78DBB2312B02D9124B00221A70124B104A1278D2B21146104A525CD2B21A703B
:404AC0000C4B1B78DBB20133DAB20A4B1A70094B1B78DAB20A4B1B789A4206D0094B1B78DBB203F00403002BD9D000BFBD4680BC704700BF9684FF1F4D640040D098FF1F2E
:404B00009784FF1F6D64004080B582B000AF786000F03CF8786800F009F8072000F018F800F028F800BF0837BD4680BD80B485B000AF7860054B1B68FB60FB685C337A68E1
:404B40001A6000BF1437BD4680BC704708ED00E080B483B000AF0346FB71054AFB795B01DBB2137000BF0C37BD4680BC704700BF07E400E080B400AF034B80221A6000BF5E
:404B8000BD4680BC704700BF00E100E080B400AF034B80221A6000BFBD4680BC704700BF80E100E080B400AF034B80221A6000BFBD4680BC704700BF80E200E080B500AF96
:404BC000224A224B1B78DBB203F00103DBB213701F4A1F4B1B78DBB223F00303DBB213701C4A1C4B1B78DBB223F03003DBB21370184A184B1B78DBB243F03003DBB21370FB
:404C0000144A144B1B78DBB223F00F03DBB21370104A104B1B78DBB243F00F03DBB213700D4A0D4B1B78DBB243F00103DBB213704FF4A67000F058F84FF4A67000F066F8E2
:404C4000002000F041F800BF80BD00BF184F00401A4F0040234F0040194F004080B400AF0D4A0D4B1B78DBB243F00403DBB213700A4A0A4B1B78DBB243F00403DBB2137077
:404C8000074A074B1B78DBB243F00103DBB2137000BFBD4680BC7047A3430040B3430040184F004080B500AF064B1B78002B04D1FFF784FF034B01221A70FFF7CFFF00BF73
:404CC00080BD00BF9F84FF1F80B483B000AF0346FB71044AFB79137000BF0C37BD4680BC704700BF1B4F004080B485B000AF0346FB80FB88FB81044AFB89138000BF1437BC
:404D0000BD4680BC704700BF1C4F004080B483B000AF0346FB80044AFB88138000BF0C37BD4680BC704700BF1E4F004080B400AF094A094B1B78DBB243F00803DBB2137079
:404D4000064A064B1B78DBB243F00803DBB2137000BFBD4680BC7047A2430040B243004080B483B000AF134B7F221A70124B80221A707F23FB710CE0FB79DB0003F18043ED
:404D800003F5F043FA79013AD2B21A70FB79013BFB71FB79002BEFD1FB79DB0003F1804303F5F04300221A7000BF0C37BD4680BC704700BFD581FF1FD481FF1F80B582B0AF
:404DC00000AF00F07FF94FF0FF337B6000F0AEFA0346002B24D1012000F076FA0346072B1BD10221124800F091F90346022B0DD100237B6002E0012000F004F90D4B1B7843
:404E0000DBB203F00203002BF5D006E0094B1B78DBB203F00203002BE3D000F0BBFA01E004237B607B6818460837BD4680BD00BF0499FF1F2247004080B582B000AF00F05C
:404E400041F900F073FA0346002B23D100F0CAFA78607B68072B1AD102E0012000F0D2F8104B1B78DBB203F00203002BF5D00D4B1B78DBB203F00203002B08D0094B1B782D
:404E8000DBB29B08DBB2002B01D100237B6000F081FA01E004237B607B6818460837BD4680BD00BF2247004080B582B000AFFFF7C3FF78607B68002B02D1FFF77FFF7860F1
:404EC0007B6818460837BD4680BD00BF80B582B000AF00F0D1FC0346FB71194A184B1B78DBB243F00803DBB21370164A154B1B78DBB243F00803DBB21370134BC8221A7077
:404F0000124A124B1B78DBB243F01003DBB213700F4A0F4B1B78DBB243F01003DBB2137000BF0C4B1B78DBB203F02003002BF8D0FB79184600F0A4FC00BF0837BD4680BD3A
:404F4000A0430040B043004001470040AC430040BC4300400047004080B400AF094A094B1B78DBB243F00103DBB2137000BF054B1B78DBB203F00203002BF8D000BFBD4691
:404F800080BC70470247004080B400AF054A054B1B78DBB223F00103DBB2137000BFBD4680BC70470247004080B483B000AF0346FB7101BE00BF0C37BD4680BC704700BF2D
:404FC00080B582B000AF786008E00C4B1B68184600F04AFC7B68A3F500437B607B68B3F5004FF2D8064B1B687A6802FB03F3184600F03AFC00BF0837BD4680BDE881FF1F3E
:40500000E081FF1F80B582B000AF0346FB80FB88054A127802FB03F3184600F025FC00BF0837BD4680BD00BFE481FF1F80B584B000AF03463960FB710F4B1B68FB60FB79C7
:405040001F2B02D90020FFF7AFFFFB7903F01F0310339B00FA6813441B68BB60FB7903F01F0310339B00FA6813443A681A60BB6818461037BD4680BD08ED00E080B582B009
:4050800000AF03460A46FB711346BB71BB79072B02D90020FFF788FFFB791F2B02D90020FFF782FFFB7903F01F0303F1604303F56443BA795201D2B21A7000BF0837BD4655
:4050C00080BD00BF80B582B000AF00F0D5FB0346FB710C4A0B4B1B78DBB243F00803DBB21370094A084B1B78DBB243F00803DBB21370FB79184600F0C3FB00BF0837BD467A
:4051000080BD00BFA0430040B043004080B584B000AF78600B46FB700023FB7313E00120FFF770FF0C4B1B78DBB203F00103002BF5D0FB7B7A681344084A1278D2B21A7070
:40514000FB7B0133FB73FA7BFB789A42EAD3FB7B18461037BD4680BD224700402047004080B485B000AF3A601A460346FB710B46BB801346BB710723FB60FB793E2B02D8D7
:40518000BB791F2B05D9FB793F2B45D9BB790F2B42D8254B1B78DBB203F00203002B38D0224BB6221A70214BD4221A701F4B01221A701D4B1B78DBB203F00203002B25D1E1
:4051C0001A4AFB791370194ABB881B0A9BB2DBB203F00103DBB21370144BBA88D2B21A70124ABB79013BDBB213700023FB7208E00E49FB7A3A6813441B780B70FB7A013329
:40520000FB72FA7ABB799A42F2D307E00923FB6004E00423FB6001E00123FB60FB6818461437BD4680BC7047224700402047004090B484B000AF0446084611461A46234653
:40524000FB710346BB800B46BB711346FB700723FB601B4B1B78DBB203F00203002B26D0184BB6221A70174BD8221A70154B05221A70134B1B78DBB203F00203002B13D198
:40528000104AFB7913700F4ABB881B0A9BB2DBB213700C4BBA88D2B21A700A4ABB791370084AFB78137004E00923FB6001E00423FB60FB6818461037BD4690BC704700BFEA
:4052C000224700402047004080B485B000AF0346FB710723FB60134B1B78DBB203F00203002B16D0104BB6221A700F4BE1221A700D4B0E221A700B4B1B78DBB203F0020361
:40530000002B03D1084AFB79137004E00923FB6001E00423FB60FB6818461437BD4680BC704700BF224700402047004080B582B000AF04237B6000F09FFA0346FB70124B94
:405340001B78002B16D1104B01221A7000237B600E4B1B6803F00103002B0BD00B4A0B4B1B6823F00103136000BF00BF00BF084B01221A60FB78184600F082FA7B68184646
:405380000837BD4680BD00BFA084FF1F04000840A484FF1F80B582B000AF00F06DFA0346FB710D4B00221A700C4B1B68012B0BD10B4A0B4B1B6843F00103136000BF00BF7D
:4053C00000BF064B00221A60FB79184600F058FA00BF0837BD4680BDA084FF1FA484FF1F0400084080B483B000AF07237B600C4B1B78DBB203F00203002B09D0094BB62221
:405400001A70084BE0221A70064B0D221A7001E004237B607B6818460C37BD4680BC7047224700402047004080B582B000AF786000F03CF8786800F009F8072000F018F842
:4054400000F028F800BF0837BD4680BD80B485B000AF7860054B1B68FB60FB6854337A681A6000BF1437BD4680BC704708ED00E080B483B000AF0346FB71054AFB795B01BB
:40548000DBB2137000BF0C37BD4680BC704700BF05E400E080B400AF034B20221A6000BFBD4680BC704700BF00E100E080B400AF034B20221A6000BFBD4680BC704700BFD9
:4054C00080E100E080B400AF034B20221A6000BFBD4680BC704700BF80E200E080B500AF224A224B1B78DBB203F00103DBB213701F4A1F4B1B78DBB223F00303DBB21370C8
:405500001C4A1C4B1B78DBB223F03003DBB21370184A184B1B78DBB243F03003DBB21370144A144B1B78DBB223F00F03DBB21370104A104B1B78DBB243F00F03DBB2137091
:405540000D4A0D4B1B78DBB243F00103DBB213704FF6FF7000F058F84FF6FF7000F066F8002000F041F800BF80BD00BF244F0040264F00402F4F0040254F004080B400AF5E
:405580000D4A0D4B1B78DBB243F00803DBB213700A4A0A4B1B78DBB243F00803DBB21370074A074B1B78DBB243F00103DBB2137000BFBD4680BC7047A3430040B34300409C
:4055C000244F004080B500AF064B1B78002B04D1FFF784FF034B01221A70FFF7CFFF00BF80BD00BFA884FF1F80B483B000AF0346FB71044AFB79137000BF0C37BD4680BCA2
:40560000704700BF274F004080B485B000AF0346FB80FB88FB81044AFB89138000BF1437BD4680BC704700BF284F004080B483B000AF0346FB80044AFB88138000BF0C3748
:40564000BD4680BC704700BF2A4F004080B400AF044B1B88044B1B889BB21846BD4680BC704700BF2A4F00402C4F004080B500AF064B1B78002B04D100F00AF8034B0122F6
:405680001A7000F025F800BF80BD00BFA984FF1F80B400AF094B72221A70094B20221A70084B06221A70084B47221A70074B00221A7000BFBD4680BC704700BF82640040F5
:4056C000866500402B6400403B6400408965004080B582B000AF00F0CFF80346FB71114A104B1B78DBB243F02003DBB213700E4A0D4B1B78DBB243F01003DBB213700B4A6A
:405700000A4B1B78DBB243F01003DBB2137000F091F8FB79184600F0B3F800BF0837BD4680BD00BF92640040966500409965004080B483B000AF044B1B78FB71FB791846D6
:405740000C37BD4680BC70474564004080B483B000AF064B1B78DBB203F07F03FB71FB7918460C37BD4680BC704700BF6665004098B500AFFFF7EAFF03461B021CB2FFF7C5
:40578000D7FF03461BB223431BB29BB2184698BD80B483B000AF084B1B78DBB203F02003002B01D0012300E00023FB71FB7918460C37BD4680BC70476665004080B483B01F
:4057C00000AF0346FB7100BF074B1B78DBB203F00403002BF8D1054AFB79137000BF0C37BD4680BC704700BF696500404964004080B584B000AF78600B46FB700023FB73F1
:405800000B4B1B78002B0ED009E0FB7B7A6813441B781846FFF7D2FFFB7B0133FB73FA7BFB789A42F1D300BF1037BD4680BD00BFA984FF1F80B400AF094A094B1B78DBB28C
:4058400043F02003DBB21370064A064B1B78DBB243F02003DBB2137000BFBD4680BC7047A2430040B24300400230800803D000BF01380046FCD17047EFF3108072B67047EC
:4058800080F31088704700BF094B10B5D8689A68002308E0114652F8084B1CB901230B60486810BD01338342F4D3002010BD00BF0899FF1F084B30B50022DC689B6808E078
:4058C0005D6819460833854202D100230B6030BD0132A242F4D330BD0899FF1F01230373704700230373704710B1002282720260704718B1027B0AB1013A027370470000B1
:4059000038B501F077FD20B3124C4200E260000101F064FD238AA060E068584301F05EFDA568E168228A002304E005EBC3046060013380188B42F8D3102001F04FFD054C8F
:405940006061282001F04AFDA37CA06143F00203A37438BD0899FF1F38B510220D460021044601F06DFCFFF78FFF08B9013038BDA0604FF0FF33002065602360A07338BD40
:4059800038B5104B9C69217B59B921606160A16004F11000142201F053FC237B013323730DE0656A45B9282001F002FD606218B12946282201F044FC646A002CE3D120464B
:4059C00038BD00BF0899FF1F38B50E4B5C69A17AE56839B92046102201F032FC0123A372E5600CE045B9102001F0E2FCE06018B12946102201F024FCE468002CE7D1204660
:405A000038BD00BF0899FF1F2DE9F74F06460020884691469B469DF830A09DF83470FFF7AFFF054608B9044610E0FFF7CDFF044660B180F80B900560AE60404621465246F5
:405A40003B46CDF800B001F03BF930B12046FFF74BFF2846FFF74DFF00242046BDE8FE8F2DE9FF410C461F4604A9002341F8043D15469DF8286000F0D5F88046B8B1039BBF
:405A80000BB11B789BB1404600F055F900280EDD14F0150F01D0032809D1039939B1404622462B4600970196FFF7AEFF00E0002004B0BDE8F08100002DE9F3410646884692
:405AC00000240E4D404655F83410E70001F0EEFB10B9002C04DA0DE001340F2CF1D109E07D19A87929790090EA796B793046FFF7B7FF00E00020BDE8FC8100BF1C9900008C
:405B0000FFF7DABF10B5437B04460BB1012010BD40682168A268A37B01F033FD10B10120607310BD207310BD10B5437B044663B9037B53B140682168A268A37B01F021FD30
:405B400008B1012363730023237310BD036870B5994204460D46164607D0037B0BB1FFF7E3FF00232560A673E37370BDFFF7DCBF10B50446FFF7D8FFA068BDE81040FFF7FB
:405B800099BE01230373FFF7CFBF10B50446407B08B1012010BDE37B5BB960682168A268A37B01F088FC10B10120607310BD0122E27310BD08B5436813B94FF0FF3008BD71
:405BC000984708BDF8B50C4617460023144D01E0ED6D01338342FBDB2B6828791B68984706460CB92046F8BD01F06DFB0530B84214DC22460020335C013223540130315C5E
:405C00000029F8D113464FF03A0C03F801CB2C7903303034547083F801C09970F8BD00BF2499FF1F2DE9F0470F463A21064601F06CFB044610B93446174D27E00378C6EB74
:405C4000000A5BB114F8013F43B162783A2A05D1A3F130085FFA88F8023401E04FF000080D4D2B6828791B689847814601F02BFB504508D148463146524601F02CFB10B9FD
:405C80002B79434502D0ED6D002DEAD107B13C602846BDE8F08700BF2499FF1FF8B5174C064694F85B10E56D69B960220127204601F0C6FA84F85B70E5653046FFF77AFF2E
:405CC00000280EDA18E045B9602001F071FBE06518B12946602201F0B3FAE46D002CE0D10AE0074B2660DA6F0132DA670323207184F85B7084F85A302046F8BD2499FF1F7D
:405D00000899FF1FFFF7CABF38B504460D4601F0A0FB08B9013838BD204601F0ADFB204601F046FD204600F0F5FC08B184F8595094F8590038BD90F8593023B990F85A10A9
:405D400009B1FFF7E1BF1846704710B590F8592004463AB931B1FFF7D7FF002802DC4FF0FF3010BD94F8590010BDFFF7EEBF10B50021FFF757FF08B9013010BD0321BDE8BD
:405D80001040FFF7F2BF30B51346BAB1B0B10268857A0AB1946804B900247DB172B16CB1C27A12F0100204D14FF6FA730381104630BD1A46BDE8304001F04EB9002030BD5B
:405DC000FFF7E1BF0C2802D0102805D102E001EB510070474800704788007047036840689B685B6AB0FBF3F0704710B5046D836CE4B199421AD3E318994217D2013B99426D
:405E00000CBF4FF0FF31013172B190F836300C2B02D0102B05D102E00905090D03E089B201E021F070411160012010BD002010BD40F6F473984201D80C2070474FF6F473D9
:405E4000984294BF102020207047027F8368023902FB01307047431EDBB21F2B13D92F2811D007D826280ED002D8222809D10AE02A3804E03A2804D33F2804D95B38022873
:405E800001D90120704700207047034638B30B2A01DD0B2200E0013A00201CE0082809D191F808C0BCF1200F0DD04FF02E0C03F801CB08E038B991F800C0BCF1050F02D1A4
:405EC000ACF1200C04E011F800C0BCF1200F01D003F801CB01309042E0DB00221A7070472DE9F04788B005AE04460D463046114600229A469DF84490BDF84C80BDF8507094
:405F000000F01EFD08B1002413E020462946524600F00FFE044660B1129B31460093109A4B46CDF80480029700F0C6FF2846FFF7D5FC204608B0BDE8F08710B59DF80C4023
:405F40000394BDE8104000F0D9BD00002DE9F04F144E87B0109DDDF848809DF84440376800950194CDF8088005937F68934682468946B84732680C4BDDF814C09A420DD067
:405F800060B9504649465A46634610951194CDF8488007B0BDE8F04FFFF7CFBF07B0BDE8F08F00BFEC81FF1FC499000070B5C37A04460B7010300D4601F0D6F9064604F127
:405FC0000E0001F0D1F940EA0640686004F1120001F0CAF90004A86004F1180001F0C4F9064604F1160001F0BFF940EA0640E86004F11C0001F09FF9286170BD2DE9F845C3
:40600000038A04460E46924687692BB907F118002146626900F064FC38465146224600F0E7FC0546204600F065FCD5B12B78C3B1E52BF1D095F80B80B8F10F0FECD018F094
:406040000808E9D170692946B269FFF71EFF28463146FFF7ABFF238A404601332382BDE8F8854FF0FF30BDE8F8850222FFF76EBD2DE9F04790F8366005460C463046114683
:406080009146FFF79FFEB5F81E80AB6A20FA08F89845824602D30020BDE8F0876B8E05F118079844204641463A46FFF7DEFF2046FFF76BFD18B14FF0FF30BDE8F087AA8BD0
:4060C000A168013A0AEA020A1FFA8AFA92450AEB01031AF8015001D0013309E0204608F101013A46FFF7C1FF2046FFF74EFDA36818780C2E45EA002009D0202E0FD15D7860
:4061000040EA05409D7840EA0560BDE8F08719F0010F02D00009BDE8F0870005000DBDE8F08700002DE9F34190F83630144603FB02F7828B8846D200511E0F40D71B0546C1
:40614000B7FBF3F7002618E00E4B93F88030022B05D12846214601AAFFF747FE28B9284641462246FFF784FF0190019B0134A34205D10136B6B2013F1C46002FE4DC304699
:40618000BDE8FC810899FF1F2DE9F34105460E46144698461F681CE0114B93F88030022B05D12846214601AAFFF71FFE28B9284631462246FFF75CFF0190737B0BB100244F
:4061C0000BE0AA6B019B0132934204D81BB1013F1C46002FE0D1C8F800702046BDE8FC810899FF1F73B504680E4623681BB9FFF7F5FD013039E0FFF7F1FD236998423CBF9C
:406200004FF0FF3323612369B3F1FF3F04D12268013323616261E3832169E28B451A954234BF2B4613463BB16069C918C018D21A60612161E283ED1A0DB9284615E002ABF2
:4062400043F8045D31466269A068FFF79DFF6061019B21690246C91A4D19256123B9A0683146FFF75FFFE08301987CBD13B502AC44F8043D2346FFF787FF019B002B18BF4E
:4062800000201CBD2DE9F0410746884615461E460024384641462A460123FFF7E7FF30B1BA6B0134944201D80546F2E7002406B134602846BDE8F0812DE9F74F04460D4631
:4062C0001E461746002A00F0B98090F836001146FFF778FDB4F81EA0A36A20FA0AFA9A45814680F0AB80638E04F118089A44284651464246FFF7B9FE2846FFF746FC6B7B8A
:40630000002B40F09B80A38BAA68013B09EA03091FFA89F303EB020926B9216C8F4203D2276401E0791C216494F8361010290AD0202911D1484600F0FEFF31460746484669
:4063400001F004F84EE0484601F00EF8B1B20746484601F005F845E0284600920193FFF7BDFA009A019B17F0010F13F802B01BD00BF00F0141EA06119954A28B013A93427F
:4063800002D009F1010309E028460AF101014246FFF76BFE2846FFF7F8FBAB681F7832093F0147EA1B171CE09E54A28B013A934202D009F1010309E028460AF1010142461C
:4063C000FFF753FE2846FFF7E0FBAB681A78310A02F00F0701F00F0122F00F024BEA07270A431A702846FFF779FA94F83630202B18D1B4F84620AAB9B4F844102846FFF7FB
:40640000A5FB2846FFF7C1FBA8684FF0FF3100F5F47000F09BFF2846FFF760FA4FF00103A4F84630E36BB3F1FF3F09D00FB10133E3632EB1E36B013BE36301E0012000E053
:406440000020BDE8FE8F6FF07043FFF735BF70B5036D04460E4693B1002506E0AA1820463146531CFFF728FF0135236DA26C013B9D42F3D320463146AA18FFF7E4FF0023D1
:40648000A3642365E364636570BD70B506460D461C460AB1FFF710FF304629462246BDE87040FFF7D0BF00002DE9F84504460E4615461F46002B36D01C4B93F88030022B53
:4064C00031D190F8368011464046FFF77BFCB4F81CA00AF1FF3A2AEA000A4FEACA0ABAFBF8FAAA44A8460EE0204631464246FFF7BFFD50B9A36C0BB9C4F84880E36C08F11B
:4065000001080133E364D045EED9E36C5BB167653B685A6922B1204631462B46FFF7CCFE236D01332365BDE8F88500BF0899FF1F2DE9F8459846274B054693F880300F4623
:40654000022B1646846B19D1436D984503D0C36C0BB1FFF77CFFB8F1000F0FD06B6D43450CD12B6DEA6C9A4204D9AC6C1C1901332B652CE028463946FFF769FF012E04F1F6
:40658000010A01D9564505D92E6C012E01D9564500D902263446284639462246FFF768FD50B101345445F6D902240DE0284639462246FFF75DFD30B92846394622464346F7
:4065C000FFF772FF03E00134B442EFD300242046BDE8F8850899FF1FF8B507460E461546FFF7A6FF044628B1384631462A462346FFF74BFF2046F8BDB2F1FF3F73B5044616
:406600000D4614D0561A013611D0FFF7AFFA084B00211A8AA06800F013FE022300936068A3682946324600F087FF0023E3737CBD0899FF1F2DE9F84F984690F8363004460F
:406640000C2B0D4616465AD04FF0FF3AD1463CE094F836003146FFF7B5FBB4F81CB0678E0BF1FF3B10EA0B0BE38B1DD1D840013F3F18022228463946FFF768FAA38BAA6819
:406680009B0852F80B1079B9013B0BF1040BF8D13BE0494628465246FFF7AEFFB946BB462846FFF71EF9DA462946324601232046FFF7DCFD29460746324620460023FFF7AF
:4066C000FBFD2FB108F1FF383E46B8F1000FBFD1284649465246FFF78FFF13E02946324601232046FFF7C2FD29460746324620460023FFF7E1FD2FB108F1FF383E46B8F1C6
:40670000000FEBD14046BDE8F88F0AF1010B5F45BFD1C5E72DE9F8450546FFF7B5F8044608B90546D0E0284600F032FF684E338A834208D338B10021284622460B4600F0EB
:40674000BAFE002804DA2046FFF7B4F80025BBE004F5FF7000F008FE4AF65523984240F0AD8004F10B0000F0FFFD10F47E4F074600F0A480338A8342C0F0A080237C022B0A
:4067800040F09C8094F80D80B8F1000F00F096800021402205F1180000F052FD04F1130000F0E2FD064620B904F1200000F0C3FD064604F1160000F0D7FD824680B904F114
:4067C000280000F0D1FD10F08F0F77D104F1240000F0B1FD824604F12C0000F0ACFDE862022385F83530C5F828A0AE6185F8348004F10E0000F0B8FD688604F1110000F0F2
:40680000B3FD95F835206B8E288602FB0A3A7A0992B2B0FBF2F25244AF832A62092301219940B94201D1EB8302E00133102BF6D108FB07F7B61AB6FBF8F6AE636F623046F2
:40684000FFF7F6FA202818BFC5F82CA04FF0FF33202885F83600EB6332D104F1300000F083FD00230146A5F844002246284600F022FE002822DB204600F05DFD804604F573
:40688000F27000F058FD074604F5FE7000F053FD104B984514D1104B9F4211D10F4B98420ED104F5F67000F046FD286404F5F47000F041FDB04203D8E86301E0002500E048
:4068C00001252046FEF7F6FF2846BDE8F88500BF0899FF1F5252614172724161000055AA00238B60837F202B01D102B942694A600A60704783680133836070472DE9F041EB
:406900000C46202105461F469DF818604FF0000800F096FC10E014F8080036B9E52804D1B8F1000F01D1E03802E000F0E7FCC0B205F8080008F10108B845ECDBBDE8F081BF
:406940002DE9F74506460D4608462849002A14BF92464FF0FF3A00F0A9FC804650B930462946022200F03BFEB01C2021092200F067FC37E04FF0FF34002715F80780B8F10C
:40698000000F01D0574505D1B4F1FF3F08BF3C4664B925E04046FFF75EFA08B3B8F12E0F08BF3C4601370D2FE7D119E0082C17DC3F1B042F14DC30462946082223464FF0F9
:4069C0000008CDF80080FFF799FF0123611C009306F10800691803227B1EFFF78FFF01E04FF001084046BDE8FE8500BFD49900002DE9F74FD2F808B0436A4FEA4B18B8FBE9
:406A0000F3F8D368054698450E461446D2F8009001D20023D360B5F81EA0E368AAF1050A0BB9D4F804902BFA0AF7B9F1000F17D095F83420B8EB0303019206D04A4628469C
:406A40003146FFF713FC814640B3494605F11800FFF7FBF9019B591E01EA0707C11906E02B8E43FA0AF39F4218D2E96A79183046C4F80090C4F80C800122FFF767F83046F3
:406A8000FFF783F850B9013000FA0AFAB3680AF1FF3A0AEA0B0B03EB4B1000E00020BDE8FE8F2DE9FF4107460E4601A811461A460A9D9DF82C40FFF743FFC8B938463146AC
:406AC0002A46FFF795FF8046A0B1037883B101A90B2200F0A5FB38B998F80B3004EA0302A24201D1082B05D12846FFF703FFE5E74FF00008404604B0BDE8F0812DE9F045ED
:406B000087B002AF04460E46154698469DF83CA039460E9A1830FFF7E3FE204631462A4643460097CDF804A0FFF7BBFF07B0BDE8F0852DE9F04500F1180785B005460C465B
:406B4000384669469246FFF7CBFE284621466A46FFF74EFF06466846E846FFF7CBFE002E37D1BAF1000F02D12B8E002B35D12146009A00232846FFF785FB2146024600231B
:406B80002846FFF729FD80462046FEF7FAFFB8F1000F22D0AA8B0021A06800F051FB38464146FFF752F995F8347000257E1E361808E0314620460122FEF7C8FF2046FEF768
:406BC000A1FF013E01357B1BB3F1FF3FF1D1A66803E033780BB1E52BB7D1304605B0BDE8F08538B504461A3000F0BEFB054604F1140000F0B9FB45EA004038BD2DE9F04540
:406C00001D4685B007460E462A6010465C21904600F07BFB4FF0000A0446A04508D108F10108C5F8008040465C2100F06EFB044694B1C8EB0403002B0EDD10220192103A28
:406C40000292384631464246CDF800A0FFF77EF970B1FFF7C6FF824628685C2100F055FBA04604460028D8D10C9B0130C3F800A005B0BDE8F085F8B505460C461E46174632
:406C8000DAB16FF01A0313700846FEF727FE16B94FF47A7608E007F11C0000F04CFB6B6A5E1E3618B6FBF3F63846FFF79AFF2146024633462846FFF7BDFC607BF8BD000092
:406CC0002DE9F04FD1F8008093B0D8F808700BAD044608930E464FF0FF333946284609920F939DF870A0FEF737FE10AB009338462946224611ABFFF781FFD0B1F27A109BA3
:406D000007920FAA00930292002338462946119A0193FFF71BF9044680B1C37A13F0100F07D10D9BDDF82CB0C3EB00094FEA691906E02846FEF71CFF0125A3E08346814667
:406D4000099B002B3CD0002C33D0524B5D6912E02B687BB1AA7A6AB19A8B4A450AD19A695A4507D19B68BB4204D14FF6F772328100257EE0ED68002DEAD10DF12C0C6146DA
:406D8000384622460123CDF818C0FFF774FFDDF818C018B14FF0FF3333816AE03E4B1B68DC6824B138466146109A0F9BA0472C4606E0BAF1000F03D1089A002A44D065E04E
:406DC000089BEBB1CCB1E37A13F0010F0BD0079A12F0150F07D04FF6FA733381BAF1000F01D1012500E000252046FFF7FAFE074604F11C0000F09FFA29E0BAF1000F45D0BE
:406E0000BAF1010F01D000251BE0ECB900F002FD214B20221B68019282B2000C03920490009402949D6838460BA9119A109BA84750B10D9ADDF82CB0C2EB00094FEA691975
:406E4000254628462F4602E00125002007464FF0FF33C8F81030C8F818B0A8F81C90079AC8F8040012F0010308BF1846C8F800707060B6F908300BA835EA230528BF01258C
:406E8000FEF776FE284613B0BDE8F08F01255046DCE700BF0899FF1FEC81FF1F70B505460C461A3089B200F05BFA05F11400210CBDE8704000F054BA2DE9F0470446BDF82A
:406EC00024700D469146002120229A46BDF82860DDF8208000F0B4F90B222046294600F07EFB04F10E00394684F80BA000F038FA04F11000314600F033FA04F116003946E9
:406F000000F02EFA04F11800314600F029FA20464946FFF7C3FF04F11C004146BDE8F04700F014BA07B5426803460AB910460AE081680020009048681968DB6800F0DAFA40
:406F4000003818BF01200EBD2DE9F047046805460F46A668FFF746F981468246002841D0D4F80080B8F1000F1BD14246304639462B46FFF7DDFA0246D8B11C4B6061C4F852
:406F8000108093F880302060022B07D030463946FFF759FA10B10120BDE8F087B9F1010A20D03046394662692B46FFF7C1FA804628B94FF6FE732B810130BDE8F0870B4B13
:406FC00093F88030022B05D03046394662694346FFF75BFA2369C4F8148001332361BAF1010ADDE70020BDE8F08700BF0899FF1F2DE9F041836804460D4608460122A169AE
:407000009E8BFEF7A3FD2846B4F81C80AF68FEF7BCFDF8B9013E06EA4816B6B2BE1906F11C00616800F092F921683046FFF736FF00F0F0FB0446A1B206F1160000F090F91B
:4070400006F11800210C00F08BF92846BDE8F041FEF797BDBDE8F08103682DE9F04F9F68038995B001339BB2012B04460E46059201D90025CEE0394610AD0CA8FEF76CFC49
:4070800039462846FEF768FC039626680023D6F808909A4609F118010791D9F82420059906924FF0FF32099308920A950291049320460CA9FFF748FF38B108A8FFF732FF7D
:4070C0005546002818BF00258FE03269069901324A43B9F81CB063680BF1FF3BD21A0BEA030B029B0798934228BF134601937169FEF7ABFE99F83430B9F81C206768013BB1
:40710000B7FBF2F703EA0707C719B9F81C300199CBEB03058D4228BF0D469D4228D0BBF1000F03D1626873689A420FD00DF14008404639460022FEF709FD4046FEF725FDB0
:4071400020B14FF6F9725546228154E01298039958442A460DF1400800F041FA404639460022FEF7F3FC4046FEF7CCFC90B141E0099B089A9A1897420AD008A8FFF7D2FE88
:40718000002837D101230993039B08970B9301E001330993029B03995B1B019A029363684919521BAA44ED186560736803919D42019207D91BB1194B93F880300BB9012110
:4071C00004917560019A1AB101374FF0000B9CE7029B002B7FF46CAF08A8FFF7A3FE04995546002818BF002529B1304610A9FFF7FFFE00E05546059A954205D0B4F908301A
:4072000013B94FF6F87323810CA8FEF7B1FC10A8FEF7AEFC284615B0BDE8F08F0899FF1F10B5002308E0C45C11F803C0013A0133644501D0012010BD002AF4D1104610BDC6
