:400000000080002011000000352000003520000080B500AF024A034B1B68136002F03CF8BC760040FA46004010B5054C237833B9044B13B10448AFF300800123237010BD37
:400040005882FF1F00000000888B0000084B10B51BB108490848AFF300800848036803B910BD074B002BFBD0BDE81040184700BF000000005C82FF1F888B0000C880FF1FBA
:400080000000000080B500AF01F0D4FC4FF4165001F0DCFA064B1B78184601F073FB032001F010FC082001F05DFC00BF80BD00BFCC80FF1F80B500AF3221012001F012F97F
:4000C0003221022001F00EF91921042001F00AF9192004F089FD0021012001F003F90021022001F0FFF84FF4FA7004F07DFD6421012001F0F7F86421022001F0F3F84FF4CD
:40010000FA7004F071FD3221012001F0EBF83221022001F0E7F84FF4FA7004F065FD0021042001F0DFF84FF4FA7004F05DFD3221042001F0D7F84FF4FA7004F055FD3221DE
:40014000012001F0CFF83221022001F0CBF81921042001F0C7F800BF80BD00BF80B584B000AF0023FB720AE0002000F021FC03461B68FA681344FB60FB7A0133FB72FB7A8A
:40018000062BF1D9FA68064BA3FB0213D21A520813449B087B607B6818461037BD4680BD254992242DE9F043ADF5217D0EAF62B602F026FD04F0B8FB40F24D1004F0D6FB69
:4001C000BF4804F0EFFA01F009FA01F097FCFFF759FF01F07BF8FFF76DFF00F06DFAFFF7BDFF0346C7F82C3200F0DCFC00F04AFE03F036FA01F04CFC002387F84732002386
:40020000C7F84032AF4B1B78002B0AD0AD4B00221A70AD4B1A78AC4B5B781946104601F061F8AA4B1B78002B3DD0A84B00221A7097F84732013387F84732002000F0B8FBAE
:40024000C7F82802D7F828321B68C7F83C32D7F82C32D7F83C22D31AC7F83432D7F828325B68C7F83832D7F8283208331B68C7F83032D7F830221346DB001344944A82FB2C
:4002800003125210DB17D31A03F54863C7F8303200F008FD00F076FD00F0D2FD02F026FB0346C7F8403297F84732072BAAD9002387F84732874BB3F900301B111BB29E461D
:4002C000854BB3F900301B111BB27B62834B1B881B099BB23B62824BB3F90030FB61814BB3F90030BB61804BB3F900307B617F4B1B783B61D7F83C327D4AA2FB03135D099B
:40030000D7F83C32DAB2D7F83C327949A1FB03135B09DBB2194689000B4419468800194603460B449B00DBB2D31ADBB2FB60D7F834326F4AA2FB03135E09D7F83432DAB277
:40034000D7F834326A49A1FB03135B09DBB2194689000B4419468800194603460B449B00DBB2D31ADBB2BB60D7F83832604AA2FB03135A097A60D7F83832D9B2D7F8382260
:400380005B4BA3FB02035B09DBB21A4613469B001A4413469B0013449B00DBB2CB1ADBB23B60D7F83012524B83FB01035A11CB17D41AD7F83032D8B2D7F830124C4B83FB85
:4003C00001C35A11CB17D31ADBB21A4613469B001A4413469B0013449B00DBB2C31ADBB207F128000D930C9439680B917A680A92BA6809920896FA68079206953A6905929D
:400400007A690492BA690392FA6902923A6A01927B6A00937346D7F84022364907F050FE00F056FD0346184600F0D0FD0346002B00F0C280304B1B682D4AA2FB03234FEA79
:40044000531C2D4B1B68DAB22B4B1B682849A1FB03135B09DBB2D31ADBB29846264B5B68234A82FB03125211DB17D01A224B5B68DAB2214B5B681E4981FB03414911DB1751
:40048000CB1ADBB2D31ADBB27B621B4B9B68184A82FB03125211DB17D41A174B9B68DAB2154B9B68124981FB03514911DB17CB1ADBB2D31ADBB23B620F4B5B691EE000BFA4
:4004C000A10600007895FF1F6C95FF1F7482FF1F676666667695FF1F2895FF1FB095FF1FAE95FF1F4A95FF1FAC95FF1F4895FF1F1F85EB518C8B00004C95FF1F5D4A82FB25
:4005000003129210DB17D51A5B4B5B69DAB25A4B5B69584981FB03618910DB17CB1ADBB2D31ADBB2FB61554BDB68524A82FB03129210DB17D61A514BDB68DAB24F4BDB6893
:400540004C4981FB03E18910DB17CB1ADBB2D31ADBB2BB61494B1B69464A82FB03129210DB17D21A7A61454B1B695FFA83FE434B1969404B83FB01939A10CB17D31ADBB2BD
:40058000C3EB0E03DBB21A463B4B5B7B0A9309927A690892BA6907920696FA69059204953A6A039202947B6A01930090434662463349344807F084FD07F12803314918461F
:4005C00007F0A2FD07F12803184603F095FD2E4803F092FD2D4B1B781E462C4B5B789E462A4B93F904301A46284B9B781946274BDB781846254B93F909301C46234B93F99C
:400600000A301D46214B93F90B30059304950394029001910092734632461D491D4807F04FFD07F128031B49184607F06DFD07F12803184607F081FD03461A4607F1280325
:400640001344154A1188927819809A70134B1B68002B3FF4D7AD114B1C6807F12803184607F06BFD024607F128031946204604F09BFFC7E5676666664C95FF1F2C95FF1F1A
:40068000C48B0000D080FF1FF48B00007C95FF1FF88B00005081FF1F108C0000B495FF1F80B500AF02F068F8024B01221A7000BF80BD00BF7482FF1F80B582B000AF02F053
:4006C00045FF02F085FB642004F08EFA0121D02000F0F8F903461B78582B01D000232EE000F032F80223FB710423BB7103237B7100233B710423FB70FB795B015AB2BB796F
:400700009B005BB213435AB297F9053013435BB2DBB21946F42000F0B5F93B795B015AB2FB789B005BB213435BB2DBB21946F52000F0A8F94FF4967004F056FA01231846AE
:400740000837BD4680BD00BF80B500AF882000F00FFA03461A46284B1A808A2000F008FA03461AB2244B5A808C2000F001FA03461AB2214B9A808E2000F0FAF903461A469A
:400780001D4BDA80902000F0F3F903461AB21A4B1A81922000F0ECF903461AB2164B5A81942000F0E5F903461AB2134B9A81962000F0DEF903461AB20F4BDA81982000F0FF
:4007C000D7F903461AB20C4B1A829A2000F0D0F903461AB2084B5A829C2000F0C9F903461AB2054B9A829E2000F0C2F903461AB2014BDA8200BF80BD8895FF1F80B487B0B3
:4008000000AF78607B68DA10184B1B885B00D31A164AB2F9022002FB03F3DB127B617B681B11124A12889B1A7A6812110F490988521A02FB03F31B130C4AB2F9042002FBD6
:4008400003F39B133B617A693B691344084A1360074B1A6813469B00134480331B12FB60FB6818461C37BD4680BC70478895FF1FC495FF1F80B487B000AF78604A4B1B6875
:400880005B10A3F57A433B613B699B103A69921002FB03F3DB12454AB2F9102002FB03F3FB60424BB3F90E301A463B6903FB02F35B00FA681344FB60FB689A103B4BB3F994
:4008C0000C301B041344FB60384BB3F90A3019463B699B103A69921002FB03F35B1303FB01F3DA10314BB3F9083019463B6903FB01F35B1013449B143B613B6903F5004311
:400900002A4AD28802FB03F3DB133B613B69002B01D1002342E07B685B42FA6812139B1A40F6354202FB03F303F1434303F5A0037B617B69002B06DB7B695A003B69B2FBBA
:40094000F3F37B6105E03B697A69B2FBF3F35B007B61164BB3F9163019467B69DB087A69D20802FB03F35B0B03FB01F31B133B617B699B081A460D4BB3F9143003FB02F312
:400980005B13FB603A69FB681344084AB2F9122013441A117B6913447B617B6918461C37BD4680BC704700BFC495FF1F8895FF1F80B588B000AF78607B68002B01D1174B17
:4009C0007B6000F031F8F861FB691B68BB61FB6904331B687B617869FFF710FF3861BB691846FFF747FFF8607A68FB68D31A46F68E5202FB03F30A4AA2FB03239B09BB6001
:400A0000084ABB681360074AFB6853603B69054A9360044B18462037BD4680BDCD8B0100D34D62107882FF1F80B582B000AF0621F72000F047F878607B681B781A037B6869
:400A400001331B781B0113437A680232127813431A460B4B1A607B6803331B781A037B6804331B781B0113437A680532127813431A46034B5A60024B18460837BD4680BDA4
:400A80008482FF1F80B582B000AF03460A46FB711346BB71002002F00DFDFB7903F07F03DBB2184602F012FABB79184602F00EFA02F006FB012002F0FDFC00231846083739
:400AC000BD4680BD90B587B000AF03460A46FB711346BB71002002F0EDFC02F0F1FAFB7963F07F03DBB2184602F0F0F90023FB7505E0002002F0EAF9FB7D0133FB75FA7D1A
:400B0000BB799A42F5D300233B6102E03B6901333B6102F09FFA03461A46BB79934203D93B69114A9342F1DD02F058FA0023FB7309E0FC7B02F052FA03461A460B4B1A552C
:400B4000FB7B0133FB73FA7BBB799A42F1D3FB7B064A0021D154012002F0ACFC034B18461C37BD4690BD00BF1FA107008C82FF1F80B584B000AF0346FB71FB79022118468A
:400B8000FFF7A0FFF860FB681B781AB2FB6801331B781B021BB213431BB29BB218461037BD4680BD80B582B000AF02F029F802F06BFE4FF4967004F017F800213D2000F0DF
:400BC00053F800213E2000F04FF80021072000F04BF81023BB71BB7919463B2000F044F82121412000F040F800213F2000F03CF80C213D2000F038F80023FB710023BB80FA
:400C000041F2883002F03CF823E00021282003F027F8352003F0ACF803F07EF80121282003F01EF8002003F0E3F80346FB7103F073F802F035F80346BB80BB8840F6C3126B
:400C4000934203D9012001F0A3FD02E0002001F09FFDFB79152BD8D9002001F099FD00BF0837BD4680BD00BF80B582B000AF03460A46FB711346BB710021282002F0F0FF8F
:400C8000FB79184603F074F8BB79184603F070F803F042F8322003F0A7FF00BF0837BD4680BD00BF80B500AF0021282002F0D8FF1A2003F05DF803F02FF80121282002F0F3
:400CC000CFFF012003F094F803469AB22A4B1A80012003F08DF803469BB21B029AB2264B1B8813449AB2244B1A80012003F080F803461AB2214B1A80012003F079F8034615
:400D00009BB21B029AB21D4BB3F900309BB213449BB21AB2194B1A80012003F069F803461AB2174B1A80002003F062F803469BB21B029AB2124BB3F900309BB213449BB2E2
:400D40001AB20F4B1A8002F0E7FF0B4B1B8803F534639AB2084B1A80074B1B88B3F5B45F07D3054B1B88A3F5B4539AB2024B1A8000BF00BF80BD00BFB095FF1F2895FF1F13
:400D80007695FF1F80B500AF0021282002F068FF282002F0EDFF02F0BFFF0121282002F05FFF012003F024F803461AB2214B1A80012003F01DF803469BB21B029AB21D4BF9
:400DC000B3F900309BB213449BB21AB2194B1A80012003F00DF803461AB2174B1A80012003F006F803469BB21B029AB2124BB3F900309BB213449BB21AB20F4B1A80012016
:400E000002F0F6FF03461AB20C4B1A80002002F0EFFF03469BB21B029AB2084BB3F900309BB213449BB21AB2044B1A8002F074FF00BF80BDAE95FF1F4A95FF1FAC95FF1FD3
:400E400080B500AF0021282002F00AFF342002F08FFF02F061FF0121282002F001FF002002F0C6FF03461A46054B1A7002F054FF034B1B785B00DAB2014B1A7000BF80BD6F
:400E80004895FF1F80B500AF03F000FA012140F2371002F043FA01F0EBFCFA2003F0A4FE094803F0B7FB642003F09EFE074803F0B1FB642003F098FE0121332002F02EFA82
:400EC00003F00CFB00BF80BD188C00004C8C000090B585B000AF03F0B7FA0346312B65D90EE0354B1B781C4603F052FA03461A46324B1A55304B1B780133DAB22E4B1A70C8
:400F000003F0A2FA0346002BEBD10023FB600023BB60294B1B789AB2294B1B889A4208D2254B1B789BB203F580739AB2254B1A8004E0214B1B789AB2224B1A80204B1A8842
:400F40001F4B1A801CE01E4B1B88FB71FB791B4AD35C242B05D1FB790133184A1344FB6008E0FB79154AD35C2A2B03D1FB79134A1344BB60124B1B8801339AB2104B1A8045
:400F80000F4B1A880F4B1B889A42DCD3FB68002B0CD0BB68002B09D0BA68FB68D31A1A46F968094807F0E6F8074B00E0002318461437BD4690BD00BF9A82FF1F9C82FF1F40
:400FC0009C83FF1F9E83FF1FA083FF1F80B584B000AF7860B749786807F0E0F8F860B649F86807F0A0F80346002B40F05481B349002007F0D3F80346184607F01DF80246FD
:40100000642303FB02F31A46AD4B1A60AB49002007F0C4F80346184607F00EF80246A84B1B681344A64A1360A449002007F0B6F80346184607F000F80246642303FB02F377
:401040009F4A53609D49002007F0A8F80346184606F0F2FF02469A4B5B681344984A53609649002007F09AF8F860FB681B78532B04D1934B5B685B42914A53608F490020E0
:4010800007F08CF80346184606F0D6FF0246642303FB02F38A4A93608849002007F07EF80346184606F0C8FF0246854B9B681344834A93608149002007F070F8F860FB68C2
:4010C0001B78572B04D17E4B9B685B427C4A93607A49002007F062F80346184606F0ACFF0346DAB2764B1A737449002007F056F80346184606F0A0FF0346DAB2704B5A738A
:401100006E49002007F04AF8F860F86806F094FF024613469B0013445B001A46684B1A61FB68013B1B782E2B0DD16449002007F035F80346184606F07FFF0246604B1B69F6
:4011400013445F4A13615D49002007F027F8F860F86806F071FF024613469B0013445B001A46574B5A61FB68013B1B782E2B0DD15249002007F012F80346184606F05CFF39
:4011800002464F4B5B6913444D4A53614B49002007F004F8F860FB681B784D2B0DD1484B5B694FF4A97202FB03F3464A82FB03125211DB17D31A424A53614049002006F0B1
:4011C000EDFFF860F86806F037FF024613469B0013445B001A463A4B9A61FB68013B1B782E2B0DD13549002006F0D8FF0346184606F022FF0246324B9B691344304A936131
:401200002E49002006F0CAFFF860FB681B784D2B0DD12B4B9B694FF4A97202FB03F3294A82FB03125211DB17D31A254A93612349002006F0B3FFF860F86806F0FDFE034619
:401240009BB21A46920013445B009AB21C4B9A83FB68013B1B782E2B0FD11849002006F09DFF0346184606F0E7FE0146144B9A8B8BB213449AB2124B9A831049002006F019
:401280008DFF0346184606F0D7FE03469AB20C4BDA83012309E00C49F86806F044FF0346002B01D1012300E0002318461037BD4680BD00BF608C0000648C00006C8C000007
:4012C0004C95FF1F1F85EB51708C000080B500AF01F020F901F03AF800F072FF0023184680BD00BF80B584B000AF03460A46FB711346BB71FB79082B28D0082B06DC022BA1
:4013000015D0042B1BD0012B0DD04AE0202B2CD0202B02DC102B24D043E0402B33D0802B00F0A8803DE0554ABB79537039E0BB795B08DBB21933DAB2504B1A7031E0BB7956
:40134000193BDBB25AB24D4B1A712AE04B4ABB79D370BB799BB264339BB2184600F0D6FF89E0464ABB7993701BE0BB791B09DBB25AB2424B5A7197F9063003F00F035AB274
:401380003E4B9A710DE0BB791B09DBB25AB23B4BDA7197F9063003F00F035AB2374B1A7200BF364B93F904309AB2344B5B789BB2D31A9BB2C833FB81304B5B789AB22F4B55
:4013C00093F904309BB213449BB26433BB812B4B9B789AB2294B1B789BB2D31A9BB2C8337B81264B1B789BB25B429AB2234B9B789BB2D31A9BB2C8333B81FB89C82B02D9C4
:40140000C823FB8104E0FB89632B01D86423FB81BB89C82B02D9C823BB8104E0BB89632B01D86423BB817B89C82B02D9C8237B8104E07B89632B01D864237B813B89C82BA6
:4014400002D9C8233B8104E03B89632B01D864233B81FB89184601F0F9F8BB89184601F005F97B89184601F00DF83B89184601F019F800E000BF1037BD4680BD7C95FF1F72
:4014800080B584B000AF0023FB810A222549264806F070FE01F0D6FB03467B8134E00023BB8101F0FDFB03463B8110E001F0F8FB03461A463B899B1A9BB2BB81B7F90C3036
:4014C000002B04DCBA897B8913449BB2BB8102F07DFD0346002B04D1B7F90C30B3F57A7FE4DDB7F90C30B3F57A7F11DA02F04CFD0346FB71FB79002B06D0FB890A49FA7990
:40150000CA54FB890133FB81FB89092BC7D900E000BF4FF6FF7001F0B3FB034B18461037BD4680BD788C00000484FF1F80B582B000AF0023FB710BE0012001F029F9C82086
:4015400003F052FB002001F023F9C82003F04CFBFB790F2BF0D900BF0837BD4680BD00BF80B582B000AF786000BF02F0E7FD0346002BFAD17B68DB00054AB2FBF3F39BB2B9
:401580000121184601F0FCF900BF0837BD4680BD00366E0180B500AF01F0E2F802F008FE02F02AFD002002F05FFC642003F01CFB00BF80BD80B500AFC82003F015FB01203B
:4015C00002F052FC642003F00FFB02F0F1FD02F013FD01F0B9F800BF80BD00BF80B500AF01F00EFB02F05EFC012002F03DFC4FF4FA7003F0F9FA02F0DBFD02F0FDFC00BF6E
:4016000080BD00BF80B582B000AFFFF7C3FF02F0CFFD02F0F1FC0B4802F06EFDFFF730FF7860FFF7C7FF02220749786806F08DFD0346002B01D1012300E0002318460837FC
:40164000BD4680BD848C0000888C000080B58AB000AF7860424A07F1180307CA03C31A80FFF798FF7B68B3F5165F32D0B3F5165F09D8B3F5166F1ED0B3F5965F22D0B3F561
:40168000966F11D04BE0B3F5164F30D0B3F5164F03D8B3F5964F23D041E0B3F5614F2DD0B3F5E13F31D03AE007F118032D4A07CA03C31A7035E007F118032B4A07CA03C36C
:4016C0001A702EE007F11803284A07CA03C31A7027E007F11803264A07CA03C31A7020E0244A07F1180307CA03C31A8019E0224A07F1180307CA03C31A8012E01F4A07F153
:40170000180307CA03C31A800BE007F118031C4A07CA03C31A800233120C1A7001E0FFF705FF07F11803184602F0E6FCFFF7A8FE7862FFF73FFF0023FB6007F11003002276
:401740001A609A8007F10C030A22796A184606F011FD7868FFF704FF00BF2837BD4680BD788C00008C8C0000988C0000A48C0000B08C0000BC8C0000C88C0000D48C00007E
:40178000E08C000080B58AB000AF0346FB71484A07F1180307CA03C31A80FFF7FBFEFB79092B1AD8FB79002B17D007F11803414A92E8030018600433198002330A0C1A70CD
:4017C000FB793033DBB2BB770023FB77002387F82030002387F821304EE0FB79632B24D807F11803344A92E80300186004331980FB79324AA2FB0323DB08DBB23033DBB244
:401800007B77FA792D4BA3FB0213D9080B469B000B445B00D31ADBB23033DBB2BB770023FB77002387F8203026E0FB797E2B23D8FB79643BFB7107F11803214A92E80300E6
:40184000186004331980FB791C4AA2FB0323DB08DBB23033DBB27B77FA79184BA3FB0213D9080B469B000B445B00D31ADBB23033DBB2BB770023FB7707F11803184602F09D
:401880003BFCFFF7FDFD7862FFF794FE0023FB6007F1100300221A609A8007F10C030A22796A184606F066FC00BF2837BD4680BD788C0000EC8C0000F48C0000CDCCCCCC09
:4018C000FC8C000080B586B000AF0346FB71FFF761FEFB79013B032B22D801A252F823F0F1180000F91800000119000011190000184802F001FC15E0174802F0FDFB11E088
:40190000164802F0F9FB4FF41650FFF79FFE09E0134802F0F1FB4FF49660FFF721FE01E0FFF704FEFFF7ACFD7861FFF743FE0023BB6007F10C0300221A609A8007F1080331
:401940000A227969184606F015FC00BF1837BD4680BD00BF048D00000C8D0000148D00001C8D000080B586B000AF0346FB71FFF711FEFB79013B072B32D801A252F823F0B3
:40198000A1190000A9190000B1190000B9190000C1190000C9190000D1190000D91900001C4802F0A9FB1EE01B4802F0A5FB1AE01A4802F0A1FB16E0194802F09DFB12E0CD
:4019C000184802F099FB0EE0174802F095FB0AE0164802F091FB06E0154802F08DFB02E0134802F089FBFFF74BFD7861FFF7E2FD0023BB6007F10C0300221A609A8007F11D
:401A000008030A227969184606F0B4FB00BF1837BD4680BD248D00002C8D0000348D00003C8D0000448D00004C8D0000548D00005C8D000080B582B000AF4FF496633B60E7
:401A40000023FB711AE03868FFF78AFDFFF7DAFD0346002B16D1C82003F0C6F83B68B3F5164F03D03B685B003B6004E03B685B083A6813443B60FB790133FB71FB79072BAB
:401A8000E1D900E000BF00BF0837BD4680BD00BF80B500AF03F028FBFA2003F0A5F80C221149002003F082FC0F4803F054FD0F490F4803F019FC02460E4B1A601A2001F07B
:401AC0005FFE03461A460C4B1A700A4B1B68002B08D0094B1B780133DBB21A21184601F0C5FD00BF00BF80BDB895FF1F848D0000888D0000B495FF1FC895FF1F80B500AF1E
:401B0000034B00221A70034800F0E8FD00BF80BD7895FF1F191B000080B582B000AF00F02BFE49E002F030FA0346FB71274B1B78002B09D1FB79FF2B06D1012000F028FE51
:401B4000224B01221A7037E0204B1B78012B06D1FB79E32B03D11D4B02221A702CE01B4B1B78022B06D11A4AFB791370174B03221A7021E0154B1B78032B17D1144B1B7856
:401B8000FF2B06D1FB79E32B03D1104B02221A7012E00F4AFB7953700E4B01221A700B4B00221A70002000F0F3FD0AE0074B00221A70002000F0ECFD02F008FA0346002BF2
:401BC000B0D100BF0837BD4680BD00BF0E84FF1F6C95FF1F7895FF1F80B582B000AF786039603A680021786806F061FA00BF0837BD4680BD80B584B000AFF860B9607A6051
:401C00007A68B968F86806F047FA00BF1037BD4680BD00BF80B483B000AF0346FB71FEE780B487B000AF7860396000233B6100237B6127E07B699B007A6813441B68BB60AF
:401C4000BB68FB73BB6823F0FF03BB6014E03B695B003A6813441B781A46BB68134419463B695B003A6813445B780B703B6901333B61FB7B013BFB73FB7B002BE7D17B69B1
:401C800001337B617B69272BD4D900BF1C37BD4680BC704780B582B000AF414B40F237121A80404B18221A703F4B00221A803F4B58221A703E4B40F237121A803D4B1822EF
:401CC0001A703D4B01221A803C4B18221A703C4BEF221A803B4B18221A703B4B40F65F121A803A4B18221A70394B02221A704FF0402308221A70374B03221A70364B374A83
:401D00001278D2B21A70364B08221A80354B41F251221A800023FB7019237B6014E0FB785B00DAB2304B1B78DBB203F00103DBB21343DBB203F00303FB704FF4F07003F017
:401D400087F97B68013B7B607B68002B02D0FB78032BE4D17B68002B02D10320FFF75AFF224B4FF480721A80204B07221A70204B00221A701F4B48221A701C4B00221A707E
:401D80001D4B02221A701D4A1C4B1B78DBB243F03F03DBB2137000BF0837BD4680BD00BF80400040824000408440004086400040884000408A4000408C4000408E40004065
:401DC000904000409240004094400040964000400043004000420040A14600400801004922420040204200402542004004400040064000400840004001400040A2430040F4
:401E000080B483B000AF114B1B78FB71104AFB7903F00703DBB213700E4AFB791B09DBB213700D4B2A221A700C4B02221A700C4B22221A700B4B20221A700B4B44221A7096
:401E400000BF0C37BD4680BC704700BFCF0100496E5800406F580040CD510040805A0040005B0040585B00407658004080B586B000AF72B6554A554B1B78DBB243F0040396
:401E8000DBB213700023FB7513E0FA7D13465B0013445B004E4A13443B613B691A683B699B889BB219461046FFF796FEFB7D0133FB75FB7D0A2BE8D90023FB751CE0FA7D1B
:401EC00013469B0013445B00424A1344FB60FB681B68BB60FB685B687B60FB681A7A5B7A1B0213437B807B881A467968B868FFF781FEFB7D0133FB75FB7D022BDFD93649F1
:401F00004FF09040FFF78CFE344A344B1B78DBB243F00203DBB21370314A314B1B78DBB243F00203DBB213702E4A2E4B1B78DBB243F04003DBB213702B4A2B4B1B78DBB2AC
:401F400043F01003DBB21370082228492848FFF751FE0A2227492848FFF74CFE052227492748FFF747FE082226492748FFF742FE0A2226492648FFF73DFE0A2225492648AE
:401F8000FFF738FE0A2225492548FFF733FE254A244B1B78DBB243F00803DBB21370224B61221A70FFF776FE1F4B81221A701F4B01221A70FFF724FF0E220A491C48FFF7F3
:401FC00019FE00BF1837BD4680BD00BFE8460040B88D0000FC8D0000A00000480350014013500140A0430040C24300409C0F004802510040A40F0048C0510040B00F004820
:40200000CB510040B80F0048F2510040C00F004810510040CC0F004820510040D80F004830510040224300400048004004000840B043004080B500AF06F002F803461B68EA
:402040000C2B00D1FEE7FEE780B584B000AF78600F4B1A687B6813441A460E4BD31A802B09DC0B4B1B68FB60094B1A687B681344074A136007E005F0E3FF02460C231360A2
:402080004FF0FF33FB60FB6818461037BD4680BDD081FF1F209AFF1F80B586B000AF224B7B61224B3B61204B7B6135E03B691B68FB603B695B68BB603B699B683B60002394
:4020C0007B600CE0FB681A68BB681A60BB680433BB60FB680433FB607B6804337B607A683B689A42EED13B69DB683B6000237B6008E0BB6800221A60BB680433BB607B6899
:4021000004337B607A683B689A42F2D13B6910333B617B69013B7B617B69002BC6D105F095FFFEF73FF8FEE701000000A090000080B582B000AF184B184A1A60184A184B5F
:402140001B6843F40073136000237B600FE07B68032B04D8134A7B6852F8233000E0124B12497A6841F822307B6801337B607B682F2BECD90E4B1B78DAB20E4B1A700E4B5B
:402180000A4A1A60FFF772FE0C4B00221A6000BF0837BD4680BD00BF0CED00E00004FA0514ED00E000000000352000000080FF1FBC760040C480FF1F08ED00E0C080FF1F44
:4021C00080B500AF064B1B78002B04D100F00AF8034B01221A7000F065F800BF80BD00BF0F84FF1F80B582B000AF294A284B1B78DBB243F00203DBB21370264B1B78DBB27C
:4022000023F07003FB71234AFB7943F01003DBB21370214A204B1B78DBB223F03003DBB213701D4A1C4B1B78DBB243F03003DBB21370194A184B1B78DBB223F00F03DBB22D
:402240001370154A144B1B78DBB243F00F03DBB2137040F2CF7000F049F8642000F056F8002000F063F80D4A0C4B1B78DBB243F00103DBB213700A4A094B1B78DBB243F0C9
:402280000103DBB2137000BF0837BD4680BD00BF004F0040024F00400B4F0040A3430040014F004080B400AF0D4A0D4B1B78DBB243F00103DBB213700A4A0A4B1B78DBB2DB
:4022C00043F00103DBB21370074A074B1B78DBB243F00103DBB2137000BFBD4680BC7047A3430040B3430040004F004080B483B000AF0346FB80044AFB88138000BF0C37AD
:40230000BD4680BC704700BF044F004080B483B000AF0346FB80044AFB88138000BF0C37BD4680BC704700BF064F004080B483B000AF0346FB71044AFB79137000BF0C37B9
:40234000BD4680BC704700BF034F004080B500AF064B1B78002B04D100F00AF8034B01221A7000F051F800BF80BD00BF1084FF1F80B582B000AF214B1B78DBB223F03F03C4
:40238000FB711E4AFB7943F00903DBB213701C4A1B4B1B78DBB243F00103DBB21370194A184B1B78DBB243F00103DBB2137040F2CF7000F039F840F2CF7000F053F8962032
:4023C00000F060F8962000F06DF8002000F07AF802F046FE0346BB710A4A0A4B1B78DBB243F01003DBB21370BB79184602F03CFE00F02AF800BF0837BD4680BD726400401A
:40240000966400409764004080B400AF054A054B1B78DBB263F07F03DBB2137000BFBD4680BC70477264004080B483B000AF0346FB80044AFB88138000BF0C37BD4680BC56
:40244000704700BF0C68004080B500AF01E000F055F800F047F8034603F01003002BF6D100BF80BD80B483B000AF0346FB80044AFB88138000BF0C37BD4680BC704700BFCF
:402480008C68004080B483B000AF0346FB80044AFB88138000BF0C37BD4680BC704700BF4C68004080B483B000AF0346FB80044AFB88138000BF0C37BD4680BC704700BF0A
:4024C0006C68004080B483B000AF0346FB71044AFB79137000BF0C37BD4680BC704700BF8764004080B400AF034B1B78DBB21846BD4680BC704700BF6764004080B400AF84
:40250000034B1B889BB21846BD4680BC704700BFAC68004080B500AF064B1B78002B04D100F00AF8034B01221A7000F051F800BF80BD00BF1184FF1F80B582B000AF214B18
:402540001B78DBB223F03F03FB711E4AFB7943F00903DBB213701C4A1B4B1B78DBB243F00103DBB21370194A184B1B78DBB243F00103DBB2137040F2CF7000F039F840F22B
:40258000CF7000F053F8962000F060F8962000F06DF8002000F07AF802F062FD0346BB710A4A0A4B1B78DBB243F01003DBB21370BB79184602F058FD00F02AF800BF083748
:4025C000BD4680BD75640040946400409564004080B400AF054A054B1B78DBB263F07F03DBB2137000BFBD4680BC70477564004080B483B000AF0346FB80044AFB8813807E
:4026000000BF0C37BD4680BC704700BF0868004080B500AF01E000F055F800F047F8034603F01003002BF6D100BF80BD80B483B000AF0346FB80044AFB88138000BF0C3785
:40264000BD4680BC704700BF8868004080B483B000AF0346FB80044AFB88138000BF0C37BD4680BC704700BF4868004080B483B000AF0346FB80044AFB88138000BF0C3750
:40268000BD4680BC704700BF6868004080B483B000AF0346FB71044AFB79137000BF0C37BD4680BC704700BF8564004080B400AF034B1B78DBB21846BD4680BC704700BF01
:4026C0006564004080B400AF034B1B889BB21846BD4680BC704700BFA868004080B582B000AF786000F03CF8786800F009F8072000F018F800F028F800BF0837BD4680BDF5
:4027000080B485B000AF7860054B1B68FB60FB6854337A681A6000BF1437BD4680BC704708ED00E080B483B000AF0346FB71054AFB795B01DBB2137000BF0C37BD4680BC25
:40274000704700BF05E400E080B400AF034B20221A6000BFBD4680BC704700BF00E100E080B400AF034B20221A6000BFBD4680BC704700BF80E100E080B400AF034B2022E3
:402780001A6000BFBD4680BC704700BF80E200E080B485B000AF0346FB710B4B1B78DBB223F00203FB730849FB795B00DBB203F00203DAB2FB7B1343DBB20B7000BF143711
:4027C000BD4680BC704700BF2051004080B582B000AF1D4B1B78DBB223F00703FB711A4AFB7943F00103DBB21370174B1B78DBB223F00303FB71144AFB79137000F0B2F837
:402800004FF6FE7000F08EF8002000F05FF8002000F040F800F04EF8802000F093F802F01FFC0346BB71094A084B1B78DBB243F01003DBB21370BB79184602F015FC00BF7D
:402840000837BD4680BD00BF7E6400409E64004080B400AF054A054B1B78DBB263F07F03DBB2137000BFBD4680BC70477E64004080B500AF064B1B78002B04D1FFF7A6FFF5
:40288000034B01221A70FFF7E3FF00BF80BD00BF1284FF1F80B483B000AF0346FB71044AFB79137000BF0C37BD4680BC704700BF8E64004080B400AF034B1B78DBB218462E
:4028C000BD4680BC704700BF6E64004080B483B000AF0346FB80044AFB88138000BF0C37BD4680BC704700BF1868004080B400AF044B1B78044B1B889BB21846BD4680BCBB
:40290000704700BF0C6400409868004080B400AF034B1B889BB21846BD4680BC704700BF9868004080B483B000AF0346FB80044AFB88138000BF0C37BD4680BC704700BFC8
:402940005868004080B483B000AF0346FB80044AFB88138000BF0C37BD4680BC704700BF7868004080B500AF01E0FFF7CFFFFFF7A1FF034603F04003002BF6D100BF80BDB6
:4029800080B584B000AF03460A46FB8013467B7100F0B4F80346FB7300F0A4F80346BB81FA88BB899A4200F08880464B1B78DBB203F00403FB72FB7B002B20D1BB89002B8F
:4029C00002D0FB88002B1AD1BB89002B0BD13E4AFB8813803D4A3D4B1B78DBB223F04003DBB2137069E0394A384B1B78DBB243F04003DBB21370344AFB8813805DE0FB7AB3
:402A0000002B33D0324B00221A70324B04221A70314B00221A70314A304B1B78DBB203F07F03DBB21370294B1B78DBB203F00803002B02D0FB88002B18D1294ABB891380DF
:402A4000234B07221A7000BF214B1B78DBB203F00103002BF8D11B4A1A4B1B78DBB223F00403DBB213701A4B00221A70154B1B78DBB203F00403002B13D0194AFB881380D9
:402A8000134A7B79002B01D0032300E00123137000BF0F4B1B78DBB203F00103002BF8D10BE0094AFB8813800649064B1B78DAB2FB7A1343DBB20B70FFE700BF1037BD4623
:402AC00080BD00BFA2430040884000408A400040014000401040004014400040084000400240004080B400AF034B1B889BB21846BD4680BC704700BF8840004080B400AFD5
:402B0000044B1B78DBB203F00703DBB21846BD4680BC70478A40004080B500AF224A224B1B78DBB203F00103DBB213701F4A1F4B1B78DBB223F00303DBB213701C4A1C4B71
:402B40001B78DBB223F03003DBB21370184A184B1B78DBB243F03003DBB21370144A144B1B78DBB223F00F03DBB21370104A104B1B78DBB243F00F03DBB213700D4A0D4B99
:402B80001B78DBB243F00103DBB213704FF6FF7000F064F84FF6FF7000F072F8002000F041F800BF80BD00BF0C4F00400E4F0040174F00400D4F004080B400AF0D4A0D4B90
:402BC0001B78DBB243F00203DBB213700A4A0A4B1B78DBB243F00203DBB21370074A074B1B78DBB243F00103DBB2137000BFBD4680BC7047A3430040B34300400C4F0040A6
:402C000080B500AF064B1B78002B04D1FFF784FF034B01221A70FFF7CFFF00BF80BD00BF1384FF1F80B483B000AF0346FB71044AFB79137000BF0C37BD4680BC704700BF5D
:402C40000F4F004080B400AF034B1B889BB21846BD4680BC704700BF104F004080B485B000AF0346FB80FB88FB81044AFB89138000BF1437BD4680BC704700BF104F004045
:402C800080B483B000AF0346FB80044AFB88138000BF0C37BD4680BC704700BF124F004080B400AF044B1B88044B1B889BB21846BD4680BC704700BF124F0040144F004013
:402CC00080B500AF1C4B0F221A701C4B02221A600721012001F0E6FF1949012001F0BAFF164B01221A600721002001F0DBFF1549002001F0AFFF00F009FA134B00221A7052
:402D0000124B00221A70124B00221A70114B00221A70114B00221A70104B00221A7000F099F800F0B5F80E4B00221A700D4B20221A7000BF80BD00BF8364004080E100E000
:402D40006D31000041320000DE95FF1FDF95FF1FDD95FF1FDC95FF1FE295FF1FE095FF1F846400408664004080B582B000AF02F077F90346FB71134A124B1B78DBB243F04C
:402D80002003DBB21370104A0F4B1B78DBB243F01003DBB213700D4A0C4B1B78DBB243F01003DBB21370FB79184602F05DF901F0FFFD00F01FF800F029F800BF0837BD4672
:402DC00080BD00BF93640040946400409664004080B500AF064B1B78002B04D1FFF770FF034B01221A70FFF7BFFF00BF80BD00BF1484FF1F80B400AF034B02221A6000BF53
:402E0000BD4680BC704700BF00E100E080B400AF034B01221A6000BFBD4680BC704700BF00E100E080B400AF034B02221A6000BFBD4680BC704700BF80E100E080B400AFB2
:402E4000034B01221A6000BFBD4680BC704700BF80E100E080B582B000AFFFF7E3FF0A4B1B78DAB2094B1B78DBB203F00903DBB21343FB71054B00221A70FFF7BBFFFB796E
:402E800018460837BD4680BD64640040CC95FF1F80B582B000AFFFF7D1FF0A4B1B78DAB2094B1B78DBB203F04003DBB21343FB71054B00221A70FFF7A9FFFB7918460837BA
:402EC000BD4680BD66640040E195FF1F80B584B000AF0346FB71394B1B78FB73FB7B002B02D10B23FB7302E0FB7B013BFB73344B1B78DBB2FA7B9A42EDD0FFF793FF314BDF
:402F00001B78DAB2304B1B78DBB203F00903DBB21343BB732C4ABB7B1370284B1B78DAB2274B1B78DBB29A420AD1274B1B78DBB203F00403002B03D0244AFB79137037E0B7
:402F40001F4B1B78DBB20133DAB21D4B1A701C4B1B78DBB20B2B02D9194B00221A70184B1B78DAB2154B1B78DBB29A4211D1134B1B78DBB20133DAB2104B1A700F4B1B789D
:402F8000DBB20B2B02D90D4B00221A70104B01221A700B4B1B78DBB219460E4AFB7953540D4A0D4B1B78DBB243F00403DBB21370FFF720FF00BF1037BD4680BDE295FF1F16
:402FC000E095FF1F64640040CC95FF1F43640040DC95FF1FD095FF1F8464004080B582B000AFFFF72BFF174B1B78DAB2164B1B78DBB29A4217D0154B1B78DBB2002B0FD110
:40300000104B1B78DBB20133DAB20E4B1A700D4B1B78DBB20B2B06D90A4B00221A7002E00A4B00221A70074B1B78DBB21A46084B9B5CFB71FFF7EAFEFB7918460837BD4687
:4030400080BD00BFDF95FF1FDD95FF1FDE95FF1FE495FF1F80B582B000AFFFF7EFFE164B1B78DAB2154B1B78DBB29A4202D10023FB711AE0104B1B78DAB2104B1B78DBB2E4
:403080009A4208D20D4B1B78DAB20B4B1B78DBB2D31AFB7109E0094B1B78DAB2064B1B78DBB2D31ADBB20C33FB71FFF7AFFEFB7918460837BD4680BDDF95FF1FDD95FF1F0C
:4030C00080B500AF01E00C4B1B780C4B1B78DBB203F02003002BF6D1FFF7B0FE084B00221A70084B00221A70074B00221A70FFF78DFE00BF80BD00BF5364004066640040C5
:40310000DE95FF1FDF95FF1FDD95FF1F80B582B000AF01E0124B1B78124B1B78DBB203F02003002BF6D101F09BFF0346FB710E4A0D4B1B78DBB243F00103DBB213700A4AC5
:40314000094B1B78DBB223F00103DBB21370FB79184601F089FF00BF0837BD4680BD00BF53640040666400409364004080B483B000AF35E02A4B1B78DAB22A4B1B78DBB2E0
:4031800003F00903DBB21343FB71264AFB791370244B1B78DBB203F00403002B29D0224B1B78DBB2002B0FD1204B1B78DBB20133DAB21E4B1A701D4B1B78DBB20B2B06D93A
:4031C0001A4B00221A7002E0174B00221A70184B164A1278D2B21146164A525CD2B21A70124B1B78DAB2144B1B78DBB29A42C1D100E000BF0D4B1B78DAB20F4B1B78DBB291
:403200009A4207D10D4A0D4B1B78DBB223F00403DBB2137000BF0C37BD4680BC704700BF64640040CC95FF1FDC95FF1FE295FF1F43640040D095FF1FE095FF1F846400405A
:4032400080B483B000AF2E4B1B78DAB22D4B1B78DBB203F04003DBB21343FB71294AFB79137040E0284B1B78BB71284B1B78DBB20133DAB2254B1A70244B1B78DBB20B2BB5
:4032800002D9224B00221A70204B1B78DAB2204B1B78DBB29A4211D11D4B1B78DBB20133DAB21B4B1A701A4B1B78DBB20B2B02D9174B00221A70174B01221A70134B1B786B
:4032C000DBB21946144ABB7953540D4B1B78DAB20C4B1B78DBB203F04003DBB21343FB71084AFB791370074B1B78DBB203F02003002BB7D100BF0C37BD4680BC704700BFFB
:4033000066640040E195FF1F53640040DD95FF1FDF95FF1FDE95FF1FE495FF1F80B584B000AF03460A46FB8013467B7100F0B4F80346FB7300F0A4F80346BB81FA88BB8913
:403340009A4200F08880464B1B78DBB203F00103FB72FB7B002B20D1BB89002B02D0FB88002B1AD1BB89002B0BD13E4AFB8813803D4A3D4B1B78DBB223F04003DBB213707A
:4033800069E0394A384B1B78DBB243F04003DBB21370344AFB8813805DE0FB7A002B33D0324B00221A70324B01221A70314B00221A70314A304B1B78DBB203F07F03DBB211
:4033C0001370294B1B78DBB203F00803002B02D0FB88002B18D1294ABB891380234B07221A7000BF214B1B78DBB203F00103002BF8D11B4A1A4B1B78DBB223F00103DBB2F5
:4034000013701A4B00221A70154B1B78DBB203F00103002B13D0194AFB881380134A7B79002B01D0032300E00123137000BF0F4B1B78DBB203F00103002BF8D10BE0094A9E
:40344000FB8813800649064B1B78DAB2FB7A1343DBB20B70FFE700BF1037BD4680BD00BFA243004080400040824000400140004010400040144000400840004002400040E3
:4034800080B400AF034B1B889BB21846BD4680BC704700BF8040004080B400AF044B1B78DBB203F00703DBB21846BD4680BC70478240004080B485B000AF0346FB710B4B83
:4034C0001B78DBB223F01003FB730849FB791B01DBB203F01003DAB2FB7B1343DBB20B7000BF1437BD4680BC704700BFC051004080B500AF064B00221A70064B00221A7056
:40350000042000F057F8002000F034F800BF80BD205800402158004080B400AF094A094B1B78DBB243F00103DBB21370064A064B1B78DBB243F00103DBB2137000BFBD46C4
:4035400080BC7047A8430040B843004080B500AF074B1B78002B04D1FFF7CAFF044B01221A70FFF7D9FFD42000F044F800BF80BD1584FF1F80B483B000AF0346FB710C4AAC
:403580000B4B1B78DBB223F00203DBB213700849074B1B78DAB2FB7903F00203DBB21343DBB20B7000BF0C37BD4680BC704700BF2058004080B582B000AF0346FB710C4AC4
:4035C0000B4B1B78DBB223F00C03DBB213700849074B1B78DAB2FB7903F00C03DBB21343DBB20B7000F016F800BF0837BD4680BD2058004080B483B000AF0346FB71044AF3
:40360000FB79137000BF0C37BD4680BC704700BF805B004080B483B000AF0B4B1B78DBB203F00C039B08DBB20633FB71074AFB7903F1924303F590731B78DBB2137000BF73
:403640000C37BD4680BC7047205800400846004080B500AF01F03CFA01F04CFA00BF80BD80B500AFFFF7F4FF00BF80BD80B584B000AF03460A46FB711346BB8001F036FBF1
:40368000BB88B3F5006F70D2BB881B097B817B891B019BB2BA88D31A3B8101F05BFC0346002B5FD1FA1D39890123402001F06CFBF860FB68072B4CD14FF0FF33FB6000BF7D
:4036C0002D4B1B78DBB203F00203002BF8D02A4B1B78DBB203F00203002B08D0264B1B78DBB29B08DBB2002B01D10023FB60FB68002B2AD1214B1A78204B5B787989402054
:4037000001F0AAFB0346072B1BD14FF0FF33FB6000BF194B1B78DBB203F00203002BF8D0154B1B78DBB203F00203002B17D0124B1B78DBB29B08DBB2002B10D10023FB60D1
:403740000DE04FF0FF33FB6009E04FF0FF33FB6005E0FB68012B02D04FF0FF33FB6001F02DFC04E00423FB6001E00123FB60FB6818461037BD4680BD224700408C99FF1FB5
:4037800080B584B000AF0346FB8001F069FC0346FB7301F0F5F9FB8803F1804303F500431B78BB7301F004FAFB7B184601F05CFCBB7B18461037BD4680BD00BF80B500AF41
:4037C000144B02221A70144B81221A70134B50221A70134B02221A70124B00221A70124B4FF400421A6004210F2001F05BFA0F490F2001F02FFA0E4B10221A700D4B00229B
:403800001A700D4B00221A700C4B00221A7000BF80BD00BFD6490040C8490040CA490040DB490040DC49004080E100E0B9380000F095FF1FFA95FF1F0096FF1FFB95FF1F8C
:4038400080B582B000AF01F00BFC0346FB710C4A0B4B1B78DBB243F00403DBB21370094A084B1B78DBB243F00403DBB21370FB79184601F0F9FB00BF0837BD4680BD00BFAB
:40388000A5430040B543004080B500AF084B1B78002B04D1FFF792FF054B01221A70FFF7CFFF044B4FF400421A6000BF80BD00BF1684FF1F00E100E080B582B000AFA74B0C
:4038C0001B78FB71A64B1B78DBB203F04003DBB2002B00F0A981FB7903F00103002B00F080819F4B1B78DBB2453B052B00F2758101A252F823F000BF11390000373A00000D
:40390000DB3B0000DB3B000011390000233B0000FB7923F02003FB71FB7903F00A03DBB2082B46D18E4B1B78DBB2452B3AD18D4B1B78DBB2002B0FD08B4A8C4B1B681B781A
:40394000DBB21370854B04221A70894B01221A70834B46221A7044E1864B1B78DBB203F00203002B0FD0844B1B78DBB243F00A03DAB2814B1A707A4B60221A707F4B4FF46F
:4039800000421A602DE17E4A7D4B1B78DBB243F01003DBB213707B4B10221A706F4B04221A701EE16D4B00221A706D4B4A221A7017E1FB7903F00A03DBB20A2B37D16E4B4B
:4039C0001B78DBB263F05F03DAB26B4B1A70694B1B78DBB203F00203002B19D0604B1B78DBB203F00803002B01D0092300E00A23DAB2614B1B78DBB21343DAB25E4B1A70DB
:403A0000574B60221A705D4B4FF400421A60E8E05B4A5B4B1B78DBB243F01003DBB21370584B10221A704D4B04221A70D9E0002001F0CEF8D5E0FB7903F00203002B42D112
:403A40004B4B1B78DAB2474B1B78DBB29A4214D2454A464B1B6846490978C9B20B441B78DBB213703D4B04221A70414B1B78DBB20133DAB23E4B1A70B3E03E4B1B78DBB20A
:403A800003F00203002B0FD03B4B1B78DBB243F00A03DAB2384B1A70314B60221A70374B4FF400421A609CE0354A354B1B78DBB243F01003DBB21370324B10221A70274BE0
:403AC00004221A708DE02B4B1B78DBB203F00203002B0FD0284B1B78DBB263F06503DAB2254B1A701E4B60221A70244B4FF400421A6076E0224A224B1B78DBB243F01003C5
:403B0000DBB213701F4B10221A70144B04221A70194B1B78DBB263F06F03DAB2164B1A705FE0194B1B68194A1278D2B213440E4A1278D2B21A70154B1B78DBB20133DAB262
:403B4000124B1A70114B1B78DAB2114B1B78DBB29A421FD2014B10221A7042E0D7490040F095FF1FF995FF1FD8490040FC95FF1FFB95FF1F0196FF1FFA95FF1F80E100E060
:403B8000D6490040D9490040F495FF1F0096FF1FF895FF1F2C4B1B78DBB203F00203002B0FD02A4B1B78DBB243F00903DAB2274B1A70274B60221A70264B4FF400421A605B
:403BC0000FE0254A244B1B78DBB243F01003DBB21370224B00221A7003E0002000F0F8FF00BFFB7903F02003002B28D0184B1B78DBB203F00803002B01D0012300E002236D
:403C0000DAB2124B1B78DBB21343DAB20F4B1A70114A114B1B78DBB223F01003DBB213700B4B10221A700AE0094B1B78DBB203F01003DBB2002B02D1054B10221A7000BFDC
:403C40000837BD4680BD00BF0196FF1FFA95FF1FF095FF1F80E100E0D6490040D749004080B485B000AF03460A46FB711346BB710223FB73234B1B78DBB2102B3CD1224B89
:403C80001B78DBB203F00803002B33D11F4B4FF400421A60FB795B00FB71BB79002B07D0FB7943F00103FB71164B49221A7002E0144B45221A70164AFB791370124B012267
:403CC0001A7000BF134B1B78DBB203F00103002BF8D0104B1B78DBB203F00A03DBB20A2B05D1084B10221A700323FB7304E00023FB7301E00123FB73FB7B18461437BD4653
:403D000080BC7047F095FF1FD949004080E100E0D8490040D749004080B483B000AF0223FB71104B1B78DBB203F00403002B12D00C4B10221A700C4B04221A700B4B1022BE
:403D40001A7000BF084B1B78DBB203F02103002BF8D00023FB71FB7918460C37BD4680BC704700BFD9490040D7490040F095FF1F80B485B000AF0346FB710223FB73184BFC
:403D80001B78DBB203F00403002B22D0154AFB791370154B04221A70144B46221A7000BF114B1B78DBB203F00103002BF8D00E4B1B78DBB203F00203002B05D10B4B6022A6
:403DC0001A700023FB7304E0084B60221A700323FB73FB7B18461437BD4680BC704700BFD9490040D8490040D7490040F095FF1F80B485B000AF0346FB710023FB73164B78
:403E00001B78DBB203F00403002B1FD0134B1B78DBB2492B05D1124B00221A700F4B4A221A7000BF0E4B1B78DBB203F00103002BF8D00C4B1B78FB73FB79002B03D0084BEE
:403E400010221A7002E0054B60221A70FB7B18461437BD4680BC7047D9490040F095FF1FD7490040D849004080B485B000AF0346FB710B4B1B78DBB223F04003FB73084915
:403E8000FB799B01DBB203F04003DAB2FB7B1343DBB20B7000BF1437BD4680BC704700BF1051004080B500AF064B1B78002B04D100F00AF8034B01221A7000F02DF800BFE6
:403EC00080BD00BF1884FF1F80B500AF0C4B72221A700C4B20221A700B49042000F0BAFE0721042000F0DEFE084B06221A70084B47221A70074B02221A7000BF80BD00BF52
:403F000088650040886400401D42000024650040346500408964004080B582B000AF01F09FF80346FB71134A124B1B78DBB243F02003DBB21370104A0F4B1B78DBB243F060
:403F40001003DBB213700D4A0C4B1B78DBB243F01003DBB213700A4B10221A60094B10221A60FB79184601F07FF800BF0837BD4680BD00BF9865004098640040996400400C
:403F800080E200E000E100E080B483B000AF0023FB710C4B1B78BB71BB7903F02003002B09D0094B1B78FB71BB7903F01E03002B01D00023FB71FB7918460C37BD4680BC7B
:403FC000704700BF686400404B65004080B483B000AF084B1B78DBB203F02003002B01D0012300E00023FB71FB7918460C37BD4680BC70476864004080B582B000AF01F003
:404000002FF80346FB710C4A0B4B1B78DBB243F00103DBB21370084A074B1B78DBB223F00103DBB21370FB79184601F01DF800BF0837BD4680BD00BF9B65004080B485B028
:4040400000AF0346FB71264B1B88FB81254B1B88BB81FA89BB899A4208D2FA89BB89013B9A420CBF01230023DBB209E0FA89BB89D31A40F28F1293420CBF01230023DBB21E
:40408000002BE0D1BA89FB899A420AD1164B1B78DBB203F00403002B03D1144AFB79137019E0FB89B3F5C87F01D30023FB81FB890F49FA79CA54FB890133FB81084AFB8981
:4040C0001380094B1B78DBB203F00203002B02D0084B10221A6000BF1437BD4680BC70471C84FF1F1A84FF1F69640040496400400496FF1F00E200E080B584B000AF7860E7
:404100000023FB810C4B1B78002B10D009E0FB897A6813441B781846FFF790FFFB890133FB81FB897A6813441B78002BEFD100BF1037BD4680BD00BF1884FF1F80B483B03A
:4041400000AF174B10221A60164B1B889AB2164B1B889A4202D10023FB8018E0114B1B889AB2114B1B889A4207D20F4B1A880D4B1B889BB2D31AFB8009E00B4B1A88094B09
:404180001B889BB2D31A9BB203F5C873FB80074B10221A60FB8818460C37BD4680BC704780E100E01A84FF1F1C84FF1F00E100E080B582B000AF00F053FF0346FB71124A2A
:4041C000114B1B78DBB243F00103DBB213700E4A0D4B1B78DBB223F00103DBB21370FB79184600F041FF094B10221A60084B00221A80084B00221A80074B10221A6000BF28
:404200000837BD4680BD00BF9964004080E100E01A84FF1F1C84FF1F00E100E080B400AF18E0154B1B889BB2B3F5C87F02D3124B00221A80114B104A128892B21146104A3A
:40424000525CD2B21A700C4B1B889BB201339AB2094B1A80084B1B889AB20A4B1B889A4206D0094B1B78DBB203F00403002BD8D000BFBD4680BC70471A84FF1F4964004042
:404280000496FF1F1C84FF1F6964004080B500AF064B1B78002B04D100F00AF8034B01221A7000F03BF800BF80BD00BF2084FF1F80B500AF1149022000F0CCFC07210220C4
:4042C00000F0F0FC0E4B00221A700E4B72221A700D4B20221A700D49032000F0BBFC0721032000F0DFFC0A4B06221A70094B47221A70094B02221A7000BF80BD5946000021
:404300002384FF1F8A6400408F640040354700002A6500403A6500408965004080B582B000AF00F09DFE0346FB71144A134B1B78DBB243F02003DBB21370114A104B1B781E
:40434000DBB243F01003DBB213700E4B04221A600D4A0D4B1B78DBB243F01003DBB213700A4B08221A60074B08221A60FB79184600F07AFE00BF0837BD4680BD9A64004097
:404380009F64004000E100E09965004080E200E080B483B000AF0023FB71234B04221A60224B1B88BB80224B1B887B80214B1B78DBB2002B03D1BA887B889A4218D0BB8899
:4043C0001D4AD35CFB71BB880133BB80BB88B3F5E17F01D30023BB80144ABB881380154B1B78DBB2002B15D0124B00221A7011E0124B1B787B707B7803F02003002B09D0E6
:404400000F4B1B78FB717B7803F01E03002B01D00023FB710B4B04221A60FB7918460C37BD4680BC704700BF80E100E02484FF1F2684FF1F2884FF1F9497FF1F6F640040DC
:404440004A64004000E100E080B483B000AF1E4B04221A601D4B1B889AB21D4B1B889BB29A420BD11B4B1B78DBB2002B03D04FF4E173FB801EE00023FB801BE0134B1B88D9
:404480009AB2134B1B889BB29A4208D2104B1B889AB20E4B1B889BB2D31AFB800AE00C4B1B889AB2094B1B889BB2D31A9BB203F5E173FB80084B04221A60FB8818460C3725
:4044C000BD4680BC704700BF80E100E02484FF1F2684FF1F2884FF1F00E100E080B582B000AF00F0BDFD0346FB71154A144B1B78DBB243F00103DBB21370114A104B1B78CA
:40450000DBB223F00103DBB21370FB79184600F0ABFD0C4B04221A600B4B00221A800B4B00221A800A4B00221A700A4B00221A70094B04221A6000BF0837BD4680BD00BF4F
:404540009A64004080E100E02484FF1F2684FF1F2884FF1F2984FF1F00E100E080B485B000AF0346FB71254B1B78FB73244B1B78BB73FA7BBB7B9A4208D2FA7BBB7B013B22
:404580009A420CBF01230023DBB207E0FA7BBB7BD31A312B0CBF01230023DBB2002BE2D1BA7BFB7B9A420AD1164B1B78DBB203F00403002B03D1144AFB79137018E0FB7B89
:4045C000312B01D90023FB73FB7B1049FA79CA54FB7B0133FB73094AFB7B1370094B1B78DBB203F00203002B02D0094B08221A6000BF1437BD4680BC704700BF2284FF1F4C
:404600002184FF1F69650040496500405899FF1F00E200E080B584B000AF78600023FB810C4B1B78002B10D009E0FB897A6813441B781846FFF792FFFB890133FB81FB8990
:404640007A6813441B78002BEFD100BF1037BD4680BD00BF2084FF1F80B483B000AF0023FB712C4B1B78BB71BB797B71BB7903F01E03002B0CD097F9063003F01E035AB28C
:40468000254B1B785BB213435BB2DAB2224B1A70BB7903F02003002B31D0204B1B787B711F4B1B889BB219461E4A7B7953540123FB71FB79002B22D01B4B1B78DBB2002B16
:4046C00002D01A4B01221A70154B1B889BB201339AB2134B1A80124B1B889BB2B3F5E17F02D30F4B00221A800D4B1B889AB2104B1B889BB29A4202D10B4B01221A70BB7956
:4047000003F02003002BACD100BF0C37BD4680BC704700BF6F6400402384FF1F4A6400402684FF1F9497FF1F2884FF1F2984FF1F2484FF1F80B400AF17E0154B1B78DBB278
:40474000312B02D9124B00221A70124B104A1278D2B21146104A525CD2B21A700C4B1B78DBB20133DAB20A4B1A70094B1B78DAB20A4B1B789A4206D0094B1B78DBB203F03D
:404780000403002BD9D000BFBD4680BC704700BF2184FF1F496500405899FF1F2284FF1F6965004080B582B000AF786000F03CF8786800F009F8072000F018F800F028F8FE
:4047C00000BF0837BD4680BD80B485B000AF7860054B1B68FB60FB6858337A681A6000BF1437BD4680BC704708ED00E080B483B000AF0346FB71054AFB795B01DBB2137044
:4048000000BF0C37BD4680BC704700BF06E400E080B400AF034B40221A6000BFBD4680BC704700BF00E100E080B400AF034B40221A6000BFBD4680BC704700BF80E100E0F3
:4048400080B500AF224A224B1B78DBB203F00103DBB213701F4A1F4B1B78DBB223F00303DBB213701C4A1C4B1B78DBB223F03003DBB21370184A184B1B78DBB243F03003AA
:40488000DBB21370144A144B1B78DBB223F00F03DBB21370104A104B1B78DBB243F00F03DBB213700D4A0D4B1B78DBB243F00103DBB213704FF4A67000F058F84FF4A670A4
:4048C00000F066F8002000F041F800BF80BD00BF184F00401A4F0040234F0040194F004080B400AF0D4A0D4B1B78DBB243F00403DBB213700A4A0A4B1B78DBB243F00403BD
:40490000DBB21370074A074B1B78DBB243F00103DBB2137000BFBD4680BC7047A3430040B3430040184F004080B500AF064B1B78002B04D1FFF784FF034B01221A70FFF773
:40494000CFFF00BF80BD00BF2B84FF1F80B483B000AF0346FB71044AFB79137000BF0C37BD4680BC704700BF1B4F004080B485B000AF0346FB80FB88FB81044AFB89138030
:4049800000BF1437BD4680BC704700BF1C4F004080B483B000AF0346FB80044AFB88138000BF0C37BD4680BC704700BF1E4F004080B400AF094A094B1B78DBB243F0080303
:4049C000DBB21370064A064B1B78DBB243F00803DBB2137000BFBD4680BC7047A2430040B243004080B582B000AF00F07FF94FF0FF337B6000F0AEFA0346002B24D101209D
:404A000000F076FA0346072B1BD10221124800F091F90346022B0DD100237B6002E0012000F004F90D4B1B78DBB203F00203002BF5D006E0094B1B78DBB203F00203002B99
:404A4000E3D000F0BBFA01E004237B607B6818460837BD4680BD00BF8C99FF1F2247004080B582B000AF00F041F900F073FA0346002B23D100F0CAFA78607B68072B1AD1FF
:404A800002E0012000F0D2F8104B1B78DBB203F00203002BF5D00D4B1B78DBB203F00203002B08D0094B1B78DBB29B08DBB2002B01D100237B6000F081FA01E004237B6076
:404AC0007B6818460837BD4680BD00BF2247004080B582B000AFFFF7C3FF78607B68002B02D1FFF77FFF78607B6818460837BD4680BD00BF80B582B000AF00F0B1FA034642
:404B0000FB71194A184B1B78DBB243F00803DBB21370164A154B1B78DBB243F00803DBB21370134BC8221A70124A124B1B78DBB243F01003DBB213700F4A0F4B1B78DBB2D3
:404B400043F01003DBB2137000BF0C4B1B78DBB203F02003002BF8D0FB79184600F084FA00BF0837BD4680BDA0430040B043004001470040AC430040BC430040004700404F
:404B800080B400AF094A094B1B78DBB243F00103DBB2137000BF054B1B78DBB203F00203002BF8D000BFBD4680BC70470247004080B400AF054A054B1B78DBB223F00103F3
:404BC000DBB2137000BFBD4680BC70470247004080B483B000AF0346FB7101BE00BF0C37BD4680BC704700BF80B582B000AF786008E00C4B1B68184600F02AFA7B68A3F589
:404C000000437B607B68B3F5004FF2D8064B1B687A6802FB03F3184600F01AFA00BF0837BD4680BDE081FF1FD881FF1F80B582B000AF0346FB80FB88054A127802FB03F34A
:404C4000184600F005FA00BF0837BD4680BD00BFDC81FF1F80B584B000AF03463960FB710F4B1B68FB60FB791F2B02D90020FFF7AFFFFB7903F01F0310339B00FA68134454
:404C80001B68BB60FB7903F01F0310339B00FA6813443A681A60BB6818461037BD4680BD08ED00E080B582B000AF03460A46FB711346BB71BB79072B02D90020FFF788FFBF
:404CC000FB791F2B02D90020FFF782FFFB7903F01F0303F1604303F56443BA795201D2B21A7000BF0837BD4680BD00BF80B582B000AF00F0B5F90346FB710C4A0B4B1B788C
:404D0000DBB243F00803DBB21370094A084B1B78DBB243F00803DBB21370FB79184600F0A3F900BF0837BD4680BD00BFA0430040B043004080B584B000AF78600B46FB7027
:404D40000023FB7313E00120FFF770FF0C4B1B78DBB203F00103002BF5D0FB7B7A681344084A1278D2B21A70FB7B0133FB73FA7BFB789A42EAD3FB7B18461037BD4680BD3E
:404D8000224700402047004080B485B000AF3A601A460346FB710B46BB801346BB710723FB60FB793E2B02D8BB791F2B05D9FB793F2B45D9BB790F2B42D8254B1B78DBB21F
:404DC00003F00203002B38D0224BB6221A70214BD4221A701F4B01221A701D4B1B78DBB203F00203002B25D11A4AFB791370194ABB881B0A9BB2DBB203F00103DBB213700E
:404E0000144BBA88D2B21A70124ABB79013BDBB213700023FB7208E00E49FB7A3A6813441B780B70FB7A0133FB72FA7ABB799A42F2D307E00923FB6004E00423FB6001E088
:404E40000123FB60FB6818461437BD4680BC7047224700402047004090B484B000AF0446084611461A462346FB710346BB800B46BB711346FB700723FB601B4B1B78DBB246
:404E800003F00203002B26D0184BB6221A70174BD8221A70154B05221A70134B1B78DBB203F00203002B13D1104AFB7913700F4ABB881B0A9BB2DBB213700C4BBA88D2B20C
:404EC0001A700A4ABB791370084AFB78137004E00923FB6001E00423FB60FB6818461037BD4690BC704700BF224700402047004080B485B000AF0346FB710723FB60134B3A
:404F00001B78DBB203F00203002B16D0104BB6221A700F4BE1221A700D4B0E221A700B4B1B78DBB203F00203002B03D1084AFB79137004E00923FB6001E00423FB60FB68AB
:404F400018461437BD4680BC704700BF224700402047004080B582B000AF04237B6000F07FF80346FB70124B1B78002B16D1104B01221A7000237B600E4B1B6803F0010375
:404F8000002B0BD00B4A0B4B1B6823F00103136000BF00BF00BF084B01221A60FB78184600F062F87B6818460837BD4680BD00BF2C84FF1F040008403084FF1F80B582B019
:404FC00000AF00F04DF80346FB710D4B00221A700C4B1B68012B0BD10B4A0B4B1B6843F00103136000BF00BF00BF064B00221A60FB79184600F038F800BF0837BD4680BD00
:405000002C84FF1F3084FF1F0400084080B483B000AF07237B600C4B1B78DBB203F00203002B09D0094BB6221A70084BE0221A70064B0D221A7001E004237B607B68184633
:405040000C37BD4680BC704722470040204700400230800803D000BF01380046FCD17047EFF3108072B6704780F31088704700BF094B10B5D8689A68002308E0114652F87F
:40508000084B1CB901230B60486810BD01338342F4D3002010BD00BF9099FF1F084B30B50022DC689B6808E05D6819460833854202D100230B6030BD0132A242F4D330BD41
:4050C0009099FF1F01230373704700230373704710B1002282720260704718B1027B0AB1013A02737047000038B501F077FD20B3124C4200E260000101F064FD238AA06069
:40510000E068584301F05EFDA568E168228A002304E005EBC3046060013380188B42F8D3102001F04FFD054C6061282001F04AFDA37CA06143F00203A37438BD9099FF1FB2
:4051400038B510220D460021044601F06DFCFFF78FFF08B9013038BDA0604FF0FF33002065602360A07338BD38B5104B9C69217B59B921606160A16004F11000142201F042
:4051800053FC237B013323730DE0656A45B9282001F002FD606218B12946282201F044FC646A002CE3D1204638BD00BF9099FF1F38B50E4B5C69A17AE56839B920461022C5
:4051C00001F032FC0123A372E5600CE045B9102001F0E2FCE06018B12946102201F024FCE468002CE7D1204638BD00BF9099FF1F2DE9F74F06460020884691469B469DF8FA
:4052000030A09DF83470FFF7AFFF054608B9044610E0FFF7CDFF044660B180F80B900560AE604046214652463B46CDF800B001F03BF930B12046FFF74BFF2846FFF74DFF01
:4052400000242046BDE8FE8F2DE9FF410C461F4604A9002341F8043D15469DF8286000F0D5F88046B8B1039B0BB11B789BB1404600F055F900280EDD14F0150F01D0032883
:4052800009D1039939B1404622462B4600970196FFF7AEFF00E0002004B0BDE8F08100002DE9F3410646884600240E4D404655F83410E70001F0EEFB10B9002C04DA0DE019
:4052C00001340F2CF1D109E07D19A87929790090EA796B793046FFF7B7FF00E00020BDE8FC8100BF1C8E0000FFF7DABF10B5437B04460BB1012010BD40682168A268A37B57
:4053000001F033FD10B10120607310BD207310BD10B5437B044663B9037B53B140682168A268A37B01F021FD08B1012363730023237310BD036870B5994204460D461646FA
:4053400007D0037B0BB1FFF7E3FF00232560A673E37370BDFFF7DCBF10B50446FFF7D8FFA068BDE81040FFF799BE01230373FFF7CFBF10B50446407B08B1012010BDE37B5C
:405380005BB960682168A268A37B01F088FC10B10120607310BD0122E27310BD08B5436813B94FF0FF3008BD984708BDF8B50C4617460023144D01E0ED6D01338342FBDB2F
:4053C0002B6828791B68984706460CB92046F8BD01F06DFB0530B84214DC22460020335C013223540130315C0029F8D113464FF03A0C03F801CB2C7903303034547083F8E2
:4054000001C09970F8BD00BFAC99FF1F2DE9F0470F463A21064601F06CFB044610B93446174D27E00378C6EB000A5BB114F8013F43B162783A2A05D1A3F130085FFA88F8F7
:40544000023401E04FF000080D4D2B6828791B689847814601F02BFB504508D148463146524601F02CFB10B92B79434502D0ED6D002DEAD107B13C602846BDE8F08700BF37
:40548000AC99FF1FF8B5174C064694F85B10E56D69B960220127204601F0C6FA84F85B70E5653046FFF77AFF00280EDA18E045B9602001F071FBE06518B12946602201F0B8
:4054C000B3FAE46D002CE0D10AE0074B2660DA6F0132DA670323207184F85B7084F85A302046F8BDAC99FF1F9099FF1FFFF7CABF38B504460D4601F0A0FB08B9013838BD05
:40550000204601F0ADFB204601F046FD204600F0F5FC08B184F8595094F8590038BD90F8593023B990F85A1009B1FFF7E1BF1846704710B590F8592004463AB931B1FFF7B4
:40554000D7FF002802DC4FF0FF3010BD94F8590010BDFFF7EEBF10B50021FFF757FF08B9013010BD0321BDE81040FFF7F2BF30B51346BAB1B0B10268857A0AB1946804B927
:4055800000247DB172B16CB1C27A12F0100204D14FF6FA730381104630BD1A46BDE8304001F04EB9002030BDFFF7E1BF0C2802D0102805D102E001EB5100704748007047C2
:4055C00088007047036840689B685B6AB0FBF3F0704710B5046D836CE4B199421AD3E318994217D2013B99420CBF4FF0FF31013172B190F836300C2B02D0102B05D102E07B
:405600000905090D03E089B201E021F070411160012010BD002010BD40F6F473984201D80C2070474FF6F473984294BF102020207047027F8368023902FB01307047431E19
:40564000DBB21F2B13D92F2811D007D826280ED002D8222809D10AE02A3804E03A2804D33F2804D95B38022801D90120704700207047034638B30B2A01DD0B2200E0013AA4
:4056800000201CE0082809D191F808C0BCF1200F0DD04FF02E0C03F801CB08E038B991F800C0BCF1050F02D1ACF1200C04E011F800C0BCF1200F01D003F801CB01309042D7
:4056C000E0DB00221A7070472DE9F04788B005AE04460D463046114600229A469DF84490BDF84C80BDF8507000F01EFD08B1002413E020462946524600F00FFE044660B1E9
:40570000129B31460093109A4B46CDF80480029700F0C6FF2846FFF7D5FC204608B0BDE8F08710B59DF80C400394BDE8104000F0D9BD00002DE9F04F144E87B0109DDDF849
:4057400048809DF84440376800950194CDF8088005937F68934682468946B84732680C4BDDF814C09A420DD060B9504649465A46634610951194CDF8488007B0BDE8F04FF8
:40578000FFF7CFBF07B0BDE8F08F00BFE481FF1FC48E000070B5C37A04460B7010300D4601F0D6F9064604F10E0001F0D1F940EA0640686004F1120001F0CAF90004A86073
:4057C00004F1180001F0C4F9064604F1160001F0BFF940EA0640E86004F11C0001F09FF9286170BD2DE9F845038A04460E46924687692BB907F118002146626900F064FC2A
:4058000038465146224600F0E7FC0546204600F065FCD5B12B78C3B1E52BF1D095F80B80B8F10F0FECD018F00808E9D170692946B269FFF71EFF28463146FFF7ABFF238A93
:40584000404601332382BDE8F8854FF0FF30BDE8F8850222FFF76EBD2DE9F04790F8366005460C46304611469146FFF79FFEB5F81E80AB6A20FA08F89845824602D300207F
:40588000BDE8F0876B8E05F118079844204641463A46FFF7DEFF2046FFF76BFD18B14FF0FF30BDE8F087AA8BA168013A0AEA020A1FFA8AFA92450AEB01031AF8015001D071
:4058C000013309E0204608F101013A46FFF7C1FF2046FFF74EFDA36818780C2E45EA002009D0202E0FD15D7840EA05409D7840EA0560BDE8F08719F0010F02D00009BDE885
:40590000F0870005000DBDE8F08700002DE9F34190F83630144603FB02F7828B8846D200511E0F40D71B0546B7FBF3F7002618E00E4B93F88030022B05D12846214601AAC0
:40594000FFF747FE28B9284641462246FFF784FF0190019B0134A34205D10136B6B2013F1C46002FE4DC3046BDE8FC819099FF1F2DE9F34105460E46144698461F681CE065
:40598000114B93F88030022B05D12846214601AAFFF71FFE28B9284631462246FFF75CFF0190737B0BB100240BE0AA6B019B0132934204D81BB1013F1C46002FE0D1C8F84E
:4059C00000702046BDE8FC819099FF1F73B504680E4623681BB9FFF7F5FD013039E0FFF7F1FD236998423CBF4FF0FF3323612369B3F1FF3F04D12268013323616261E38307
:405A00002169E28B451A954234BF2B4613463BB16069C918C018D21A60612161E283ED1A0DB9284615E002AB43F8045D31466269A068FFF79DFF6061019B21690246C91A13
:405A40004D19256123B9A0683146FFF75FFFE08301987CBD13B502AC44F8043D2346FFF787FF019B002B18BF00201CBD2DE9F0410746884615461E460024384641462A462D
:405A80000123FFF7E7FF30B1BA6B0134944201D80546F2E7002406B134602846BDE8F0812DE9F74F04460D461E461746002A00F0B98090F836001146FFF778FDB4F81EA0EE
:405AC000A36A20FA0AFA9A45814680F0AB80638E04F118089A44284651464246FFF7B9FE2846FFF746FC6B7B002B40F09B80A38BAA68013B09EA03091FFA89F303EB020911
:405B000026B9216C8F4203D2276401E0791C216494F8361010290AD0202911D1484600F0FEFF31460746484601F004F84EE0484601F00EF8B1B20746484601F005F845E0FF
:405B4000284600920193FFF7BDFA009A019B17F0010F13F802B01BD00BF00F0141EA06119954A28B013A934202D009F1010309E028460AF101014246FFF76BFE2846FFF709
:405B8000F8FBAB681F7832093F0147EA1B171CE09E54A28B013A934202D009F1010309E028460AF101014246FFF753FE2846FFF7E0FBAB681A78310A02F00F0701F00F0124
:405BC00022F00F024BEA07270A431A702846FFF779FA94F83630202B18D1B4F84620AAB9B4F844102846FFF7A5FB2846FFF7C1FBA8684FF0FF3100F5F47000F09BFF2846E2
:405C0000FFF760FA4FF00103A4F84630E36BB3F1FF3F09D00FB10133E3632EB1E36B013BE36301E0012000E00020BDE8FE8F6FF07043FFF735BF70B5036D04460E4693B126
:405C4000002506E0AA1820463146531CFFF728FF0135236DA26C013B9D42F3D320463146AA18FFF7E4FF0023A3642365E364636570BD70B506460D461C460AB1FFF710FFED
:405C8000304629462246BDE87040FFF7D0BF00002DE9F84504460E4615461F46002B36D01C4B93F88030022B31D190F8368011464046FFF77BFCB4F81CA00AF1FF3A2AEAD2
:405CC000000A4FEACA0ABAFBF8FAAA44A8460EE0204631464246FFF7BFFD50B9A36C0BB9C4F84880E36C08F101080133E364D045EED9E36C5BB167653B685A6922B1204637
:405D000031462B46FFF7CCFE236D01332365BDE8F88500BF9099FF1F2DE9F8459846274B054693F880300F46022B1646846B19D1436D984503D0C36C0BB1FFF77CFFB8F102
:405D4000000F0FD06B6D43450CD12B6DEA6C9A4204D9AC6C1C1901332B652CE028463946FFF769FF012E04F1010A01D9564505D92E6C012E01D9564500D902263446284640
:405D800039462246FFF768FD50B101345445F6D902240DE0284639462246FFF75DFD30B92846394622464346FFF772FF03E00134B442EFD300242046BDE8F8859099FF1F5A
:405DC000F8B507460E461546FFF7A6FF044628B1384631462A462346FFF74BFF2046F8BDB2F1FF3F73B504460D4614D0561A013611D0FFF7AFFA084B00211A8AA06800F052
:405E000013FE022300936068A3682946324600F087FF0023E3737CBD9099FF1F2DE9F84F984690F8363004460C2B0D4616465AD04FF0FF3AD1463CE094F836003146FFF713
:405E4000B5FBB4F81CB0678E0BF1FF3B10EA0B0BE38B1DD1D840013F3F18022228463946FFF768FAA38BAA689B0852F80B1079B9013B0BF1040BF8D13BE049462846524611
:405E8000FFF7AEFFB946BB462846FFF71EF9DA462946324601232046FFF7DCFD29460746324620460023FFF7FBFD2FB108F1FF383E46B8F1000FBFD1284649465246FFF752
:405EC0008FFF13E02946324601232046FFF7C2FD29460746324620460023FFF7E1FD2FB108F1FF383E46B8F1000FEBD14046BDE8F88F0AF1010B5F45BFD1C5E72DE9F84576
:405F00000546FFF7B5F8044608B90546D0E0284600F032FF684E338A834208D338B10021284622460B4600F0BAFE002804DA2046FFF7B4F80025BBE004F5FF7000F008FEC6
:405F40004AF65523984240F0AD8004F10B0000F0FFFD10F47E4F074600F0A480338A8342C0F0A080237C022B40F09C8094F80D80B8F1000F00F096800021402205F1180042
:405F800000F052FD04F1130000F0E2FD064620B904F1200000F0C3FD064604F1160000F0D7FD824680B904F1280000F0D1FD10F08F0F77D104F1240000F0B1FD824604F190
:405FC0002C0000F0ACFDE862022385F83530C5F828A0AE6185F8348004F10E0000F0B8FD688604F1110000F0B3FD95F835206B8E288602FB0A3A7A0992B2B0FBF2F25244D4
:40600000AF832A62092301219940B94201D1EB8302E00133102BF6D108FB07F7B61AB6FBF8F6AE636F623046FFF7F6FA202818BFC5F82CA04FF0FF33202885F83600EB6318
:4060400032D104F1300000F083FD00230146A5F844002246284600F022FE002822DB204600F05DFD804604F5F27000F058FD074604F5FE7000F053FD104B984514D1104BB0
:406080009F4211D10F4B98420ED104F5F67000F046FD286404F5F47000F041FDB04203D8E86301E0002500E001252046FEF7F6FF2846BDE8F88500BF9099FF1F5252614111
:4060C00072724161000055AA00238B60837F202B01D102B942694A600A60704783680133836070472DE9F0410C46202105461F469DF818604FF0000800F096FC10E014F8A8
:40610000080036B9E52804D1B8F1000F01D1E03802E000F0E7FCC0B205F8080008F10108B845ECDBBDE8F0812DE9F74506460D4608462849002A14BF92464FF0FF3A00F0EF
:40614000A9FC804650B930462946022200F03BFEB01C2021092200F067FC37E04FF0FF34002715F80780B8F1000F01D0574505D1B4F1FF3F08BF3C4664B925E04046FFF7E5
:406180005EFA08B3B8F12E0F08BF3C4601370D2FE7D119E0082C17DC3F1B042F14DC30462946082223464FF00008CDF80080FFF799FF0123611C009306F108006918032269
:4061C0007B1EFFF78FFF01E04FF001084046BDE8FE8500BFD48E00002DE9F74FD2F808B0436A4FEA4B18B8FBF3F8D368054698450E461446D2F8009001D20023D360B5F884
:406200001EA0E368AAF1050A0BB9D4F804902BFA0AF7B9F1000F17D095F83420B8EB0303019206D04A4628463146FFF713FC814640B3494605F11800FFF7FBF9019B591E00
:4062400001EA0707C11906E02B8E43FA0AF39F4218D2E96A79183046C4F80090C4F80C800122FFF767F83046FFF783F850B9013000FA0AFAB3680AF1FF3A0AEA0B0B03EBDB
:406280004B1000E00020BDE8FE8F2DE9FF4107460E4601A811461A460A9D9DF82C40FFF743FFC8B9384631462A46FFF795FF8046A0B1037883B101A90B2200F0A5FB38B98C
:4062C00098F80B3004EA0302A24201D1082B05D12846FFF703FFE5E74FF00008404604B0BDE8F0812DE9F04587B002AF04460E46154698469DF83CA039460E9A1830FFF778
:40630000E3FE204631462A4643460097CDF804A0FFF7BBFF07B0BDE8F0852DE9F04500F1180785B005460C46384669469246FFF7CBFE284621466A46FFF74EFF0646684672
:40634000E846FFF7CBFE002E37D1BAF1000F02D12B8E002B35D12146009A00232846FFF785FB2146024600232846FFF729FD80462046FEF7FAFFB8F1000F22D0AA8B002105
:40638000A06800F051FB38464146FFF752F995F8347000257E1E361808E0314620460122FEF7C8FF2046FEF7A1FF013E01357B1BB3F1FF3FF1D1A66803E033780BB1E52B5D
:4063C000B7D1304605B0BDE8F08538B504461A3000F0BEFB054604F1140000F0B9FB45EA004038BD2DE9F0451D4685B007460E462A6010465C21904600F07BFB4FF0000AE4
:406400000446A04508D108F10108C5F8008040465C2100F06EFB044694B1C8EB0403002B0EDD10220192103A0292384631464246CDF800A0FFF77EF970B1FFF7C6FF8246C4
:4064400028685C2100F055FBA04604460028D8D10C9B0130C3F800A005B0BDE8F085F8B505460C461E461746DAB16FF01A0313700846FEF727FE16B94FF47A7608E007F1ED
:406480001C0000F04CFB6B6A5E1E3618B6FBF3F63846FFF79AFF2146024633462846FFF7BDFC607BF8BD00002DE9F04FD1F8008093B0D8F808700BAD044608930E464FF015
:4064C000FF333946284609920F939DF870A0FEF737FE10AB009338462946224611ABFFF781FFD0B1F27A109B07920FAA00930292002338462946119A0193FFF71BF90446E8
:4065000080B1C37A13F0100F07D10D9BDDF82CB0C3EB00094FEA691906E02846FEF71CFF0125A3E083468146099B002B3CD0002C33D0524B5D6912E02B687BB1AA7A6AB12E
:406540009A8B4A450AD19A695A4507D19B68BB4204D14FF6F772328100257EE0ED68002DEAD10DF12C0C6146384622460123CDF818C0FFF774FFDDF818C018B14FF0FF3348
:4065800033816AE03E4B1B68DC6824B138466146109A0F9BA0472C4606E0BAF1000F03D1089A002A44D065E0089BEBB1CCB1E37A13F0010F0BD0079A12F0150F07D04FF663
:4065C000FA733381BAF1000F01D1012500E000252046FFF7FAFE074604F11C0000F09FFA29E0BAF1000F45D0BAF1010F01D000251BE0ECB900F002FD214B20221B680192AC
:4066000082B2000C03920490009402949D6838460BA9119A109BA84750B10D9ADDF82CB0C2EB00094FEA6919254628462F4602E00125002007464FF0FF33C8F81030C8F88D
:4066400018B0A8F81C90079AC8F8040012F0010308BF1846C8F800707060B6F908300BA835EA230528BF0125FEF776FE284613B0BDE8F08F01255046DCE700BF9099FF1F45
:40668000E481FF1F70B505460C461A3089B200F05BFA05F11400210CBDE8704000F054BA2DE9F0470446BDF824700D469146002120229A46BDF82860DDF8208000F0B4F9A5
:4066C0000B222046294600F07EFB04F10E00394684F80BA000F038FA04F11000314600F033FA04F11600394600F02EFA04F11800314600F029FA20464946FFF7C3FF04F1F0
:406700001C004146BDE8F04700F014BA07B5426803460AB910460AE081680020009048681968DB6800F0DAFA003818BF01200EBD2DE9F047046805460F46A668FFF746F902
:4067400081468246002841D0D4F80080B8F1000F1BD14246304639462B46FFF7DDFA0246D8B11C4B6061C4F8108093F880302060022B07D030463946FFF759FA10B1012082
:40678000BDE8F087B9F1010A20D03046394662692B46FFF7C1FA804628B94FF6FE732B810130BDE8F0870B4B93F88030022B05D03046394662694346FFF75BFA2369C4F871
:4067C000148001332361BAF1010ADDE70020BDE8F08700BF9099FF1F2DE9F041836804460D4608460122A1699E8BFEF7A3FD2846B4F81C80AF68FEF7BCFDF8B9013E06EA2E
:406800004816B6B2BE1906F11C00616800F092F921683046FFF736FF00F0F0FB0446A1B206F1160000F090F906F11800210C00F08BF92846BDE8F041FEF797BDBDE8F081E9
:4068400003682DE9F04F9F68038995B001339BB2012B04460E46059201D90025CEE0394610AD0CA8FEF76CFC39462846FEF768FC039626680023D6F808909A4609F11801BB
:406880000791D9F82420059906924FF0FF32099308920A950291049320460CA9FFF748FF38B108A8FFF732FF5546002818BF00258FE03269069901324A43B9F81CB06368FE
:4068C0000BF1FF3BD21A0BEA030B029B0798934228BF134601937169FEF7ABFE99F83430B9F81C206768013BB7FBF2F703EA0707C719B9F81C300199CBEB03058D4228BFA8
:406900000D469D4228D0BBF1000F03D1626873689A420FD00DF14008404639460022FEF709FD4046FEF725FD20B14FF6F9725546228154E01298039958442A460DF14008AE
:4069400000F041FA404639460022FEF7F3FC4046FEF7CCFC90B141E0099B089A9A1897420AD008A8FFF7D2FE002837D101230993039B08970B9301E001330993029B039966
:406980005B1B019A029363684919521BAA44ED186560736803919D42019207D91BB1194B93F880300BB9012104917560019A1AB101374FF0000B9CE7029B002B7FF46CAFA2
:4069C00008A8FFF7A3FE04995546002818BF002529B1304610A9FFF7FFFE00E05546059A954205D0B4F9083013B94FF6F87323810CA8FEF7B1FC10A8FEF7AEFC284615B04D
:406A0000BDE8F08F9099FF1F10B5002308E0C45C11F803C0013A0133644501D0012010BD002AF4D1104610BD70B5034602E003F8011C013A1C4622B103F003050133002D12
:406A4000F5D193081ED04FF001354D4308E044F8105C44F80C5C44F8085C44F8045C043B032BA44604F11004F1DC1C46002603E04CF80650013B0436002BF9D102F00302BE
:406A80000CEB8404002302E0E154013A0133002AFAD170BD002310F803C0CA5C624501D0012070470133002AF5D110467047002300E00133C25C002AFBD11846704710B5D2
:406AC00000230BE0C45C11F803C0644501D0012010BDC4186478013314B1013A002AF1DC002010BDA0F16103192B98BF00F0DF007047C9B203E00BB918467047013003786B
:406B00008B42F8D1704742780178431C42EA01205A789B7842EA002043EA002070478378C27803EB0222437803EB0222037803EB0220704703460A0A03F8011B42700A0C62
:406B4000090E5A70997070470170090A417070474278037843EA022070470000094A0A4BC11C10B5146821F0030118680919814201D9002010BD11609A68586801322018A8
:406B80009A6010BD149AFF1F3484FF1F08B5FFF7E5FF00B9FEE708BDFFF7E0BF30B1044A9368013B93600BB9024A1360704700BF3484FF1F149AFF1F014B586019607047B5
:406BC0003484FF1F38B50546FFF7E0FF002104462A46FFF729FF204638BD000010B5084CA37C0BB1002010BD4FF40073238200F0F5F9A37C012043F00103A37410BD00BF2A
:406C00009099FF1F08B583680BB10020984708BD08B583680BB10120984708BD10B504680079A468A04710BD37B59DF81850046800790095E468A0473EBD08B50368007920
:406C40009B69984708BD036810B55B69044623B10079984708B1002000E00120607110BD10B5437904460BB9FFF7EDFF607910BDF7B504461F460E461546FFF7F1FF20461D
:406C8000FFF7C6FF2A463146012320460097FFF7C5FF05462046FFF7B5FF2846FEBD10B504690919BDE81040FFF7E2BFF7B5044615461F460E46FFF7D3FF2046FFF7A8FF1E
:406CC0000023009331462B463A462046FFF7ACFF05462046FFF796FF2846FEBD30B504699DF80C5009190395BDE83040FFF7DEBFF7B5044615461F460E46FFF7B1FF20464F
:406D0000FFF786FF0123009331462B463A462046FFF78AFF05462046FFF774FF2846FEBD30B504699DF80C5009190395BDE83040FFF7DEBF73B504460E461546FFF790FF46
:406D40002046FFF765FF00232A460093314601332046FFF769FF05462046FFF753FF002D14BF4FF0FF3000207CBD10B504690919BDE81040FFF7DEBF30B5054685B0FFF7C7
:406D80006FFF2B6828791C694FF47B71002201ABA04708B1002001E0BDF80C0005B030BD70B506460D46FFF75BFF336830791C694FF47B7100222B46A047002814BF4FF0EB
:406DC000FF30002070BD11F0030F70B584460B4632D110F0030F2FD195100446AC4611E053F8106CACF1040C44F8106C53F80C6C44F80C6C53F8086C44F8086C53F8046C10
:406E000044F8046C10341033BCF1030FE8D8AB081B0100EB030CCB1815F003050AD0284600215C584CF8014004310138F9D1AD00AC445B1902F0030213F0010F19462FD193
:406E40001CF0010F60462BD15410254610E031F8086C043D20F8086C31F8066C20F8066C31F8046C20F8046C31F8026C20F8026C08300831032DEAD8A108C9005B1814F07C
:406E800003048C440AD0204600215D5A2CF8015002310138F9D16400A4441B1902F00102614610E013F8040C043A01F8040C13F8030C01F8030C13F8020C01F8020C13F87D
:406EC000010C01F8010C18460433032A8C4601F10401E7DC32B10023C15C0CF8031001339342F9D170BD0378E92B01D101207047EB2B01D0002070478078902814BF00205D
:406F00000120704708B500F5FF70FFF721FE4AF65523984214BF0020012008BD01EB001000F5E370FFF7FBBDF0B50D4685B01446064658B352B300210B46FFF799FE0028DC
:406F400024DB2046FFF7DEFF00B32046FFF7CBFF10B10024274616E02146FFF7DFFF074604F5E570FFF7DBFD01A904463046FFF717FF5CB157B1E219FF23120AB2FBF3F2BE
:406F8000029B9A4202D81DB12C6001E04FF0FF37384605B0F0BD000073B50446FFF7ECFE0646FEF765F80C4B05461B8AB3420DD366B1204601A92A46FFF7B6FFB0F1FF3FC1
:406FC00004D02061019B6361002400E0FF242846FEF764F860B27CBD9099FF1F80B500AF4FF480510348FFF7E7FD0348FEF77EFA00BF80BD4084FF1F208F000080B485B099
:4070000000AF0023FB810023BB8100237B8101233B810123FB800023BB80FB895B089BB21A46BB895B011A447B89DB0213443B603A89FB885B011A44BB885B0213441B042C
:407040003A6813433B603B6818461437BD4680BC704700BF4FF6FF7070470000014B1868704700BF4094FF1F00487047408F000000F098BD37B501220DF10701054600F07A
:40708000A9FD9DF80740FF2C14BF0A240724284601220DF1070100F09DFD9DF80700FF2803D1013CE4B2002CF1D13EBD37B50469857828460DF10701012200F08BFD9DF889
:4070C00007300BB1002003E0013CF2D14FF0FF303EBD37B54FF0FF3305460C468DF8073006E028460DF10701012200F08FFD013C002CF6DC3EBD000038B5094C2368032B51
:4071000002DD4FF0FF3509E0DDB2013323601420FFF758FD04EB850460608570284638BD4094FF1F08B5034B4FF400711B68984708BD00BFE881FF1F4FEAD20CACEBD1031F
:40714000CCF10F0C10B501336044002410F801CB013B4CEA0424F9D101F00703511A02228A40DC40013A04EA020010BD7FB5130E85788DF80530130C01F03F018DF80630BF
:40718000130A41F040018DF8073000238DF808208DF804101A4601A911F802C000215B00DBB283EA0C0E1EF0800F18BF83F009030131082904D04FEA4C0C5FFA8CFCEEE745
:4071C0000132052AE7D15B0043F001038DF809308678C4680122304603A900F0FBFC9DF80C30FF2B04D00CB9FF2009E0013CF1E7284601A9062200F009FD2846FFF73AFF4B
:4072000004B070BDF7B5847806460F4620460121FFF75FFF204600F011FC304609210022FFF7A4FF8DF8070028BBF6680546012220460DF1060100F0CDFC9DF80630FE2B37
