:400000000080002011000000450400004504000008B5044B1A6803F53F5302331A6000F019FA00BFFA46004010B5054C237833B9044B13B10448AFF300800123237010BDD2
:400040003081FF1F0000000088080000084B10B51BB108490848AFF300800848036803B910BD074B002BFBD0BDE81040184700BF000000003481FF1F88080000C880FF1F12
:4000800000000000F8B562B600F02EF8002637463546012400E00446114B1B7823B1114B5978187800F02AF89DB1721C42F210739E420AD97E1CF6B207F1640000F03EFA4A
:4000C000632E04D83746002603E0164601E00026374600F07FFB8442DDD285F00105DAE75981FF1F5081FF1F08B500F065FB00F0E7FA00F069FA002008BD00BF70B5082801
:400100001ED006D8022812D0042815D001282ED10AE020281ED002D8102818D027E040281FD0802862D022E0314B59701FE0490819312F4B19701AE019392D4B197116E034
:400140002B4BD97001F1640000F0F8F970BD284B99700CE0264B0A095A7101F00F01997105E0234B0A09DA7101F00F011972204A92F90450ADB25378E81AC83080B21D445D
:400180006435ADB294781378E61AC836B6B25B421C1BC834A4B2C82802D8632802D902E0C82000E06420C82D02D8632D02D902E0C82500E06425C82E02D8632E02D902E036
:4001C000C82600E06426C82C02D8632C02D902E0C82400E0642400F095FA284600F098FA304600F013FA204600F016FA70BD00BF5C81FF1FFEE700BFF0B40022174611E052
:4002000050F82760F3B226F0FF0608E001EB420511F812406D78A5550132013BDBB2002BF4D101371B2FEBD9F0BC7047064B1B78DBB203F00701054A11701B09013213702F
:400240004422034B1A707047CF0100496E5800407658004008B50A46002100F00CFB08BD38B5EF22264B1A801823264A13704FF49C7102321180023213700222224B1A7054
:4002800008224FF040231A70032103F5007319701E4B1B78DBB21E490B701E4B1A8041F25122023B1A80002419250CE01A4B1B7803F0010343EA440404F003044FF4F07095
:4002C00000F092FA013D0DB1032CEFD115B90320FFF790FF114B4FF480721A8007221A7000220F490A704820023108701A700222033B1A700B4A137843F00303137038BD35
:4003000080400040824000400043004008010049A146004022420040254200400440004006400040A243004008B500F099FA08BD38B572B6304A137843F004031370002445
:400340000CE02E4D630019194A0011462A44084691882858FFF77EFF0134E4B2062CF0D927494FF09040FFF747FF264A137843F0020313701032137843F002031370224CEB
:40038000237843F040032370A2F58632513A137843F01003137008221C491D48FFF7C4FF0A221C491C48FFF7BFFF08221B491C48FFF7BAFF08221B491B48FFF7B5FF0A22AD
:4003C0001A491B48FFF7B0FF1A4A137843F008031370194D61232B70FFF742FF81232B700122164B1A70FFF721FF0E2221461448FFF79AFF38BD00BFE84600408C0800008B
:400400007000004803500140A043004014060048025100401C060048C051004028060048F251004030060048125100403806004820510040224300400048004004000840D3
:40044000B043004008B500F0DFF903680C2B00D1FEE7FEE708B5104E104D16E029686B68AC68002204E051F8040B43F8040B0432A242F8D1E868002203E0002143F8041B46
:4004800004328242F9D11035013E002EE6D100F0C1F9FFF7F7FDFEE701000000DC08000008B5104A104B1A60104A136843F40073136000230AE0032B03D80D4A52F82310E9
:4004C00000E00C490C4A42F8231001332F2BF2D90A4B1A780A4B1A70074A0A4B1A60FFF727FF08BD0004FA050CED00E014ED00E000000000450400000080FF1FBC760040CE
:40050000C080FF1F08ED00E0084A137843F0010313701032137843F00103137002F64D32137843F001031370704700BFA3430040014B1880704700BF044F0040014B188041
:40054000704700BF064F0040014B1870704700BF034F004008B5194A137843F0020313700232137803F08F0343F010031370144B1A7802F0CF021A701A7842F030021A7063
:400580001A7802F0F0021A701A7842F00F021A7040F2CF70FFF7CCFF6420FFF7CFFF0020FFF7D2FF074A137843F00103137002F65E32137843F00103137008BD004F0040C4
:4005C0000B4F0040A343004008B5054B1B7823B9FFF7C0FF0122024B1A70FFF795FF08BD4C81FF1F024A137843F080031370704772640040014B1880704700BF04680040F3
:40060000014B1880704700BF84680040014B1880704700BF44680040014B1880704700BF64680040014B1870704700BF83640040014B1878704700BF63640040014B1888D2
:4006400080B27047A468004008B501E0FFF7F6FFFFF7EEFF10F0100FF8D108BD10B5164A137803F0C00343F0090313702032137843F001031370114C237843F001032370AB
:4006800040F2CF70FFF7B6FF40F2CF70FFF7B8FF9620FFF7BBFF9620FFF7BEFF0020FFF7C1FF00F0A9F8237843F01003237000F0A7F8FFF7C9FF10BD7264004093640040EF
:4006C00008B5054B1B7823B9FFF7C8FF0122024B1A70FFF787FF08BD4D81FF1F024A137843F080031370704775640040014B1880704700BF08680040014B1880704700BF56
:4007000088680040014B1880704700BF48680040014B1880704700BF68680040014B1870704700BF85640040014B1878704700BF65640040014B188880B27047A8680040E2
:4007400008B501E0FFF7F6FFFFF7EEFF10F0100FF8D108BD10B5164A137803F0C00343F0090313701F32137843F001031370114C237843F00103237040F2CF70FFF7B6FFC4
:4007800040F2CF70FFF7B8FF9620FFF7BBFF9620FFF7BEFF0020FFF7C1FF00F02DF8237843F01003237000F02BF8FFF7C9FF10BD756400409564004008B5054B1B7823B981
:4007C000FFF7C8FF0122024B1A70FFF787FF08BD4E81FF1F024B1878C0F38000704700BF21510040000000000230800803D000BF01380046FCD17047EFF3108072B670473C
:4008000080F31088704700BF014B1868704700BF2C81FF1F0E4B70B51E460E4C0025E41AA410A54204D056F8253098470135F8E700F042F8084B094C1E46E41AA4100025B8
:40084000A54204D056F8253098470135F8E770BDC4080000C4080000C4080000CC08000010B5431E0A44914204D011F8014B03F8014FF8E710BD03460244934202D003F829
:40088000011BFAE77047000000000000004F00400C0030510040400000000140001000140140000800400140000A004C014000020050014020004300F8B500BFF8BC08BC48
:4008C0009E4670474D000000A1040000F8B500BFF8BC08BC9E46704729000000F0080000C880FF1F68000000380000000000000000000000000000000000000000000000C5
:400900000000000000000000000000000000000000000000B608000000000000000000000000000000000000000000000000000000000000000000000000000000000000F9
:400940000000000000000000000000000000000000000000CC80FF1F000000000000000000000000000000000000000000000000000000000000000000000000000000000D
:400980000000000000000000000000000000000000000000000000000000000000000000000000000000000000000000000000000000000000000000000000000000000037
:4009C00000000000000000000000000000000000000000000000000000000000000000000000000000000000000000000000000000000000000000000000000000000000F7
:400A000000000000000000000000000000000000000000000000000000000000000000000000000000000000000000000000000000000000000000000000000000000000B6
:400A40000000000000000000000000000000000000000000000000000000000000000000000000000000000000000000000000000000000000000000000000000000000076
:020000040003F7
:0200000480007A
:40000000014F00400552004003640040026500404902014027030140480401402D050140010701405A0801403B090140010B014002170140451801403C1901404F1A01405E
:40004000431B0140034001400B4101400642014007430140034601400147014007480140014C0140074D014006500140015101400A3600600121618064407820830F850FC7
:40008000890F88388B7202011602170127012E023101320134024030410649FF4AFF4BFF4DA04F0450185280580459045A045B045F01604062C06440654066C068C06AC060
:4000C0006CC06EC080028F0197029B049E02A104A601A702B001B302B504B602B701BF04C030C106C5D5C601C702C817C9FFCAFFCBFFCDAFCE0FCF04D018D407D804D904B2
:40010000DA04DB04DF01E040E2C0E440E540E6C0E8C0EAC0ECC0EEC00001078009800D081020158019821D0C1F1020012214260229062C20302032083504398041084508DB
:40014000482049014A084E0851C0520859815A2877808704C018C221C484CA43CC46CE08D042D224D60F0C01130117022B022E013101330234014030410649FF4AFF4BFF33
:400180004DA04F045018580459045A045F01604062C06440654066C068C06AC06CC06EC0830486018B029201A602A701AB02AD01B002B201B304B502B701BF10C020C10669
:4001C000C5D0C610C752C83AC9FFCAFFCBFFCDAFCE0FCF04D018D280D407D804D904DA04DB04DF01E040E2C0E440E540E6C0E8C0EAC0ECC0EEC0004007200C02100216206D
:4002000019201F06204022042410264827282A202C082F22300232083C124010472048084C084D01540A562057205D215E805F08740186049708AE02B310C021C210C42100
:40024000CA74CC03CEA0D022D224D6F0E408EA20E60202020503060607040B080E0115031603170C23052406250A2601270429032A052B043207330F3A083B0840034604F4
:4002800049FF4A074BFF4C404D204EF04F055008580459045A045C115D015F01604061A86240632082018401851488018F039004951C9601972299309B0CA002A110A509A6
:4002C000A601A710A92CAB11AD40B001B204B360B402B71FB908BE15C025C103C6CEC70BC81CC9FFCAFFCBFFCEF0CF44D00CD401D604D804D904DA04DB04DC10DD11DF01AE
:40030000E6C0EA40EB02001203100642072008050A200BA00E20103013061504171019041A401B201C101E201F08214022042332260827102B992D042E022F18300433105C
:400340003608380839803F34401043104508480150245340540156425781581159045A40634083208740C0BEC22CC46CCAEFCC46CE6AD046D208D60FD801E404E408E2015D
:40038000E602030204040701080209040C040F041004110414031B011E01230224042704280331043203330236043701380839223A023E443F5454185604580459045B040D
:4003C0005C115D105F018105820383808401856486068713880C89038A038D648F0B9102971B9A0C9B049D40A17FA208A560A801A920AA0EAD1FAF60B20FB37CB580B703CF
:40040000BA08BB08D804D904DC11DF010012031004D806200A080C080E600F421008124014101508171018101A201D091E422021210422202515270129952C102F80308088
:400440003222330435013720388239283C403D023E203F084504469047015C016480669081108480920896209A409B10A001A210A301A508C0EEC2B2C46ACACFCCAFCEFF0C
:40048000D680D8B0000C0121034A0413060C080C09020A130B150C01100F121014031544172A19671C1F20082613280429672C02301C3360340F350737183A223F40580475
:4004C00059045C115F01810685088D068F019108970199029D04A107A507A908AD01AF06B307B508C063C105C202C401C60EC70CC814C9FFCAFFCBFFCC62CDA0CEF0CF4196
:40050000D00CD602D713D904DA04DB04DC10DD11DF01E640E702E910EA30EB10ED10EE10EF120026014003400A6310801286130818CC1A4021982210272C2B082C102D80BE
:400540002E012F0830203108351036803705380239203C423D04458047284C044E014F4057845E026C206D046F09748075147604810C820283408C018D409340948A952026
:40058000981099809D149F24A010A201A480A602A784B580B620C00FC20DC40FCAF4CCF6CED5D070D230D68032203520CC30584063026410668084409D20A620D480D6C05A
:4005C000D880E6109D20A620A701AE80B010EA401B0186209D20A620A701C610E64057208720D40280016604820485209D20D880E280E6409002128070018E809002C408D9
:40060000DC01E202000308010A010C0210021C02000F000000E1E100E1000000C00000C000008000000000000020200020000000000B0B0000000000040000060200000070
:40064000000000000000000000000000000000000000000000000000000000000000000000000000000000000000000000000000000000000000000000000000000000007A
:40068000000000000000000000000000000000000000000000000000000000000000000000000000000000000000000000000000000000000000000000000000000000003A
:4006C00000000000000000000000000000000000000000000000000000000000000000000000000000000000000000000000000000000000000000000000000000000000FA
:4007000000000000000000000000000000000000000000000000000000000000000000000000000000000000000000000000000000000000000000000000000000000000B9
:0200000490006A
:0400000000004005B7
:0200000490105A
:04000000BC90ACAF55
:0200000490303A
:020000001A3DA7
:0200000490402A
:4000000000000000000000000000000000000000000000000000000000000000000000000000000000000000000000000000000000000000000000000000000000000000C0
:400040000000000000000000000000000000000000000000000000000000000000000000000000000000000000000000000000000000000000000000000000000000000080
:400080000000000000000000000000000000000000000000000000000000000000000000000000000000000000000000000000000000000000000000000000000000000040
:4000C0000000000000000000000000000000000000000000000000000000000000000000000000000000000000000000000000000000000000000000000000000000000000
:0200000490501A
:0C00000000012E16106900012E1B2AA61C
:00000001FF